:0200000480007A
:100000007370043073504030971100109381819CBD
:1000100017010110130101FF971200009382427231
:100020007390523073F05130170500001305850AA4
:10003000970500009385050A6302B50217A6000024
:100040001306C6DA63FCC5008322050023A0550011
:100050001305450093854500E3E8C5FE17A500009C
:100060001305C5D8970500109385C5F91386018738
:1000700063FCC5008322050023A05500130545003D
:1000800093854500E3E8C5FE138501879735001089
:10009000938545AF6378B50023200500130545001F
:1000A000E36CB5FEEF10C037171500001305857718
:1000B000EF10C075EF10407CEF1080421305000078
:1000C00093050000EF00C000EF1000676F00000014
:1000D000130101F613050003232E1108232C8108B8
:1000E000232A9108232821092326310923244109A1
:1000F0002322510923206109232E7107232C810714
:10010000232A91072328A1072326B107EF30D074B3
:1001100093828189130405001305000323A0820044
:1001200023225100EF3050731793000017970000FF
:100130009304030B1309076703C6E401832F4900E7
:1001400003A8840183D5C40183A8440103AEC4007D
:1001500083AE840003AF440083A3040083A9040199
:10016000032A0900930A05002320850023220500A5
:10017000138CC18913052000130B8002832689008C
:100180002387CA022322F10523A40A032396BA0275
:1001900023A21A0323AECA0123ACDA0123AAEA017F
:1001A000832CC900032D0901832D490123A87A005E
:1001B00023A4AA0023A66A0123205C0123A03A03FA
:1001C0002320810123204105032489018352C90191
:1001D0000343E901970700109794000013898717DC
:1001E0001307A0001385C454231E51042324D104F3
:1001F000230F6104232EE964232691052328A105FA
:10020000232AB105232C8104EF20806097930000FE
:100210001385C3FEEF20C05F179F00001305CF506A
:10022000EF20005F979E000013854E00EF20405E98
:10023000179E000013054E4FEF20805D9799000038
:100240001385C901EF20C05C979800001385C84D45
:10025000EF20005C17980000B7A5070093850512F2
:100260001305C803EF20C05A13050000EF00900FDC
:1002700013060500938F8187130500002324F101E5
:1002800023A0CF00EF00100A930A05001305000019
:10029000938B018723AA5187EF00D00423A0AB00E2
:1002A000832D0C00B7A2070023267101138B118840
:1002B000938A418993041000938BC1871304200013
:1002C000130D1000930C0004138C1212EF00D01EBB
:1002D000EF00901F179300009307834E03A90700B8
:1002E00083A3470003AF870083AEC70003AE0701B7
:1002F00083A9470183A8870103D7C70103C8E70182
:100300009305010213050104232E810023202103FC
:10031000232271022324E1032326D1032328C103CE
:10032000232A3103232C1103231EE102230F01038F
:10033000232AA101EF009045930505000325C10183
:1003400013B6150023A0CB006348A4029310250028
:10035000338AA000930FDAFF130681019305300062
:10036000232CF101EF0050148326C10113851600E0
:10037000232EA100E35CA4FC83258101EF00500043
:1003800013850D00EF00D01883490B0063FE3C532A
:10039000130A1004130930006F00000113061A003D
:1003A000137AF60F63E449099305300413050A0034
:1003B000EF00007183224101E31255FE93054101D4
:1003C00013050000EF005002179500009307454108
:1003D00003A3070083A3470003AF870083AEC700D2
:1003E00003AE070183A8470103A8870103D7C7010C
:1003F00083C5E70113061A0023206102232271023C
:100400002324E1032326D1032328C103232A110334
:10041000232C0103231EE102230FB10223A09A0023
:10042000137AF60F13890400E3F049F98320C10120
:10043000032A810193841400330919021305C101B1
:10044000B3494903232E3101EF001022E39084E9E0
:1004500013050000EF000069930D0500138D8188DE
:10046000130500002320BD01EF00C06F93840189B4
:10047000930C05001305000023A09401EF00806A8F
:1004800097960000930F0500138506E423A6F189D3
:10049000EF2000381795000013050529EF2040379D
:1004A00097970000138507E3EF208036179300002D
:1004B00013058327EF20C03583A50A00979A000013
:1004C0001385CAE4EF20C034979300001385C3E579
:1004D00093055000EF20C03383A50B00979B0000CD
:1004E00013854BE6EF20C032179F00001305CFE3C2
:1004F00093051000EF20C03183C50188179E0000CE
:1005000013050EE6EF20C03097980000138508E72A
:1005100093051004EF20C02F83450B00179B0000AC
:1005200013058BE7EF20C02E17980000130508E590
:1005300093052004EF20C02D9385418B83A50502F0
:1005400017960000130506E7EF20802C979D00000A
:100550009305700013858DDD17040010EF20402BEC
:10056000930C44DF83A5CC65179C000013054CE673
:10057000EF20002A979F000013854FE7EF204029C6
:1005800097960000138546E9EF208028832A010012
:1005900017950000130505E983A20A00979B000048
:1005A000179B000083A50200979D0000179C000088
:1005B000EF20002697970000138587E8EF2040255D
:1005C00003A30A00979300001385C3EA8325430021
:1005D000330A494113193A00EF20802393050000A4
:1005E00013858BD8EF20C02203AF0A00979E00002E
:1005F00013850EEA83258F00979B0000EF20402192
:10060000179E000013054ED293052000EF204020D6
:1006100083A80A0013058BF0179B000083A5C80070
:10062000EF20001F17980000130508D09305100154
:10063000EF20001E03A70A00979500001385C5E868
:1006400093050701EF20C01C17960000130586E9EB
:10065000EF20001C13850DF7EF20801B03244100C1
:1006600013054CE7979A0000832C0400979D000027
:10067000179C000083A50C00979C0000EF204019F8
:10068000979F00001385CFEAEF208018832604008F
:100690001385CAE0979A000083A54600EF20401713
:1006A00097920000138542C893050000EF20401682
:1006B0008327040017950000130585DD83A58700B7
:1006C000EF20001517930000130503C693051000D3
:1006D000EF2000148323040013850BEB83A5C300D4
:1006E000EF200013179F000013050FC4930520018E
:1006F000EF200012832E0400179E00001305CEDCAD
:1007000093850E01EF20C01097980000138588DDB7
:10071000EF2000108325C10113054BF5179400004D
:10072000EF20000F17980000130508C09305500034
:10073000EF20000E3307494117960000B3053741FB
:10074000130506E5EF20C00C979900009305D00033
:100750001385C9BDEF20C00B8325810113858DF35F
:10076000138B018AEF20C00A93057000130584C023
:10077000EF20000A8325410113858CF4EF20400906
:100780009305100013054CCBEF208008979F0000C5
:1007900013850FE593050104EF208007979500006E
:1007A0001385C5E5EF20C00697960000930501026A
:1007B000138586E8EF20C00513858AFBEF204005EE
:1007C00097920000138542F6EF2080048327C10032
:1007D00003A3040083248100032D0D0003A507005B
:1007E00083A30400930E10003305AD40330F734014
:1007F0002320AB0063DEEE0D138A4188EF80C072C8
:10080000170E001083250EA397990000979D0000F6
:10081000EF80003E970800109305050003A508A28D
:1008200017940000979C0000EF80803C1708001090
:100830008325C8A0EF80C03B1796000037A70700AC
:100840009305071213090500130546EA23202A0120
:10085000EF10107C83250B00138589F1EF10507B7E
:100860001385CDF1EF10D07A03250A00EF80407C8C
:100870001306050093860500130584F3EF105079E5
:1008800013850CF0EF10D0788320C109032481096F
:1008900083244109032901098329C108032A810806
:1008A000832A4108032B0108832BC107032C8107EE
:1008B000832C4107032D0107832DC106130500007A
:1008C0001301010A67800000130930006FF01FB6A2
:1008D000179C000013054CDBEF109073979F0000EE
:1008E00013850FDEEF10D072979500001385C5E3D6
:1008F000EF1010726FF05FF9B7C7000283A687FF91
:1009000083A7C7FF130101FF2326110023248100C1
:100910002322910093800600B7C5000203A785FF3C
:1009200083A7C5FF93020700732600B0E388E0FEAB
:1009300037C30002032483FF8324C3FF33045440DE
:10094000F32300B0E368A4FEB384C34033F8840209
:1009500013060400930600001315F80093551801C0
:10096000EF70D065B3D884028320C10003248100D6
:100970008324410013010101139EF8003305AE00EA
:1009800067800000130101FF1305100023261100EA
:10099000EFF09FF68320C10013054006130101010B
:1009A0006FF09FF517070000972700109302C74EBE
:1009B0001383C70D23205300232253002324530005
:1009C0002326530023285300232A5300232C5300AB
:1009D000232E5300232053022322530223245302A5
:1009E0006780000097070000172700109726001067
:1009F0009382C74F1303870C93830607232053006A
:100A0000232253002324530023265300232853007A
:100A1000232A5300232C5300232E53002320530258
:100A20002322530223245302232653022328530252
:100A3000232A5302232C5302232E53022320530430
:100A400023A0530023A2530023A4530023A6530042
:100A500023A8530023AA530023AC530023AE530012
:100A600023A0530223A2530267800000931745017D
:100A700093D247011307A0006362570217260010A4
:100A80009396220013088600B308D80083A30800B9
:100A9000639A03001305000067800000170300003D
:100AA0009303433F130101FF23261100E780030056
:100AB0008320C100130500001301010167800000BD
:100AC0006306B50013050000678000002380A1883D
:100AD00013051000678000001305E5FF13351500AE
:100AE00067800000130101FFF32700B82326F100FF
:100AF000F32200B023245100732300B823226100A5
:100B00000327C1008323410063067700732500B0EB
:100B10002324A10083274100032581001301010143
:100B200067800000130101FFF32720B82326F1009E
:100B3000F32220B023245100732320B82322610024
:100B40000327C1008323410063067700732520B08B
:100B50002324A10083274100032581001301010103
:100B600067800000B7C7000203A787FF83A2C7FF03
:100B70001353F70013951201336565006780000079
:100B8000130655009306800CB302D60213152500F8
:100B900097F7FF0F9383C77B170800109318260061
:100BA000138F418BB30F1F0123A0BF003383A2001B
:100BB000330E7300832E0E0193024875232ACE0054
:100BC00093861E00232CCE002328DE00330553001D
:100BD00023A2BF0023ACCF06232AB5001306500082
:100BE00023AAC18867800000130101FF232481002C
:100BF000232291001304050023261100938405008D
:100C0000EFF09FED93070400631405009307300095
:100C100023A0F40093002000630C140463CA800234
:100C2000630C040013031000631A640003A54189D8
:100C30009305400663DCA50423A004008320C100C3
:100C40000324810083244100130101016780000017
:100C500013074000E314E4FE23A0140003248100E2
:100C60008320C1008324410013010101678000003B
:100C70008320C100032481009302100023A05400AC
:100C80008324410013010101678000008320C1001B
:100C9000032481001306300023A0C40083244100F4
:100CA000130101016780000013052500B302B500A0
:100CB0002320560067800000130710042380E1887A
:100CC00023AE01866780000083C201881383C18739
:100CD000832603009383F2FB13B51300B365D5009D
:100CE000130820042320B300A3800189678000003B
:100CF00003A6C1896306060083220600232055004F
:100D000083A541891306C6001305A0006FF0DFF923
:100D1000130101FF2320210103A9C189232481009C
:100D20000324050003270900232611002322910034
:100D3000832E4900032E89000323090183284901DA
:100D40000328890183250902032649028326890293
:100D50008320C902930405000325C9012320E40070
:100D600083A2040093035000232EA4002322D40165
:100D70002324C40123286400232A1401232C040102
:100D80002320B4022322C4022324D40223261402E3
:100D900023A67400232674002320540013050400A6
:100DA000EFF01FF5032F440063000F0883AF04002A
:100DB0008320C10003A44F0003A90F0083AE8F005E
:100DC00003AECF0003A30F0183A84F0103A88F0137
:100DD00003A5CF0183A50F0203A64F0203A78F022D
:100DE00083A7CF0223A284000324810023A024012F
:100DF00023A4D40123A6C40123A8640023AA1401B8
:100E000023AC040123AEA40023A0B40223A2C40295
:100E100023A4E40223A6F402032901008324410051
:100E2000130101016780000003A5840093046000A2
:100E30009305840023269400EFF01FDB832609002E
:100E40000325C4001306C4002320D400032481001A
:100E50008320C10083244100032901009305A000E1
:100E6000130101016FF05FE403C7018893021004CE
:100E700063045700678000000323050083A54189B0
:100E800013069300B306B6402320D5006780000008
:100E9000130101FF232481001304050017850000BE
:100EA0001305452723261100EF10901697820000A6
:100EB0009305040013858227EF109015F325103455
:100EC0001783000013054327EF109014F3253034E7
:100ED0009783000013854327EF1090136F000000E5
:100EE000130101FF2324810013040500178500006E
:100EF0001305852623261100EF109011978200001C
:100F00009305040013858222EF109010F32510340E
:100F10001783000013054322EF10900FF3253034A0
:100F2000032481008320C100978300001385C3211F
:100F3000130101016F10D00D178600009785000086
:100F400017850000130101FF1306062393858523EF
:100F50001305052423261100EF10900B9782000043
:100F6000178300009385C2241305C324EF10500A91
:100F700097F7FF0F8320C10083A507269783000002
:100F800013854324130101016F109008130101FF21
:100F900023229100232021012326110023248100F4
:100FA00093040500138905008345390003C5240017
:100FB000EFF01FB113040500E31805FE93050900C7
:100FC00013850400EF40407C6358A0001307A00085
:100FD00023AAE188130410008320C1001305040034
:100FE000032481008324410003290100130101012E
:100FF00067800000373701108327470193F21700FD
:10100000E38C02FE032507001375F50F67800000CF
:10101000373701108327470193F20702E38C02FE62
:101020002320A70067800000372701108327C7010E
:10103000B7060300B3E2D700232E570067800000F5
:1010400097F7FF0F83A2071937C701001303072083
:10105000B3D3620237350110930600082326D5006A
:10106000130E600C930E30009385F3FF13D68500AA
:101070001378F60F2322050193F8F50F23201501AD
:101080002324C5012326D5016780000013079000A3
:1010900023A2E18A1305F0FF67800000730050105F
:1010A0006FF0DFFF1305F5FF9307100063EAA70059
:1010B0003723000023A265001305000067800000AD
:1010C0001307900023A2E18A1305F0FF6780000058
:1010D00013051000678000001305100067800000F2
:1010E0001307600123A2E18A1305F0FF6780000067
:1010F0001305000067800000630605001305F0FF7C
:1011000067800000130101FF2324810023261100C2
:1011100013840500EFF01FEE2300A4008320C1001C
:1011200003248100130510001301010167800000F2
:1011300097F7FF0F9382470A83A602001727001034
:10114000130347A43385A600636E650097E3001080
:101150009385436B63E8A50023A0A20013850600D6
:10116000678000009306F0FF13850600678000008B
:10117000130101FE2328210123263101232E110012
:10118000232C8100232A9100232441011389050087
:1011900093090600EF10807063000528130409000E
:1011A000330A3901638C090AB3072A4193F07700A7
:1011B0009304A000638E0012130710006386E008FA
:1011C00093022000638A500613033000638E60048C
:1011D0009303400063827004130550006386A002ED
:1011E00093056000638AB00003450900630E9520F3
:1011F000EFF01FE21304190003450400630E951E6F
:10120000EFF01FE11304140003450400630E951C66
:10121000EFF01FE01304140003450400630E951A59
:10122000EFF01FDF1304140003450400630E95164E
:10123000EFF01FDE13041400034504006306951845
:10124000EFF01FDD13041400034504006306951638
:1012500013041400EFF0DFDB631C4409138509005D
:101260008320C10103248101832441010329010159
:101270008329C100032A8100130101026780000055
:101280001305D000EFF0DFD8034504001309140064
:10129000EFF01FD80345140063089506EFF05FD701
:1012A00003451900630E9506EFF09FD6034529000C
:1012B00063049508EFF0DFD503453900630A95080C
:1012C000EFF01FD5034549006300950AEFF05FD4A6
:1012D000034559006306950AEFF09FD30345690063
:1012E000630C950A13047900EFF09FD2E30844F7EA
:1012F00003450400E30695F8EFF09FD10345140081
:1013000013091400E31C95F81305D000EFF05FD02B
:1013100003451400EFF0DFCF03451900E31695F8FD
:101320001305D000EFF0DFCE03451900EFF05FCEDC
:1013300003452900E31095F81305D000EFF05FCDC9
:1013400003452900EFF0DFCC03453900E31A95F699
:101350001305D000EFF0DFCB03453900EFF05FCB92
:1013600003454900E31495F61305D000EFF05FCA7A
:1013700003454900EFF0DFC903455900E31E95F42A
:101380001305D000EFF0DFC803455900EFF05FC848
:1013900003456900E31895F41305D000EFF05FC72B
:1013A000034569006FF01FF41305D000EFF05FC62E
:1013B000034504006FF0DFE71305D000EFF05FC5D1
:1013C000034504006FF0DFE81305D000EFF05FC4C1
:1013D000034504006FF0DFE61305D000EFF05FC3B4
:1013E000034504006FF0DFE31305D000EFF05FC2A8
:1013F000034504006FF0DFE11305D000EFF05FC19B
:10140000034504006FF0DFDF1305D000EFF05FC08D
:10141000034509006FF0DFDD1305F0FF6FF05FE4B7
:1014200037B7C40497F7FF0F9302074023A657DA94
:101430006780000063580504130101FF2326110093
:10144000931045012324810093D240011307B0007B
:10145000638CE2021713001093932200130483603D
:10146000330674008326060063840600E7800600C6
:101470008320C10003248100130500001301010132
:10148000678000006FF08FDE732840F1370E200C6C
:101490009318C800930E4E00338FD80103240F0019
:1014A000930F0001E3E68FFC9710001093172400C0
:1014B000938280603387F2000323070063040300F4
:1014C000E7000300732540F1B703200C9315C50016
:1014D00013864300B386C50023A086006FF05FF932
:1014E000130101FF23261100EFF0CFC997F7FF0F7B
:1014F00023A2A7CEEFF05FB3EFF09FB4EFF0DFA32E
:10150000EFF04FCAEFF00FCEF32640F13727000C73
:10151000939276003383E20003260300B703000CA6
:101520001375E6FF2320A30023A00300F32540F159
:1015300013987500B308E80003AE0800937EDEFF41
:1015400023A0D80123A20300732F40F1931F7F0033
:10155000B387EF0083A6070093F2B6FF23A05700DE
:1015600023A40300732340F1131673003305E60030
:101570008325050013F875FF2320050123A603002A
:10158000F32840F1139E7800B30EEE0003AF0E0077
:10159000937FFFFE23A0FE0123A80300F32740F161
:1015A00093967700B382E60003A302001376F3FD5F
:1015B00023A0C20023AA0300732540F193157500F0
:1015C0003388E5008328080013FEF8FB2320C801B8
:1015D00023AC0300F32E40F1139F7E00B30FEF0006
:1015E00083A70F0093F6F7F723A0DF0023AE0300D5
:1015F000F32240F1139372003305E3000326050044
:101600009375F6EF2320B50023A00302732840F161
:1016100093187800338EE800832E0E0013FFFEDF50
:101620002320EE0123A20302F32F40F193977F00C2
:10163000B386E70083A2060013F3F2BF23A066007F
:1016400023A40302732540F1131675003308E60046
:1016500083250800B7F8FFFF138EF87FB3FEC5019E
:101660002320D80123A60302732F40F1931F7F008C
:10167000B387EF0083A607009382F8FF33F3560089
:1016800023A0670023A80302732540F113167500F9
:101690003308E60083280800B7E5FFFF138EF5FF47
:1016A000B3FEC8012320D80123AA0302732F40F1FF
:1016B000931F7F00B387EF0083A60700B7C2FFFF29
:1016C0001383F2FF33F5660023A0A70023AC0302C7
:1016D000732640F113187600B308E80003AE080043
:1016E000B785FFFF938EF5FF337FDE0123A0E8016E
:1016F00023AE0302F32F40F193977F003387E70077
:1017000083260700B702FFFF1383F2FF33F566005D
:101710002320A70023A00304F32340F13708200C63
:101720008320C1001396C300B308060123A008005C
:10173000130101016780000067800000130101FBB5
:10174000232011002322410023245100232661007D
:1017500023287100232AA100232CB100232EC100CD
:101760002320D1022322E1022324F102232C0103AE
:10177000232E11032320C1052322D1052324E105B3
:101780002326F105F322103423265102F3222034BC
:1017900023285102F3220030232A510273252034DA
:1017A00093050100EFF01FC98322C1027390123428
:1017B0008322010373902234832241037390023009
:1017C0008320010003224100832281000323C10002
:1017D0008323010103254101832581010326C101E2
:1017E0008326010203274102832781020328810304
:1017F0008328C103032E0104832E4104032F810497
:10180000832FC104130101057300203093050500E7
:101810009306000013060000130500006F10400837
:10182000130101FF2324810023229100178400006B
:101830001304C45B978400009384445B3304944096
:101840002326110013542440631C04008320C1008C
:1018500003248100832441001301010167800000FB
:101860001304F4FF93172400B387F40083A7070041
:10187000E78007006FF05FFD130101FF2324810063
:10188000232291001784000013044456978400001B
:101890009384C455B384844023202101232611005E
:1018A00093D4244013090000631E9902178400009A
:1018B0001304C4539784000093844453B384844036
:1018C00093D4244013090000631899028320C100B7
:1018D0000324810083244100032901001301010135
:1018E00067800000832704001309190013044400D3
:1018F000E78007006FF05FFB8327040013091900DE
:1019000013044400E78007006FF01FFC130101FD82
:101910002324810223202103232C4101232A510166
:10192000232861012326110223229102232E310153
:10193000130B0700138A0500130406001389060021
:10194000930A080013070000635806003707008059
:101950003344C7001307D0022380E70093F4F8FD57
:101960009307600493063000638AF40093075004E1
:10197000930620006394F4001309190093870A006A
:101980009308C100130881001307090093050A009A
:1019900013060400EF10C0179307700493090500A5
:1019A0006396F400137B1B0063080B069307600427
:1019B000338B2901639EF40203C7090093070003D8
:1019C0006314F702130600009306000013050A00D3
:1019D00093050400EF50D003630805009306100040
:1019E0003389264123A02A0183A70A00330BFB0079
:1019F000130600009306000013050A009305040077
:101A0000EF50100163140500232661011307000342
:101A10008327C10063E067058327C1000327010313
:101A20008320C10203248102B38737412320F700BA
:101A30008324410203290102032A8101832A4101EF
:101A4000032B0101138509008329C101130101033F
:101A500067800000938617002326D1002380E700CB
:101A60006FF01FFB2300C500930725001307B0028A
:101A700063D60500B305B0401307D002A300E5000C
:101A8000130790006352B708130101FF1307F10019
:101A9000130807009308A0001303300633E615036C
:101AA000930607001307F7FF13060603A38FC6FE6E
:101AB00013860500B3C51503E342C3FE9388E6FF12
:101AC00093850503A30FB7FE13860700138708004D
:101AD000636207031307000063661801130711010F
:101AE0003307D740B387E7003385A74013010101CF
:101AF00067800000834507001307170013061600D0
:101B0000A30FB6FE6FF0DFFC930700032301F5007F
:101B10009385050393074500A301B5003385A740CE
:101B200067800000130101F9232611062324810692
:101B3000232291061384050023202107232E31053B
:101B4000232C4105232A5105130A07002328610588
:101B500023267105232481051309060093890600B5
:101B6000232291052320A105232EB1039304050010
:101B7000EF20C04D032C050013050C00EF00505062
:101B8000032B040023240102834A840113770B10E2
:101B900083270A00930B0500630607141387470089
:101BA0002320EA0083A707001305010103A707000C
:101BB0002328E10003A74700232AE10003A78700A9
:101BC000232CE10083A7C700232EF100EF6050040F
:101BD0002324A4042326B404832CC40497E7FF0F12
:101BE00093874760832D840403A8070083A84700D8
:101BF000139A1C00135A1A00130608009386080053
:101C000013850D0093050A00EF604061631E050E09
:101C100097E7FF0F9387075D03A8070083A8470096
:101C200013850D00130608009386080093050A002B
:101C3000EF500075635AA00C1306000093060000D5
:101C400013850D0093850C00EF50807363560500DB
:101C50009307D002A301F40493077004178A0000CD
:101C6000130A0ABA63F65701178A0000130A8AB9E1
:101C7000137BBBFF93073000232064012328F4006B
:101C8000130B000013870900930609001306C10215
:101C90009305040013850400EF004062930CF0FFED
:101CA000631295231305F0FF8320C10603248106E8
:101CB00083244106032901068329C105032A8105DE
:101CC000832A4105032B0105832BC104032C8104C6
:101CD000832C4104032D0104832DC103130101074B
:101CE000678000009387770093F787FF138787004B
:101CF0002320EA0003A7070083A747002324E40466
:101D00002326F4046FF05FED13860D0093860C001C
:101D100013850D0093850C00EF60405063060502AB
:101D200063D60C009307D002A301F4049307700458
:101D3000178A0000130A4AADE3FC57F3178A000024
:101D4000130ACAAC6FF0DFF2832744001307F0FFD9
:101D500013FDFA0D6392E70C930760002322F40051
:101D60008326440013670B40930781022320F10070
:101D700093850D00930731022320E4002322010004
:101D800093880A001308410213860C00138504008F
:101D9000EFF0DFB79307700483254102130A0500B3
:101DA000631EFD009307D0FF63C6F5008327440040
:101DB00063DCB70C938AEAFF93FAFA0F9307500695
:101DC00063E657079385F5FF13860A00130504059C
:101DD0002322B102EFF01FC90327810293061000EE
:101DE000130B0500B307A7002328F40063C8E6001F
:101DF0000327040013771700630607009387170073
:101E00002328F40083473102E38E07E69307D002CC
:101E1000A301F4046FF01FE713077004E312EDF45D
:101E2000E39007F4930710006FF05FF393076006E9
:101E3000639EFA04832744006354B0022328B4004D
:101E4000639807000327040013771700630807024D
:101E500093871700B387B7002328F4006F000002B0
:101E6000639A0700032704009306100013771700F6
:101E700063040700938627002328D400232CB4048E
:101E8000130B00006FF01FF8930A7006832781027E
:101E900063CEF500832704002328B40093F71700CE
:101EA000E38E07FC938715006FF01FFB13071000EC
:101EB0006346B000130720003307B740B387E7003D
:101EC0006FF09FF98327040013F70740631E070292
:101ED0008326040113060A009305090013850400F4
:101EE000E7800900E30095DD8327040093F72700CE
:101EF000639E073A8327C1020325C400E356F5DA3F
:101F0000138507006FF05FDA1307500663785729CF
:101F1000032584048325C4041306000093060000EF
:101F2000EF50002F63160508930610001786000077
:101F30001306068E9305090013850400E780090047
:101F4000E30295D703274102832781026348F70004
:101F50008327040093F71700E38807F893860B00A4
:101F600013060C009305090013850400E78009009F
:101F70009307F0FFE308F5D2130A0000930AA401C7
:101F8000130BF0FF832781029387F7FFE35EFAF4D8
:101F90009306100013860A009305090013850400B8
:101FA000E7800900E30065D1130A1A006FF09FFD76
:101FB000832741026348F00A930610001786000049
:101FC000130606859305090013850400E7800900C0
:101FD000E30A95CD8327410203278102B3E7E70097
:101FE000639807008327040093F71700E38E07EE3A
:101FF00093860B0013060C0093050900138504005B
:10200000E78009009307F0FFE30EF5C8930A00008C
:10201000130BA401930BF0FF83274102B307F04099
:1020200063C2FA028326810213060A00930509009F
:1020300013850400E78009009307F0FFE316F5EA33
:102040006FF05FC69306100013060B00930509009E
:1020500013850400E7800900E30675C5938A1A001A
:102060006FF09FFB83278405832A810263D4570185
:10207000938A07006344500B130B0000130DA40157
:10208000930DF0FF832C840593870A0063D40A0024
:1020900093070000B387FC406342FB0A0327410219
:1020A00083278102634CF70A8327040093F7170004
:1020B0006396070A832A810203274102B3879A4164
:1020C000B38AEA4063D45701938A07006348500BF0
:1020D000130A0000130BA401930BF0FF0327410226
:1020E00083278102B387E74013870A0063D40A007D
:1020F00013070000B387E740E358FADE93061000A9
:1021000013060B009305090013850400E7800900FE
:10211000E30A75B9130A1A006FF05FFC93860A0090
:1021200013060A009305090013850400E7800900DF
:102130009307F0FFE312F5F46FF0DFB6930610009B
:1021400013060D009305090013850400E7800900BC
:10215000E30AB5B5130B1B006FF0DFF293860B009B
:1021600013060C009305090013850400E78009009D
:102170009307F0FFE310F5F46FF0DFB293860A00E7
:1021800033069A019305090013850400E7800900CE
:102190009307F0FFE31EF5F26FF0DFB083268102B4
:1021A000130710006346D70093F71700638A070AE6
:1021B0009306100013060A00930509001385040016
:1021C000E7800900930AF0FFE30E55AD93860B00FC
:1021D00013060C009305090013850400E78009002D
:1021E000E30255AD032584048325C40413060000CF
:1021F00093060000EF50C001630C050483268102A2
:1022000013061A00930509009386F6FF1385040050
:10221000E7800900E30855A993060B00130604059F
:102220006FF0DFE09306100013860A0093050900A3
:1022300013850400E7800900E30675A7130A1A0056
:10224000832781029387F7FFE34EFAFC6FF0DFFCF0
:10225000130A0000930AA401930BF0FF6FF05FFED6
:102260009306100013060A00930509001385040065
:10227000E7800900E31295FB6FF0DFA293061000E0
:1022800013860A009305090013850400E7800900FE
:10229000E30A65A1130A1A008327C4000327C102B9
:1022A000B387E740E34CFAFC6FF0DFC4130A000089
:1022B000930A9401130BF0FF6FF01FFE130101FD51
:1022C000232C410183A70501130A070003A78500FA
:1022D0002324810223229102232E3101232A51013A
:1022E00023261102232021032328610123267101C3
:1022F000930905001384050093040600938A0600E1
:1023000063D4E7009307070023A0F40003473404D5
:10231000630607009387170023A0F40083270400B7
:1023200093F707026388070083A7040093872700B9
:1023300023A0F4000329040013796900631E090037
:10234000130B9401930BF0FF8327C40003A7040031
:10235000B387E7406342F90883473404B336F0009B
:102360008327040093F707026390070C13063404D5
:1023700093850A0013850900E7000A009307F0FF20
:102380006308F506832704001306400003A7040032
:1023900093F767008326C400930400006398C70086
:1023A000B384E64063D404009304000083278400D0
:1023B000032704016356F700B387E740B384F400B2
:1023C000130900001304A401130BF0FF6390240908
:1023D000130500006F0000029306100013060B00A7
:1023E00093850A0013850900E7000A00631A750344
:1023F0001305F0FF8320C1020324810283244102DC
:10240000032901028329C101032A8101832A410191
:10241000032B0101832BC10013010103678000001E
:10242000130919006FF05FF23307D400130600039D
:10243000A301C7040347540493871600B307F400AD
:1024400093862600A381E7046FF05FF293061000E5
:102450001306040093850A0013850900E7000A00AB
:10246000E30865F9130919006FF05FF6130101FD28
:10247000232481022322910223202103232E3101D0
:1024800023261102232C4101232A51012328610113
:1024900003C8850193078007930405001384050092
:1024A000130906009389060063EE070193072006CF
:1024B0009386350463EE0701630C082893078005B3
:1024C0006302F81C930A2404230104056F008004AE
:1024D0009307D8F993F7F70F13065001E364F6FE5C
:1024E000177600001306863593972700B387C70039
:1024F00083A70700B387C70067800700832707000B
:10250000938A25049386470083A707002320D700DA
:102510002381F504930710006F00402783A705006F
:102520000325070013F60708930545006306060216
:10253000832705002320B70063D807001307D002C4
:10254000B307F040A301E404177600001306862CBD
:102550001308A0006F00800613F607048327050008
:102560002320B700E30A06FC9397070193D707419E
:102570006FF09FFC03A6050083270700137506086C
:1025800093854700630805002320B70083A7070051
:102590006F004001137606042320B700E30806FE0F
:1025A00083D707001307F006177600001306862668
:1025B000630EE8141308A000A301040403274400D9
:1025C0002324E400634807008325040093F5B5FF46
:1025D0002320B40063960700938A06006304070271
:1025E000938A060033F70703938AFAFF3307E6005E
:1025F000034707002380EA0013870700B3D70703C8
:10260000E37207FF930780006314F8028327040036
:1026100093F71700638E0700032744008327040104
:1026200063C8E70093070003A38FFAFE938AFAFFBB
:10263000B38656412328D400138709009306090066
:102640001306C1009305040013850400EFF01FC7B3
:10265000130AF0FF631245151305F0FF8320C10232
:102660000324810283244102032901028329C10139
:10267000032A8101832A4101032B01011301010374
:1026800067800000A38205051776000013068618F0
:10269000832504000325070013F805088327050098
:1026A00013054500630808042320A70013F715004D
:1026B0006306070093E505022320B4001308000118
:1026C000E39C07EE032704001377F7FD2320E400C3
:1026D0006FF09FEE83A7050093E7070223A0F500A4
:1026E00093078007A302F404177600001306C613AD
:1026F0006FF01FFA13F805042320A700E30808FA77
:102700009397070193D707016FF05FFA13088000D2
:102710006FF09FEA03A605008327070083A5450104
:102720001378060813854700630A08002320A700D2
:1027300083A7070023A0B7006F0080012320A70014
:102740001376060483A70700E30606FE2390B7006E
:1027500023280400938A06006FF01FEE83270700EA
:1027600003A6450093050000938647002320D70069
:1027700083AA070013850A00EF10D0146306050032
:10278000330555412322A400832744002328F40065
:10279000A30104046FF05FEA8326040113860A0094
:1027A0009305090013850400E7800900E30645EB63
:1027B0008327040093F72700639407048327C1004D
:1027C0000325C400E35CF5E8138507006FF01FE9FB
:1027D0009306100013860A00930509001385040070
:1027E000E7800900E30A65E7130A1A008327C4009B
:1027F0000327C100B387E740E34CFAFC6FF01FFCEE
:10280000130A0000930A9401130BF0FF6FF01FFEF0
:10281000130101FB23248102232611021304050066
:10282000232AB102232CC102232ED1022320E1044A
:102830002322F104232401052326110517E5FF0FA8
:102840000325C599630C050083278501639807005C
:102850002326A100EF10005B0325C100832585001E
:102860009306410313060400232ED100EF20501ECF
:102870008320C10203248102130101056780000047
:102880009307050003C7070093871700E31C07FEA3
:102890003385A7401305F5FF678000006FE0DF83F5
:1028A000930805001385818A832705006394070236
:1028B00017070010130747242320E5001305000025
:1028C0009307070063080500832705002324F70802
:1028D0009307070003A747001308F0011305F0FF53
:1028E0006340E8066382080403A88708630A0804B3
:1028F000131527003305A8002320C5000323081063
:10290000130610003316E6003363C300232068105B
:102910002320D508930620006398D800832648100A
:1029200033E6C6002322C8109306170013172700AA
:1029300023A2D700B387E70023A4B7001305000044
:1029400067800000130101FE232C8100832705010D
:1029500003A40501232E1100232A9100232821011D
:1029600023263101232441012322510163CE8718FC
:102970001304F4FF13162400138A4501B30ACA0096
:102980009309450183A70A003386C900032706007F
:102990009387170013090500B354F7026368F7081B
:1029A0003705010013080A0093880900130300008B
:1029B000130E00001305F5FF8326080093884800D6
:1029C00013084800B3F7A60093D60601B387970211
:1029D000B3869602B387670013D70701B3F7A70042
:1029E000B307FE40B386E60003A7C8FF13D3060172
:1029F000B3F6A600337EA700B387C70113570701BC
:102A00003307D74093D607413307D700135E0741FA
:102A1000B3F7A70013170701B367F70023AEF8FE5B
:102A2000E3FC0AF983270600638A070A13050900F5
:102A3000EF204013634A0506B70601009384140093
:102A400013860900930500009386F6FF03250A000C
:102A500083270600130646003377D500B385E5408B
:102A600033F7D7003387E50093D7070113550501E6
:102A700093550741B387A740B387B70093D5074164
:102A80003377D70093970701B3E7E700130A4A00AB
:102A9000232EF6FEE3FC4AFB93172400B387F900CC
:102AA00003A70700630A0704138504008320C101FC
:102AB0000324810183244101032901018329C100E9
:102AC000032A8100832A410013010102678000006C
:102AD00083270600639807001304F4FF1306C6FF5C
:102AE000E3E8C9FE232889006FF05FF403A707001D
:102AF000631807001304F4FF9387C7FFE3E8F9FEA8
:102B0000232889006FF05FFA130500006FF01FFAA9
:102B1000130101F6232CF10283274502232C81089F
:102B2000232A910823282109232631092322510928
:102B300023206109232E110823244109232E710724
:102B4000232C8107232A91072328A1072326B107D5
:102B5000232AD1002320E10223221103930405003C
:102B6000938A0500130406001309080093890500E1
:102B7000130B06006390070213050001EF10C04D10
:102B800023A2A402232205002324050023200500FC
:102B90002326050083A7440283A50700638405025A
:102BA00003A747009307100013850400B397E700BD
:102BB00023A4F50023A2E500EF10007F83A74402C1
:102BC00023A00700635E040493071000131414008D
:102BD0002320F900135B1400B707F07F3377FB0065
:102BE0006312F70A03278103B7270000131BCB00EA
:102BF0009387F770135BCB002320F700B36A5B0168
:102C000063940A006F10000883274102639E070047
:102C1000977700009387C7C82326F1006F008002D2
:102C2000232009006FF05FFB97770000938747C769
:102C30002326F100977700009387B7C60327410248
:102C40002320F7008320C109032481090325C10043
:102C500083244109032901098329C108032A810822
:102C6000832A4108032B0108832BC107032C81070A
:102C7000832C4107032D0107832DC1061301010A8F
:102C800067800000130600009306000013850A0009
:102C900093050B002326510323286103EF4040577F
:102CA0006318050203278103930710002320F70010
:102CB000977700009387C7B52326F1008327410249
:102CC000E38207F897770000938797B46FF01FF7B8
:102CD000130781059306C10513060B0093850A00AF
:102CE0001385040013594B01EF20C00C1379F97FB1
:102CF000032A810513040500630A091A83270103C7
:102D00000325C102130919C09395C70093D5C500C7
:102D1000B707F03FB3E5F5002320010497D7FF0F75
:102D20009387C74C03A6070083A64700EF40505087
:102D300097D7FF0F9387074C03A6070083A647008A
:102D4000EF40407297D7FF0F9387474B03A60700CA
:102D500083A64700EF300060930B050013050900C0
:102D6000938A0500EF50405897D7FF0F9387874904
:102D700003A6070083A64700EF40C06E13060500B8
:102D80009386050013850B0093850A00EF30805C65
:102D9000930B0500938A0500EF50004D930D05003D
:102DA000130600009306000013850B0093850A00AC
:102DB000EF40005D6350050213850D00EF50C052D7
:102DC00013860B0093860A00EF40804463040500DD
:102DD000938DFDFF1307100093076001232AE10282
:102DE00063EAB70313973D0097770000938707C204
:102DF000B387E70003A6070083A647000325C102A7
:102E000083250103EF40C05763540500938DFDFFF8
:102E1000232A010233092A41130CF9FF930B000006
:102E200063580C00930B1000B38B2B41130C000064
:102E300063C80D0C330CBC012324B103930C0000B8
:102E4000032741019307900063E0E71693075000C2
:102E50001309100063D8E7009307C7FF232AF10086
:102E60001309000003274101930740006302F70A9A
:102E7000930750006306F71093072000630EF70EC8
:102E800093073000232E01006300F7109307100012
:102E9000232EF1009307F0FF2328F100130DF0FF1C
:102EA00093072001232001026F00C0080329C105F8
:102EB0009307000233092A019305294363DCB70213
:102EC000130500043305B540930529413315AB00C4
:102ED000B3DABA0033655501EF50804BB70710FEE7
:102EE000B385B700930710001309F9FF2320F104FD
:102EF0006FF0DFE23385B7403395AA006FF0DFFD56
:102F0000B38BBB41B30CB041232401026FF05FF3DC
:102F100093071000232EF10083270102634CF00871
:102F200093071000130710002328F100130D100061
:102F30002320E10283A644021307400023A20600D7
:102F40001306470183A5460063FEC70613850400E8
:102F5000EF1080372326A100631E05069776000038
:102F600093864694130600009305A01A1775000077
:102F700013058594EF20904B232E01006FF0DFF9AD
:102F800093071000232EF10083270102B387FD0071
:102F90002328F100138D170093070D00E34CA0F9CF
:102FA000930710006FF01FF913091000232A010086
:102FB0006FF0DFED832701022328F100138D070056
:102FC0006FF05FF79385150023A2B6001317170063
:102FD0006FF01FF783A744020327C10023A0E70077
:102FE0009307E00063E4A71B6302091A6352B0274A
:102FF00013F7FD009317370017770000130707A199
:103000003307F70013D94D4083270700832A470071
:1030100013770901130A2000630C070217770000D9
:103020001307479C03260702832647020325C10294
:1030300083250103232CF1001379F900EF30102FC1
:103040008327810193090500138B0500130A3000C3
:103050001777000013070799631E091A13850900E3
:103060001386070093860A0093050B00EF30102C9F
:1030700093090500138B050083274103638207260C
:1030800097D7FF0F9387871803A6070083A64700EB
:103090001385090093050B00EF40802E6352052431
:1030A00063060D2483270101635EF00C9387FDFF07
:1030B000232CF10097D7FF0F9387C71503A60700AE
:1030C00083A647001385090093050B00EF40803964
:1030D0008327010193090500138B0500130A1A00C9
:1030E00013050A002324F10423223105232E610352
:1030F000EF50801F1386090093060B00EF408036C7
:1031000097D6FF0F9386861103A6060083A6460076
:10311000938A0900B709C0FCEF30C02383278104DC
:1031200013090B00130A0500B389B9006396071C45
:1031300097D7FF0F9387070F03A6070083A64700C3
:1031400013850A0093050B00EF40900E13060A004A
:1031500093860900930A050013890500EF400014C7
:10316000E34CA004B7070080B3C7370113060A0079
:103170009386070013850A0093050900EF4040205D
:10318000E34605028329C102032B01038327C105FE
:1031900063C4074E1307E0006340B74F13973D0029
:1031A0009777000093878786B387E70003AA070015
:1031B00083AA47008327010263D807366346A037F6
:1031C00063160D7E97D7FF0F9387C70503A60700E9
:1031D00083A6470013050A0093850A00EF40802864
:1031E0001386090093060B00EF40400B130A000002
:1031F00013090000635A05768327C1000327C10025
:10320000938D1D0093891700930710032300F70087
:103210006F00407693761900638606020326070046
:10322000832647001385070093850A00232CE100BD
:10323000EF40402303278101130A1A00930705007A
:10324000938A050013591940130787006FF0DFE0D8
:10325000130A2000E3820DE23309B0419377F900AD
:1032600013973700976700009387477AB387E70083
:1032700003A6070083A647000325C1028325010397
:1032800013594940976A0000938ACA75EF40801D20
:103290009307050093090500138B05001307000031
:1032A00063180900E30A07DC938907006FF09FDCCD
:1032B000937619006380060203A60A0083A64A00DB
:1032C00013850700130A1A00EF40C0199307050081
:1032D0001307100013591940938A8A006FF05FFC9E
:1032E000232CB10193070D006FF09FDF232CB10158
:1032F000930700006FF0DFDE8325C1009386F7FFA0
:1033000013963600B387F500232EF1028327C101FF
:10331000976600009386866FB386C60003A60600F4
:1033200083A646006382071097D7FF0F938707F0A5
:1033300003A5070083A5470023224105EF30007F46
:1033400013060A0093860900EF40806E8329C100AE
:10335000130A0500138B05009305090013850A0065
:10336000EF4090702322A104EF401078130605006F
:103370009386050013850A0093050900EF40406B12
:10338000832741049389190013060A0093870703D2
:10339000A38FF9FE93060B0013090500938A05001D
:1033A000EF30107E634E051497D7FF0F938707E623
:1033B00003A5070083A547001306090093860A00AA
:1033C000EF40006713060A0093060B00EF30507BB6
:1033D000634C05228327C103E386F9DA97D7FF0FF1
:1033E000938747E303A6070083A6470013050A0057
:1033F00093050B00EF40000797D7FF0F938787E1F6
:1034000003A6070083A64700130A0500138B0500D7
:103410001305090093850A00EF40C004930A0500D4
:10342000138905006FF05FF39385090013050A0007
:10343000EF404003032BC1038329C1002322A104D1
:103440002324B1049305090013850A00EF40D061DD
:103450002326A104EF40506913060500938605005A
:1034600013850A0093050900EF40805C8327C1049F
:1034700093891900130A050093870703A38FF9FEA8
:103480008327C103138905006390F90897DAFF0FBA
:10349000938ACAD903A60A0083A64A0003254104D9
:1034A00083258104EF20106B130605009386050029
:1034B00013050A0093050900EF30505E6346A0141F
:1034C000032641048326810403A50A0083A54A003C
:1034D000EF400056130605009386050013050A0009
:1034E00093050900EF30D069E35E05C89307000338
:1034F00093090B0003C7F9FF130BFBFFE30AF7FE69
:10350000832D81016F00400D97D7FF0F938787D0E0
:1035100003A6070083A64700EF30D074930A050086
:10352000138905006FF01FF28327C100130C0B00F5
:10353000938C0900138B1700338DA70197DBFF0FC6
:10354000938B4BCD13060A0093860A0013850C005B
:1035500093050C00EF30805DEF401051130905001A
:10356000EF40905813060A0093860A00EF30906FE0
:10357000938605001306050093050C0013850C00C7
:10358000EF40004B93060903A30FDBFE93090B00EA
:10359000631E6D0B1306050093860500EF20905BFC
:1035A00013060A0093860A00930B0500138B05008F
:1035B000EF30D04E6348A00413060A0093860A0039
:1035C00013850B0093050B00EF3090446316050044
:1035D0001379190063180902138504009305040088
:1035E000EF00905C832781032380090013851D0071
:1035F00023A0A70083274102638607E423A03701A5
:103600006FF04FE4232CB101938709001307900357
:103610009389070083C6F7FF9387F7FF6390E6025D
:103620008326C100E396F6FE0327810113071700E6
:10363000232CE100130700032380E60003C70700E3
:10364000130717002380E7006FF09FEB03A60B0022
:1036500083A64B00130B1B00EF30D0601306000055
:1036600093060000930C0500138C0500EF30503AD0
:10367000E31A05EC6FF05FF60327C101630C071630
:1036800083264101130710006344D7120327010466
:103690009387374363180700032781059307600367
:1036A000B387E740138A0C00938A0B009305100040
:1036B00013850400B38BFB00330CFC00EF00507A41
:1036C0001309050063505003635E800193870A006D
:1036D00063545C0193070C00B38BFB40B38AFA4040
:1036E000330CFC4063820C068327C101638C0710F6
:1036F000635040059305090013060A001385040072
:10370000EF10C01B13060400930505001309050004
:1037100013850400EF00107A232CA1009305040008
:1037200013850400EF0050488327810113840700AC
:1037300033864C41638A4C019305040013850400D1
:10374000EF10C01713040500930510001385040043
:10375000EF00107183278102130A05006358F00AF5
:10376000138607009305050013850400EF1000156C
:103770000327410193071000130A0500930C000072
:1037800063C4E70A930C0000639A09089317CB00FF
:1037900063960708B705F07F337BBB0063000B0817
:1037A000938B1B00130C1C00930C10006F00000780
:1037B000130AFDFF63CC4C01338A4C4163560D0262
:1037C000B38AAB41930700006FF05FEE832781025D
:1037D000B30C9A41B38797012324F102930C0A009A
:1037E000130A00006FF09FFD938A0B0093070D00F2
:1037F0006FF0DFEB138A0C00938A0B0013090000B3
:103800006FF05FEC13860C006FF01FF3032741018C
:1038100093071000930C0000E3D6E7F6832781029C
:10382000130510006382070283270A01938737007C
:1038300093972700B307FA0003A54700EF00105045
:10384000930700023385A7403305AC001375F501DB
:103850006306050C93070002B387A74013074000D7
:10386000635AF70A9307C0013385A740B38BAB00B7
:10387000B38AAA00330CAC00635C700193050400AA
:1038800013860B0013850400EF1080151304050048
:10389000635C800193050A0013060C001385040085
:1038A000EF100014130A050083274103638C0706F9
:1038B00093050A0013050400EF10C02A635405069F
:1038C00093050400930600001306A000138504006E
:1038D000EF00D0348327C101938DFDFF1304050051
:1038E0006384073C93050900930600001306A000BB
:1038F00013850400EF0090328327010113090500AE
:10390000634AF00C032741019307200063C6E702D6
:103910006F00400CE382E7F6138507001305C5012D
:103920006FF0DFF46342A00B0327410193072000EF
:1039300063DCE7082328A1018327010163960702BE
:1039400093050A0093060000130650001385040037
:10395000EF00D02C130A05009305050013050400A1
:10396000EF104020E34AA088832701028329C10089
:1039700093CDF7FF130B000093050A001385040095
:10398000EF009022E30A09C4630A0B0063082B01CD
:1039900093050B0013850400EF0010219305090027
:1039A00013850400EF0050206FF01FC3130A0000BE
:1039B000130900006FF05FFB832D8101130A0000E3
:1039C000130900006FF05F838327C1012328A10141
:1039D0006386072E635C50019305090013860A0075
:1039E00013850400EF00D07F1309050013050900BB
:1039F000638A0C048325490013850400EF00D00C72
:103A0000930A0500631C050097660000938686E90B
:103A1000130600009305A02E6FF04FD50326090171
:103A20009305C9001305C5001306260013162600CA
:103A3000EF00806B1306100093850A0013850400C5
:103A4000EF00107A8327C10003270101130B09003F
:103A5000138C1700B387E700232CF10093F71900AC
:103A6000130905002328F10093050A00130504003B
:103A7000EFE05FED93050B00930C0500930A05033F
:103A800013050400EF10000E93050A00930B0500C8
:103A90001306090013850400EF1000128326C500E9
:103AA000130DFCFF9305050013071000639C06002F
:103AB000232EA10013050400EF10C00A8325C101C5
:103AC0001307050013850400232EE100EF00D00D3D
:103AD000832741010327C10193090C00B3E6E700E6
:103AE00083270101B3E6F600639E060013079003E7
:103AF0006382EA0663547001938A1C0323005D010C
:103B00006FF09FE763CC0B0083274101B3EB770194
:103B100083270101B3EBFB0063940B06E350E0FE47
:103B2000930504001306100013850400EF00506B8A
:103B300093050A0013040500EF10C0026348A000BB
:103B4000E31E05FA13F71A00E30A07FA13079003B6
:103B5000E394EAFA930790032300FD00938709009A
:103B6000930690039389070003C7F9FF9387F7FF34
:103B7000630ED70E130717002380E7006FF0DFDF17
:103B8000635CE00013079003E386EAFC93871A0066
:103B90002300FD006FF05FDE83278101A30F5CFF30
:103BA0006382870993050400930600001306A000B2
:103BB00013850400EF00900613040500930600002F
:103BC0001306A00093050B0013850400631C2B0152
:103BD000EF00D004130B050013090500130C1C00A3
:103BE0006FF09FE8EF00900393050900130B0500A9
:103BF000930600001306A00013850400EF001002D6
:103C0000130905006FF09FFD832701019309100040
:103C10006354F000938907008327C100130B000051
:103C2000B3893701930504001306100013850400BF
:103C3000EF00105B93050A0013040500EF0090727B
:103C4000E34EA0F06316050093F71A00E39807F01F
:103C500093870900130700039389070083C6F7FFC2
:103C60009387F7FFE38AE6FE6FF01FD10327C100B9
:103C7000E31AF7EE93071003938D1D002300F7005E
:103C80006FF09FCF0327410297670000938787C09B
:103C90002326F10097670000938747C0630407005D
:103CA0006FE0DFF96FE01FFA832701016348F0003E
:103CB0000327410193072000E3C0E7C893090000F0
:103CC00093050A0013050400EFE0DFC78327C10056
:103CD000930A050333873701832701012300570126
:103CE00093891900E3D2F9F29305040093060000CA
:103CF0001306A00013850400EF00407213040500B2
:103D00006FF01FFC130101FF232481002326110003
:103D1000130405002316B5002317C5002320050052
:103D2000232205002324050023220506232805005D
:103D3000232A0500232C05001306800093050000AC
:103D40001305C505EF00804A972700009387C790A9
:103D50002322F40297270000938707952324F40277
:103D6000972700009387879C2326F402972700005B
:103D7000938747A18320C100232084022328F402D3
:103D800003248100130101016780000097250000D2
:103D9000938545126F008020130101FF23229100BB
:103DA000130680069384F5FFB384C4022320210107
:103DB00013890500232481002326110093854407DD
:103DC000EF100029130405006300050223200500FD
:103DD000232225011305C5002324A400138684068D
:103DE00093050000EF0080408320C100130504000C
:103DF00003248100832441000329010013010101F0
:103E000067800000832785016394070A130101FF7F
:103E1000232481002326110097070000938747F78A
:103E20002324F5022324050423260504232805045E
:103E300083A7C186130405006316F50093071000DD
:103E4000232CF50013050400EF00C0062322A40074
:103E500013050400EF0000062324A400130504004A
:103E6000EF0040052326A4000325440013060000AC
:103E700093054000EFF01FE90325840013061000AE
:103E800093059000EFF01FE80325C40013062000FF
:103E900093052001EFF01FE7930710008320C10076
:103EA000232CF4000324810013010101678000002A
:103EB00067800000130101FF2322910083A4C186C3
:103EC00083A78401232021012326110023248100BC
:103ED000130905006396070013850400EFF09FF2B5
:103EE0009384840403A4840083A744009387F7FF8A
:103EF00063DA070083A704006380070883A4040033
:103F00006FF05FFE0317C40063140706B707FFFFD7
:103F10009387170023220406232004002322040091
:103F2000232404002326F40023280400232A040069
:103F3000232C040013068000930500001305C4051C
:103F4000EF00C02A232A0402232C040223240404A1
:103F5000232604048320C1001305040003248100E8
:103F6000832441000329010013010101678000003F
:103F7000130484066FF09FF79305400013050900B2
:103F8000EFF09FE123A0A40013040500E31805F659
:103F90009307C0002320F9006FF0DFFB130101FD40
:103FA0002324810223202103232E3101232C4101CC
:103FB0002328610123267101232611022322910265
:103FC000232A510113090500138A050013048504EF
:103FD00093090000130B1000930BF0FF832484005F
:103FE000832A4400938AFAFF63DE0A020324040052
:103FF000E31604FE8320C1020324810283244102CC
:1040000003290102032A8101832A4101032B0101B3
:10401000832BC100138509008329C101130101030A
:104020006780000083D7C400637EFB008397E400B1
:10403000638A77019385040013050900E7000A00ED
:10404000B3E9A900938484066FF0DFF917C5FF0F69
:1040500013054510678000009305050017C5FF0F85
:104060000325C5176F00D07E639A0502130101FF77
:104070009305C10013050000630E06001305E0FF61
:10408000638A06008347060023A0F5000345060067
:104090003335A00013010101678000001305000003
:1040A000630006021305E0FF638C060083470600E9
:1040B00023A0F500034506003335A000678000000B
:1040C0006780000093F5F50F3306C5006316C50041
:1040D000130500006780000083470500E38CB7FEEE
:1040E000130515006FF09FFEB3C7A50093F73700C7
:1040F000B306C500639607009307300063E2C7026A
:10410000930705006378D50C03C705009387170054
:1041100093851500A38FE7FEE3E8D7FE67800000D4
:104120001377350093070500630E070003C70500EA
:104130009387170093851500A38FE7FE13F73700C9
:104140006FF09FFE13F7C6FF130607FE63FCC7045C
:1041500083A3050083A2450083AF850003AFC5009C
:1041600083AE050103AE450103A3850183A8C50104
:1041700023A0770023A2570003A8050223A4F70178
:1041800023A6E70123A8D70123AAC70123AC670010
:1041900023AE1701938545029387470223AE07FF9D
:1041A0006FF0DFFA13880500138607006366E602E6
:1041B0001388D7FF13060000636807011307370051
:1041C0003307F7401376C7FFB387C700B385C50031
:1041D000E3ECD7F26780000083280800130646004E
:1041E00013084800232E16FF6FF05FFC1303F00046
:1041F00013070500637EC3029377F7006390070AF5
:1042000063920508937606FF1376F600B386E60000
:104210002320B7002322B7002324B7002326B700AA
:1042200013070701E366D7FE6314060067800000EA
:10423000B306C3409396260097020000B38656004B
:104240006780C6002307B700A306B7002306B700A0
:10425000A305B7002305B700A304B7002304B700E4
:10426000A303B7002303B700A302B7002302B700DC
:10427000A301B7002301B700A300B7002300B700D4
:104280006780000093F5F50F93968500B3E5D500A0
:1042900093960501B3E5D5006FF0DFF693962700FE
:1042A00097020000B386560093820000E78006FA6A
:1042B00093800200938707FF3307F7403306F60029
:1042C000E378C3F66FF0DFF383274502130101FFA4
:1042D0002324810023229100232611002320210181
:1042E0001304050093840500639007021305000181
:1042F000EFF09FD62322A4022322050023240500E9
:104300002320050023260500032944028327C90032
:104310006384070403274402939724000327C700FC
:10432000B307F70003A5070063160506130910007D
:10433000331999001306590013162600930510002F
:1043400013050400EF00D03C63080502232295000A
:10435000232425016F0080041306100293054000FA
:1043600013050400EF00D03A832744022326A90056
:1043700083A7C700E39007FA130500008320C1005C
:10438000032481008324410003290100130101015A
:10439000678000000327050023A0E700232805000D
:1043A000232605006FF09FFD83274502130101FFBF
:1043B0002324810023229100232611009304050069
:1043C000138405006390070213050001EFF0DFC8B6
:1043D00023A2A40223220500232405002320050094
:1043E000232605006302040283A6440283274400B7
:1043F0001397270083A7C600B387E70003A707002A
:104400002320E40023A087008320C100032481002F
:10441000832441001301010167800000130101FEA4
:10442000232C8100232821012326310103A9050122
:10443000138405009389060093864501B7050100A2
:10444000232A9100232E1100930405002324410107
:10445000130500009385F5FF83A7060093864600A9
:104460001305150033F7B7003307C70293D70701C9
:10447000B387C70233073701135807013377B700F3
:10448000B387070193D9070193970701B387E70023
:1044900023AEF6FEE34225FD6380090883278400EE
:1044A0006340F906832544001385040093851500B5
:1044B000EFF09FE1130A0500631005029756000014
:1044C0009386463E130600009305500B17550000D7
:1044D0001305454BEF108075032604019305C400B6
:1044E0001305C5001306260013162600EFF0DFBFE4
:1044F0009305040013850400EFF01FEB13040A007A
:104500009307490093972700B307F40023A23701CC
:1045100013091900232824018320C1011305040075
:104520000324810183244101032901018329C1005E
:10453000032A810013010102678000003707FFFF93
:104540003377E500930705001305000063160700A5
:104550009397070113050001370700FF33F7E700C2
:10456000631607001305850093978700370700F04F
:1045700033F7E700631607001305450093974700DC
:10458000370700C033F7E70063160700130525005F
:104590009397270063CC070037070040B3F7E70085
:1045A00013051500639407001305000267800000DF
:1045B000832705001307050093F67700638C060236
:1045C00093F6170013050000639A060893F6270078
:1045D000638A060093D717002320F7001305100005
:1045E0006780000093D727002320F70013052000E1
:1045F000678000009396070193D60601130500001B
:104600006396060093D707011305000193F6F70F91
:10461000639606001305850093D7870093F6F7008D
:10462000639606001305450093D7470093F63700BD
:10463000639606001305250093D7270093F617000D
:104640006398060093D717001305150063860700CB
:104650002320F70067800000130500026780000038
:10466000130101FF2324810013840500930510002A
:1046700023261100EFF05FC5631005029756000076
:104680009386462213060000930500141755000078
:104690001305452FEF1080598320C100232A850080
:1046A00003248100130710002328E50013010101F2
:1046B0006780000003A7050183270601130101FE9F
:1046C000232C810023282101232E1100232A91006D
:1046D0002326310123244101138405001309060018
:1046E0006356F7001304060013890500032A04012A
:1046F000832909018327840083254400B3043A01F8
:1047000063D4970093851500EFF01FBC631005027A
:104710009756000093860619130600009305D015DE
:104720001755000013050526EF104050930645016C
:1047300013982400338806019387060063EC07076B
:104740001303440193152A00130649019398290085
:10475000B305B30093075401B3081601130E4000CC
:1047600063EAF500338485401304B4FE1374C4FF78
:10477000130E4400B70E0100938EFEFF6362160510
:10478000635890008327C8FF1308C8FF638407128B
:104790008320C101032481012328950003290101FD
:1047A000832441018329C100032A810013010102EE
:1047B0006780000023A00700938747006FF01FF871
:1047C000832F0600B3FFDF0163860F069383060085
:1047D000930203001309000003A7020003A40300CF
:1047E00093834300337FD701330FFF03B377D401A3
:1047F0001354040193824200330FFF0093570701C3
:10480000B387F703330F2F0113570F01337FDF01F6
:10481000B3878700B387E70013D907019397070190
:10482000B3E7E70123AEF3FEE3E8B2FAB387C601CC
:1048300023A02701835326006388030683A706006D
:10484000938F0600130F03009302000003270F004D
:1048500003D42F00B3F7D7013377D701330777029B
:10486000938F4F00130F4F00330787003307570014
:1048700093120701B3E7F20023AEFFFE8357EFFF69
:1048800083A20F0013570701B3877702B3F2D20157
:10489000B3875700B387E70093D20701E368BFFAF5
:1048A0003387C6012320F70013064600938646008F
:1048B0006FF0DFEC9384F4FF6FF09FEC130101FEC7
:1048C000232A91002328210123263101232E1100C0
:1048D000232C81002324410193773600130905001E
:1048E0009304060093890500638407029387F7FF0A
:1048F000175700001307071E93972700B307F70009
:1049000003A6070093060000EFF05FB193090500CE
:1049100093D424406384040A8327490263900702E6
:1049200013050001EFF04FF32322A9022322050013
:10493000232405002320050023260500032A49021D
:1049400003248A00631E0400930510271305090041
:10495000EFF01FD12324AA00130405002320050033
:1049600093F714006384070293850900130604007B
:1049700013050900EFF01FD4130A05009385090001
:1049800013050900EFF05FA293090A0093D41440C5
:104990006386040203250400631E05001306040059
:1049A0009305040013050900EFF0DFD02320A400D5
:1049B00023200500130405006FF09FFA8320C10136
:1049C000032481018324410103290101032A810079
:1049D000138509008329C1001301010267800000CB
:1049E000130101FE232C81001384050023206101A3
:1049F000032B0401232A910083A5450093545640BC
:104A000083278400338B640123282101232441015F
:104A100023225101232E110023263101930A050080
:104A200013090600130A1B0063C8470313850A0015
:104A3000EFF09F8993090500631605029756000061
:104A4000938646E6130600009305901D1755000057
:104A5000130545F3EF10801D9385150093971700FC
:104A60006FF09FFC93074501938607001307000032
:104A7000938646006346970C63D4040093040000B9
:104A800093942400B38697008327040113074401FD
:104A90001376F90193972700B307F7006308060A16
:104AA000130800023308C8409388060093050000ED
:104AB0000325070093884800130747003315C500F6
:104AC000B365B50023AEB8FE8325C7FFB3D5050196
:104AD000E360F7FE130754011306400063EAE700A2
:104AE000B38787409387B7FE93F7C7FF13864700C6
:104AF000B386C60023A0B60063840500130A2B000A
:104B0000130AFAFF23A8490113850A00930504003C
:104B1000EFF09F898320C101032481018324410197
:104B200003290101032A8100832A4100032B01008C
:104B3000138509008329C100130101026780000069
:104B400023AE06FE130717006FF09FF2032607003F
:104B5000130747009386460023AEC6FEE368F7FEC0
:104B60006FF01FFA8326050103A7050193070500CF
:104B70003385E6406390E6041317270093874701C7
:104B800093854501B386E700B385E50003A6C6FF1C
:104B900003A7C5FF9386C6FF9385C5FF630AE6009A
:104BA0001305F0FF6368E60013051000678000003E
:104BB000E3EED7FC67800000130101FE232C810087
:104BC000138405002328210193050600130905001D
:104BD00013050400232A9100232E110023263101FE
:104BE00093040600EFF01FF8631C05049305000012
:104BF00013050900EFF04FED631005029756000012
:104C0000938646CA1306000093052023175500001B
:104C1000130545D7EF108001930710002328F500F6
:104C2000232A05008320C10103248101832441013B
:104C3000032901018329C1001301010267800000DB
:104C400093091000634A050093870400930900004C
:104C5000930404001384070083A54400130509008E
:104C6000EFF08FE6631C050097560000938686C31D
:104C700013060000930500246FF05FF903A80401F8
:104C800003270401938844019316280093074401E5
:104C900013172700B70E010023263501B386D8006D
:104CA000B387E70013064501130E4001130300000C
:104CB000938EFEFF3387C40103270700B305C401A9
:104CC00003AF0500B375D701B38565003373DF010A
:104CD000B3856540135F0F011357070113D30541D7
:104CE0003307E7413307670013530741B3F5D50195
:104CF00013170701330FC5013367B700130E4E00BA
:104D00002320EF0033078E00E366F7FA9305540182
:104D10001307400063EAB700B38787409387B7FE65
:104D200093F7C7FF13874700B388E800370E0100E9
:104D30003307E600930E070093850800130EFEFF6D
:104D400063EAD5021386D8FF9307000063E8C60024
:104D500093863600B387164193F7C7FFB307F70072
:104D600003A7C7FF9387C7FF630207042328050132
:104D70006FF05FEB83A70500938E4E00938545008F
:104D800033F6C701330666001353064193D7070174
:104D9000B387670013D307413376C60193970701A2
:104DA000B3E7C70023AEFEFE6FF09FF91308F8FFCC
:104DB0006FF01FFB130101FD232291029384050074
:104DC000930510002324810223202103232E310187
:104DD00023261102232C41011304060093890600A7
:104DE00013090700EFF04FCE63100502975600003D
:104DF000938646AB130600009305A03017550000BC
:104E0000130545B8EF009062370710009307F7FFCE
:104E1000B3F78700135444011374F47F130A050099
:104E2000631A04082326F100638E04081305810029
:104E300023249100EFF0CFF783268100630005085B
:104E40000327C10093070002B387A740B317F700F9
:104E5000B3E7D7003357A700232AFA002326E1003F
:104E60008324C100232C9A00B3349000938414004F
:104E700023289A00630A04061304D4BC3304A40054
:104E80009307500323A089003385A7402320A9005E
:104E90008320C102032481028324410203290102E9
:104EA0008329C10113050A00032A810113010103AB
:104EB00067800000B3E7E7006FF0DFF6232ADA002F
:104EC0006FF01FFA1305C100EFF08FEE8327C100CA
:104ED0001305050293041000232AFA00930710001B
:104EE0002328FA006FF01FF99307E5BC23A0F9000F
:104EF00093972400B307FA0003A507019394540085
:104F0000EFF0CFE3B384A440232099006FF05FF863
:104F10003386C502130101FE232C8100232E1100CC
:104F2000930506002326C100EF008012130405003C
:104F3000630805000326C10093050000EFF00FABE6
:104F40008320C10113050400032481011301010220
:104F500067800000638C050E83A7C5FF130101FE67
:104F6000232C8100232E11001384C5FF63D4070076
:104F70003304F4002326A100EF10801E1387C18A9A
:104F8000832707000325C100639E07002322040036
:104F900023208700032481018320C1011301010222
:104FA0006F10401C6374F40203260400B306C400AF
:104FB000639AD70083A6070083A74700B386C6007D
:104FC0002320D4002322F4006FF09FFC13870700F6
:104FD00083A7470063840700E37AF4FE8326070073
:104FE0003306D7006318860203260400B386C60082
:104FF0002320D7003306D700E39EC7F803A6070097
:1050000083A74700B306D6002320D7002322F7004A
:105010006FF05FF86378C4009307C0002320F500A9
:105020006FF05FF703260400B306C400639AD7004D
:1050300083A6070083A74700B386C6002320D400B9
:105040002322F400232287006FF0DFF46780000042
:10505000130101FE232A91009384350093F4C4FFC9
:1050600023282101232E1100232C81002326310126
:10507000938484009307C0001309050063F4F406C9
:105080009304C00063E2B40613050900EF10400D5D
:105090009386C18A03A7060013040700631A040657
:1050A0001384018B83270400639A07009305000093
:1050B00013050900EF0000562320A4009385040087
:1050C00013050900EF0000559309F0FF631A350B33
:1050D0009307C0002320F90013050900EF10800892
:1050E0006F000001E3D004FA9307C0002320F90009
:1050F000130500008320C1010324810183244101A1
:10510000032901018329C100130101026780000006
:1051100083270400B387974063CE07041306B000CB
:10512000637AF6002320F4003304F4002320940073
:105130006F00000183274400631A870223A0F60052
:1051400013050900EF1000021305B4009307440093
:10515000137585FF3307F540E30EF5F83304E400DB
:10516000B387A7402320F4006FF0DFF82322F70075
:105170006FF01FFD13070400032444006FF01FF2BB
:10518000130435001374C4FFE30285FAB305A44089
:1051900013050900EF000048E31A35F96FF05FF3DB
:1051A000832786009387F7FF2324F60063DC07003C
:1051B0000327860163C6E7009307A0006394F50008
:1051C0006F004074832706001385050013871700BE
:1051D0002320E6002380B70067800000130101FE52
:1051E000232C8100232A9100232821012326310129
:1051F00023244101232E1100130905009389050082
:1052000013040600B304D600130AF0FF63169400DB
:10521000130500006F00C0018345040013860900D8
:1052200013050900EFF0DFF713041400E31045FF46
:105230008320C10103248101832441010329010149
:105240008329C100032A8100130101026780000045
:10525000130101F6232C8108232A91082328210910
:1052600023263109232E1108232441092322510921
:1052700023206109232E7107232C8107232A9107FC
:1052800093090500938405001309060013840600A2
:10529000630805008327850163940700EFE09FB64C
:1052A00097470000938707696392F41283A449002B
:1052B00083D7C40093F78700638E071283A7040186
:1052C000638A071293070002A304F1029307000305
:1052D000232201022305F10223268100930B5002B1
:1052E000974A0000938ACA7F130C1000130BA0008A
:1052F0001304090083470400638407006390771553
:10530000B30C24416306240393860C0013060900A2
:105310009385040013850900EFF05FEC9307F0FF1D
:105320006300F52C83274102B38797012322F10202
:10533000834704006386072A9307F0FF13091400CC
:1053400023280100232E0100232AF100232C010031
:10535000A309010423240106834509001306500014
:1053600013850A00EFE01FD68327010113041900FB
:10537000631A050C13F70701630607001307000201
:10538000A309E10413F78700630607001307B002BF
:10539000A309E104834609001307A0026380E60C19
:1053A0008327C1011304090093060000130690002F
:1053B0000347040093051400130707FD6372E6100A
:1053C000638A060A232EF1006F00C00A9747000087
:1053D000938747586396F40083A489006FF05FEDCC
:1053E0009747000093870753E394F4EC83A4C90024
:1053F0006FF01FEC9385040013850900EF00806BAC
:10540000E30205EC1305F0FF8320C10903248109A1
:1054100083244109032901098329C108032A81083A
:10542000832A4108032B0108832BC107032C810722
:10543000832C41071301010A678000001304140044
:105440006FF05FEB330555413315AC00B3E7A700B0
:105450002328F100130904006FF01FF00327C10097
:1054600093064700032707002326D1006340070463
:10547000232EE100034704009307E0026314F708BA
:10548000034714009307A002631AF7048327C1009F
:10549000130424001387470083A707002326E10095
:1054A00063CA0702232AF1006F00C0053307E040FA
:1054B00093E72700232EE1002328F1006FF09FFBE4
:1054C000B38767031384050093061000B387E700D2
:1054D0006FF01FEE9307F0FF6FF0DFFC1304140072
:1054E000232A010093060000930700001306900092
:1054F0000347040093051400130707FD637CE608C7
:10550000E39206FA834504001306300017450000B5
:105510001305855DEFE01FBB63040502974700009C
:105520009387875C3305F54093070004B397A70082
:1055300003250101130414003365F5002328A1009D
:105540008345040013066000174500001305055A43
:10555000130914002304B102EFE0DFB6630C050861
:1055600097C7FFFF9387475C6398070403270101F0
:105570008327C1001377071063080702938747004A
:105580002326F10083274102B38747012322F1023A
:105590006FF01FD6B38767031384050093061000CE
:1055A000B387E7006FF0DFF49387770093F787FF07
:1055B000938787006FF0DFFC1307C1009706000098
:1055C000938606C213860400930501011385090022
:1055D000EFC04FD59307F0FF130A0500E314F5FA67
:1055E00083D7C40093F70704E39E07E00325410235
:1055F0006FF09FE11307C10097060000938646BE37
:10560000138604009305010113850900EFC01FE60E
:105610006FF05FFC130101FF2324810013040500D8
:105620001385050023A2018A23261100EFB05FB085
:105630009307F0FF6318F50083A7418A638407008E
:105640002320F4008320C100032481001301010101
:1056500067800000130101FF2324810013840500EB
:105660008395E50023261100EF001030634005020A
:1056700083274405B387A700232AF4048320C100AD
:105680000324810013010101678000008357C400D7
:1056900037F7FFFF1307F7FFB3F7E7002316F40010
:1056A0006FF0DFFD83D7C500130101FE232C8100BD
:1056B000232A91002328210123263101232E1100C2
:1056C00093F70710930405001384050013090600DF
:1056D00093890600638A07008395E50093062000FE
:1056E00013060000EF00500B8357C40037F7FFFF8D
:1056F0001307F7FFB3F7E7008315E4002316F40060
:10570000032481018320C101938609001306090047
:105710008329C10003290101138504008324410169
:10572000130101026F008034130101FF2324810063
:10573000138405008395E50023261100EF00D005B2
:105740009307F0FF0357C4006312F502B7F7FFFF9A
:105750009387F7FFB3F7E7002316F4008320C10017
:10576000032481001301010167800000B7170000C6
:10577000B367F7002316F400232AA4046FF01FFE7A
:105780008395E5006F00804F3367B5009303F0FF0A
:105790001377370063100710B7877F7F9387F7F77A
:1057A0000326050083A60500B372F6003363F600F6
:1057B000B382F200B3E26200639272106316D608FD
:1057C0000326450083A64500B372F6003363F60056
:1057D000B382F200B3E26200639E720C6316D606D7
:1057E0000326850083A68500B372F6003363F600B6
:1057F000B382F200B3E262006398720C6316D604BF
:105800000326C50083A6C500B372F6003363F60015
:10581000B382F200B3E262006392720C6316D602A6
:105820000326050183A60501B372F6003363F60073
:10583000B382F200B3E26200639C720A1305450171
:1058400093854501E30ED6F41317060193970601DD
:10585000631EF7001357060193D706013305F7407F
:105860009375F50F639005026780000013570701D9
:1058700093D707013305F7409375F50F639405003F
:10588000678000001377F70F93F7F70F3305F740A2
:10589000678000000346050083C605001305150058
:1058A000938515006314D600E31606FE3305D64033
:1058B000678000001305450093854500E31CD6FC76
:1058C000130500006780000013058500938585009F
:1058D000E312D6FC13050000678000001305C50025
:1058E0009385C500E318D6FA130500006780000011
:1058F0001305050193850501E31ED6F81305000085
:1059000067800000130101FE232C8100232A9100EF
:1059100023282101232E11002326310193040500A1
:105920001389050013040600630805008327850119
:1059300063940700EFE00FCD97470000938787FF40
:10594000631EF40A03A44400832784012324F40083
:105950008357C40093F787006386070C83270401ED
:105960006382070C83270401032504009379F90F50
:105970001379F90F3305F54083274401634AF50095
:105980009305040013850400EF0080526314050A98
:1059900083278400130515009387F7FF2324F40061
:1059A00083270400138717002320E4002380370196
:1059B00083274401638CA7008357C40093F7170023
:1059C000638E07009307A000631AF9009305040093
:1059D00013850400EF00C04D631E05048320C10140
:1059E00003248101832441018329C1001305090097
:1059F000032901011301010267800000974700009D
:105A0000938747F56316F40003A484006FF0DFF377
:105A100097470000938707F0E318F4F203A4C4004B
:105A20006FF09FF29305040013850400EF008008D7
:105A3000E30A05F21309F0FF6FF05FFA63840502D1
:105A40009307F00F63FAC7009307A0082320F5001F
:105A50001305F0FF678000002380C50013051000C8
:105A6000678000001305000067800000130101FF3C
:105A70002324810013040500138505009305060007
:105A80001386060023A2018A23261100EFB04FEEF1
:105A90009307F0FF6318F50083A7418A638407002A
:105AA0002320F4008320C10003248100130101019D
:105AB00067800000130101FF23248100232291004D
:105AC000232021012326110097A4FF0F83A4047132
:105AD0001309050013840500638A040083A7840169
