:0200000480007A
:1000000073700430735040309711001093818185D4
:1000100017010110130101FF97120000938202865D
:100020007390523073F05130170500001305450AE4
:10003000970500009385C5096302B50217460000C5
:100040001306464063FCC5008322050023A055002B
:100050001305450093854500E3E8C5FE17450000FC
:100060001305453E970500109385C5F91386418118
:1000700063FCC5008322050023A05500130545003D
:1000800093854500E3E8C5FE1385418193858194FE
:100090006378B5002320050013054500E36CB5FE29
:1000A000EF00905917250000130585EFEF10D06D74
:1000B000EF105074EF0090691305000093050000E5
:0C00C000EF00C000EF10801E6F00000079
:1000CC0097470000938707FE83A5070003A6470008
:1000DC00130101F483A687002320B10603A7C700F0
:1000EC002322C1062324D1062326E1062328B106A8
:1000FC00232AC106232E110A83A00701232CD10623
:10010C0083A24701232EE10603A3870123201108B4
:10011C0083A3C7012322510823246108174500003B
:10012C00130585CD23267108232C810A232A910AD5
:10013C002328210B2326310B2324410B2322510B83
:10014C00EF20801017450000130505CEEF20C00FDF
:10015C00732420B8232A8104F32420B0232C910487
:10016C00732520B8232EA104032841058328C1053B
:10017C0063061801732920B0232C21058327C105A0
:10018C0083298105732A00B823244105F32A00B082
:10019C0023265105732E00B82328C105832E810414
:1001AC00032F01056386EE01F32F00B02326F10522
:1001BC0083270105130601099305010813050106A0
:1001CC008324C104EF105014F32720B8232EF1021E
:1001DC00F32520B02320B104732620B82322C104B8
:1001EC008326C103032741046386E600F32020B075
:1001FC00232011048327410483220104732300B8B4
:10020C0023286102F32300B0232A7102732400B85F
:10021C00232C8102032501030328810363060501B6
:10022C00F32800B0232A11030327C109832681096F
:10023C000326410983250109832781031745000003
:10024C001305C5C03384324103294103EF101063F9
:10025C0017450000130585C0EF10107F17450000EF
:10026C00130585B9EF10507E17450000130545BFE7
:10027C00EF10907DB3049940F32920B82322310369
:10028C00732A20B023244103F32A20B823265103D8
:10029C00032E4102832EC1026306DE01732F20B0B0
:1002AC002324E1038327C10203298102F32F00B821
:1002BC00232CF101F32700B0232EF100F32500B815
:1002CC002320B10203268101832601026306D60096
:1002DC00732700B0232EE1008327010213060109C6
:1002EC009305010713050106032AC101EF00107CD9
:1002FC00F32220B823265100732320B02328610059
:10030C00F32320B8232A71000325C10003284101DF
:10031C0063060501F32020B0232811008327410137
:10032C0083290101F32800B823201101F32A00B01E
:10033C0023225101732E00B82324C101832E010006
:10034C00032F81006386EE01F32F00B02322F1010D
:10035C000327C10983268109032641098325010945
:10036C008327810017450000130545AE832A410001
:10037C00EF10D05017450000130505A8EF10D06CF6
:10038C0017450000130505B0EF10106C1745000061
:10039C001305C5B0EF10506B33864A41B385294124
:1003AC0017450000130545B0EF10504D17450000E0
:1003BC00130585B1EF1050691386040093050400F2
:1003CC0017450000130545AEEF10504B17450000C4
:1003DC00130545B0EF10506717450000130585B2A3
:1003EC00EF10906617450000130505B5EF10D065AA
:1003FC0017450000130585B7EF1010651745000071
:10040C00130505BAEF10506417450000130585BCA1
:10041C00EF10906317450000130505BFEF10D06275
:10042C0017450000130585C1EF1010621745000039
:10043C00130505C4EF1090448320C10B0324810BDA
:10044C008324410B0329010B8329C10A032A810A46
:10045C00832A410A130500001301010C6780000078
:10046C009307900023AAF1801305F0FF678000002A
:10047C001305F5FF9307100063EAA700372300006C
:10048C001305000023A26500678000009302900012
:10049C001305F0FF23AA518067800000130510009C
:1004AC0067800000130500006780000063060500EC
:1004BC001305F0FF67800000130101FF37350110B1
:1004CC00232481002326110013840500EF004056DD
:1004DC00930705002300F4008320C100032481004E
:1004EC0013051000130101016780000017070010AD
:1004FC00130787B683270700938681943385A7005B
:10050C00636ED50097F200109382022F63E8A2006D
:10051C002320A70013850700678000009307F0FFD6
:10052C001385070067800000130101FE23282101B9
:10053C0023263101232E1100232C8100232A910024
:10054C00232441011389050093090600EF109050F4
:10055C00630A053013040900330A3901638A090C54
:10056C00B3072A4193F077009304A000638E001622
:10057C00130710006382E00A930220006384500882
:10058C001303300063866006930340006388700495
:10059C0013055000638AA00293056000638CB000C1
:1005AC00834509006386952A37350110EF0080409A
:1005BC001304190083450400638295283735011014
:1005CC00EF00403F1304140083450400638E952410
:1005DC0037350110EF00003E13041400834504006E
:1005EC00638A952237350110EF00C03C13041400C8
:1005FC00834504006382951E37350110EF00803B64
:10060C001304140083450400638C951E37350110C8
:10061C00EF00403A13041400834504006388951CD2
:10062C001304140037350110EF00C038631E440B5F
:10063C00138509008320C101032481018324410116
:10064C00032901018329C100032A8100130101023E
:10065C00678000009305D00037350110EF0080351E
:10066C00834504003735011013091400EF00803462
:10067C00834514006388950837350110EF008033EB
:10068C00834519006380950A37350110EF008032DD
:10069C00834529006388950A37350110EF008031B6
:1006AC00834539006380950C37350110EF0080309D
:1006BC00834549006388950C37350110EF00802F76
:1006CC00834559006380950E37350110EF00802E5D
:1006DC00834569006388950E130479003735011042
:1006EC00EF00402DE30644F583450400E38495F6C2
:1006FC0037350110EF00002C83451400130914004A
:10070C00E39C95F69305D00037350110EF00802A55
:10071C008345140037350110EF00C02983451900BB
:10072C00E39495F69305D00037350110EF0080283F
:10073C008345190037350110EF00C0278345290088
:10074C00E39C95F49305D00037350110EF0080261B
:10075C008345290037350110EF00C025834539004A
:10076C00E39495F49305D00037350110EF00802405
:10077C008345390037350110EF00C023834549000C
:10078C00E39C95F29305D00037350110EF008022E1
:10079C008345490037350110EF00C02183455900CE
:1007AC00E39495F29305D00037350110EF008020CB
:1007BC008345590037350110EF00C01F8345690090
:1007CC00E39C95F09305D00037350110EF00801EA7
:1007DC00834569006FF05FF09305D0003735011049
:1007EC00EF00401D834504006FF01FE19305D0001E
:1007FC0037350110EF00001C834504006FF05FE2F9
:10080C009305D00037350110EF00C01A8345040062
:10081C006FF0DFDF9305D00037350110EF00801942
:10082C00834504006FF01FDC9305D00037350110B1
:10083C00EF004018834504006FF09FD99305D0005A
:10084C0037350110EF000017834504006FF01FD7F8
:10085C009305D00037350110EF00C0158345090012
:10086C006FF09FD41305F0FF6FF0DFDC130101FB79
:10087C002320110023224100232451002326610050
:10088C0023287100232AA100232CB100232EC100A0
:10089C002320D1022322E1022324F102232C010381
:1008AC00232E11032320C1052322D1052324E10586
:1008BC002326F105F322103423265102F32220348F
:1008CC0023285102F3220030232A510273252034AD
:1008DC0093050100EF0080568322C10273901234FD
:1008EC0083220103739022348322410373900230DC
:1008FC008320010003224100832281000323C100D5
:10090C008323010103254101832581010326C101B4
:10091C0083260102032741028327810203288103D6
:10092C008328C103032E0104832E4104032F810469
:10093C00832FC104130101057300203093070500B8
:10094C00630C05000327C50113050000B365B70050
:10095C0023AEB700678000001305F0FF678000002E
:10096C00930705006304050417F7FF0F0327076FB0
:10097C00B355B70293020008232655001308600CE8
:10098C0093083000130500001383F5FF9353830085
:10099C0013F6F30F23A2C7009376F30F23A0D7000F
:1009AC0023A4070123A61701678000001305F0FF9D
:1009BC0067800000930705006308050603A747013D
:1009CC0093720702639C020403A34701937303020F
:1009DC006396030403A5470113760502631006040E
:1009EC0083A6470113F80602631A080283A847017D
:1009FC0013FE080263140E0283AE470113FF0E02AE
:100A0C00631E0F0083AF470113F70F026318070033
:100A1C0083A2470113F30202E30203FA1305000059
:100A2C0023A0B700678000001305F0FF678000006B
:100A3C00630805068327450193F21700639C0204A3
:100A4C000323450193731300639603048325450127
:100A5C0013F61500631006048326450113F71600E0
:100A6C00631A07020328450193781800639408025F
:100A7C00032E4501937E1E00639E0E00032F45013D
:100A8C00937F1F0063980F008327450193F2170093
:100A9C00E38202FA032505001375F50F6780000049
:100AAC001305F00F67800000B7C7000283A687FF0D
:100ABC0083A7C7FF130101FF232611002324810004
:100ACC002322910037C6000293800600032786FF7D
:100ADC008327C6FF13080700732700B0639800092B
:100AEC00832286FF8327C6FF13880200732700B07A
:100AFC00639E5006032386FF8327C6FF130803005B
:100B0C00732700B063946006832386FF8327C6FF98
:100B1C0013880300732700B0639A7004032486FFC4
:100B2C008327C6FF13080400732700B0639080046A
:100B3C00832486FF8327C6FF13880400732700B025
:100B4C0063969002032586FF8327C6FF13080500D2
:100B5C00732700B0639CA000832586FF8327C6FF04
:100B6C0013880500732700B0E382B0F6B7C8000203
:100B7C0003AE88FF83A6C8FFF32500B0631AC8072D
:100B8C0083AE88FF83A6C8FFF32500B06312D80795
:100B9C0003AF88FF83A6C8FFF32500B0631AE805EE
:100BAC0083AF88FF83A6C8FFF32500B06312F80556
:100BBC0083A788FF83A6C8FFF32500B0631AF80249
:100BCC0003A688FF83A6C8FFF32500B06312C802F2
:100BDC0083A088FF83A6C8FFF32500B0631A180012
:100BEC0003A788FF83A6C8FFF32500B0E302E8F84B
:100BFC0083A7C8FF83A688FFB7C200021383060031
:100C0C0083A382FF83A7C2FF938E0300732F00B0D0
:100C1C006318730803A482FF83A7C2FF930E04001A
:100C2C00732F00B0631E830683A482FF83A7C2FFC9
:100C3C00938E0400732F00B06314930603A582FFF8
:100C4C0083A7C2FF930E0500732F00B0631AA30491
:100C5C0083A582FF83A7C2FF938E0500732F00B07C
:100C6C006310B30403A882FF83A7C2FF930E08008E
:100C7C00732F00B06316030383A882FF83A7C2FF00
:100C8C00938E0800732F00B0631C130103AE82FF18
:100C9C0083A7C2FF930E0E00732F00B0E302C3F7BD
:100CAC00B7CF00029307300603A68FFF83A4CFFFB4
:100CBC003304D641F32400B063E8870883A08FFF88
:100CCC0083A4CFFF3384D041F32400B063EE8706B6
:100CDC0003A78FFF83A4CFFF3304D741F32400B0C5
:100CEC0063E4870683A68FFF83A4CFFF3384D641AA
:100CFC00F32400B063EA870483A28FFF83A4CFFFA1
:100D0C003384D241F32400B063E0870403A38FFF44
:100D1C0083A4CFFF3304D341F32400B063E68702EE
:100D2C0083A38FFF83A4CFFF3384D341F32400B07C
:100D3C0063EC870003A48FFF83A4CFFF3304D4415B
:100D4C00F32400B0E3F287F6B384E441B3F58402F4
:100D5C0013060400930600001395F50093D51501B6
:100D6C00EF00905E33D884028320C10003248100FD
:100D7C0083244100130101019318F8003385A80066
:100D8C0067800000130101FF232481001304050078
:100D9C00173500001305C5F923261100EF10C04AC2
:100DAC0093050400173500001305C5F9EF10002D4D
:100DBC00F3251034173500001305C5F9EF10002C7E
:100DCC00F3253034173500001305C5F9EF10002B4F
:100DDC006F000000130101FF2324810013040500A0
:100DEC0017350000130505F923261100EF10C04537
:100DFC0093050400173500001305C5F4EF10002807
:100E0C00F3251034173500001305C5F4EF10002737
:100E1C00F3253034032481008320C10017350000F2
:100E2C00130545F4130101016F104025B7B7C40435
:100E3C009382074023A2518067800000130101FFB9
:100E4C002326110023248100930705006350050419
:100E5C001318450193584801130EB0006388C80954
:100E6C00939E2800138F4182B30FDF0183A70F00DD
:100E7C0063840700E78007008320C10003248100FE
:100E8C001305000013010101678000009316450152
:100E9C0093D046011306A00013870500636C16025D
:100EAC00939220009383C184338453000323040062
:100EBC00E30403FC9305070013850700E700030018
:100ECC008320C100032481001305000013010101DC
:100EDC006780000017030000130303EB9305070062
:100EEC0013850700E70003006FF09FFD732740F1A7
:100EFC00B700200C9316C700138640003383C6003E
:100F0C000324030093020001E3E882F69313240008
:100F1C0013888187B308780003AE080063040E00C1
:100F2C00E7000E00732540F1B70E200C9315C50099
:100F3C00138F4E00B38FE50123A08F006FF0DFF30A
:100F4C00130101FF2326110023248100EFF0DFB5EC
:100F5C009307050013844180B70503003725011062
:100F6C002320F400EFF09F9DB7C501009385052069
:100F7C0037350110EFF0DF9E173600001306C6E080
:100F8C0097350000938505E117350000130545E101
:100F9C00EF10C00E97350000938505E31735000060
:100FAC001305C5E2EF10800D8325040017350000F2
:100FBC00130505E3EF10800C970200009382C2E149
:100FCC001387818717060000130606DC9386C184FD
:100FDC001383418223A0C60023A2C60023A4C6000B
:100FEC0023A6C60023A8C60023AAC60023ACC600AD
:100FFC0023AEC60023A0C60223A2C60223A4C602A7
:10100C002320570023225700232457002326570060
:10101C0023285700232A5700232C5700232E570030
:10102C002320570223225702232457022326570238
:10103C0023285702232A5702232C5702232E570208
:10104C00232057042320530023225300232453002E
:10105C002326530023285300232A5300232C530008
:10106C00232E53002320530223225302F32340F157
:10107C003728000C13957300B308050103AE080064
:10108C00B70E000C137FEEFF23A0E80123A00E0087
:10109C00F32F40F193977F003384070183250400DD
:1010AC0013F6D5FF2320C40023A20E00F32640F133
:1010BC009392760033870201032307009373B3FFE7
:1010CC002320770023A40E00732540F1931875009C
:1010DC00338E0801032F0E00937F7FFF2320FE0128
:1010EC0023A60E00F32740F113947700B3050401F7
:1010FC0003A605009376F6FE23A0D50023A80E00C8
:10110C00F32240F11397720033030701832303008A
:10111C0013F5F3FD2320A30023AA0E00F32840F1BE
:10112C00139E7800330F0E01832F0F0093F7FFFBF4
:10113C002320FF0023AC0E00732440F193157400A0
:10114C00B386050103A606009372F6F723A056009A
:10115C0023AE0E00732740F113137700B303030182
:10116C0003A503009378F5EF23A0130123A00E022F
:10117C00732E40F1131F7E00B30F0F0183A70F00D6
:10118C0013F4F7DF23A08F0023A20E02F32540F106
:10119C0093967500B382060103A602001377F6BF7F
:1011AC0023A0E20023A40E02732340F193137300D7
:1011BC00B388030103AE080037FFFFFF1305FF7F61
:1011CC00B37FAE0023A0F80123A60E02F32740F153
:1011DC0013947700B306040183A506009302FFFF66
:1011EC0033F6550023A0C60023A80E02732740F146
:1011FC0013137700B303030183A8030037EEFFFF3B
:10120C00130FFEFF33F5E80123A0A30023AA0E025F
:10121C00F32F40F193977F0033840701832604005A
:10122C00B7C5FFFF9382F5FF33F656002320C400A9
:10123C0023AC0E02732740F113137700B3030301A1
:10124C0083A80300378EFFFF130FFEFF33F5E80171
:10125C0023A0A30023AE0E02F32F40F193977F003F
:10126C003388070103240800B706FFFF9385F6FFB8
:10127C00B372B4002320580023A00E04F32E40F1C7
:10128C003707200C8320C100032481001396CE0065
:10129C003303E600232003001301010167800000E3
:1012AC006780000067800000678000000323050052
:1012BC0083274500832685000327C50037C5B1A3C6
:1012CC00930265AC3738AA56B343530093080835DC
:1012DC00B79E7D67372370B2130101EE33CE170131
:1012EC00138F7E199307C32DB3CFE60113080102A8
:1012FC00B346F700371707002322C1012326D1007C
:10130C0093080800930257E1930E0000232071000C
:10131C002324F10117330000130303DB130E000227
:10132C0097360000938606E26F00C000832203000C
:10133C001303430093831E0013852E0013FF330009
:10134C0013873E0093070112937F3500131F2F0064
:10135C0013952F00B38FE701137F37003385A70058
:10136C0013172F0083A70FEE130F0112832F05EE17
:10137C003305EF00032705EEB3C2F200B3C7F20149
:10138C00B3CFE70013D58F0113DF0F013387A6000E
:10139C009372FF0F8347070013D58F00338F5600CE
:1013AC001377F50F83420F00338FE60003450F00D0
:1013BC001397870093FFFF0FB3025700B387F60113
:1013CC0083CF0700139F82003307AF0013158700EC
:1013DC003307F501131517009352F50193172700E6
:1013EC00B38FF200139F1F0093D2FF01B387E2016A
:1013FC00939F170093D2F701B387F201939F1700C5
:10140C0093D2F70193FE3E0093930301139F2E009A
:10141C0093DE0341B383F201939F130093D7F3013F
:10142C00B382F7019393120093DFF201B3877F002D
:10143C009392170093D3F701B3875300939F170030
:10144C0093D2F701B383F201939F130093D7F30167
:10145C00B382F7019393120093DFF201B3877F00FD
:10146C00330FE1019392170093D3F701832F0F00F1
:10147C00B38753009392170093D3F701B38772008D
:10148C00B34FF701930270019382F2FF9393020121
:10149C001357F70193D203013307E5006394024C11
:1014AC0033C5F701B347E50023A0F8002320FF0064
:1014BC0093884800E39CCEE713050000130E00024E
:1014CC0093080000930F3500930E150013032500AD
:1014DC0093F23F0093982800137F33001397220058
:1014EC003383150193F83E0093132F00B387E50067
:1014FC00139728003385750093920E0183A3070080
:10150C00B387E500032F0500832F080013D5024194
:10151C0083A20700B3CFF20133CFEF01B3437F00B7
:10152C0093DE830193D703013387D60193F2F70F30
:10153C0093DE8300834F0700338F560083420F00E6
:10154C0093F7FE0F338FF60013978F0093F3F30F7F
:10155C00834F0F00B30E5700B382760083C702008F
:10156C00139F8E003307FF01931F87003387FF0003
:10157C00931E170093D3FE0193122700B38F7200B2
:10158C00139F1F0093D7FF01B383E70193921300BE
:10159C0013DFF301B3075F009393170093D2F701A6
:1015AC00B3877200139F170093D3F701B382E30143
:1015BC00139F120093D7F201B383E70193921300A8
:1015CC0013DFF301B3075F0083230300939217002B
:1015DC0013DFF701B3075F0093921700334F7700C7
:1015EC0093D7F701B382F20093030700B347FF01CF
:1015FC00130F2001939F130093D3F301B3837F0048
:10160C00939F130093D3F301B38F7F0093931F0029
:10161C0093DFFF01B383F301939F130093D3F30183
:10162C00B38F7F0093931F0093DFFF01B383F3010C
:10163C00939F130093D3F301B38F7F0093931F00F9
:10164C0093DFFF01B383F301939F1300130F7FFF0D
:10165C0093D3F301B38F7F00131F0F0193931F00DC
:10166C00135F0F0193DFFF01B383F301E3140FF852
:10167C001357F701B38FEE00B3C2F20013077001DA
:10168C00939E1F009307F7FF139F070193DFFF0142
:10169C0093570F013387FE016392073EB3CE72005E
:1016AC00B3C3EE002320730013084800E31CC5E10C
:1016BC0003A5C50003AE850003A3450083A5050063
:1016CC001308010A930708002328A100232AC1014B
:1016DC00232C6100232EB1001307C10993030112BF
:1016EC0083220700832FC7FF032F87FF832E47FF1B
:1016FC00032E07FF0323C7FE832887FE832547FE9F
:10170C0023A0570023A2F70123A4E70123A6D701A6
:10171C0023A8C70123AA670023AC170123AEB70087
:10172C0093870702130707FEE39C77FA1303000065
:10173C0093030002130E130093723E00930F2300C9
:10174C00139F220093FE3F00930833009305010181
:10175C0093922E0013F73800B385E501930701121D
:10176C00B38F5700032F08009312270083A805009E
:10177C0013070112B307570083AE0FEF83AF07EFC8
:10178C00B3C8E80133CFD801B342FF0193DE820125
:10179C0093D702013387D60193FFF70F93DE8200B4
:1017AC0083480700338FF601834F0F0093F7FE0F2A
:1017BC00338FF6001397880093F2F20F83480F00D3
:1017CC00B30EF701B38F560083C70F00139F8E0023
:1017DC0033071F01931887003387F800131F170076
:1017EC009352FF01931E2700B38F5E0093D7FF0126
:1017FC0093981F00B388170193921800137333004A
:10180C0093D8F801B3825800931E2300930701016B
:10181C00131E0E01B38ED70113530E4193D7F20151
:10182C00139E1200B388C7019392180013DEF801BF
:10183C00B3075E009398170093D2F701B387120198
:10184C00139E170093D8F701B382C801139E1200A0
:10185C0093D7F201B388C701139E180093D7F801F0
:10186C003345A700B308FE0093020700B3C7AF00CF
:10187C00130E2001939F120093D2F20133855F0067
:10188C00931F15009352F50133855F0093121500D9
:10189C00935FF5013385F201931F15009352F50107
:1018AC0033855F0093121500935FF5013385F201C8
:1018BC00931F15009352F50133855F0093121500A9
:1018CC00935FF5013385F201931F15009352F501D7
:1018DC0033855F00130E7EFF93121500935FF501A5
:1018EC0013150E01135E0501B382F201E3140EF819
:1018FC001357F701B30FEF0013971F0033CFF80006
:10190C00930770019388F7FF93D7FF01939F08010A
:10191C0013D50F013307F700631C050C33CEE2011E
:10192C00B342EE0023A05E00130848006306730068
:10193C0003A505006FF01FE08326C10183238101FD
:10194C0083254101832E01012320D600232276001A
:10195C002324B6002326D60113050000130101121F
:10196C00678000001355F70193131700B383A3008E
:10197C001397130013D5F301B303A70013951300AA
:10198C0013D7F301B303E5001397130013D5F30139
:10199C00B303A7001395130013D7F301B303E500AA
:1019AC001397130013D5F301B303A700139513007A
:1019BC0013D7F301B303E5001397130013D5F30109
:1019CC00B303A7001395130013D7F301B303E5007A
:1019DC0013D5F30113971300938262FF3307A7000B
:1019EC009393020193D20301131517006FF0DFA933
:1019FC00931817009357F701B38FF80013971F0034
:101A0C0013DEFF01B308C7019397180093DFF801A9
:101A1C00338EF70113171E009358FE01B3071701FD
:101A2C00939F170013DEF701B388CF0113971800AB
:101A3C0093D7F801B30FF700139E1F0093D8FF0143
:101A4C00B3071E011397170093DFF701B308F701D3
:101A5C00139E180093D7F801B30FFE0013971F00C5
:101A6C0093D8FF01130565FFB30F1701131E050172
:101A7C0093570E0113971F006FF0DFE8131F170029
:101A8C00935EF701B30FDF0113971F0013DFFF0104
:101A9C00B30FE701939E1F0013D7FF01338FEE00A6
:101AAC00931F1F00935EFF013387DF01131F170085
:101ABC00935FF701B30EFF0113971E0013DFFE01B6
:101ACC00B30FE701939E1F0013D7FF01338FEE0076
:101ADC00931F1F00935EFF013387DF01131F170055
:101AEC00935FF701B30EFF0113971E0013DFFE0186
:101AFC00938767FFB30FE701939E070113D70E017E
:101B0C00939E1F006FF01FB8130101FE23200100EC
:101B1C002322010023240100232601002328010095
:101B2C00232A0100232C0100232E01007B20050217
:101B3C007BA005047B60000E7B20060813050000CB
:101B4C0013010102678000009308050093870500CC
:101B5C0013080600138506001383080063940628F7
:101B6C00972600009386066E63F6C50E37070100B4
:101B7C006378E60C1307F00F3337C70013173700E1
:101B8C003355E600B386A60083C606001305000293
:101B9C003387E600B306E540630CE500B395D70048
:101BAC0033D7E8003318D600B365B7003393D800A9
:101BBC0093580801B3D615031316080113560601E2
:101BCC009357030133F7150313850600B305D602AB
:101BDC0013170701B367F70063FEB700B38707015C
:101BEC001385F6FF63E8070163F6B7001385E6FF7C
:101BFC00B3870701B387B74033F7170313130301F8
:101C0C0013530301B3D7170313170701336367008B
:101C1C00B306F60213860700637CD3003303680017
:101C2C001386F7FF636603016374D3001386E7FF23
:101C3C00131505013365C500930500006F00400EB8
:101C4C003705000113070001E36CA6F213078001AE
:101C5C006FF01FF363160600130710003358C7020A
:101C6C00370701006370E80C1307F00F637407016A
:101C7C00130580003357A800B386E60003C706009F
:101C8C00130600023307A700B306E6406316E60A04
:101C9C00B3870741930510009358080113160801E8
:101CAC001356060113570301B3F61703B3D71703E3
:101CBC009396060133E7E600330EF6021385070010
:101CCC00637EC701330707011385F7FF63680701BC
:101CDC006376C7011385E7FF330707013307C74155
:101CEC00B37717031313030113530301335717036C
:101CFC009397070133E36700B306E6021306070068
:101D0C00637CD300330368001306F7FF636603019B
:101D1C006374D3001306E7FF131505013365C50083
:101D2C00678000003707000113050001E364E8F445
:101D3C00130580016FF01FF43318D80033D5E7007A
:101D4C003393D800B397D70033D7E80093580801E2
:101D5C003366F700337715039317080193D7070100
:101D6C009355060133551503131707013367B70055
:101D7C00B386A70293050500637ED70033070701DE
:101D8C009305F5FF636807016376D7009305E5FFBC
:101D9C0033070701B306D74033F7160313160601B2
:101DAC0013560601B3D61603131707013385D70252
:101DBC00B367C7001387060063FEA700B38707014C
:101DCC001387F6FF63E8070163F6A7001387E6FFA6
:101DDC00B387070193950501B387A740B3E5E500E9
:101DEC006FF09FEB63E6D5183707010063F4E60448
:101DFC001307F00FB335D7009395350033D5B600E4
:101E0C0017270000130707443307A70003470700F1
:101E1C00130500023307B700B305E5406316E5026E
:101E2C0013051000E3EEF6EE33B5C80013451500AC
:101E3C006FF01FEF3707000193050001E3E0E6FCAC
:101E4C00930580016FF09FFB3358E600B396B60004
:101E5C003368D80033D3E700935E0801B376D3031D
:101E6C00B397B70033D7E800331EB6003366F700DC
:101E7C009317080193D70701135706013353D30364
:101E8C009396060133E7E600338F670213050300D0
:101E9C00637EE701330707011305F3FF636807014E
:101EAC006376E7011305E3FF330707013307E741C7
:101EBC00B376D7033357D703939606013383E702E0
:101ECC009317060193D70701B3E7F6001306070033
:101EDC0063FE6700B38707011306F7FF63E807018A
:101EEC0063F667001306E7FFB387070113150501B7
:101EFC00B70E01003365C5009386FEFF13560E0125
:101F0C0013580501B38767403373D500B376DE00F1
:101F1C00330ED302B306D80213570E013303C30298
:101F2C003303D300330767003308C8026374D70048
:101F3C003308D801935607013388060163E607037B
:101F4C00E39C07CFB70701009387F7FF3377F700C0
:101F5C0013170701337EFE00B398B8003307C7018F
:101F6C0093050000E3FEE8DA1305F5FF6FF0DFCC14
:101F7C0093050000130500006FF09FDA9305050030
:101F8C009306000013060000130500006F00805735
:101F9C00130101FF23248100232291001724000048
:101FAC001304844997240000938404493304944017
:101FBC002326110013542440631C04008320C10009
:101FCC000324810083244100130101016780000078
:101FDC001304F4FF93172400B387F40083A70700BE
:101FEC00E78007006FF05FFD130101FF23248100E0
:101FFC0023229100172400001304044497240000AA
:10200C0093848443B384844023202101232611002C
:10201C0093D4244013090000631E99021724000076
:10202C00130484419724000093840441B3848440B6
:10203C0093D4244013090000631899028320C10033
:10204C0003248100832441000329010013010101B1
:10205C00678000008327040013091900130444004F
:10206C00E78007006FF05FFB83270400130919005A
:10207C0013044400E78007006FF01FFC130101FB01
:10208C00232481022326110213040500232AB10202
:10209C00232CC102232ED1022320E1042322F1049C
:1020AC00232401052326110503A58180630C05005B
:1020BC0083278501639807002326A100EF00D00732
:1020CC000325C100832585009306410313060400F4
:1020DC00232ED100EF1040008320C1020324810283
:1020EC001301010567800000130101FE232A9100F2
:1020FC0023282101232E1100232C810023263101BA
:10210C00232441019304050013890500630805008D
:10211C008327850163940700EF00100283A78401D5
:10212C0003A484006396070013850400EF00D0001D
:10213C009727000093870723631EF40403A444002D
:10214C008357C40093F78700638A0706832704012B
:10215C00638607069309F0FF130AA0008327840007
:10216C00834509009387F7FF639405082324F40043
:10217C0063D0070C130604009305A000138504001C
:10218C00EF00800D9307F0FF6302F5041305A00028
:10219C006F000004972700009387C71E6316F40096
:1021AC0003A484006FF0DFF9972700009387871949
:1021BC00E318F4F803A4C4006FF09FF8930504002F
:1021CC0013850400EF00C01CE30605F81305F0FFAF
:1021DC008320C101032481018324410103290101CE
:1021EC008329C100032A81001301010267800000CA
:1021FC002324F4001309190063D807000327840172
:10220C0063CEE700638C4501832704001387170016
:10221C002320E4002380B7006FF05FF41306040062
:10222C0013850400EF004003E31A35F36FF01FFA37
:10223C0083270400138717002320E4001307A00052
:10224C002380E7006FF09FF49305050003A58180C0
:10225C006FF09FE96FE08FA4130101FE232C810026
:10226C00232A910023282101232E1100232631013A
:10227C009304050013890500130406006308050088
:10228C008327850163940700EF00006B97270000FC
:10229C009387470D631EF40A03A44400832784012B
:1022AC002324F4008357C40093F787006386070C3C
:1022BC00832704016382070C832704010325040090
:1022CC009379F90F1379F90F3305F54083274401FE
:1022DC00634AF5009305040013850400EF00C04B1E
:1022EC006314050A83278400130515009387F7FFF1
:1022FC002324F40083270400138717002320E40011
:10230C002380370183274401638CA7008357C400C3
:10231C0093F71700638E07009307A000631AF90068
:10232C009305040013850400EF000047631E0504A9
:10233C008320C10103248101832441018329C1002D
:10234C001305090003290101130101026780000034
:10235C0097270000938707036316F40003A48400F7
:10236C006FF0DFF3972700009387C7FDE318F4F2B3
:10237C0003A4C4006FF09FF29305040013850400BE
:10238C00EF000001E30A05F21309F0FF6FF05FFAAA
:10239C00130101FF2324810023229100232021011A
:1023AC002326110083A481801309050013840500E2
:1023BC00638A040083A784016396070013850400D5
:1023CC00EF008057972700009387C7F9631EF4022C
:1023DC0003A444008317C4001397070193F68700E6
:1023EC0013570701639A0608937607016392060454
:1023FC00130790002320E90093E707042316F40049
:10240C001305F0FF6F00000D97270000938787F7E7
:10241C006316F40003A484006FF0DFFB9727000021
:10242C00938747F2E318F4FA03A4C4006FF09FFA01
:10243C0013774700630C070283254403638C050064
:10244C00930744046386F50013050900EF00101987
:10245C00232A04028357C4002322040093F7B7FDF8
:10246C002316F400832704012320F4008357C400AF
:10247C0093E787002316F400832704016390070277
:10248C008357C4001307002093F707286388E700DD
:10249C009305040013050900EF0080778317C4002F
:1024AC001397070193F6170013570701638006046F
:1024BC008326440123240400B306D040232CD400EB
:1024CC0083260401130500006396060013770708A2
:1024DC00E31407F28320C10003248100832441000C
:1024EC000329010013010101678000009376270086
:1024FC001306000063940600032644012324C40041
:10250C006FF01FFC9308050013858181832705005C
:10251C00639207021387C18B2320E500130500008B
:10252C009307070063080500832705002324F70899
:10253C009307070003A747001308F0011305F0FFEA
:10254C006340E8066382080403A88708630A08044A
:10255C00131527003305A8002320C50003230810FA
:10256C00130610003316E6003363C30023206810F3
:10257C002320D508930620006398D80083264810A2
:10258C0033E6C6002322C810930617001317270042
:10259C0023A2D700B387E70023A4B70013050000DC
:1025AC006780000083D7C500130101FE232C810036
:1025BC00232A9100232E11002328210123263101E7
:1025CC0013F78700930405001384050063120716A4
:1025DC0003A74500634AE00003A705046346E00037
:1025EC00130500006F0040120327C402E30A07FE24
:1025FC00B716000003A90400B3F7D70023A004000A
:10260C006380070C032544058357C40093F74700E8
:10261C00638E0700832744003305F540832744036A
:10262C0063860700832704043305F5408327C4021F
:10263C00832504021306050093060000138504008D
:10264C00E78007009307F0FF0357C4006312F502FD
:10265C0083A604009307D00163E6D70CB70740208C
:10266C0093871700B3D7D70093F71700638C070A2B
:10267C0083270401232204002320F400B717000051
:10268C003377F700630C07009307F0FF6316F50030
:10269C0083A7040063940700232AA404832544031E
:1026AC0023A02401E38E05F2930744046386F5000E
:1026BC0013850400EF008072232A04026FF05FF28E
:1026CC0083250402930610001306000013850400F2
:1026DC00E70007009307F0FFE318F5F283A7040067
:1026EC00E38407F21307D0016386E7001307600148
:1026FC006396E70023A024016FF09FEE8357C4007C
:10270C0093E707042316F4008320C10103248101FD
:10271C0083244101032901018329C1001301010212
:10272C0067800000136707042316E4006FF0DFFDD9
:10273C0083A90501E38609EA03A9050093F737008D
:10274C0023A03501330939411307000063940700B6
:10275C0003A745012324E400E35420E983278402E2
:10276C0083250402930609001386090013850400CF
:10277C00E7800700634CA0008357C4001305F0FFEB
:10278C0093E707042316F4006FF01FF8B389A90030
:10279C003309A9406FF05FFC83A70501638A070822
:1027AC00130101FE232C8100232E110013040500BC
:1027BC00630C050083278501639807002326B1006D
:1027CC00EF0080178325C10097270000938787B9F6
:1027DC006392F502832544008397C5006380070448
:1027EC0013050400032481018320C101130101029C
:1027FC006FF05FDB972700009387C7B86396F500EF
:10280C00832584006FF05FFD97270000938787B3C3
:10281C00E394F5FC8325C4006FF01FFC8320C101F9
:10282C0003248101130500001301010267800000DD
:10283C001305000067800000130101FF23248100B1
:10284C0023261100130405002316B5002317C50019
:10285C00232005002322050023240500232205063E
:10286C0023280500232A0500232C050013068000CD
:10287C00930500001305C505EF008048971700006D
:10288C00938707C62322F40297170000938747CA41
:10289C002324F402971700009387C7D12326F40250
:1028AC0097170000938787D68320C10023208402CA
:1028BC002328F40203248100130101016780000026
:1028CC0097050000938585ED6F008020130101FFB3
:1028DC0023229100130680069384F5FFB384C4026F
:1028EC0023202101138905002324810023261100B4
:1028FC0093854407EF00405E130405006300050256
:10290C0023200500232225011305C5002324A40040
:10291C001386840693050000EF00803E8320C100DF
:10292C0013050400032481008324410003290100C2
:10293C001301010167800000832785016394070A56
:10294C00130101FF232481002326110097070000A7
:10295C00938747F72324F502232405042326050433
:10296C002328050483A70181130405006316F500D1
:10297C0093071000232CF50013050400EF00C0068C
:10298C002322A40013050400EF0000062324A40056
:10299C0013050400EF0040052326A4000325440082
:1029AC001306000093054000EFF01FE90325840097
:1029BC001306100093059000EFF01FE80325C400E8
:1029CC001306200093052001EFF01FE7930710007A
:1029DC008320C100232CF400032481001301010186
:1029EC006780000067800000130101FF2322910023
:1029FC0083A4018183A784012320210123261100B4
:102A0C002324810013090500639607001385040035
:102A1C00EFF09FF29384840403A4840083A7440002
:102A2C009387F7FF63DA070083A704006380070826
:102A3C0083A404006FF05FFE0317C4006314070641
:102A4C00B707FFFF938717002322040623200400F7
:102A5C0023220400232404002326F400232804004A
:102A6C00232A0400232C0400130680009305000085
:102A7C001305C405EF00C028232A0402232C0402EA
:102A8C0023240404232604048320C100130504001A
:102A9C000324810083244100032901001301010157
:102AAC0067800000130484066FF09FF793054000C5
:102ABC0013050900EFF09FE123A0A4001304050007
:102ACC00E31805F69307C0002320F9006FF0DFFB35
:102ADC00130101FD2324810223202103232E310124
:102AEC00232C410123286101232671012326110285
:102AFC0023229102232A510113090500138A050090
:102B0C001304850493090000130B1000930BF0FFC2
:102B1C0083248400832A4400938AFAFF63DE0A022A
:102B2C0003240400E31604FE8320C1020324810263
:102B3C008324410203290102032A8101832A4101D2
:102B4C00032B0101832BC100138509008329C101CB
:102B5C00130101036780000083D7C400637EFB0070
:102B6C008397E400638A77019385040013050900B9
:102B7C00E7000A00B3E9A900938484066FF0DFF93B
:102B8C00130101F923202107138905008395E50022
:102B9C002324810623229106232611061304060002
:102BAC009384060063DE05008317C90023A004008C
:102BBC0093F70708639C0702930700406F004003DC
:102BCC0013068100EF00502DE34005FE0327C100E2
:102BDC00B7F70000B3F7E70037E7FFFFB387E7006D
:102BEC0093B7170023A0F4006FF01FFD93070004A8
:102BFC008320C1062320F40003248106832441068C
:102C0C00032901061305000013010107678000006A
:102C1C0083D7C500130101FE232C8100232E110044
:102C2C00232A91002328210193F727001384050000
:102C3C0063880702930774042320F4002328F4000C
:102C4C0093071000232AF4008320C101032481017F
:102C5C008324410103290101130101026780000053
:102C6C009306C1001306810013090500EFF05FF114
:102C7C00832581009304050013050900EF00C0258E
:102C8C00631005028317C40013F70720E31E07FA2D
:102C9C0093F7C7FF93E727002316F4006FF09FF913
:102CAC0097070000938707C22324F9028357C400B7
:102CBC002320A4002328A40093E707082316F4007C
:102CCC0083278100232AF4008327C1006382070233
:102CDC008315E40013050900EF005020630A05007A
:102CEC008357C40093F7C7FF93E717002316F4002C
:102CFC000355C400B3E4A400231694006FF0DFF472
:102D0C001303F00013070500637EC3029377F700EB
:102D1C006390070A63920508937606FF1376F60014
:102D2C00B386E6002320B7002322B7002324B70084
:102D3C002326B70013070701E366D7FE63140600CA
:102D4C0067800000B306C3409396260097020000EC
:102D5C00B38656006780C6002307B700A306B700EA
:102D6C002306B700A305B7002305B700A304B700DB
:102D7C002304B700A303B7002303B700A302B700D3
:102D8C002302B700A301B7002301B700A300B700CB
:102D9C002300B7006780000093F5F50F939685002C
:102DAC00B3E5D50093960501B3E5D5006FF0DFF6DA
:102DBC009396270097020000B3865600938200007A
:102DCC00E78006FA93800200938707FF3307F740EA
:102DDC003306F600E378C3F66FF0DFF3638C050E71
:102DEC0083A7C5FF130101FE232C8100232E1100A4
:102DFC001384C5FF63D407003304F4002326A10019
:102E0C00EF0090181387C181832707000325C100A9
:102E1C00639E0700232204002320870003248101E2
:102E2C008320C101130101026F0050166374F40278
:102E3C0003260400B306C400639AD70083A60700D8
:102E4C0083A74700B386C6002320D4002322F400B6
:102E5C006FF09FFC1387070083A74700638407006C
:102E6C00E37AF4FE832607003306D7006318860244
:102E7C0003260400B386C6002320D7003306D700F0
:102E8C00E39EC7F803A6070083A74700B306D60046
:102E9C002320D7002322F7006FF05FF86378C4007B
:102EAC009307C0002320F5006FF05FF703260400A2
:102EBC00B306C400639AD70083A6070083A7470014
:102ECC00B386C6002320D4002322F40023228700DB
:102EDC006FF0DFF467800000130101FE232A9100DC
:102EEC009384350093F4C4FF23282101232E110071
:102EFC00232C810023263101938484009307C00086
:102F0C001309050063F4F4069304C00063E2B406ED
:102F1C0013050900EF0050079386C18103A7060033
:102F2C0013040700631A0406138401828327040028
:102F3C00639A07009305000013050900EF00005683
:102F4C002320A4009385040013050900EF0000550D
:102F5C009309F0FF631A350B9307C0002320F90087
:102F6C0013050900EF0090026F000001E3D004FA92
:102F7C009307C0002320F900130500008320C10132
:102F8C000324810183244101032901018329C10008
:102F9C00130101026780000083270400B387974068
:102FAC0063CE07041306B000637AF6002320F40006
:102FBC003304F400232094006F00000183274400A5
:102FCC00631A870223A0F60013050900EF00007CAA
:102FDC001305B40093074400137585FF3307F540C0
:102FEC00E30EF5F83304E400B387A7402320F40084
:102FFC006FF0DFF82322F7006FF01FFD13070400BA
:10300C00032444006FF01FF2130435001374C4FF43
:10301C00E30285FAB305A44013050900EF0000484C
:10302C00E31A35F96FF05FF3832786009387F7FF78
:10303C002324F60063DC07000327860163C6E70040
:10304C009307A0006394F5006FF00FA1832706008F
:10305C0013850500138717002320E6002380B70093
:10306C0067800000130101FE232C8100232A9100AC
:10307C00232821012326310123244101232E110071
:10308C00130905009389050013040600B304D60048
:10309C00130AF0FF63169400130500006F00C001C3
:1030AC00834504001386090013050900EFF0DFF7D0
:1030BC0013041400E31045FF8320C1010324810194
:1030CC0083244101032901018329C100032A8100C2
:1030DC001301010267800000130101F6232C810803
:1030EC00232A91082328210923263109232E11088C
:1030FC00232441092322510923206109232E71071E
:10310C00232C8107232A910793090500938405003A
:10311C001309060013840600630805008327850144
:10312C0063940700EFF05F81971700009387872364
:10313C006392F41283A4490083D7C40093F78700E9
:10314C00638E071283A70401638A07129307000298
:10315C00A304F10293070003232201022305F102C9
:10316C0023268100930B5002971A0000938A8A231E
:10317C00130C1000130BA000130409008347040068
:10318C006384070063907715B30C24416306240312
:10319C0093860C001306090093850400138509001F
:1031AC00EFF05FEC9307F0FF6300F52C83274102EF
:1031BC00B38797012322F102834704006386072A11
:1031CC009307F0FF1309140023280100232E01009C
:1031DC00232AF100232C0100A30901042324010656
:1031EC00834509001306500013850A00EF00805731
:1031FC008327010113041900631A050C13F7070147
:10320C006306070013070002A309E10413F7870004
:10321C00630607001307B002A309E1048346090003
:10322C001307A0026380E60C8327C1011304090075
:10323C009306000013069000034704009305140046
:10324C00130707FD6372E610638A060A232EF1004A
:10325C006F00C00A971700009387C7126396F4009B
:10326C0083A489006FF05FED971700009387870D9B
:10327C00E394F4EC83A4C9006FF01FEC9385040075
:10328C0013850900EFF0CF90E30205EC1305F0FF76
:10329C008320C109032481098324410903290109DD
:1032AC008329C108032A8108832A4108032B0108BA
:1032BC00832BC107032C8107832C41071301010ABF
:1032CC0067800000130414006FF05FEB3305554169
:1032DC003315AC00B3E7A7002328F1001309040051
:1032EC006FF01FF00327C100930647000327070068
:1032FC002326D10063400704232EE100034704007A
:10330C009307E0026314F708034714009307A00225
:10331C00631AF7048327C1001304240013874700A2
:10332C0083A707002326E10063CA0702232AF100C2
:10333C006F00C0053307E04093E72700232EE10020
:10334C002328F1006FF09FFBB387670313840500FC
:10335C0093061000B387E7006FF01FEE9307F0FFA2
:10336C006FF0DFFC13041400232A01009306000005
:10337C009307000013069000034704009305140004
:10338C00130707FD637AE608E39206FA8345040007
:10339C00130630001715000013054501EF00803CA3
:1033AC006304050297170000938747003305F54027
:1033BC0093070004B397A70003250101130414001D
:1033CC003365F5002328A100834504001306600033
:1033DC00171500001305C5FD130914002304B102D1
:1033EC00EF004038630C050893070000639807044E
:1033FC00032701018327C100137707106308070215
:10340C00938747002326F10083274102B3874701A6
:10341C002322F1026FF05FD6B38767031384050094
:10342C0093061000B387E7006FF01FF593877700C2
:10343C0093F787FF938787006FF0DFFC1307C100BA
:10344C0097060000938646C213860400930501017B
:10345C001385090097000000E70000009307F0FFB8
:10346C00130A0500E312F5FA83D7C40093F7070497
:10347C00E39E07E0032541026FF09FE11307C100B3
:10348C0097060000938646BE13860400930501013F
:10349C0013850900EF00C04A6FF05FFC130101FFB8
:1034AC0023248100130405001385050023AA018041
:1034BC0023261100EFD08F839307F0FF6318F500DC
:1034CC0083A74181638407002320F4008320C1007B
:1034DC00032481001301010167800000130101FF27
:1034EC0023248100138405008395E5002326110015
:1034FC00EF00407F6340050283274405B387A70094
:10350C00232AF4048320C100032481001301010148
:10351C00678000008357C40037F7FFFF1307F7FFDE
:10352C00B3F7E7002316F4006FF0DFFD83D7C50077
:10353C00130101FE232C8100232A91002328210151
:10354C0023263101232E110093F707109304050055
:10355C00138405001309060093890600638A07008B
:10356C008395E5009306200013060000EF00001B76
:10357C008357C40037F7FFFF1307F7FFB3F7E700D4
:10358C008315E4002316F400032481018320C10178
:10359C0093860900130609008329C1000329010140
:1035AC001385040083244101130101026F004006BE
:1035BC00130101FF23248100138405008395E5008A
:1035CC0023261100EF0080159307F0FF0357C4006A
:1035DC006312F502B7F7FFFF9387F7FFB3F7E70026
:1035EC002316F4008320C100032481001301010180
:1035FC0067800000B7170000B367F7002316F400CC
:10360C00232AA4046FF01FFE8395E5006F00C0040D
:10361C00130101FF23248100130405001385050009
:10362C00930506001386060023AA018023261100A9
:10363C00EFC09FEF9307F0FF6318F50083A741815C
:10364C00638407002320F4008320C100032481003D
:10365C001301010167800000130101FF2324810085
:10366C00130405001385050023AA018023261100ED
:10367C00EFC01FDF9307F0FF6318F50083A74181AC
:10368C00638407002320F4008320C10003248100FD
:10369C001301010167800000130101FF2324810045
:1036AC0013040500138505009305060023AA018069
:1036BC0023261100EFC0DFDB9307F0FF6318F50042
:1036CC0083A74181638407002320F4008320C10079
:1036DC00032481001301010167800000130101FF25
:1036EC0023248100130405001385050023AA0180FF
:1036FC0023261100EFC09FDA9307F0FF6318F50043
:10370C0083A74181638407002320F4008320C10038
:10371C00032481001301010167800000130101FFE4
:10372C00232481001304050013850500930506006E
:10373C001386060023AA018023261100EFC09FD612
:10374C009307F0FF6318F50083A74181638407009A
:10375C002320F4008320C100032481001301010104
:10376C006780000093F5F50F3306C5006316C5009E
:10377C00130500006780000083470500E38CB7FE4B
:10378C00130515006FF09FFE678000006780000036
:10379C00130101FD232C410183A70501130A070026
:1037AC0003A785002324810223229102232E3101B9
:1037BC00232A5101232611022320210323286101EE
:1037CC002326710193090500138405009304060058
:1037DC00938A060063D4E7009307070023A0F40044
:1037EC0003473404630607009387170023A0F400F3
:1037FC008327040093F707026388070083A704005C
:10380C009387270023A0F40003290400137969008F
:10381C00631E0900130B9401930BF0FF8327C40064
:10382C0003A70400B387E7406342F90883473404D5
:10383C00B336F0008327040093F707026390070C5C
:10384C001306340493850A0013850900E7000A0067
:10385C009307F0FF6308F506832704001306400066
:10386C0003A7040093F767008326C40093040000A9
:10387C006398C700B384E64063D40400930400004B
:10388C0083278400032704016356F700B387E740BE
:10389C00B384F400130900001304A401130BF0FF0C
:1038AC0063902409130500006F00000293061000BA
:1038BC0013060B0093850A0013850900E7000A0024
:1038CC00631A75031305F0FF8320C10203248102E0
:1038DC0083244102032901028329C101032A8101A6
:1038EC00832A4101032B0101832BC1001301010326
:1038FC0067800000130919006FF05FF23307D400E2
:10390C0013060003A301C70403475404938716004E
:10391C00B307F40093862600A381E7046FF05FF2EF
:10392C00930610001306040093850A001385090002
:10393C00E7000A00E30865F9130919006FF05FF658
:10394C00130101FD23248102232291022320210350
:10395C00232E310123261102232C4101232A51014C
:10396C002328610103C88501930780079304050090
:10397C0013840500130906009389060063EE070102
:10398C00930720069386350463EE0701630C082821
:10399C00930780056302F81C930A24042301040591
:1039AC006F0080049307D8F993F7F70F13065001B3
:1039BC00E364F6FE17160000130686A29397270001
:1039CC00B387C70083A70700B387C70067800700CA
:1039DC0083270700938A25049386470083A7070053
:1039EC002320D7002381F504930710006F00402794
:1039FC0083A705000325070013F607089305450068
:103A0C0063060602832705002320B70063D807004E
:103A1C001307D002B307F040A301E404171600000B
:103A2C00130686991308A0006F00800613F607048E
:103A3C00832705002320B700E30A06FC93970701B0
:103A4C0093D707416FF09FFC03A60500832707005F
:103A5C001375060893854700630805002320B700FB
:103A6C0083A707006F004001137606042320B700DC
:103A7C00E30806FE83D707001307F00617160000AD
:103A8C0013068693630EE8141308A000A301040424
:103A9C00032744002324E400634807008325040023
:103AAC0093F5B5FF2320B40063960700938A0600B4
:103ABC0063040702938A060033F70703938AFAFF1D
:103ACC003307E600034707002380EA00138707004B
:103ADC00B3D70703E37207FF930780006314F80260
:103AEC008327040093F71700638E07000327440015
:103AFC008327040163C8E70093070003A38FFAFE32
:103B0C00938AFAFFB38656412328D4001387090001
:103B1C00930609001306C1009305040013850400E5
:103B2C00EFF01FC7130AF0FF631245151305F0FFE2
:103B3C008320C10203248102832441020329010250
:103B4C008329C101032A8101832A4101032B01012D
:103B5C001301010367800000A382050517160000FE
:103B6C0013068685832504000325070013F8050832
:103B7C008327050013054500630808042320A700CC
:103B8C0013F715006306070093E505022320B40024
:103B9C0013080001E39C07EE032704001377F7FDDD
:103BAC002320E4006FF09FEE83A7050093E7070244
:103BBC0023A0F50093078007A302F4041716000056
:103BCC001306C6806FF01FFA13F805042320A70014
:103BDC00E30808FA9397070193D707016FF05FFA90
:103BEC00130880006FF09FEA03A6050083270700E7
:103BFC0083A545011378060813854700630A08005E
:103C0C002320A70083A7070023A0B7006F00800123
:103C1C002320A7001376060483A70700E30606FEFD
:103C2C002390B70023280400938A06006FF01FEE40
:103C3C008327070003A645009305000093864700E1
:103C4C002320D70083AA070013850A00EFF09FB149
:103C5C0063060500330555412322A4008327440045
:103C6C002328F400A30104046FF05FEA8326040107
:103C7C0013860A009305090013850400E7800900E8
:103C8C00E30645EB8327040093F7270063940704AE
:103C9C008327C1000325C400E35CF5E81385070006
:103CAC006FF01FE99306100013860A0093050900B4
:103CBC0013850400E7800900E30A65E7130A1A007C
:103CCC008327C4000327C100B387E740E34CFAFC09
:103CDC006FF01FFC130A0000930A9401130BF0FF02
:103CEC006FF01FFE130101FF232481001304050054
:103CFC0013850500930506001386060023AA018090
:103D0C0023261100EFC08FFA9307F0FF6318F5001C
:103D1C0083A74181638407002320F4008320C10022
:0C3D2C00032481001301010167800000E6
:103D38005472617020696E20457863657074696F8C
:103D48006E0D00004D43415553453A203078256C9F
:103D5800780D0A004D45504320203A203078256CD4
:103D6800780D0A004D5456414C203A203078256C85
:103D7800780D0A005472617020696E20496E74656E
:103D880072727570740D000030363A31323A33343D
:103D9800000000004D617920333120323032330089
:103DA80048756D6D696E67426972642053444B2093
:103DB8004275696C642054696D653A2025732C201E
:103DC80025730D0A00000000494C4D00446F776EC2
:103DD8006C6F6164204D6F64653A2025730D0A008D
:103DE800435055204672657175656E637920256C60
:103DF8007520487A0D0A00002A2A2A2A2A2A2A2AFD
:103E08002A2A2A2A2A2A2A2A2A2A2A2A2A2A2A2A0A
:103E18002A2A2A2A2A2A2A2A2A2A2A2A2A2A2A2AFA
:103E28002A2A2A2A2A2A00002A2A20626567696E15
:103E380020746F20534D3420686172647761726515
:103E480020636F6D7075746500000000255820258B
:103E5800582025582025580A000000000A000000B4
:103E68002A2A20626567696E20746F20534D3420BA
:103E7800736F66747761726520636F6D70757465B2
:103E8800000000002A2A20706572666F726D616EEC
:103E98006365206C697374200000000009206E6F50
:103EA800726D616C3A2000000920202020202069D2
:103EB8006E73747265743A2025642C206379636C80
:103EC800653A202564200A0009206E696365202070
:103ED8003A2000002A2A2A2A2A2A2A2A2A2A2A2A88
:103EE8002A2A2A2A2A2A2A2A2A2A2A2A2A2A2A2A2A
:103EF8002A2A2A2A2A2A2A2A2A2A2A2A2A2A2A2A1A
:103F08002A2A0A002A20202020202A20202A2020AD
:103F18002020202A2020202A2A2A2A2A2020202A53
:103F280020202020202020202A2A2A2A2A2A2A2043
:103F380020202A2A2A2000002A2A202020202A207D
:103F4800202A20202020202A20202A20202020204B
:103F58002A20202A20202020202020202A2020203B
:103F6800202020202020202A202000002A202A206B
:103F780020202A20202A20202020202A20202A2011
:103F8800202020202020202A20202020202020201F
:103F98002A202020202020202020202A2020000045
:103FA8002A20202A20202A20202A20202020202AD7
:103FB80020202A20202020202020202A20202020E5
:103FC800202020202A2A2A2A2A2020202020202AAD
:103FD800202000002A2020202A202A20202A2020F1
:103FE8002020202A20202A20202020202020202AAB
:103FF80020202020202020202A20202020202020AF
:104008002020202A202000002A202020202A2A20C0
:10401800202A20202020202A20202A20202020207A
:104028002A20202A20202020202020202A2020206A
:10403800202020202020202A202000002A202020A4
:1040480020202A2020202A2A2A2A2A202020202A22
:104058002A2A2A2A2020202A2A2A2A2A2A2A2020EA
:104068002A2A2A2A2A2A2A2020202A2A2A20000024
:104078000A0A2A2A2A2A2A2A2A2A2A2A2A2A2A2AD8
:104088002A2A2A2A2A2A2A2A2A2A2A2A2A2A2A2A88
:104098002A2A2A2A2A2A2A2A2A2A2A2A2A2A2A2A78
:1040A8000000000067452301EFCDAB8998BADCFE1C
:1040B8001032547634DF1E685E9606D24FE9B38616
:1040C80046426E53150E0700312A231C4D463F38D1
:1040D80069625B54857E7770A19A938CBDB6AFA850
:1040E800D9D2CBC4F5EEE7E0110A03FC2D261F1840
:1040F80049423B34655E5750817A736C9D968F8830
:10410800B9B2ABA4D5CEC7C0F1EAE3DC0D06FFF81F
:1041180029221B14453E3730615A534C7D766F680F
:1041280099928B84B5AEA7A0D1CAC3BCEDE6DFD8FF
:104138000902FBF4251E1710413A332C5D564F48EF
:1041480079726B64D690E9FECCE13DB716B614C21D
:1041580028FB2C052B679A762ABE04C3AA4413268B
:10416800498606999C4250F491EF987A33540B4350
:10417800EDCFAC62E4B31CA9C908E89580DF94FAD6
:10418800758F3FA64707A7FCF37317BA83593C19E5
:10419800E6854FA8686B81B27164DA8BF8EB0F4B38
:1041A80070569D351E240E5E6358D1A225227C3B95
:1041B80001217887D40046579FD327524C3602E70F
:1041C800A0C4C89EEABF8AD240C738B5A3F7F2CECA
:1041D800F96115A1E0AE5DA49B341A55AD93323058
:1041E800F58CB1E31DF6E22E8266CA60C02923ABC6
:1041F8000D534E6FD5DB3745DEFD8E2F03FF6A72F8
:104208006D6C5B518D1BAF92BBDDBC7F11D95C41DE
:104218001F105AD80AC13188A5CD7BBD2D74D01284
:10422800B8E5B4B08969974A0C96777E65B9F10903
:10423800C56EC68418F07DEC3ADC4D2079EE5F3E01
:10424800D7CB394800010202030303030404040422
:10425800040404040505050505050505050505050A
:1042680005050505060606060606060606060606EA
:1042780006060606060606060606060606060606D6
:1042880006060606070707070707070707070707BA
:1042980007070707070707070707070707070707A6
:1042A8000707070707070707070707070707070796
:1042B8000707070707070707070707070707070786
:1042C800070707070808080808080808080808086A
:1042D8000808080808080808080808080808080856
:1042E8000808080808080808080808080808080846
:1042F8000808080808080808080808080808080836
:104308000808080808080808080808080808080825
:104318000808080808080808080808080808080815
:104328000808080808080808080808080808080805
:1043380008080808080808080808080808080808F5
:104348000808080800000000000000000000000045
:104358000000000000000000000000000000000055
:104368000000000000000000000000000000000045
:104378000000000000000000000000000000000035
:104388000000000000000000000000000000000025
:104398000000000000000000000000000000000015
:1043A80000000000232D302B20000000686C4C001A
:1043B8006566674546470000303132333435363755
:1043C8003839414243444546000000003031323319
:1043D8003435363738396162636465660000000039
:1043E800F4F5FFFF14F6FFFFBCF5FFFFBCF5FFFF78
:1043F800BCF5FFFFBCF5FFFF14F6FFFFBCF5FFFFA0
:10440800BCF5FFFFBCF5FFFFBCF5FFFF0CF8FFFF95
:104418006CF6FFFFCCF7FFFFBCF5FFFFBCF5FFFF15
:1044280054F8FFFFBCF5FFFF6CF6FFFFBCF5FFFF7C
:08443800BCF5FFFFD8F7FFFF00
:10444000000000006C4300808C4300804C430080DF
:10445000000000000000000000000000000000005C
:10446000000000000000000000000000000000004C
:10447000000000000000000000000000000000003C
:10448000000000000000000000000000000000002C
:10449000000000000000000000000000000000001C
:1044A000A801009000B4C4040000009000000000C7
:0444B0000000009078
:040000058000000077
:00000001FF
