:0200000480007A
:100000007370043073504030971100109381819CBD
:1000100017010110130101FF97120000938202D013
:100020007390523073F051301705000013054509E5
:10003000970500009385C5086300B50217B6000058
:100040001306461563FAC5008322050023A0550058
:1000500011059105E3EAC5FE17B5000013058513E8
:1000600097050010938505FA1386C18663FAC500CB
:100070008322050023A0550011059105E3EAC5FE82
:100080001385C1869385819C6377B5002320050085
:100090001105E36DB5FEEF10E015176500001305BF
:1000A000E5C4EF50B043EF509047EF10A022014558
:0A00B00081452920EF10805301A0C4
:1000BC001D7186CEA2CCA6CACAC8CEC6D2C4D6C220
:1000CC00DAC0054513010181EF40C020856693829B
:1000DC00068210087D773383C200AA87B303E3003E
:1000EC002394F37E09451EC6EF40C01EB2442A84F9
:1000FC000D452395847EEF40E01D3248AA851145BD
:10010C002316B87EEF40001D9308401F9305401F37
:10011C0017A500001305C53546DAEF60806E15454E
:10012C00EF40401B6304056C2ADC056993090982C6
:10013C00130A01017D75B38A4901338BAA00032E82
:10014C008B7E5AC663100E6832460313C67E630A52
:10015C000374625985651388058293080101FD7447
:10016C00B30018013385900093792900130A010616
:10017C00333B3001137E19002AC62328457F231CEC
:10018C000104937A4900330F6E0163880A00930FC0
:10019C001F0093970F0113DF07019306007D33D5E2
:1001AC00E603014A7D772AD863160E6463990968C1
:1001BC0063930A6663120E586397095A13764900C3
:1001CC0015C28563138403820408B30594007D7300
:1001DC00B388650003A6C87F8395887E425546C6C2
:1001EC00EF3090795259631409208560138A00828C
:1001FC00FD790808330BAA00054E1388897E72DA44
:10020C0033040B01170A0010130A8AFDD25E8144D5
:10021C00139F2E00B30FDF0193971F003EDAEF30D0
:10022C006078D25982C882CA6384091893F639005F
:10023C00D5C205476385E606894A638A5603854518
:10024C002285EF10A03A835501058544EF40800DBF
:10025C00AA82FD55228523185104EF1020398355AD
:10026C000105EF40200C2318A1042319A104854596
:10027C002285EF10A03783550105EF40A00A2A868E
:10028C00FD5522852318C104EF1040368355010516
:10029C00EF4040092318A104638D0448850485456B
:1002AC002285EF10A03483550105EF40A0072A8367
:1002BC00FD55228523186104EF1040338355010549
:1002CC00EF4040062318A10499E02319A1048504EA
:1002DC006380990E85452285EF10403183550105C9
:1002EC0013891400130B1900EF40C003AA83FD55AA
:1002FC00228523187104EF10602F83550105EF4000
:10030C006002AA88231811058545228599E02319D6
:10031C001105EF10A02D83550105930A29009304B4
:10032C003900EF4020002A8EFD5522852318C10587
:10033C00EF10C02B83550105EF30D07E2A8823188F
:10034C000105854522856314090023190105EF1069
:10035C00E02983550105EF30F07CAA8EFD552285EE
:10036C002318D105EF10802883550105EF30907BC1
:10037C002A8F2318E1058545228563140B00231968
:10038C00E105EF10A02683550105EF30B079AA8F57
:10039C00FD5522852318F105EF10402583550105E5
:1003AC00EF3050782318A10463800A38E39499F253
:1003BC00EF308062EF308065EF30C06703260A00B3
:1003CC0083264A00AA892E89EF500022E34005E4D7
:1003DC004E85CA85EF50A02B6303054CA945B3D0BD
:1003EC00A502525413851000330A850252DAEF30FD
:1003FC00605B856A93870A8218087D7B93068B7EE7
:10040C00B382E7003385D200EF105061EF30C05C4F
:10041C00EF30C05F13860A8213030101B303660039
:10042C00B3886301AA840395887E2E89814546C6CC
:10043C00EF400061324EAA850315AE7EEF4040605E
:10044C003248AA850315C87EEF40805FAA85031544
:10045C000103EF40E05EA16E138F5EB0AA89630CBE
:10046C00E551636FAF320964130A248F630D455154
:10047C00156B9306FBEA6318D55217A500001305FC
:10048C006507094AEF604054E25A231C010493F7B4
:10049C001A008DCF93121A0017A700001307075EDE
:1004AC003303570003562105835603006300D6021D
:1004BC00814517A500001305650CEF6080340356C9
:1004CC008105E25A93031600231C710493F82A0049
:1004DC00638E0802131E1A0017A800001308C85ACE
:1004EC00B30EC8010356410583D60E006300D60235
:1004FC00814517A500001305650BEF608030035F85
:10050C008105E25A930F1F00231CF10593F54A0055
:10051C0099CD93101A0017A500001305A5573304A5
:10052C00150003566105835604006315D634835AAF
:10053C008105EF40A076C255B387AA0093920701BC
:10054C0017A500001305C50C13D40201EF60602B36
:10055C00A68517A500001305250DEF60802A2685BA
:10056C00CA85EF30204D2A86AE8617A500001305EC
:10057C00250DEF6000292685CA85EF30A04B01467A
:10058C008146EF40107C6359A0025255EF50201663
:10059C002A8BAE8A2685CA85EF30C0492A86AE865C
:1005AC005A85D685EF40F0252A86AE8617A5000021
:1005BC001305850AEF60E0242685CA85EF30804755
:1005CC0017070010130747C210435443EF50C001E4
:1005DC00634605381313040113540341D25517A570
:1005EC0000001305E541EF60C02197A5000093853D
:1005FC00E51E17A5000013052542EF60802097A586
:10060C0000009385A50F17A5000013056542EF6048
:10061C00401F97A500009385E51E17A50000130544
:10062C00A542EF60001ECE8517A5000013054543BB
:10063C00EF60201DE25993F819006396083013FE01
:10064C00290063170E2E13F849006319082C035662
:10065C000105814517A5000013058533EF60601A6D
:10066C00630804246356802217A500001305851A1D
:10067C00EF608035525FB74F0F0093800F24B33576
:10068C001F0233051F02EF50E044AA8ACA85268553
:10069C00EF504044AA855685EF50C01E2A89294543
:1006AC00EF60E0192945EF60801917A500001305CC
:1006BC00A51DEF6060312945EF606018D25517A574
:1006CC00000013052520EF60C013A68517A50000B8
:1006DC0013050521EF60E01217A500001305052294
:1006EC00EF60802E17A500001305C523EF60C02D09
:1006FC004A85EF50804B2A86AE8617A5000013055D
:10070C006525EF6000102945EF6060131301017F30
:10071C00F6406644D6444649B649264A964A064BA4
:10072C0001452561828001002319A104E39499BA43
:10073C0041B12319A1049DB68569138E0982130852
:10074C0001017D79B3000E01338A200103168A7EE4
:10075C0083254A7F52C6EF10A06962592ADE93792D
:10076C002900E38D09A4056B930E0B82130F010175
:10077C007D75B38FEE01B387AF003EC632478396CB
:10078C00A77E4255831A877E8325877F9392060125
:10079C0033E652019400EF20706A625905B40100EF
:1007AC00A56F93852FA06308B51EBD601385509F60
:1007BC00639BA91E17A500001305C5D60D4AEF6053
:1007CC00A020D9B1854EE316DE99324F831FCF7E20
:1007DC00E3910F983247B7371534938657419302FC
:1007EC0060062324D77E2316577EA5B29D4006DCD7
:1007FC006FF0BF9385621386028213030101B3036A
:10080C0066003384E300841022C6232A947E054AB2
:10081C00E380099A2DA0B30AAA028563138403828C
:10082C000408FD729010B3059400B388550046C6B9
:10083C003303560123AE687EE3000E98F5BDB30575
:10084C00AA02056F930F0F821C08FD78130B01068B
:10085C00B386FF0013081A003387160193100801A2
:10086C00B30EBB003AC6232CD77F13DA0001E38307
:10087C000A9455B7814517A50000130565D6EF50AE
:10088C005078035B810593061B00231CD10445B1F2
:10089C0017A50000130505F9EF600013E1BB054532
:1008AC0035BE3244930360062316747E6FF07F8A44
:1008BC0017A500001305C5DFEF6000118D4EE31B7B
:1008CC00DADB5255EF40B0622A8A2E8B2685CA8518
:1008DC00EF3040162A86AE865285DA85EF4060727C
:1008EC002A86AE8697A70000938747E117A70000DA
:1008FC001307C7EE17A50000130505EFEF50707036
:10090C0097A50000938505F017A50000130505F0C9
:10091C00EF50306F2945EF509072A9BB035661051B
:10092C00814517A5000013056508EF50906D05B3C0
:10093C0003564105814517A500001305E508EF5046
:10094C00506CE25909B303562105814517A50000E7
:10095C0013054509EF50F06AE259D5B117A500000F
:10096C00130505D1EF60400613061400931306011E
:10097C0013D40341A5B117A500001305E5B4054A2E
:10098C00EF60800411B617A50000130565BC114A71
:10099C00EF608003D5BC17A50000130525B0014AF4
:1009AC00EF608002D5B4416A930AFAFF7D5A51B6C2
:1009BC00A54723A8F1887D55828000007300501054
:1009CC0073005010730050107300501073005010CF
:1009DC00730050107300501073005010C5B7000016
:1009EC007D15854763E8A7000963014523A26500CF
:1009FC0082800100A5427D5523A851888280000089
:100A0C000545828000000000054582800000000042
:100A1C00D94723A8F1887D5582800000014582804A
:100A2C000000000001C57D55828001004111373561
:100A3C00011022C406C62E840129AA872300F400C3
:100A4C00B2402244054541018280000017F7FF0F98
:100A5C00130787771C439386819C3E95636CD50066
:100A6C0097F20010938242D963E6A20008C33E8538
:100A7C0082800100FD573E858280000001114AC82A
:100A8C004EC606CE22CC26CA52C42E89B289EF504D
:100A9C005075630A05264A84330A39016386090AAC
:100AAC00B3072A4193F07700A944638900120547E4
:100ABC006382E0088942638750060D43638C6004AF
:100ACC0091436381700415456386A0029945638B3D
:100ADC00B000834509006381952237350110192632
:100AEC0013041900834504006381952037350110E8
:100AFC00D52C0504834504006382951E37350110FF
:100B0C00D5240504834504006383951C37350110F7
:100B1C00D12C0504834504006384951837350110E6
:100B2C00D124050483450400638C951837350110D6
:100B3C00552C050483450400638C95160504373544
:100B4C0001104D24631C44094E85F2406244D2448A
:100B5C004249B249224A056182800100B5453735C8
:100B6C000110492483450400373501101309140082
:100B7C00952C8345140063809508373501109D240E
:100B8C00834519006386950837350110A12C8345E0
:100B9C002900638C950837350110A9248345390049
:100BAC006382950A37350110352C834549006388DB
:100BBC00950A373501103D2483455900638E950AFB
:100BCC00373501100524834569006384950C1304A3
:100BDC007900373501103924E30844F783450400C4
:100BEC00E38E95F637350110F52A83451400130969
:100BFC001400E39495F8B54537350110E52283458B
:100C0C00140037350110F92A83451900E39E95F637
:100C1C00B54537350110F9228345190037350110D8
:100C2C00D12283452900E39895F6B5453735011057
:100C3C00552A83452900373501106D22834539002B
:100C4C00E39295F6B54537350110692A834539008D
:100C5C0037350110412A83454900E39C95F4B5458D
:100C6C0037350110412283454900373501109D2A43
:100C7C0083455900E39695F4B545373501109D220F
:100C8C008345590037350110B12A83456900E3903B
:100C9C0095F4B54537350110B1228345690005BF80
:100CAC00B545373501103D2A8345040085BD01004B
:100CBC00B545373501103D228345040041B501008F
:100CCC00B54537350110392A8345040085B5B5453E
:100CDC0037350110012A834504000DBDB545373564
:100CEC00011009228345040011BDB54537350110AB
:100CFC00D52883450400DDBBB54537350110DD2013
:100D0C0083450900D9BB7D5589B500005D7106C0CE
:100D1C0012C216C41AC61EC82ACA2ECC32CE36D05F
:100D2C003AD23ED442DC46DEF2C0F6C2FAC4FEC66B
:100D3C00F322103416D6F322203416D8F3220030C6
:100D4C0016DA732520348A855529B25273901234E1
:100D5C00C25273902234D2527390023082401242AB
:100D6C00A2423243C2435245E24572468256125762
:100D7C00A2576258F258064E964E264FB64F6161F6
:100D8C0073002030AA8719C5584D0145D98DCCCF99
:100D9C00828001007D55828000000000AA871DCD55
:100DAC0017F7FF0F03278742B355B70293020008CA
:100DBC00232655001308600C8D4801451383F5FF5D
:100DCC009353830013F6F30FD0C39376F30F94C3AE
:100DDC0023A4070123A61701828001007D55828080
:100DEC0000000000AA8739CDD84B93720702639894
:100DFC00020403A347019373030263920304C84BD9
:100E0C00137605020DEED44B13F806026319080293
:100E1C0083A8470113FE080263130E0283AE470139
:100E2C0013FF0E02631D0F0083AF470113F70F0270
:100E3C0019E783A2470113F30202E30703FA014502
:100E4C008CC382807D55828025C15C4993F217004A
:100E5C006397020403234501937313006391030406
:100E6C004C4913F6150005EE544913F7160005EB23
:100E7C00032845019378180063930802032E45015B
:100E8C00937E1E00639D0E00032F4501937F1F0070
:100E9C0063970F005C4993F21700E38802FA08414C
:100EAC001375F50F828001001305F00F828000008E
:100EBC00B7C7000283A687FF83A7C7FF411106C6E9
:100ECC0022C426C237C60002B680032786FF8327BA
:100EDC00C6FF3A88732700B063920009832286FF0D
:100EEC008327C6FF1688732700B063995006032327
:100EFC0086FF8327C6FF1A88732700B063906006AD
:100F0C00832386FF8327C6FF1E88732700B0639751
:100F1C007004032486FF8327C6FF2288732700B042
:100F2C00639E8002832486FF8327C6FF268873274F
:100F3C0000B063959002032586FF8327C6FF2A889D
:100F4C00732700B0639CA000832586FF8327C6FF10
:100F5C002E88732700B0E38AB0F60100B7C80002F0
:100F6C0003AE88FF83A6C8FFF32500B0631AC80739
:100F7C0083AE88FF83A6C8FFF32500B06312D807A1
:100F8C0003AF88FF83A6C8FFF32500B0631AE805FA
:100F9C0083AF88FF83A6C8FFF32500B06312F80562
:100FAC0083A788FF83A6C8FFF32500B0631AF80255
:100FBC0003A688FF83A6C8FFF32500B06312C802FE
:100FCC0083A088FF83A6C8FFF32500B0631A18001E
:100FDC0003A788FF83A6C8FFF32500B0E302E8F857
:100FEC0083A7C8FF83A688FFB7C20002368383A3FA
:100FFC0082FF83A7C2FF9E8E732F00B0631273080B
:10100C0003A482FF83A7C2FFA28E732F00B06319C3
:10101C00830683A482FF83A7C2FFA68E732F00B022
:10102C006310930603A582FF83A7C2FFAA8E732FBA
:10103C0000B06317A30483A582FF83A7C2FFAE8E03
:10104C00732F00B0631EB30203A882FF83A7C2FFF5
:10105C00C28E732F00B06315030383A882FF83A78E
:10106C00C2FFC68E732F00B0631C130103AE82FF48
:10107C0083A7C2FFF28E732F00B0E30AC3F70100FF
:10108C00B7CF00029307300603A68FFF83A4CFFFD0
:10109C003304D641F32400B063E8870883A08FFFA4
:1010AC0083A4CFFF3384D041F32400B063EE8706D2
:1010BC0003A78FFF83A4CFFF3304D741F32400B0E1
:1010CC0063E4870683A68FFF83A4CFFF3384D641C6
:1010DC00F32400B063EA870483A28FFF83A4CFFFBD
:1010EC003384D241F32400B063E0870403A38FFF61
:1010FC0083A4CFFF3304D341F32400B063E687020B
:10110C0083A38FFF83A4CFFF3384D341F32400B098
:10111C0063EC870003A48FFF83A4CFFF3304D44177
:10112C00F32400B0E3F287F6B384E441B3F5840210
:10113C00228681461395F500C581EF30903633D861
:10114C008402B2402244924441019318F80046951F
:10115C0082800000411122C42A84179500001305D7
:10116C00A52406C6EF505006A2851795000013055E
:10117C00E524EF500069F325103417950000130592
:10118C00E524EF500068F325303417950000130563
:10119C00E524EF50006701A000000000411122C4BB
:1011AC002A84179500001305652406C6EF50D0015C
:1011BC00A2851795000013056520EF508064F32578
:1011CC0010341795000013056520EF508063F3254C
:1011DC0030342244B24017950000130525204101FC
:1011EC006F50206200000000B7B7C4049382074020
:1011FC0017F7FF0F232C57FC82800000411106C605
:10120C0022C4AA8763580502131845019358480154
:10121C002D4E6383C807939E2800138F018AB30F4A
:10122C00DF0183A70F0091C38297B240224401458E
:10123C00410182809316450193D0460129462E87A1
:10124C0063641602939220009383818C3384530041
:10125C0003230400E30B03FCBA853E850293B240E2
:10126C002244014541018280170300001303C3EEA1
:10127C00BA853E850293E5B7732740F1B700200C81
:10128C009316C700138640003383C6000324030063
:10129C00C142E3EC82F8931324001388418FB30806
:1012AC00780003AE080063030E00029E732540F124
:1012BC00B70E200C9315C500138F4E00B38FE501AC
:1012CC0023A08F009DB70000411106C622C4CD3665
:1012DC00AA8717F4FF0F130464EFB7050300372533
:1012EC0001101CC0EFF01FAAF1659385052037355E
:1012FC000110EFF0BFAA1796000013066610979521
:10130C0000009385A510179500001305E510EF500C
:10131C00404F979500009385A51217950000130573
:10132C006512EF50004E0C40179500001305C512C6
:10133C00EF50204D97020000938282E61387418F75
:10134C0017060000130646E19386818C1383018AED
:10135C0090C2D0C290C6D0C690CAD0CA90CED0CEC1
:10136C0090D2D0D290D6232057002322570023248A
:10137C0057002326570023285700232A5700232CD5
:10138C005700232E570023205702232257022324D1
:10139C0057022326570223285702232A5702232CAD
:1013AC005702232E570223205704232053002322B5
:1013BC005300232453002326530023285300232AAD
:1013CC005300232C5300232E53002320530223229B
:1013DC005302F32340F13728000C13957300B30824
:1013EC00050103AE0800B70E000C137FEEFF23A01F
:1013FC00E80123A00E00F32F40F193977F00338474
:10140C0007010C4013F6D5FF10C023A20E00F326E3
:10141C0040F1939276003387020103230700937304
:10142C00B3FF2320770023A40E00732540F19318FB
:10143C007500338E0801032F0E00937F7FFF23204E
:10144C00FE0123A60E00F32740F113947700B30599
:10145C00040190419376F6FE94C123A80E00F3226A
:10146C0040F113977200330307018323030013F534
:10147C00F3FD2320A30023AA0E00F32840F1139EB2
:10148C007800330F0E01832F0F0093F7FFFB2320FF
:10149C00FF0023AC0E00732440F193157400B38647
:1014AC00050190429372F6F723A0560023AE0E006E
:1014BC00732740F113137700B303030103A5030053
:1014CC009378F5EF23A0130123A00E02732E40F1A5
:1014DC00131F7E00B30F0F0183A70F0013F4F7DF68
:1014EC0023A08F0023A20E02F32540F193967500E2
:1014FC00B382060103A602001377F6BF23A0E20015
:10150C0023A40E02732340F193137300B3880301D9
:10151C0003AE08007D7F1305FF7FB37FAE0023A0D1
:10152C00F80123A60E02F32740F113947700B306BB
:10153C0004018C429302FFFF33F6550090C223A89E
:10154C000E02732740F113137700B303030183A832
:10155C000300797E130FFEFF33F5E80123A0A300EF
:10156C0023AA0E02F32F40F193977F0033840701D7
:10157C001440F1759382F5FF33F6560010C023AC7E
:10158C000E02732740F113137700B303030183A8F2
:10159C000300617E130FFEFF33F5E80123A0A300C7
:1015AC0023AE0E02F32F40F193977F003E98032455
:1015BC000800C1769385F6FFB372B400232058005F
:1015CC0023A00E04F32E40F13707200CB240224426
:1015DC001396CE003303E6002320030041018280E2
:1015EC00828000008280000082800000031E450083
:1015FC001D71A2CC6AD886CEA6CACAC8CEC6D2C421
:10160C00D6C2DAC05EDE62DC66DA6ED602CA2EC6DE
:10161C0040512A8D2E836357C07D0145814E814FE9
:10162C008148B2409377F50F3ECA63C1003A630D0F
:10163C00047AA28331A0010083A303006389030011
:10164C0083A44300324683952400E397C5FE032907
:10165C00040081471CC06301090883290900232069
:10166C008900A2874A846389090603AA090023A07A
:10167C002901CA874E8463010A06832A0A002320A3
:10168C003A01CE87528463890A0403AB0A0023A073
:10169C004A01D287568463010B04832B0B00232051
:1016AC005B01D6875A8463890B0203AC0B0023A021
:1016BC006B01DA875E8463010C02832C0C002320FF
:1016CC007C01DE87628463890C0066840329040034
:1016DC00E2871CC0E31309F8638A033083AD43002F
:1016EC0013881F00131F080183970D00935F0F01D0
:1016FC0093F01700638B000013D797409372170079
:10170C0096989396080193D8060183A4030089C880
:10171C008C4023A0B3008323040023A0740004C0D6
:10172C00B24B63C90B00138C1B00931C0C0193DD93
:10173C000C416EC605051318050113550841E3123B
:10174C00AEEE139E2F00330FDE41B38FE80193975B
:10175C000F0193D0070106CC634A603A032D0400B5
:10176C00324FA28A83240D0003234D00C84003AEE0
:10177C0004002322AD0023A264002320CD0123A06A
:10178C00040063450F2203A74A00B24883122700C6
:10179C00638A120183AA0A00E3970AFE832A0400D3
:1017AC0063840A0C5440E24503950600EF3040294F
:1017BC0003A90A002ACC6305090A83234400E245E5
:1017CC0003950300EF30C027832A09002ACCAA8591
:1017DC0063880A08504003150600EF30602603ABFF
:1017EC000A002ACCAA85630D0B06832E44000395B0
:1017FC000E00EF30E024832B0B002ACCAA856381EA
:10180C000B06832D440003950D00EF30602383AC51
:10181C000B002ACCAA8563850C04032A440003150B
:10182C000A00EF30E02103AC0C002ACCAA85630936
:10183C000C028329440003950900EF306020032D2E
:10184C000C002ACCAA85630D0D0003284400031557
:10185C000800EF30E01E832A0D002ACCE3940AF432
:10186C00832A040003A3440083A54A0003A50A00AD
:10187C00054BCCC023A26A0088C081460149014FA8
:10188C0023A09A00854F0100137E7B00A28701469E
:10189C00050F630B0E04854063031E040943630D9F
:1018AC006E028D4463079E0211476301EE0295425E
:1018BC00630B5E00994863051E011C400546ADC7CD
:1018CC009C430506B5C39C430506B9CF9C4305064E
:1018DC00A1CF9C430506A9CB9C430506B1C79C43ED
:1018EC000506B9C36302CB049C430506B2838DCFB6
:1018FC009C43050695CB9C431386230095C79C43BC
:10190C001386330095C39C431386430091CF9C43AD
:10191C001386530091CB9C431386630091C79C4361
:10192C0013867300E1F30100DA8535C2F5C1EDC30E
:10193C008320440083A2470003970000039E2200EB
:10194C00839820001313070193530301937B07F033
:10195C0093DD8300B3EEBB012390D001839C020086
:10196C00338AC841139C0C0193590C0113FD0CF0E4
:10197C0013D88900B36A0D0123905201635A4009B0
:10198C003E85FD159C43C9CA88C2AA8645F2C9C9C1
:10199C00E5FB23A00600630BFF09060B6305090892
:1019AC00CA87014F814601493E84F9BD83AF4A0085
:1019BC00D24083C70F00E38717DE83AA0A00E397A0
:1019CC000AFE832A0400E39F0ADC79BD630E0440FF
:1019DC00A28329A083A30300E38B03C603A74300C0
:1019EC00D24683420700E397D2FE95B1D043850ED1
:1019FC0013990E0183091600935E090113FA19005D
:101A0C00B38A4801139B0A0193580B0111BB0100C7
:101A1C0022857D160040ADFA2A89AA8685BF010071
:101A2C00ADDB3E8495B52320000002908324090091
:101A3C00D5CC032F4900E24503150F00EF304000D1
:101A4C0080402ACC45C4832F4900E24503950F0002
:101A5C00EF20107F832B04002ACCAA8563880B0807
:101A6C008326490003950600EF20907D83AD0B0083
:101A7C002ACCAA85638C0D06832E490003950E0093
:101A8C00EF20107C83AC0D002ACCAA8563800C0659
:101A9C00032A490003150A00EF20907A03AC0C00CE
:101AAC002ACCAA8563040C048329490003950900F8
:101ABC00EF201079032D0C002ACCAA8563080D02A7
:101ACC000328490003150800EF209077832A0D00A6
:101ADC002ACCAA85638C0A0003254900031505004E
:101AEC00EF20107683A40A002ACCA1F4F6406644B9
:101AFC006245D6444649B649264A964A064BF25B9D
:101B0C00625CD25C425DB25D256182800543130745
:101B1C008D021AC43ACEE30804F0014C814902C884
:101B2C00054A0100C246A242A28D9384160093F886
:101B3C00720026C8814C638A08068545638FB804F9
:101B4C008943638778040D46638FC802914E63877F
:101B5C00D8031549638F2801994A63875801832D4F
:101B6C000400854C63820D0A83AD0D00850C638DDA
:101B7C000D0883AD0D00850C63880D0883AD0D0039
:101B8C00850C63830D0883AD0D00850C638E0D06EB
:101B9C0083AD0D00850C63890D0683AD0D00850C9E
:101BAC0063840D06224B63816C0783AD0D00850C9D
:101BBC00E68B638B0D0483AD0D00850C63860D04E1
:101BCC0083AD0D00938C2B0063800D0483AD0D0051
:101BDC00938C3B00638A0D0283AD0D00938C4B00FC
:101BEC0063840D0283AD0D00938C5B00638E0D003E
:101BFC0083AD0D00938C6B0063880D0083AD0D00DD
:101C0C00938C7B00E3900DFAA28B224B6E8463863F
:101C1C000C04010063020B0625C083A44B00832D2A
:101C2C004400839A040093F70A08CDC713F9FA0706
:101C3C00839A0D0093F40A08B1C893F4FA07B30D14
:101C4C009940635BB00322897D1B0040630C0C023E
:101C5C0023202C014A8CE39F0CFA63010B0C65F4D6
:101C6C0023200C00424C054A4E84E3094CAFA24998
:101C7C001398190042C445B55E89FD1C83AB0B005B
:101C8C00E3180CFCCA894A8CF9B7010093D73A4087
:101C9C0013F6F700931F460013FF7A00B365F601A5
:101CAC0063020F1063004F0F939E0A01D68313D566
:101CBC000E0183558D0393F4F307EF20A06613F800
:101CCC000AF0B3E50401231CAD0293E6050823904A
:101CDC00DD00B5B713D63A40137FF60093104F00D2
:101CEC0093FF7A00B3651F00638E0F04638C4F0360
:101CFC0013980A01D68E1355080183558D0313F9D9
:101D0C00FE07EF20206293F50AF0B366B900231C9E
:101D1C00AD0213E506082390A40019BFE31404E0F8
:101D2C0081B7010003568D037245C9250353CD03BA
:101D3C009313050193DE0341E31103FC231EAD0253
:101D4C006DBF01009302200283578D032E8763D44D
:101D5C0055001307200283162D0003160D00832552
:101D6C004D0103258D011377F70FEF10F0508358B9
:101D7C00ED03131E0501935E0E41E39008F8231F3B
:101D8C00AD02A5BF03568D0372458D25035ECD03B1
:101D9C001313050193530341E31D0EF0231EAD02F3
:101DAC0009BF01009300200283578D03AE8263D4D8
:101DBC0015009302200283162D0003160D008325B7
:101DCC004D0103258D0113F7F20FEF10F04A035765
:101DDC00ED039318050193D30841E31C07EC231F73
:101DEC00AD02C1BD02CC8DBA832700000290000069
:101DFC005148B3520503B28E617523A00500130739
:101E0C00050893870501938685001388E2FF131656
:101E1C0038002E96D0C193182800231106002310E9
:101E2C00E600B2981303460063F5C73E130786001D
:101E3C006371173F23A4050094C123A66500934347
:101E4C00F5FF7D5E2312C60123137600630D082077
:101E5C00139F0E01E17F937238000145135F0F0150
:101E6C0013C3FFFF638D020C854363847208094E14
:101E7C00638DC2039382870063F8C202930F4700FD
:101E8C0063F41F0313153F0094C3937385079CC120
:101E9C0093968300D8C333EE76002310C701231129
:101EAC006700BE867E87968705459382870063F11F
:101EBC00C2049303470063FD1303931F050193DFD3
:101ECC000F0133CEEF010E0E93FF7F00137E8E07B2
:101EDC0094C3336EFE019CC193168E00D8C3B3EF2E
:101EEC00C6012310F70123116700BE861E87968753
:101EFC0005059382870063F1C2049303470063FDD9
:101F0C001303131E0501935F0E0133CEEF010E0E6A
:101F1C0093FF7F00137E8E0794C3336EFE019CC12A
:101F2C0093168E00D8C3B3EFC6012310F70123110B
:101F3C006700BE861E87968705056306A8129383E5
:101F4C00870063F1C3049302470063FD1203131E61
:101F5C000501935F0E0133CEEF010E0E93FF7F0050
:101F6C00137E8E0794C3336EFE019CC193168E00B4
:101F7C00D8C3B3EFC6012310F701BE862311670047
:101F8C009E87168793828700050563F1C20493032D
:101F9C00470063FD1303131E0501935F0E0133CE3F
:101FAC00EF010E0E93FF7F00137E8E0794C3336EEA
:101FBC00FE019CC193168E00D8C3B3EFC60123104B
:101FCC00F70123116700BE861E87968793828700D0
:101FDC00130E150063F1C2049303470063FD130352
:101FEC00931F0E0193DF0F0133CEEF010E0E93FF03
:101FFC007F00137E8E0794C3336EFE019CC1931633
:10200C008E00D8C3B3EFC6012310F701231167006C
:10201C00BE861E87968793828700130E250063F178
:10202C00C2049303470063FD1303931F0E0193DF58
:10203C000F0133CEEF010E0E93FF7F00137E8E0740
:10204C0094C3336EFE019CC193168E00D8C3B3EFBC
:10205C00C6012310F70123116700BE861E879687E1
:10206C000D05E31EA8EC904229CE95483358180371
:10207C00116F054709459308FFFF637F0701DC4299
:10208C00032F060005052391E700B2860507630AB6
:10209C000F027A86E36507FF1313850083A24600BF
:1020AC0033CEEE0093730370B3EFC301032F06001E
:1020BC00B3F61F012391D20005070505B286E31A7A
:1020CC000FFC854F014801458142854393FE7F00FB
:1020DC00AE8701468502638B0E04854863831E051B
:1020EC000943638D6E020D4E6387CE039146638167
:1020FC00DE02154F638BEE0119476385EE009C41A0
:10210C000546ADC79C430506B5C39C430506B9CF30
:10211C009C430506A1CF9C430506A9CB9C43050611
:10212C00B1C79C430506B9C36382CF049C43050623
:10213C00B28E8DCF9C43050695CB9C4313862E0007
:10214C0095C79C4313863E0095C39C4313864E0053
:10215C0091CF9C4313865E0091CB9C4313866E00FB
:10216C0091C79C4313867E00E1F30100FE8625C6D1
:10217C00D1C2C9C303AE450003A3470003170E0029
:10218C00031F230083182E00931E070193DE0E01FC
:10219C0093DE8E00137707F03367D7012310EE0020
:1021AC00831E0300B388E841139E0E01135F0E01DA
:1021BC0013F70EF0935E8F00336ED7012310C3011B
:1021CC00635A10033E83FD169C43630A08022320C6
:1021DC0068001A8851FE9DC6F5F723200800638914
:1021EC007202860F1DC1AA87814201480145BE8536
:1021FC00F1BD01002E837D168C41E31A08FC1A8573
:10220C001A88C9BFF9DBBE85D1B523200000029026
:10221C008280B6871A87814615B9000001114EC617
:10222C008329C50106CE22CC26CA4AC852C456C23E
:10223C00232C0502232E0502638E091693F7390011
:10224C002A848144D1CF05476382E706894063889D
:10225C0017028545EFF08FB9835584038544EF2031
:10226C00600C231CA402FD552285EFF02FB883557A
:10227C008403EF20200B231CA402231DA4028545FC
:10228C002285EFF0AFB683558403EF20A009231C01
:10229C00A402FD552285EFF06FB583558403EF2022
:1022AC006008231CA402638D0412850485452285D5
:1022BC00EFF0CFB383558403EF20C006231CA40298
:1022CC00FD552285EFF08FB283558403EF208005F6
:1022DC00231CA402638004108504638D990C0100F7
:1022EC0085452285EFF08FB0835584031389140044
:1022FC00930A1900EF200003231CA402FD5522852C
:10230C00EFF0CFAE83558403EF20C001AA82231CCB
:10231C0054028545228599E0231D5402EFF00FAD40
:10232C0083558403130A290093043900EF10907F1E
:10233C00231CA402FD552285EFF04FAB835584037B
:10234C00EF10507E2A83231C64028545228563147A
:10235C000900231D6402EFF06FA983558403EF106D
:10236C00707C231CA402FD552285EFF02FA8835509
:10237C008403EF10307BAA83231C740285452285CD
:10238C0063940A00231D7402EFF04FA68355840357
:10239C00EF105079231CA402FD552285EFF00FA5F8
:1023AC0083558403EF101078231CA402630E0A00DB
:1023BC00E39899F2F2406244D2444249B249224A2B
:1023CC00924A014505618280231DA402E39A99F08B
:1023DC00D5B70100231DA4028504E39399F0D9BF5E
:1023EC00231DA4028504D9B5000000001D715841BD
:1023FC00D6C2832A0500CAC862DC6AD87D7986CE2B
:10240C00A2CCA6CACEC6D2C4DAC05EDE66DA6ED65E
:10241C003AC432C8032CC500032D850033E92501CD
:10242C0063940A006F10601F93941A00B308504114
:10243C0033069700939905011395180032870148CC
:10244C0093D909018A0801003303E500B3066740FC
:10245C009380E6FF93D210009383120013F4730061
:10246C009A8759C4054E630CC407094A6302440792
:10247C000D4B63086405914B630E7403954C630418
:10248C009403994D630AB401835E03009307230000
:10249C00338FD9012310E30183DF07008907B3864B
:1024AC00F901239FD7FE83D007008907B382190057
:1024BC00239F57FE83D30700890733847900239F1A
:1024CC0087FE03DE07008907338AC901239F47FF74
:1024DC0003DB07008907B38B6901239F77FF83DC3C
:1024EC0007008907B38D9901239FB7FF6305F70692
:1024FC0083D0070083D3270083D2470083DF670094
:10250C0003DF870083DEA70003D4C70083D6E70070
:10251C00338A1900338B7900B38B5900B38CF901D2
:10252C00B38DE901B380D901338E8900B383D9000F
:10253C0023904701239167012392770123939701FD
:10254C002394B701239517002396C701239777008F
:10255C00C107E31FF7F81304180033071341638412
:10256C008A002288D5B5014E814E01003303C50087
:10257C00B30766409382E7FF93DF1200138F1F00AF
:10258C00131A2E00137B7F009A86B3078A01630F00
:10259C000B08854B63027B09894C63079B078D4DA8
:1025AC00630CBB05914063011B04954363067B02DE
:1025BC001947630BEB00831203009306230091076A
:1025CC00B38FB20223AEF7FF039F06009107890673
:1025DC00330ABF0223AE47FF039B0600910789060F
:1025EC00B30BBB0223AE77FF839C060091078906D1
:1025FC00B38DBC0223AEB7FF83900600910789060A
:10260C00B383B00223AE77FE0397060091078906C9
:10261C00B302B70223AE57FE839F060089069107CB
:10262C00338FBF0223AEE7FF6307D606039B06007A
:10263C00039A2600839B4600839C6600839D86003C
:10264C00839FA600039FC6000397E600B300BB025E
:10265C00C10693870702B303BA0223A017FEB38205
:10266C00BB0223A277FE338BBC0223A457FE338A12
:10267C00BD0223A667FFB38BBF0223A847FFB30C91
:10268C00BF0223AA77FFB30DB70223AC97FF23AE8B
:10269C00B7FFE31DD6F893861E00229E3306134126
:1026AC0063840E01B68ED9B593152400330ABC0091
:1026BC00B30E80402EC252860145014F8147014323
:1026CC00139E3E00B380C800B30F16401387CFFF94
:1026DC00935327009382130013FB72000687630F3A
:1026EC000B1C854B63097B0D894C63079B0B8D4D34
:1026FC006306BB0991466304DB0695456303BB0483
:10270C00994E6301DB03FA8F03AF0000FA97E34A9B
:10271C00F96E33A7EF013A959313050113D50341D5
:10272C00138740007A8B032F0700FA97634BF92A23
:10273C00B32BEB01B38CAB00939D0C0113D50D4166
:10274C001107FA8E032F0700FA976344F928B3AFE9
:10275C00EE017E959313050113D5034111077A8B76
:10276C00032F0700FA97634EF924B32BEB01B38CBC
:10277C00AB00939D0C0113D50D411107FA8E032F5D
:10278C000700FA976347F922B3AFEE017E959313D6
:10279C00050113D5034111077A8B032F0700FA9714
:1027AC006341F920B32BEB01B38CAB00939D0C016F
:1027BC0013D50D411107FA8E032F0700FA97634AC0
:1027CC00F91CB3AFEE017E959313050113D50341AC
:1027DC0011076315E60E930F13003386C041630A8D
:1027EC0003217E83C5B5832347009305A500814B48
:1027FC00939E0501338F7B0093D60E4111076354D2
:10280C00E90F832C47009387A600014F139B070108
:10281C0033059F01935B0B416345A90E832287000F
:10282C00B3AD9301B3867D0193950601B3065500B4
:10283C0093DF05416344D90E4C4733AB5C00B30BBB
:10284C00FB01139F0B01B38BB600935D0F416343E8
:10285C00790F032F0701B3AEB200B383BE01939F70
:10286C000301B38EEB0113DB0F416342D90F832FAE
:10287C004701B3ACE501B38D6C0193960D01B38D9B
:10288C00FE0193D306416341B90F3325FF01032F9A
:10289C008701B3027500139B0201B387ED01935CB2
:1028AC000B416340F90EB3A6EF01B38596019393E8
:1028BC00050113D503417107E30FE6F0032B070065
:1028CC00B38B6701E34179F383234700332F6F0107
:1028DC00B30CAF00939D0C01338F7B0093D60D414D
:1028EC001107E340E9F3832C4700B32F7B003385BA
:1028FC00DF009312050133059F0193DB0241E35F77
:10290C00A9F083228700938EAB00014593930E01AF
:10291C00B306550093DF0341E350D9F24C4793873C
:10292C00AF008146939C0701B38BB60093DD0C413D
:10293C00E35179F3032F07011385AD00814B9312FB
:10294C000501B38EEB0113DB0241E352D9F3832F64
:10295C0047019307AB00814E93950701B38DFE01A0
:10296C0093D30541E353B9F3938BA300139F0B014E
:10297C00935C0F41032F8701814DB387ED01E35425
:10298C00F9F29387AC00939E070113D50E41814752
:10299C001DB79307A5009392070113D502418147F8
:1029AC0005BD9306A5009395060113D505418147F6
:1029BC0011B59307A5009392070113D502418147E6
:1029CC00D9BB9306A5009395060113D50541814704
:1029DC006DB39307A5009392070113D5024181476C
:1029EC00B5BB9306A5009395060113D50541814708
:1029FC0081BB8145EF20C00412462A838145628544
:102A0C001AC6EF30E036A24CE285814FB3029D002E
:102A1C0056CA0100B380A2411385E0FF135B150079
:102A2C00930B1B00939D1F0013FF7B006A860147CD
:102A3C00B387BC0163050F0A85466307DF0889432A
:102A4C00630B7F068D4E630FDF05114863030F0583
:102A5C00954863071F03994A630B5F01039E0700A8
:102A6C0003170D00890713062D003307EE0203939D
:102A7C0007008310060089070906330513022A97FD
:102A8C00039B0700831B060089070906B30D7B0314
:102A9C006E97039F07008316060089070906B30388
:102AAC00DF021E97839E070003180600890709069C
:102ABC00B3880E034697839A0700031E0600890706
:102ACC0009063383CA031A9783900700031506007F
:102ADC0009068907338BA0025A976385C208039FA6
:102AEC00070083160600031E2600839B2700B306EF
:102AFC00DF02831D460083904700039F6700031B82
:102B0C00660003938700831A86008398A7008313BB
:102B1C00A6000398C700B38BCB03831EC600369761
:102B2C000395E700031EE6004106C107B380B0031E
:102B3C00B30D7701B3066F03338F1D00330B5303B3
:102B4C003303DF00B38A7802B3086301B303D803FD
:102B5C0033885801B30EC503330578003307D5010C
:102B6C00E39FC2F698C19105A29FE315BAEAD24A37
:102B7C00814501458148014701480100139A250010
:102B8C00B30F4C01C68283A80F00930CF4FF13F60D
:102B9C003C004697E354E91C1307A500931007016A
:102BAC0013D500410147054393864F00637183168B
:102BBC0075C263056604894D6302B603468F83A80C
:102BCC004F004697E347E922332B1F01B303AB00B9
:102BDC00939E030113D50E4105039106C68F83A85E
:102BEC0006004697E34EE91AB3A21F01B38CA2006C
:102BFC0013960C011355064105039106468E83A8C6
:102C0C0006004697E345E918B3201E01B38DA000DA
:102C1C00139F0D0113550F4105039106636C830639
:102C2C00FDA0010083AB46009302A500814E939C4E
:102C3C00020133877E0193DF0C41050313864600A6
:102C4C006350E908032B46009380AF000147939D26
:102C5C000001B302670113DF0D4163415908B3A3AF
:102C6C006B01B38EE30193980E0193DF0841832827
:102C7C008600338712016340E908B32C1B01B38B28
:102C8C00FC0193960B010D0313D506419306C60068
:102C9C00637F830683A30600B30E7700E344D9F960
:102CAC0083AB4600B3A878004695131A0501338709
:102CBC007E01935F0A41050313864600E344E9F85D
:102CCC00032B4600B3A67301B387F601139E0701CD
:102CDC00B3026701135F0E41E35359F88328860052
:102CEC001305AF008142131A050133871201935F5C
:102CFC000A41E354E9F89387AF00139E07010D03D3
:102D0C0013550E4101479306C600E36583F8050889
:102D1C00A295E36588E6B245114AEF1070522AC6B7
:102D2C00E39A0A0EA24AE280014B62CA4ACC4ECE0A
:102D3C00528681450685EF30A003AA839E886A855A
:102D4C000148010003990A0083190500130CF4FFD4
:102D5C008545B3063903937D7C0013862A00B3079F
:102D6C00950063FF8514638C0D0A638EBD08094FB3
:102D7C006381ED098D4E6384DD07914F6387FD05FB
:102D8C009542638A5D02994C638D9D01831B0600FD
:102D9C00039E0700894513864A003387CB03A69709
:102DAC00BA9683100600039307008505090633893C
:102DBC006002A697CA9683190600039C0700850536
:102DCC000906B38D8903A697EE96031F0600839E12
:102DDC00070085050906B30FDF03A697FE9683123D
:102DEC000600839C070085050906B38B9203A69702
:102DFC00DE96031E06000397070085050906B3003F
:102E0C00EE02A69786960319060003930700850524
:102E1C000906B3096902A697CE9663F3850A031CCB
:102E2C000600839D0700338F9700B30E9F00B30DF0
:102E3C00BC0303170F0083122600B38B9E00839CE8
:102E4C000E00831F4600031F6600039C0B00338E8D
:102E5C009B00B3009E00B382E202831E8600831B9C
:102E6C000E0083990000031EA600B3879000031385
:102E7C00C60003990700EE96A697B38F9F0303171E
:102E8C00E60083900700B38C5600A1054106A69777
:102E9C00B30D8F03338FFC01338C7E03B30EBF0154
:102EAC00B30B3E03338E8E01B3092303B3027E01B1
:102EBC003303170233893201B3066900E3E185F667
:102ECC0023A0D800050891080905E36D88E6124592
:102EDC00050BA69AB380A300E36C8BE4D24D624C35
:102EEC00F249814A0145014E0147014B93932A0057
:102EFC00B3887D00728803AE08009305F4FF13F6C7
:102F0C0035007297635AEC621307A500931F0701F3
:102F1C0013D50F41014785459386480063F085160C
:102F2C0065C26304B604894C63029603728F03AEC8
:102F3C00480072976347EC6AB32ECF01B38BAE0097
:102F4C0093920B0113D5024185059106F28303AED2
:102F5C00060072976347EC66B3A8C3014695131835
:102F6C0005011355084185059106F28003AE060054
:102F7C007297634FEC5EB3AFC001B38CAF00139F7D
:102F8C000C0113550F418505910663EB8506FDA0D9
:102F9C0003A846009308A5008142139508013387C6
:102FAC000201935305418505138646006351EC08D5
:102FBC00832E4600938FA3000147939C0F01B30807
:102FCC00D70113DF0C4163421C09B32BD801B38228
:102FDC00EB01139E020193530E41032E860033879F
:102FEC00C8016341EC0833A5CE0133087500931674
:102FFC0008018D0513D506419306C60063F08508BC
:10300C0083AB0600B3027701E3445CF803A84600E7
:10301C00332E7E013303AE001319030133870201F3
:10302C0093530941850513864600E343ECF8832E40
:10303C004600B3A60B01B387760093900701B30843
:10304C00D70113DF0041E3521CF9032E8600130352
:10305C00AF008148131903013387C8019353094109
:10306C00E353ECF89387A300939007018D0513D5D8
:10307C00004101479306C600E3E485F8050BA29ACC
:10308C00E3668BE6B245814BEF10901B224B924CC2
:10309C00EE8FAA8A528681457E85EF20704D2A8953
:1030AC00EA882A8E01430100031F0B00839E08004F
:1030BC001306F4FF8545B302DF0393733600130543
:1030CC002B00B386980013D8224093D052409377AC
:1030DC00F80013F7F007B387E70263FB85126386EA
:1030EC000308638EB304894F6387F303031F050042
:1030FC00839E0600894513054B00B302DF03A69699
:10310C0013D6224093D352401378F60093F0F30772
:10311C0033071802BA97831F0500039F0600850525
:10312C000905B38EEF03A69693D22E4093D35E403F
:10313C0013F6F20013F8F307B30006038697031790
:10314C000500839F060085050905330FF703A69636
:10315C00935E2F4093525F4093F3FE0013F6F207F9
:10316C003388C302C29763F5850A03970600B38FB1
:10317C00960083100500B3869F0083132500039FE0
:10318C000F008312450033889600839E0600B3809F
:10319C00E002831F650003160800B3069800910532
:1031AC002105338FE30313D7504093D3204013F8FA
:1031BC00F3009370F707B38ED20393522F40135F33
:1031CC005F40137FFF0793F2F2003386CF0293D355
:1031DC005E4093DF2E4093FFFF0093FEF30733070F
:1031EC00180213582640935056409373F80013F668
:1031FC00F007B382E203BA97338FDF03B38F570024
:10320C00B38EC3023387EF01B307D701E3EF85F425
:10321C002320FE000503110E8908E36783E8850B64
:10322C00B30F9901269BE3E78BE6814401450143EB
:10323C000147014D139A2400338B4D019A8B0323C4
:10324C000B00930CF4FF13F93C001A97635FEC2E00
:10325C0029059316050113D50641014785459306AB
:10326C004B0063F385166303090E6305B904094823
:10327C00630209039A8003234B001A97634BEC34C7
:10328C00B3A360003386A3009312060113D5024149
:10329C00850591069A8F03A306001A97634BEC30B1
:1032AC00B3AE6F00338AAE00131B0A0113550B41EA
:1032BC00850591069A8C03A306001A976342EC2CA1
:1032CC0033A96C00B308A900139E080113550E41D5
:1032DC008505910663EC8506C5A8010083AE460002
:1032EC00130FA5008143931F0F01B388D30193D70C
:1032FC000F418505138A460063511C09032E4A00B1
:10330C001387A7008148931C0701B382C80113D906
:10331C000C4163425C0803238A0033A5CE013308B9
:10332C002501931008013387620013D600416341D5
:10333C00EC08B3276E00338FC700931F0F018D0568
:10334C0013D50F419306CA0063F0850883A00600CD
:10335C00B3031700E3447CF883AE46003323130019
:10336C003306A30093120601B388D30193D702410D
:10337C008505138A4600E3431CF9032E4A00B3A6C5
:10338C00D001338BF600931B0B01B382C80113D908
:10339C000B41E3525CF89303A900139303011356FA
:1033AC00034103238A00814233876200E353ECF824
:1033BC00930EA60093960E018D0513D50641014779
:1033CC009306CA00E3E485F8050DA294E3648DE648
:1033DC00D685EF10E066A24A814D014C93941D00F6
:1033EC00338D9A00035A0D00130BF4FF0547B30BF2
:1033FC003A4123107D01937C7B0093072D0063746D
:10340C008710638E0C086382EC08094963872C07CC
:10341C008D48638C1C05114E6381CC051548638661
:10342C000C039940638B1C0083532D0009479307B1
:10343C004D00338633412311CD0083D2070005079D
:10344C00890733833241239F67FE03DF070005079B
:10345C008907B30F3F41239FF7FF83DE0700050762
:10346C008907B3853E41239FB7FE83D60700050726
:10347C008907B3843641239F97FE03DD07000507B8
:10348C008907330A3D41239F47FF03DB07000507EC
:10349C008907B30B3B41239F77FF6376870683DC59
:1034AC00070003D9270003DE470083D8670003D841
:1034BC00870083D0A70083D3C70003D3E700B38270
:1034CC003C41B30F3941330F3E41B38E3841B30405
:1034DC003841B385304133863341B30633412390B1
:1034EC0057002391F7012392E7012393D7012394EB
:1034FC0097002395B7002396C7002397D700210781
:10350C00C107E36E87F8050CA29DE3698CEC1314DC
:10351C000501135504416644C245F640D64446495C
:10352C00B649264A964A064BF25B625CD25C425D17
:10353C00B25D25616F10C050B327C801B380A700DE
:10354C009396000113D50641F9B2B3A86B00338EE4
:10355C00A80093150E0113D5054109B3B3A71201A9
:10356C00B38BA700139E0B0113550E416FF0AFE305
:10357C001307A500931E070113D50E41014721B473
:10358C0029051318050113550841014791B3130779
:10359C00A500131B070113550B4101476FF0CFE733
:1035AC009307A500939B070113D50B4101476FF0BF
:1035BC00AFE41307A500931B070113D50B4101477B
:1035CC00C5B91306A5009317060113D5074101478A
:1035DC0059BA9307A500139F070113550F410147D3
:1035EC0045B91303A50013190301135509410147EC
:1035FC00A1BA2905131A050113550A4101476FF0A9
:10360C00AFDD9307A5009392070113D502418147C3
:10361C006FF00F91124A6FF0EFF081450145EF10FA
:10362C002042AA850145EF10A041AA850145EF1063
:10363C002041AA850145EF10A040D1BD79714AD235
:10364C0022D626D44ED052CE56CC5ACA5EC862C6AA
:10365C0066C46AC22A87368911E205468147630926
:10366C00073213881700B306080393882700138EBC
:10367C003700938E4700138F5700938F6700938208
:10368C0077003E85A107939336003383180363F1CB
:10369C00E306131B33004285B309CE03637AEB04B4
:1036AC00139C39004685B38BDE036373EC04139DC6
:1036BC003B007285B30CEF03637CED02939A3C00E4
:1036CC007685B384FF0363F5EA02139A34007A8596
:1036DC0033845202637EEA00931634007E8533886D
:1036EC00F70263F7E600931838001685E3EBE8F66B
:1036FC008D0593F4C5FFAA8A3307A502131417008E
:10370C00338A8400630C0524416E8143054F930E6C
:10371C00FEFF9309F5FF93161500D282A68F0100C8
:10372C003306E60393170F0113DB07011303F5FFB1
:10373C00937B3300054E93051F009388220013885A
:10374C002F00135CF641935C0C01330D960133771B
:10375C00DD0133069741B307CB0013930701135CCC
:10376C000301629B23908201937CFB0F23909F01AA
:10377C00637CAE1C638E0B0C6389CB09094D63858E
:10378C00AB053306B602C20593DB0501094E930562
:10379C002F001357F641935707013303F600337C80
:1037AC00D3013306FC40338BCB00931C0B0113DD90
:1037BC000C01EA9B2390A80193F8FB0F231018012E
:1037CC009388420013884F003306B6021397050105
:1037DC0093570701050E8505890809081353F6410F
:1037EC00135C0301330B8601B37CDB0133868C4104
:1037FC00338DC700931B0D0113D70B01BA97239F71
:10380C00E8FE13F3F70F231F68FE3306B602139C72
:10381C000501135B0C01050E850589080908935CED
:10382C00F64113DD0C01B30BA60133F7DB013306B4
:10383C00A741B307CB0013930701135C0301629BF1
:10384C00239F88FF937CFB0F231F98FF637EAE0E94
:10385C003306B60293871500938B3500139D050133
:10386C00935C0D0113930701139D0B01135C030172
:10387C0013530D0113872500135DF641135D0D01E4
:10388C006A963376D601330DA641B307FD02338613
:10389C00AC01131D060113560D012390C800B29CF8
:1038AC0013FDFC0F2310A801131B0701135B0B0165
:1038BC0013D6F741935C0601E69733FDD701330627
:1038CC009D413307E602B30CCC0093970C0113DD3A
:1038DC0007012391A8016A9C1376FC0F2311C800E1
:1038EC00110E9105935CF74113DD0C016A97B377C8
:1038FC00D701338CA741B30B7C0333068B01931C8C
:10390C00060113DD0C012392A8016A9B1377FB0FB0
:10391C002312E800A108210893D7FB4113DC07010F
:10392C00E29B33F6DB0133068641B30CC300139DD7
:10393C000C01135B0D015A93239F68FF1377F30F50
:10394C00231FE8FEE366AEF0050F014E11C14E8E4B
:10395C008503729FB692B69FE3E4A3DC5294930363
:10396C003400325493FEC3FF2322990023244901CF
:10397C00232059012326D901A25412598259724A83
:10398C00E24A524BC24B324CA24C124D45618280E2
:10399C008D0593F4C5FFFD5A7D550944138A240007
:1039AC00A5B300004111F32700B83EC2F32200B0CA
:1039BC0016C4732300B81AC61247B24363057700C6
:1039CC00732500B02AC4B246A2451386018854C29E
:1039DC000CC24101828000004111F32700B83EC2A5
:1039EC00F32200B016C4732300B81AC61247B243B0
:1039FC0063057700732500B02AC4B246A24513862E
:103A0C00818854C20CC24101828000009387818856
:103A1C00138701888C43084383A247000323470084
:103A2C003385A540B3B3A50033866240B305764019
:103A3C008280000093978501218141115D8DA181C8
:103A4C0006C622C426C2EF10704F97C2FF0F83A286
:103A5C00E277AA8413D582002E84EF1050492A866F
:103A6C00AE862685A285EF10C059B24022449244FE
:103A7C00410182800000000075714AC1CEDEE2D4A3
:103A8C00E6D206C722C526C3D2DCD6DADAD8DED611
:103A9C00EAD0EECE03CE05009309010302D823A28F
:103AAC00090023A4090023A6090023A8090023AABE
:103ABC00090023AC090023AE090002C802CA02CCDB
:103ACC0002CE02D002D202D402D62AC62E8FB28CDB
:103ADC00368C3A89BE8563010E2E9307C002630DA6
:103AEC00FE647288FA8E8146014781428147014605
:103AFC008140814B0144814A8143014B0145814402
:103B0C00930F08FD93F8FF0FA54D63E31D0D03C83C
:103B1C001E00050593881E001143854F630308267C
:103B2C00130AC002630B4805130AE002254D930DDE
:103B3C00C0026305480D130808FD1373F80F637B6F
:103B4C006D1C03C81800854B854F05430504938EE7
:103B5C00180001000A0393080105338A6800032D3D
:103B6C000AFC930D1D002320BAFD63090802130AF9
:103B7C00C0020143E31648F9F68803C81800938E77
:103B8C0018000A0393080105338A6800032D0AFC08
:103B9C00930D1D002320BAFDE31B08FC63030B00EF
:103BAC0026DA63830F002AD863830A001EDC638342
:103BBC000B00A2C011C286C2638302003EDE638D7D
:103BCC00061E3245BAC43308AF00636B0F1F29AC15
:103BDC00130DB002630CA815130AD0026308481524
:103BEC001303E002630E685203C81E00854F054B99
:103BFC00054385040505850EB1BF010003C81800F7
:103C0C00050485081543854F854B630C0816930EE8
:103C1C00C002E304D8F7130A5004254D930DC002DB
:103C2C00937FF80D63824F03130808FD1373F80F8D
:103C3C00637C6D1403C818000546854F0543850049
:103C4C00938E18003DBF010003C818008500938EA9
:103C5C0018000D43854F0546E30E08EE130AC0020B
:103C6C00E30C48F1930258FD93FED20F638A0E00C9
:103C7C0003C82800854205438507938E2800D9BDCB
:103C8C0003C828008507938E280019438542E30357
:103C9C0008ECE30348EF930608FD13FDF60FA54D62
:103CAC0063FAAD0103C83800854605430507938EBA
:103CBC0038004DB503C8380005078D081D438546EF
:103CCC006301080CE30B48EB254A130DC0021306E5
:103CDC0008FD937FF60F637FFA0103C81800854631
:103CEC0085420546854F054B05438504938E180088
:103CFC0095B5010003C81800938E18001D43854F1D
:103D0C00054685428546E30708E4E307A8E7F688FD
:103D1C007DBF010003C81800938E18001143854F16
:103D2C00E30A08E2E30AB8E5F68821B503C81E00E9
:103D3C00050593881E000943854F63040804930E00
:103D4C00C002E30CD8E3930A08FD93FFFA0FA54DCC
:103D5C0063F0FD03130DE0026304A80503C818000B
:103D6C00854A854F05438503938E1800E5B3010002
:103D7C0003C81800850385081143854F854AE31154
:103D8C0008DAC68EC1BB010003C81800938E180058
:103D9C001543854FE30008DCE300B8DFF68849B52E
:103DAC0003C81800850385081543854F854AE31021
:103DBC0008E6C68E45B3010032487A9863740F0347
:103DCC00FA8F930EC00201006306DE01334E9E0192
:103DDC002380CF01CA9F63F50F0103CE0F00EDB70F
:103DEC00034E0F0063020E10930CC002D254C25E3D
:103DFC00E25F064496407253A64263049E37F287F4
:103E0C007A868143014A814A8148814B014BA9A0A2
:103E1C001305B0026380A7229306D002638CD720CF
:103E2C001307E0026382E72E834716000545854A97
:103E3C0005478504850E05060A079408338DE600B0
:103E4C00832D0DFC938C1D0023209DFDB5CB93067B
:103E5C00C00201476384D72A138D07FD937DFD0FA4
:103E6C00A54CE3E7BCFB83471600850E93061600B2
:103E7C0011470545638907201306C0026386C70CEA
:103E8C00930CE002254D930DC002638F9707938727
:103E9C0007FD13F5F70F6373AD18054783C71600BD
:103EAC00138616000A079408338DE600832D0DFC4B
:103EBC00054B0545938C1D0023209DFD0504C1FB7E
:103ECC0063830A0026DA11C176D863030A007EDC0C
:103EDC0063030B00A2C06383030086C263830800E4
:103EEC001ADE63830B0096C4637A0F1D1305C002A0
:103EFC006306AE00334E8E012300CF014A9F637FD1
:103F0C000F1B034E0F00EDB783C716000504850683
:103F1C0015470545054B638807161306C0026385D4
:103F2C00C702930C5004254D930DC00213F7F70DE7
:103F3C0063029703938707FD13F5F70F6378AD14AE
:103F4C00854305450547850083C716001386160073
:103F5C00E5B5010083C716008500138616000D47D2
:103F6C0005458543E38A07EC930CC00263889719D7
:103F7C00938857FD13F6D80F11CA83C726008548BE
:103F8C00054705031386260045BD010083C726009F
:103F9C0005031386260019478548E38F07E8638FCE
:103FAC009715938B07FD13FDFB0FA54D63FAAD0120
:103FBC0083C73600854B0547850213863600ADBD99
:103FCC0083C7360085028D061D47854BCDCFE38D0B
:103FDC0097F7A54C130DC002938307FD13F7F30F4E
:103FEC0063FEEC0083C71600854B85488543054569
:103FFC00854A05478504138616003DBD83C7160008
:10400C00138616001D47054585438548854BE3857A
:10401C0007E26385A70FB286C1B7010083C71600FC
:10402C001386160011470545E38807E06388B70D32
:10403C00B286A1BD83471600850E9306160009476C
:10404C000545B1C31306C002E380C7F0138A07FD10
:10405C00137DFA0FA54D63FFAD01930CE002638352
:10406C00970583C71600054A05450547850F138636
:10407C001600D9B383C71600850F85061147054571
:10408C00054AE39B07DE368645BB010083C7160055
:10409C001386160015470545E38007DA6380B707DA
:1040AC00B28669B583C71600850F85061547054589
:1040BC00054AE39407E6368641B301001309010172
:1040CC004E8C0100032509001109110C4529AA8504
:1040DC000325CCFF6521AA85E39629FFBA402A4423
:1040EC009A440A49F659665AD65A465BB65B265C20
:1040FC00965C065DF64D496182800100B28683C7ED
:10410C001600138616000DBB83471600850E93060A
:10411C00160015470545E39207E0368631BB0100D2
:10412C0003C81E00050593881E001543854FE31038
:10413C0008AEC68E05B40100FA8803C81800014BFE
:10414C008144814601478142814701468140814B30
:10415C000144814A8143814F01450143938E1800EC
:10416C000DB4FA86814A814B81488143014B014A47
:10417C0001450147D1BB0000130EF5FF8547328383
:10418C0063F2C715850541119392050122C626C419
:10419C0093D502014AC24EC00148A14F130FC00271
:1041AC009D4E91480546977400009384649C177447
:1041BC0000001304E49A977300009383639C977236
:1041CC0000009382E29879A063EEE80C9306D7FF87
:1041DC00939906011359190093D709011377C90054
:1041EC00636CF60AB309E40003A70900A54621494C
:1041FC00C29663F5C60983490700B3070301238000
:10420C00370103481700A380070183492700238146
:10421C00370103483700A38107016304190383495D
:10422C0047002382370103485700A38207018349C3
:10423C006700238337016316F90103477700A383D3
:10424C00E70085053E993688939605012300E90120
:10425C0093D506019396050113F7750013D9064102
:10426C00E314D7F79359190093F7C900A546338780
:10427C00F200C29618432149E3EFC6F7637EA80209
:10428C003244A24412498249330605418145330523
:10429C00030141016F10D02DB386E40098421149FF
:1042AC009546B9B79359190093F7C9003387F300B2
:1042BC001843A54621492DBF3244A24412498249D4
:1042CC0041018280014833060541814533050301D4
:1042DC006F10102A977600009386868B1317250093
:1042EC009547B302D70063ECA70203A30200B30304
:1042FC00D300828303A581878280010003A50187F7
:10430C008280010003A541878280010017C5FF0F41
:10431C00032505EC8280010003A5C1808280014544
:10432C0082800000B3C6A5009377F50F93F21600B8
:10433C0013D7170093D81500638B0200697393038E
:10434C001300B3C57800139605019358060133CEBC
:10435C00E800937E1E0013DF270013D81800638B30
:10436C000E00E97F93861F00B342D8001397020119
:10437C00135807013343E8019373130093D83700A4
:10438C00135F1800638B03006976130E1600B34598
:10439C00CF01939E050113DF0E01B34F1F0193F262
:1043AC001F0093D6470093581F00638B0200697758
:1043BC001308170033C308019313030193D80301A7
:1043CC0033C6D800137E160093DE570013D818009E
:1043DC00630B0E00697F930F1F00B345F801939296
:1043EC00050113D80201B346D80113F7160013D3F5
:1043FC006700935E180011CBE9739388130033C6E2
:10440C001E01131E0601935E0E0133CF6E00937FC7
:10441C001F0093D5770013D71E00638B0F00E97232
:10442C0013881200B34707019396070113D70601AF
:10443C0013731700935E17006318B312135F850094
:10444C00B34FDF0193F51F009352850013D31E0069
:10445C00258191C9697893061800B347D300139747
:10446C00070113530701B343A30093F8130013DEA2
:10447C00220093551300638B08006976930E160087
:10448C0033CFD501931F0F0193D50F0133C5C50150
:10449C001378150013D7320093D81500630B08005E
:1044AC00E97613831600B3C768009393070193D87A
:1044BC00030133CEE80013761E0093DE420013D8BE
:1044CC00180011CA697F930F1F00B345F8011395AB
:1044DC000501135805013347D8019376170013D300
:1044EC005200935E180091CAE97393881300B3C706
:1044FC001E01139E0701935E0E0133C66E00137FDF
:10450C00160093DF620013D31E00630B0F00E975D6
:10451C00138515003348A300131708011353070123
:10452C00B346F30193F3160093D2720013561300A3
:10453C00638B0300E978138E1800B347C601939E72
:10454C00070113D60E01137F160013551600630CCA
:10455C005F00E975AA8F1385150033C8AF001317D8
:10456C000801135507018280E9739388130033C641
:10457C001E01131E0601935E0E01C9B533C6A500BC
:10458C009377F50F13170501937216001353070158
:10459C0093D6170093DE1500638B0200E9739385A5
:1045AC001300B3C8BE00139E0801935E0E0133CFF7
:1045BC00DE00937F1F0013D6270093D31E00638B5E
:1045CC000F00E97213871200B3C6E30013980601BB
:1045DC0093530801B3C5C30093F8150013DE3700DD
:1045EC0093D21300638B0800E97E138F1E00B3CFA8
:1045FC00E20113960F019352060133C7C201937661
:10460C00170093D3470093DE120091CA6978930880
:10461C001800B3C51E01139E0501935E0E0133CF26
:10462C007E00937F1F0013D6570013D81E00638B98
:10463C000F00E97213871200B346E800939306014A
:10464C0013D80301B348C80013FE180093DE6700AB
:10465C0093521800630B0E00697F930F1F00B3C5B4
:10466C00F201139605019352060133C7D2019373DD
:10467C00170093D6770093DE1200638B03006978E2
:10468C0093081800B3C71E01139E0701935E0E0119
:10469C0013FF1E0093D31E006318DF3813578300DB
:1046AC00B3C6E30013F816009358830093DF13008E
:1046BC0013539300630B0800697E930E1E00B3C75F
:1046CC00DF01139F0701935F0F01B3C56F0093F2D6
:1046DC00150013D6280013D31F00638B0200E97357
:1046EC0013871300B346E300139806011353080114
:1046FC00334EC300937E1E0013DF38009353130018
:10470C00638B0E00E97F93851F00B3C7B3009392B0
:10471C00070193D3020133C6E3019376160013D736
:10472C00480013DF130091CA697813031800334E45
:10473C006F00931E0E0113DF0E01B34FEF0093F5C4
:10474C001F0093D2580013581F0091C9E9731386A8
:10475C001300B347C8009396070113D806013347DB
:10476C0058001373170013DE680093521800630B84
:10477C000300E97E138F1E00B3CFE20193950F0166
:10478C0093D20501B3C3C20113F6130093D878007A
:10479C0013D3120011CAE97613881600B34703012C
:1047AC001397070113530701137E13009353130040
:1047BC0063121E279358050133C6130113F8F80F23
:1047CC009377160041819356180013DF130091CB99
:1047DC006973130E13003347CF01931E070113DFC8
:1047EC000E01B34FDF0093F51F00935228001353B3
:1047FC001F0091C9E9739388130033461301931773
:10480C00060113D30701B346530013FE1600935E43
:10481C00380093521300630B0E00697F930F1F0037
:10482C0033C7F2019315070193D20501B3C3D2012B
:10483C0093F813001356480093DE1200638B0800A4
:10484C00E97713831700B3C66E00139E0601935EBF
:10485C000E0133CFCE00937F1F009355580093D792
:10486C001E00638B0F00E9729383120033C777002D
:10487C009318070193D7080133C6B70013731600BA
:10488C00135E680093D51700630B0300E976938ED3
:10489C00160033CFD501931F0F0193D50F01B3C26F
:1048AC00C50193F312001358780013D31500638BD2
:1048BC000300E978938718003347F30013160701B8
:1048CC0013530601137E130093551300631A0E1332
:1048DC0093528500B3C3B20013F8130093588500AC
:1048EC0013DE15002581630B08006977130617008A
:1048FC00B347CE0013930701135E0301B346C50102
:10490C0093FE160013DF280013581E00638B0E0055
:10491C00E97F93851F00B342B8009393020113D82B
:10492C00030133450F011377150013D63800935E3E
:10493C00180011CB6973130E1300B3C7CE019396F5
:10494C00070193DE060133CFCE00937F1F0093D572
:10495C00480013D71E00638B0F00E972938312007B
:10496C003348770013150801135705013346B70078
:10497C001373160013DE5800935F1700630B0300CC
:10498C00E976938E1600B3C7DF01139F0701935F7F
:10499C000F01B3C5CF0193F2150093D3680013D365
:1049AC001F00638B02006978130518003347A300BE
:1049BC001316070113530601334E730093761E0032
:1049CC0093D878009355130091CAE97E138F1E007B
:1049DC00B3C7E501939F070193D50F0193F215001F
:1049EC0013D51500638C12016978AA83130518007E
:1049FC0033C7A3001316070113550601828001006B
:104A0C00E976938E160033CFD501931F0F0193D502
:104A1C000F017DBD697F930F1F00B3C5F301939206
:104A2C00050193D3020179B3E97F93851F0033C647
:104A3C00B3009312060193D302018DB10000000064
:104A4C00B3C6A5009377F50F93F2160042051353E6
:104A5C00050113D7170013DE1500638B0200E973F1
:104A6C00938513003346BE009318060113DE08012C
:104A7C00B34EEE0013FF1E0093DF270013581E00E9
:104A8C00630B0F00E9769382160033455800131719
:104A9C00050113580701B343F80113F6130093D81B
:104AAC003700935F180011CA697E930E1E00B3C5C0
:104ABC00DF01139F0501935F0F01B3C61F0193F232
:104ACC00160013D5470093D81F00638B020069773B
:104ADC0013081700B3C3080113960301935806017A
:104AEC0033CEA800937E1E0013DF570013D5180099
:104AFC00638B0E00E97F93861F00B345D50093921C
:104B0C00050113D502013347E5011378170093D340
:104B1C006700135F1500630B0800E978138E18000B
:104B2C003346CF01931E060113DF0E01B34F7F00F6
:104B3C0093F61F0093D5770013581F0091CAE972A2
:104B4C0013851200B347A8001397070113580701E8
:104B5C0093731800135F18006398B312935F83006C
:104B6C00B3C6EF0193F516009352830093531F00C5
:104B7C001353930091C9697513071500B3C7E3006C
:104B8C001398070193530801B3C8630013FE180070
:104B9C0093DE220093D51300630B0E006976130F7E
:104BAC001600B3CFE50193960F0193D5060133C3DD
:104BBC00D5011375130013D7320013DE150011C97C
:104BCC00697893031800B3477E009398070113DEAE
:104BDC000801B34EEE0013F61E0013DF420013550E
:104BEC001E0011CAE97F93861F00B345D5001393AD
:104BFC000501135503013347E5011378170093D3CF
:104C0C005200135F1500630B0800E978138E18002F
:104C1C00B347CF01939E070113DF0E0133467F008C
:104C2C00937F160093D6620013581F00638B0F00FE
:104C3C00E9751383150033456800131705011358E4
:104C4C000701B343D80093F8130093D272001356A4
:104C5C001800638B0800697E930E1E00B347D601C3
:104C6C00139F070113560F01937F1600135516005F
:104C7C00638B5F00E97513831500334565001317CB
:104C8C000501135507018280E978138E180033460D
:104C9C00CF01931E060113DF0E01C9B501458280B9
:104CAC000000AA88AE873288368546836396062034
:104CBC00976600009386C6F663FFC50A4167637565
:104CCC00E60A1307F00F3337C7000E073355E6001B
:104CDC00AA9683C60600130500023697B306E54074
:104CEC00630BE500B395D70033D7E8003318D60033
:104CFC00D98D3393D80093580801B3D615031316E6
:104D0C00080141829357030133F715033685B30528
:104D1C00D6024207D98F63FCB700C2971385F6FF02
:104D2C0063E7070163F5B7001385E6FFC2978D8F24
:104D3C0033F71703420313530301B3D71703420787
:104D4C0033636700B306F6023E86637BD30042935F
:104D5C001386F7FF636603016374D3001386E7FFC2
:104D6C004205518D81455DA8370500014147E36F30
:104D7C00A6F46147A1BF01E605473358C702416756
:104D8C00637FE8081307F00F63730701214533575E
:104D9C00A800BA9603C70600130600022A97B306AA
:104DAC00E6406315E608B38707418545935808012B
:104DBC0013160801418213570301B3F61703B3D737
:104DCC001703C206558F330EF6023E85637CC7016E
:104DDC0042971385F7FF636707016375C701138556
:104DEC00E7FF42973307C741B377170342031353C7
:104DFC00030133571703C20733E36700B306E60218
:104E0C003A86637BD30042931306F7FF6366030174
:104E1C006374D3001306E7FF4205518D8280370778
:104E2C0000014145E365E8F6614595B73318D800B4
:104E3C0033D5E7003393D800B397D70033D7E800C6
:104E4C00935808013366F70033771503931708015D
:104E5C00C183935506013355150342074D8FB38615
:104E6C00A702AA85637CD70042979305F5FF636779
:104E7C0007016375D7009305E5FF4297B306D7404A
:104E8C0033F7160342064182B3D616034207338525
:104E9C00D702B367C700368763FCA700C297138796
:104EAC00F6FF63E7070163F5A7001387E6FFC297D8
:104EBC00C205898FD98DDDBD63E2D514416763FFCF
:104ECC00E6021307F00FB335D7008E0533D5B600C5
:104EDC00176700001307C7D42A9703470700130569
:104EEC0000022E97B305E5406311E5020545E3E7A3
:104EFC00F6F233B5C800134515000DB7370700019E
:104F0C00C145E3E5E6FCE145D1B73358E600B3967D
:104F1C00B6003368D80033D3E700935E0801B3764C
:104F2C00D303B397B70033D7E800331EB60033660C
:104F3C00F70093170801C183135706013353D303AA
:104F4C00C206558F338F67021A85637CE70142973F
:104F5C001305F3FF636707016375E7011305E3FFAF
:104F6C0042973307E741B376D7033357D703C206CB
:104F7C003383E70293170601C183D58F3A8663FC0E
:104F8C006700C2971306F7FF63E7070163F5670035
:104F9C001306E7FFC2974205C16E518D9386FEFF43
:104FAC0013560E0113580501B38767403373D500B0
:104FBC00B376DE00330ED302B306D80213570E01BC
:104FCC003303C30236931A973308C8026373D700AE
:104FDC00769893560701369863E00703E39407D954
:104FEC00C167FD177D8F4207337EFE00B398B80072
:104FFC0072978145E3F4E8E27D15ADB38145014537
:10500C0031BD79714AD013D9450126D24ECE52CC3E
:10501C005AC862C49394C50006D622D456CA5EC63A
:10502C001379F97F2A8A328B368CB18093D9F501AA
:10503C00630409089307F07F630AF90C935AD501AE
:10504C008E04B3E49A00B70A8000B3EA5401131437
:10505C003500130919C0814B1315CC009354C500AE
:10506C0013554C019375F57F135CFC01F9C1930743
:10507C00F07F638BF510139534009357DB015D8D36
:10508C00B7048000C98C931F3B00138515C0814762
:10509C0013972B005D8F7D173946B3C68901B30575
:1050AC00A9406365E610176600001306E6AF0A0711
:1050BC003297184332970287B3EAA40063820A0638
:1050CC009DC82685EF00103D930755FF7147634936
:1050DC00F702F54A130485FFB38AFA40B3948400AF
:1050EC00B35A5A01B3EA9A0033148A009305D0C01C
:1050FC003389A5408DB7EF00F03913050502E9B7E8
:10510C00930485FDB31A9A000144CDB7B3EAA40009
:10511C00638C0A002A84A68A1309F07F8D4B2DBF5D
:10512C0001440149854B0DBF01441309F07F894BA4
:10513C0025B7B3EF640163820F069DC82685EF0087
:10514C007035AA85938755FF71476349F702F54679
:10515C00938F85FF9D8E3395F401B356DB00B3E43A
:10516C00A600B31FFB019306D0C03385B64005B72C
:10517C005A85EF00303293050502E9B7138585FD9A
:10518C00B314AB00814FC5B7B3EF6401638B0F0051
:10519C00DA8F1305F07F8D47E5BD814401458547C6
:1051AC00C5BD81441305F07F8947DDB563E6540125
:1051BC0063969A2A6364F42B1396FA01135714001E
:1051CC009317F40193DA1A003364E6001395840004
:1051DC0093D88F01B3E8A800418133DEAA02939ED5
:1051EC00080193DE0E011357040113938F00B3FAD9
:1051FC00AA0272863388CE03C20A33675701637CD6
:10520C00070146971306FEFF6367170163750701D5
:10521C001306EEFF469733070741335EA70242049D
:10522C0041803377A702F2823388CE034207418F45
:10523C00637C070146979302FEFF63671701637552
:10524C0007019302EEFF469733040741420641687B
:10525C00B3625600130EF8FF13D6020133F7C201E6
:10526C00135F0301337EC301B303EE02B304C60321
:10527C003307EF02B30FE6033306970013D703018E
:10528C00329763739700C29F135607017E96C16FC6
:10529C00FD1F3378F7014208B3F3F3011E986367DF
:1052AC00C4009684631EC40263FC07039A9733B749
:1052BC00670046973A949384F2FF63E68800639103
:1052CC00880263EF67006366C400631B860063F9A2
:1052DC0007019A9733B7670046979384E2FF3A9495
:1052EC0033880741118CB3B707011D8CFD5F6387B1
:1052FC00880EB35FA402135708013374A4027E8690
:10530C00B387FE034204598C637CF40046941386E5
:10531C00FFFF636714016375F4001386EFFF469477
:10532C001D8C3357A4024208135808013374A4028D
:10533C00BA87B38EEE02420433648800637CD401D6
:10534C0046949307F7FF636714016375D4019307C1
:10535C00E7FF469442065D8E93170601C1831357EF
:10536C0006013308EF023304D441330FFF02B38E2E
:10537C00C703330EC70393D70E01729FFA9763F4DA
:10538C00C70141673A9813D70701429741687D18C6
:10539C0033F507014205B3FE0E0176956366E40012
:1053AC00631FE418B28F1DC94694930FF6FF636117
:1053BC0014036366E4006313E418637DA30093177E
:1053CC00130033B367009A98930FE6FF46943E831D
:1053DC006314E4006304650093EF1F009387F53FAB
:1053EC00635BF00A13F77F0001CF13F7FF00114640
:1053FC006308C70013864F00B33FF601FE94B28FCB
:10540C0037070001658F19C7B70700FFFD17FD8C23
:10541C00938705401307E07F6342F70693DF3F0055
:10542C001397D4013367F70113D53400D20737062D
:10543C00F07F3205B2502254F18F31815D8DFE0622
:10544C00B367D50092540259F249624AD24A424B90
:10545C00B24B224C3A85BE8545618280FD15814751
:10546C00B5B3CE86D684A28FDE870D47638AE70A52
:10547C000547638EE70A0947E392E7F601450147C2
:10548C009307F07F65B7E286CDB7B7040800814F6C
:10549C0081468D47D9BF05451D8D13078003634891
:1054AC00A7087D476349A7049385E541B397B400EA
:1054BC0033D7AF00B395BF00D98FB335B000CD8FC4
:1054CC0033D5A40013F7770001CF13F7F70011467B
:1054DC006308C70013874700B337F7003E95BA87B8
:1054EC0037078000698F39E71317D5018D835D8FDE
:1054FC000D81814725BF0557B307F74013060002FE
:10550C00B3D7F40001476306C5001387E54333970F
:10551C00E4003367F7013337E000D98F01455DB7FD
:10552C003705080001479307F07F814601B7014515
:10553C000147C1B7014501478547CDBD7E86B28F76
:10554C0061BD370710007D1713D84501B378B7003C
:10555C00AA872A831378F87F13D5F501930EF07F71
:10556C0093D54601758F328E93F5F57FFD826318C6
:10557C00D801B3EEF80063840E06795582806396E9
:10558C00D501B36EC700E39A0EFE631C0804B3E7A3
:10559C00F80093B7170099E1598E0DCE81EB631487
:1055AC00D50063D905010DC57D5582807D5591C609
:1055BC00368582806354B80065D98280E36517FF15
:1055CC00639CE800E3616EFEE368C3FF01458280E3
:1055DC0005458280E5FFC1BFE3E0E8FEC5BFE3827D
:1055EC0005FBD5FD81474DBF370710007D1713D83C
:1055FC004501B378B700AA872A831378F87F13D5AF
:10560C00F501930EF07F93D54601758F328E93F58D
:10561C00F57FFD826318D801B3EEF80063840E06A3
:10562C00094582806396D501B36EC700E39A0EFEDE
:10563C00631C0804B3E7F80093B7170099E1598E7F
:10564C000DCE81EB6314D50063D905010DC57D55D5
:10565C0082807D5591C6368582806354B80065D9A9
:10566C008280E36517FF639CE800E3616EFEE368EC
:10567C00C3FF0145828005458280E5FFC1BFE3E0A1
:10568C00E8FEC5BFE38205FBD5FD81474DBF13D7AF
:10569C004501370810009307F8FF1377F77F1306BF
:1056AC00E03FED8FAA86FD816351E6041306F041BD
:1056BC000D8E1385F5FF635BC702014585E9130564
:1056CC003043198D7D46B3E70701634AA6001307E3
:1056DC00D7BEB397E70033D5A6005D8D8280130546
:1056EC003041198D33D5A70082800145828041114C
:1056FC0022C406C62A8421C1712B1307E041A94795
:10570C00098F63C4A702AD47898F5505B357F400C1
:10571C003314A400B2402285B20722445207B1834D
:10572C00B366F700B68541018280930755FFB31726
:10573C00F4000144C5B781470147E9BF011106CE0A
:10574C0022CC26CA4AC84EC652C4B367B50063877A
:10575C0007122A842E89AE84ADC12E85252BAA89E9
:10576C00130AE043330A3A419307304363C14707B6
:10577C002D47A287635337031307A00263433705F2
:10578C009304B002138759FFB3843441B35494008B
:10579C00B315E900CD8CB317E400F2406244939545
:1057AC00C400520AB1813367BA00D2444249B249AB
:1057BC00224A3E85BA8505618280E9299309050252
:1057CC0045B7938559FDB314B4008147F9B79307D6
:1057DC00604363D34703138689032285CA857121ED
:1057EC004D8D2146B334A000CA852285330636413F
:1057FC00812933E4A4002E892147A287CA856354EA
:10580C0037031307700263453707138789FFB315F6
:10581C00E900130980023309394133592401B36576
:10582C00B900B317E400370780FF7D17F98D13F724
:10583C00770001CF13F7F70091466308D700138761
:10584C004700B337F700BE95BA87370780006D8FD6
:10585C0009CB370780FF7D17130AF043F98D330A04
:10586C003A418D831395D501C98F93D4350035B743
:10587C00938589FDB315B400814775B78144814781
:10588C00014A21BF011126CA935475014AC84EC65C
:10589C0052C49319950006CE22CC56C293F4F40F41
:1058AC002E8A93D999001359F501B5C49307F00FBB
:1058BC00638FF4068E09B7070004B3E9F9009384EB
:1058CC0014F8814A13557A0113149A001375F50FC5
:1058DC002580135AFA0135C59307F00F630FF506AF
:1058EC000E04B70700045D8C130515F881479396D9
:1058FC002A00DD8EFD163947334649013385A44015
:10590C006366D706975500009385C52D8A06AE961B
:10591C0098422E970287638309024E85A52E930722
:10592C00B5FF9304A0F8B399F900898C59BF93047F
:10593C00F00F894AE38809F88D4A69B78144854A92
:10594C0051B715C02285B9269307B5FF3314F4005F
:10595C009307A0F83385A74051BF1305F00F894773
:10596C0059D48D4769B70145854751B71318540071
:10597C0063FE890C7D1581461354080133D38902CB
:10598C00C167FD17B377F800C18233F789029A8596
:10599C00B38867024207558F637C170142979305C2
:1059AC00F3FF63670701637517019305E3FF4297E4
:1059BC0033071741B358870233778702B38617032F
:1059CC0093170701468763FCD700C2971387F8FF2C
:1059DC0063E7070163F5D7001387E8FFC2971394B9
:1059EC000501958F598CB337F0005D8C1307F507C3
:1059FC00635AE0089377740099C79377F400914643
:105A0C006383D7001104B7070008E18F99C7B70764
:105A1C0000F8FD177D8C130705089307E00F0D8028
:105A2C0063C7E7049317770126043707807FF98F44
:105A3C0025805D8C1315F601F240418D6244D244F1
:105A4C004249B249224A924A056182809396F901F1
:105A5C0093D9190015B74A864E84D6870D476382B1
:105A6C00E70605476385E7060947E391E7F8014434
:105A7C001307F00F45BF5286D5B7370440000146D7
:105A8C008D47E9BF8547998F6D476342F70413052E
:105A9C00E509B357F4003314A400333480005D8C53
:105AAC009377740099C79377F40011476383E700E9
:105ABC001104B7070004E18F0D8099CB0144054711
:105ACC0095B7370440001307F00F0146A1BF0144FE
