:0200000480007A
:100000007370043073504030971100109381819CBD
:1000100017010110130101FF971200009382820A59
:100020007390523073F05130170500001305450AE4
:10003000970500009385C5096302B50217F6000015
:10004000130646B763FCC5008322050023A05500B4
:100050001305450093854500E3E8C5FE17F500004C
:10006000130545B5970500109385C5F9138641879B
:1000700063FCC5008322050023A05500130545003D
:1000800093854500E3E8C5FE138541879385019D6F
:100090006378B5002320050013054500E36CB5FE29
:1000A000EF10005E1775000013058552EF70C05009
:1000B000EF704057EF10406E1305000093050000ED
:0C00C000EF00C000EF1090236F00000064
:1000CC00130101812326117EB717041013071000AA
:1000DC002324817E2322917E2320217F232E317D98
:1000EC00232C417D232A517D2328617D23A0E70009
:1000FC00130101F613051000EF508021B716000014
:10010C00938306861306010137F3FFFF3384C30084
:10011C0093020500B30464002394547E130520005D
:10012C0023269100EF50C01E0328C1009305050043
:10013C00130530002315B87EEF50801D0329C10034
:10014C0093080500130540002316197FEF50401C3F
:10015C009305401F17E50000130585C39309401F45
:10016C00232A3107EF80805213055000EF50401ABC
:10017C00E304050C232CA106371A0000930A0A8607
:10018C00130B010137F5FFFF338E6A01B30EAE007E
:10019C0003AF8E7E2326D101E3180F060326C10080
:1001AC000314C67EE304041603298107B718000064
:1001BC00938008861305010137F8FFFF338AA000EE
:1001CC00B30A0A0193792900130B010A333E30015B
:1001DC00137F19002326510123A86A7F231C0108D1
:1001EC00937E4900B307CF0163880E001387170075
:1001FC009312070193D702011303007D3355F302C9
:10020C00130B0000B7F3FFFF2328A106E31C0F021A
:10021C00E39A0908E39E0E0463120F74639C09763B
:10022C001374490063080402B7150000138805868F
:10023C0093080101B7F4FFFFB3001801338A900053
:10024C000326CA7F83158A7E0325010723264101D5
:10025C00EF4090700329410763140928B71A000076
:10026C00B7F9FFFF138B0A8613050101130F10005A
:10027C009386897E330EAB00232AE1073304DE001C
:10028C00170A0010130ACAF5832F410793040000C4
:10029C0093972F003387F70193121700232A5106E7
:1002AC00EF4000408329410723280108232A010835
:1002BC006382091E13F339006308030C93031000C7
:1002CC0063027308930E20006300D305930510009E
:1002DC0013050400EF1090028355010993041000DC
:1002EC00EF508008130605009305F0FF130504007A
:1002FC002318C108EF10900083550109EF50C00678
:10030C002318A1082319A108930510001305040054
:10031C00EF10C07E83550109EF500005130805004E
:10032C009305F0FF1305040023180109EF10007D5D
:10033C0083550109EF5040032318A108638C046016
:10034C00938414009305100013050400EF10007B38
:10035C0083550109EF504001930805009305F0FF08
:10036C001305040023181109EF1040798355010976
:10037C00EF40907F2318A108639404002319A1086F
:10038C0093841400638899109305100013050400DE
:10039C00EF10C0768355010913891400130B190053
:1003AC00EF40907C130F05009305F0FF130504003C
:1003BC002318E109EF10807483550109EF40D07ABE
:1003CC00930605002318D1089305100013050400AB
:1003DC00639404002319D108EF104072835501096E
:1003EC00930A290093043900EF401078130E05008E
:1003FC009305F0FF130504002318C109EF100070DA
:10040C0083550109EF405076930F05002318F1092D
:10041C009305100013050400631409002319F10956
:10042C00EF10C06D83550109EF4010749307050060
:10043C009305F0FF130504002318F108EF10006C6E
:10044C0083550109EF405072130705002318E1088A
:10045C00930510001305040063140B002319E10825
:10046C00EF10C06983550109EF401070930205002D
:10047C009305F0FF1305040023185108EF100068D2
:10048C0083550109EF40506E2318A108638E0A4A68
:10049C00E39C99EEEF408025EF40002AEF40802C42
:1004AC0003260A0083264A009309050013890500D8
:1004BC00EF601010E34A05DC138509009305090071
:1004CC00EF60501D630005649305A000B3D0A50236
:1004DC000324410713851000330A8502232A4107A0
:1004EC00EF40001CB71A000093830A86930E01019B
:1004FC0037FBFFFF13038B7E3386D3013305660076
:10050C00EF208058EF40801EEF40002313880A86AE
:10051C0093080101330F1801B3066F019304050012
:10052C000395867E13890500930500002326D100D0
:10053C00EF50C05D032EC100930505000315AE7E80
:10054C00EF50C05C832FC100930505000395CF7E4F
:10055C00EF50C05B9305050003150107EF50005BDE
:10056C00B7870000138757B093090500630EE56C3D
:10057C006366A74637240000130A248F630C456B6F
:10058C00375B00001303FBEA631A656C17E5000088
:10059C0013054588130A2000EF80C03C832A81078D
:1005AC00231C010813141A0093F31A00638E030220
:1005BC0097EE0000938ECEE433888E00035621090B
:1005CC00835608006302D6029305000017E500006D
:1005DC001305C58CEF80800B03568109832A810794
:1005EC0093081600231C110913FF2A00630E0F0237
:1005FC0097E60000938686E1338E86000356410908
:10060C0083560E006302D6029305000017E5000026
:10061C001305C58BEF808007835F8109832A8107CF
:10062C0093871F00231CF10813F74A00630E070081
:10063C0097E20000938242DEB38582000356610983
:10064C0083D605006310D64A835A8109EF50C074D3
:10065C00832501073383AA009313030117E50000D8
:10066C001305058D13D40301EF804002938504001C
:10067C0017E500001305458DEF804001138504003C
:10068C0093050900EF40000E130605009386050044
:10069C0017E500001305C58CEF70507F138504001F
:1006AC0093050900EF40000C1306000093060000B0
:1006BC00EF60C0616354A00403254107EF6050054F
:1006CC00130B0500938A050013850400930509009C
:1006DC00EF404009130605009386050013050B0037
:1006EC0093850A00EF5050701306050093860500A1
:1006FC0017E5000013054588EF7050791385040049
:10070C0093050900EF400006970E0010938ECEADB6
:10071C0003A60E0083A64E00EF6080696344054E6D
:10072C0013180401135408418325410717E50000F1
:10073C00130545C5EF70907597E500009385059CF2
:10074C0017E50000130585C5EF70507497E50000A0
:10075C009385C58C17E500001305C5C5EF701073A4
:10076C0097E500009385059C17E50000130505C669
:10077C00EF70D0719385090017E50000130585C64D
:10078C00EF70D0708329810713FF1900631E0F448B
:10079C0093F62900639C064213FE4900631C0E402D
:1007AC00035601099305000017E50000130585B6F3
:1007BC00EF70D06D630C04366352803617E5000081
:1007CC0013054597EF80001A03274107B7470F0021
:1007DC0093820724B3355702B7FAFFFF371B041077
:1007EC0033055702EF60C07A13830500130405002C
:1007FC00930509001385040013090300EF60D0155D
:10080C00EF601029970300109383839E03A60300C7
:10081C0083A64300EF50505D130605009386050038
:10082C001305040093050900EF50105CEF601034C1
:10083C00930905001305A000EF70106C1305A000C0
:10084C00EF70906B17E5000013050596EF80801193
:10085C001305A000EF70506A8325410717E50000CF
:10086C0013054598EF7090629385040017E500001E
:10087C0013050599EF70906117E500001305059AB3
:10088C00EF80400E17E500001305C59BEF80800D2F
:10089C0013850900EF60D01F938605001306050031
:1008AC0017E500001305059DEF70505E1305A000C1
:1008BC00EF709064930EE001130880021306A00001
:1008CC00930820039304400117E500001305459E8F
:1008DC00232CC1002320D1032326D1032328010379
:1008EC00232CD103232E01032320110523220102E3
:1008FC00232A0102232201042324010423260104B8
:10090C0023280104232A0104232E9100232491027D
:10091C00EF80400517E500001305859CEF808004EF
:10092C00B7160000138E0686930F0101138F8A7A77
:10093C00330AFE013305EA01EF508046130710001D
:10094C002320EB006F0000002319A108E39E99A25D
:10095C006FF05FB42319A1086FF09F9EB7190000C8
:10096C00138F09869306010137F9FFFFB30ADF00E5
:10097C00338B2A0103168B7E83254B7F2326610143
:10098C00EF10503903298107232EA10693792900F2
:10099C00E3880988371E0000930F0E869307010128
:1009AC0037F5FFFF3387FF00B302A7002326510062
:1009BC008323C1000393A27E03250107839E837EBC
:1009CC0083A5837F13160301930601083366D601B2
:1009DC00EF30D00B032981076FF09F84B792000092
:1009EC00938522A0630EB522B7F000001385509FAB
:1009FC006396A92617D500001305C544130A3000C9
:100A0C00EF7050766FF09FB9930F1000631EFFF9D3
:100A1C008327C1000397C77E631807F88326C1009C
:100A2C00B7321534138352419303600623A4667EB8
:100A3C002396767E6FF04FF793007000232C1106EF
:100A4C006FF08FF337160000130406869304010130
:100A5C00B3059400338875009308010A232601011D
:100A6C00232A187F130B1000638609FA6F0080038A
:100A7C00B30EAB02B715000013880586930801016D
:100A8C0037F6FFFF1304010AB3001801338AC000C4
:100A9C0023264101B304D401232E9A7E63000FF860
:100AAC006FF0DFEBB300AB02B717000013870786BC
:100ABC009302010137FAFFFF130E010A33035700AB
:100ACC0093061B00B3034301939A0601B30F1E0058
:100ADC002326710023ACF37F13DB0A01638E0EF225
:100AEC006FF01FF99305000017D500001305454161
:100AFC00EF70D03903558109130B1500231C6109C4
:100B0C006FF09FB4130510006FF01F9C8325C1007C
:100B1C00930460062396957E6FF00FE917D50000BD
:100B2C0013054562EF7010646FF01FCA17D50000F3
:100B3C001305054AEF701063930F3000E316FAC9E2
:100B4C0003254107EF60C03C130A0500138B050019
:100B5C001385040093050900EF30D04013060500FF
:100B6C009386050013050A0093050B00EF50D02760
:100B7C00130605009386050097D700009387074A54
:100B8C0017D700001307875717D500001305C55753
:100B9C00EF70D02F97D500009385C55817D500005E
:100BAC001305C558EF70902E1305A000EF70D034CC
:100BBC006FF09FC1035661099305000017D5000023
:100BCC0013050577EF70902C6FF09FBD035641090C
:100BDC009305000017D5000013054577EF70102B17
:100BEC00832981076FF05FBB035621099305000031
:100BFC0017D5000013054577EF705029832981071D
:100C0C006FF01FB917D5000013058538EF7090559C
:100C1C00130614009318060113D408416FF0DFB0CB
:100C2C0017D5000013058519130A0000EF709053B7
:100C3C006FF0DF9617D5000013058523130A4000CB
:100C4C00EF7050526FF09F9517D500001305C51922
:100C5C00130A1000EF7010516FF05F94B700010091
:100C6C00938AF0FF130AF0FF6FF05F9E93079000DA
:100C7C0023ACF1881305F0FF67800000730050105F
:100C8C00730050107300501073005010730050100C
:100C9C007300501073005010730050106FF01FFE53
:100CAC001305F5FF9307100063EAA7003723000034
:100CBC001305000023A265006780000093029000DA
:100CCC001305F0FF23AC518867800000130510005A
:100CDC006780000013051000678000009307600117
:100CEC0023ACF1881305F0FF6780000013050000AA
:100CFC0067800000630605001305F0FF67800000A5
:100D0C00130101FF37350110232481002326110024
:100D1C0013840500EF004056930705002300F400F0
:100D2C008320C1000324810013051000130101016D
:100D3C006780000017F7FF0F130707498327070089
:100D4C009386019D3385A700636ED50097F2001042
:100D5C00938282AA63E8A2002320A70013850700D0
:100D6C00678000009307F0FF138507006780000081
:100D7C00130101FE2328210123263101232E11000A
:100D8C00232C8100232A910023244101138905007F
:100D9C0093090600EF70903F630A053013040900B5
:100DAC00330A3901638A090CB3072A4193F077009F
:100DBC009304A000638E0016130710006382E00AF0
:100DCC00930220006384500813033000638660068E
:100DDC00930340006388700413055000638AA002DB
:100DEC0093056000638CB000834509006386952AE7
:100DFC0037350110EF0080401304190083450400BF
:100E0C006382952837350110EF00403F130414001E
:100E1C0083450400638E952437350110EF00003EA6
:100E2C001304140083450400638A9522373501109E
:100E3C00EF00C03C13041400834504006382951E2C
:100E4C0037350110EF00803B130414008345040078
:100E5C00638C951E37350110EF00403A13041400D3
:100E6C00834504006388951C130414003735011066
:100E7C00EF00C038631E440B138509008320C101A9
:100E8C000324810183244101032901018329C10029
:100E9C00032A810013010102678000009305D00032
:100EAC0037350110EF0080358345040037350110CC
:100EBC0013091400EF0080348345140063889508EF
:100ECC0037350110EF008033834519006380950A94
:100EDC0037350110EF008032834529006388950A6D
:100EEC0037350110EF008031834539006380950C54
:100EFC0037350110EF008030834549006388950C2D
:100F0C0037350110EF00802F834559006380950E13
:100F1C0037350110EF00802E834569006388950EEC
:100F2C001304790037350110EF00402DE30644F52A
:100F3C0083450400E38495F637350110EF00002C4F
:100F4C008345140013091400E39C95F69305D00017
:100F5C0037350110EF00802A834514003735011016
:100F6C00EF00C02983451900E39495F69305D00052
:100F7C0037350110EF0080288345190037350110F3
:100F8C00EF00C02783452900E39C95F49305D0001E
:100F9C0037350110EF0080268345290037350110C5
:100FAC00EF00C02583453900E39495F49305D000F8
:100FBC0037350110EF008024834539003735011097
:100FCC00EF00C02383454900E39C95F29305D000C4
:100FDC0037350110EF008022834549003735011069
:100FEC00EF00C02183455900E39495F29305D0009E
:100FFC0037350110EF00802083455900373501103B
:10100C00EF00C01F83456900E39C95F09305D00069
:10101C0037350110EF00801E834569006FF05FF0DB
:10102C009305D00037350110EF00401D83450400B7
:10103C006FF01FE19305D00037350110EF00001C55
:10104C00834504006FF05FE29305D0003735011043
:10105C00EF00C01A834504006FF0DFDF9305D0006A
:10106C0037350110EF008019834504006FF01FDC49
:10107C009305D00037350110EF004018834504006C
:10108C006FF09FD99305D00037350110EF00001792
:10109C00834504006FF01FD79305D000373501103E
:1010AC00EF00C015834509006FF09FD41305F0FFC6
:1010BC006FF0DFDC130101FB232011002322410020
:1010CC00232451002326610023287100232AA10028
:1010DC00232CB100232EC1002320D1022322E102B4
:1010EC002324F102232C0103232E11032320C105F9
:1010FC002322D1052324E1052326F105F322103404
:10110C0023265102F322203423285102F3220030EB
:10111C00232A51027325203493050100EF00C05699
:10112C008322C10273901234832201037390223400
:10113C00832241037390023083200100032241007B
:10114C00832281000323C100832301010325410174
:10115C00832581010326C101832601020327410255
:10116C0083278102032881038328C103032E0104F2
:10117C00832E4104032F8104832FC1041301010525
:10118C007300203093070500630C05000327C5018D
:10119C0013050000B365B70023AEB70067800000ED
:1011AC001305F0FF67800000930705006304050436
:1011BC0017F7FF0F03278701B355B70293020008F7
:1011CC00232655001308600C93083000130500000B
:1011DC001383F5FF9353830013F6F30F23A2C70079
:1011EC009376F30F23A0D70023A4070123A617019E
:1011FC00678000001305F0FF67800000930705006F
:10120C006308050603A7470193720702639C020457
:10121C0003A34701937303026396030403A54701D9
:10122C00137605026310060483A6470113F8060221
:10123C00631A080283A8470113FE080263140E0206
:10124C0083AE470113FF0E02631E0F0083AF4701ED
:10125C0013F70F026318070083A2470113F302026E
:10126C00E30203FA1305000023A0B7006780000017
:10127C001305F0FF6780000063080506832745010E
:10128C0093F21700639C020403234501937313002C
:10129C00639603048325450113F6150063100604B9
:1012AC008326450113F71600631A0702032845012C
:1012BC009378180063940802032E4501937E1E0058
:1012CC00639E0E00032F4501937F1F0063980F0050
:1012DC008327450193F21700E38202FA03250500E8
:1012EC001375F50F678000001305F00F6780000081
:1012FC00B7C7000283A687FF83A7C7FF130101FFAF
:10130C0023261100232481002322910037C60002DA
:10131C0093800600032786FF8327C6FF1308070068
:10132C00732700B063980009832286FF8327C6FFCA
:10133C0013880200732700B0639E5006032386FFB8
:10134C008327C6FF13080300732700B0639460065D
:10135C00832386FF8327C6FF13880300732700B0FF
:10136C00639A7004032486FF8327C6FF13080400C6
:10137C00732700B063908004832486FF8327C6FF05
:10138C0013880400732700B063969002032586FF30
:10139C008327C6FF13080500732700B0639CA000C9
:1013AC00832586FF8327C6FF13880500732700B0AB
:1013BC00E382B0F6B7C8000203AE88FF83A6C8FF6D
:1013CC00F32500B0631AC80783AE88FF83A6C8FF55
:1013DC00F32500B06312D80703AF88FF83A6C8FFBC
:1013EC00F32500B0631AE80583AF88FF83A6C8FF16
:1013FC00F32500B06312F80583A788FF83A6C8FF06
:10140C00F32500B0631AF80203A688FF83A6C8FF71
:10141C00F32500B06312C80283A088FF83A6C8FF1F
:10142C00F32500B0631A180003A788FF83A6C8FF32
:10143C00F32500B0E302E8F883A7C8FF83A688FF72
:10144C00B7C200021383060083A382FF83A7C2FFE7
:10145C00938E0300732F00B06318730803A482FFEC
:10146C0083A7C2FF930E0400732F00B0631E830684
:10147C0083A482FF83A7C2FF938E0400732F00B056
:10148C006314930603A582FF83A7C2FF930E050086
:10149C00732F00B0631AA30483A582FF83A7C2FF36
:1014AC00938E0500732F00B06310B30403A882FF62
:1014BC0083A7C2FF930E0800732F00B063160303BB
:1014CC0083A882FF83A7C2FF938E0800732F00B0FE
:1014DC00631C130103AE82FF83A7C2FF930E0E00A1
:1014EC00732F00B0E302C3F7B7CF000293073006A7
:1014FC0003A68FFF83A4CFFF3304D641F32400B09F
:10150C0063E8870883A08FFF83A4CFFF3384D04187
:10151C00F32400B063EE870603A78FFF83A4CFFFED
:10152C003304D741F32400B063E4870683A68FFF0E
:10153C0083A4CFFF3384D641F32400B063EA87043D
:10154C0083A28FFF83A4CFFF3384D241F32400B056
:10155C0063E0870403A38FFF83A4CFFF3304D3413D
:10156C00F32400B063E6870283A38FFF83A4CFFF2D
:10157C003384D341F32400B063EC870003A48FFFC2
:10158C0083A4CFFF3304D441F32400B0E3F287F6F5
:10159C00B384E441B3F584021306040093060000FF
:1015AC001395F50093D51501EF40D04033D8840244
:1015BC008320C10003248100832441001301010115
:1015CC009318F8003385A80067800000130101FF11
:1015DC00232481001304050017C500001305C56EF4
:1015EC0023261100EF7000389305040017C5000086
:1015FC001305C56EEF708009F325103417C5000074
:10160C001305C56EEF708008F325303417C5000044
:10161C001305C56EEF7080076F000000130101FF0A
:10162C00232481001304050017C500001305056E63
:10163C0023261100EF7000339305040017C500003A
:10164C001305C569EF708004F325103417C500002D
:10165C001305C569EF708003F32530340324810032
:10166C008320C10017C50000130545691301010152
:10167C006F70C001B7B7C4049382074017F7FF0F10
:10168C00232657B467800000130101FF23261100A5
:10169C0023248100930705006350050413184501AA
:1016AC0093584801130EB0006388C809939E280014
:1016BC00138F818AB30FDF0183A70F0063840700A8
:1016CC00E78007008320C10003248100130500007C
:1016DC0013010101678000009316450193D0460168
:1016EC001306A00013870500636C1602939220006A
:1016FC009383018D3384530003230400E30403FC20
:10170C009305070013850700E70003008320C10041
:10171C000324810013050000130101016780000000
:10172C00170300001303C3EA930507001385070092
:10173C00E70003006FF09FFD732740F1B700200C0A
:10174C009316C700138640003383C600032403009E
:10175C0093020001E3E882F6931324001388C18FEF
:10176C00B308780003AE080063040E00E7000E0017
:10177C00732540F1B70E200C9315C500138F4E0046
:10178C00B38FE50123A08F006FF0DFF3130101FF8E
:10179C002326110023248100EFF09FB59307050049
:1017AC0017F4FF0F130484A2B705030037250110AB
:1017BC002320F400EFF01F9DB7C501009385052091
:1017CC0037350110EFF05F9E17C600001306465523
:1017DC0097C500009385855517C500001305C555A1
:1017EC00EF60D06A97C500009385855717C5000038
:1017FC0013054557EF6090698325040017C5000059
:10180C0013058557EF60906897020000938242E1C0
:10181C001387C18F17060000130686DB9386018D94
:10182C001383818A23A0C60023A2C60023A4C6006A
:10183C0023A6C60023A8C60023AAC60023ACC60054
:10184C0023AEC60023A0C60223A2C60223A4C6024E
:10185C002320570023225700232457002326570008
:10186C0023285700232A5700232C5700232E5700D8
:10187C0023205702232257022324570223265702E0
:10188C0023285702232A5702232C5702232E5702B0
:10189C0023205704232053002322530023245300D6
:1018AC002326530023285300232A5300232C5300B0
:1018BC00232E53002320530223225302F32340F1FF
:1018CC003728000C13957300B308050103AE08000C
:1018DC00B70E000C137FEEFF23A0E80123A00E002F
:1018EC00F32F40F193977F00338407018325040085
:1018FC0013F6D5FF2320C40023A20E00F32640F1DB
:10190C009392760033870201032307009373B3FF8E
:10191C002320770023A40E00732540F19318750043
:10192C00338E0801032F0E00937F7FFF2320FE01CF
:10193C0023A60E00F32740F113947700B30504019E
:10194C0003A605009376F6FE23A0D50023A80E006F
:10195C00F32240F113977200330307018323030032
:10196C0013F5F3FD2320A30023AA0E00F32840F166
:10197C00139E7800330F0E01832F0F0093F7FFFB9C
:10198C002320FF0023AC0E00732440F19315740048
:10199C00B386050103A606009372F6F723A0560042
:1019AC0023AE0E00732740F113137700B30303012A
:1019BC0003A503009378F5EF23A0130123A00E02D7
:1019CC00732E40F1131F7E00B30F0F0183A70F007E
:1019DC0013F4F7DF23A08F0023A20E02F32540F1AE
:1019EC0093967500B382060103A602001377F6BF27
:1019FC0023A0E20023A40E02732340F1931373007F
:101A0C00B388030103AE080037FFFFFF1305FF7F08
:101A1C00B37FAE0023A0F80123A60E02F32740F1FA
:101A2C0013947700B306040183A506009302FFFF0D
:101A3C0033F6550023A0C60023A80E02732740F1ED
:101A4C0013137700B303030183A8030037EEFFFFE2
:101A5C00130FFEFF33F5E80123A0A30023AA0E0207
:101A6C00F32F40F193977F00338407018326040002
:101A7C00B7C5FFFF9382F5FF33F656002320C40051
:101A8C0023AC0E02732740F113137700B303030149
:101A9C0083A80300378EFFFF130FFEFF33F5E80119
:101AAC0023A0A30023AE0E02F32F40F193977F00E7
:101ABC003388070103240800B706FFFF9385F6FF60
:101ACC00B372B4002320580023A00E04F32E40F16F
:101ADC003707200C8320C100032481001396CE000D
:101AEC003303E6002320030013010101678000008B
:101AFC00678000006780000067800000031E4500BF
:101B0C00130101FA232C81042328A103232E110491
:101B1C00232A91042328210523263105232441055A
:101B2C002322510523206105232E7103232C8103CD
:101B3C00232A91032326B103232A01002326B10073
:101B4C0003244502130D050013830500E35CC01B41
:101B5C0013050000930E0000930F00009308000083
:101B6C008320C1009377F50F232AF10063C0004A4C
:101B7C00E30E0418930304006F00C00083A303005A
:101B8C00638A030083A443000326C10083952400C9
:101B9C00E396C5FE03290400930700002320F400FC
:101BAC006302090A83290900232089009307040092
:101BBC00130409006388090803AA090023A029015A
:101BCC009307090013840900630E0A06832A0A008E
:101BDC0023203A019387090013040A0063840A0640
:101BEC0003AB0A0023A04A0193070A0013840A00DE
:101BFC00630A0B04832B0B0023205B0193870A00E1
:101C0C0013040B0063800B0403AC0B0023A06B01CB
:101C1C0093070B0013840B0063060C02832C0C003F
:101C2C0023207C0193870B0013040C00638C0C00A5
:101C3C0013840C000329040093070C002320F400E8
:101C4C00E31209F66388033E83AD430013881F003B
:101C5C00131F080183970D00935F0F0193F017007A
:101C6C00638C000013D7974093721700B388580009
:101C7C009396080193D8060183A40300638C040097
:101C8C0083A5040023A0B3008323040023A07400C5
:101C9C0023209400832BC10063CA0B00138C1B0000
:101CAC00931C0C0193DD0C412326B1011305150087
:101CBC001318050113550841E314AEEA139E2F00C7
:101CCC00330FDE41B38FE80193970F0193D00701D7
:101CDC00232C11006340604E032D0400032FC10020
:101CEC00930A040083240D0003234D0003A5440034
:101CFC0003AE04002322AD0023A264002320CD01F7
:101D0C0023A0040063420F2E03A74A008328C100BE
:101D1C0083122700638A120183AA0A00E3960AFE43
:101D2C00832A040063860A0E8326440083258101DE
:101D3C0003950600EF30905D03A90A00232CA10047
:101D4C006304090C8323440083258101039503005C
:101D5C00EF30D05B832A0900232CA10093050500EA
:101D6C0063840A0A0326440003150600EF30105A58
:101D7C0003AB0A00232CA1009305050063060B0896
:101D8C00832E440003950E00EF305058832B0B002C
:101D9C00232CA1009305050063880B06832D4400BA
:101DAC0003950D00EF30905683AC0B00232CA10053
:101DBC0093050500638A0C04032A440003150A00EA
:101DCC00EF30D05403AC0C00232CA100930505007C
:101DDC00630C0C028329440003950900EF30105367
:101DEC00032D0C00232CA10093050500630E0D00A0
:101DFC000328440003150800EF305051832A0D00CE
:101E0C00232CA100E3920AF2832A040003A34400CA
:101E1C0083A54A0003A50A00130B100023A2B400EB
:101E2C0023A26A0023A0A40093060000130900005B
:101E3C00130F000023A09A00930F1000137E7B0059
:101E4C009307040013060000130F1F0063060E080F
:101E5C0093001000630A1E061303200063006E0635
:101E6C009304300063069E0413074000630CEE02DB
:101E7C009302500063025E029308600063081E0127
:101E8C008327040013061000638A070A83A7070040
:101E9C00130616006384070A83A7070013061600AF
:101EAC00638E070883A707001306160063880708CC
:101EBC0083A70700130616006382070883A7070091
:101ECC0013061600638C070683A70700130616007B
:101EDC00638607066304CB0683A707001306160068
:101EEC0093030600638C070483A7070013061600F0
:101EFC006386070483A70700138623006380070407
:101F0C0083A7070013863300638A070283A70700A1
:101F1C00138643006384070283A7070013865300CC
:101F2C00638E070083A7070013866300638807008E
:101F3C0083A7070013867300E39E07F893050B0035
:101F4C00630C0606638C0510638A0710832044001B
:101F5C0083A2470003970000039E22008398200071
:101F6C001313070193530301937B07F093DD830055
:101F7C00B3EEBB012390D001839C0200338AC8418D
:101F8C00139C0C0193590C0113FD0CF013D8890010
:101F9C00B36A0D01239052016352400D1385070063
:101FAC009385F5FF83A707006382060C23A0A60088
:101FBC0093060500E31806F86380050CE39007FE12
:101FCC0023A006006304FF0D131B1B00630C090AFE
:101FDC0093070900130F000093060000130900007B
:101FEC00138407006FF09FE583AF4A008320410103
:101FFC0083C70F00E38A17D283AA0A00E3960AFE6E
:10200C00832A0400E3920AD26FF09FE0630004502D
:10201C00930304006F00C00083A30300E38C03B69A
:10202C0003A743008326410183420700E396D2FEB7
:10203C006FF05FB603A64700938E1E0013990E0136
:10204C0083091600935E090113FA1900B38A48013B
:10205C00139B0A0193580B016FF0DFC313050400A7
:10206C001306F6FF03240400E39206F4130905009B
:10207C00930605006FF01FF4E38407F41384070044
:10208C006FF0DFDB232000007300100083240900B5
:10209C006382040E032F49008325810103150F0071
:1020AC00EF30D02603A40400232CA1006304040CFD
:1020BC00832F49008325810103950F00EF301025F4
:1020CC00832B0400232CA1009305050063840B0AC9
:1020DC008326490003950600EF30502383AD0B0097
:1020EC00232CA1009305050063860D08832E49005F
:1020FC0003950E00EF30902183AC0D00232CA10032
:10210C009305050063880C06032A490003150A0091
:10211C00EF30D01F03AC0C00232CA100930505005D
:10212C00630A0C048329490003950900EF30101E43
:10213C00032D0C00232CA10093050500630C0D024C
:10214C000328490003150800EF30501C832A0D00AA
:10215C00232CA10093050500638E0A00032549007A
:10216C0003150500EF30901A83A40A00232CA1005C
:10217C00E39204F28320C105032481050325810128
:10218C0083244105032901058329C104032A810401
:10219C00832A4104032B0104832BC103032C8103E9
:1021AC00832C4103032D0103832DC102130101066E
:1021BC00678000001303100013078D0223246100B5
:1021CC00232EE100E30004EC130C00009309000043
:1021DC0023280100130A10008326010183228100A9
:1021EC00930D04009384160093F872002328910039
:1021FC00930C00006388080893051000638AB806E6
:10220C009303200063807806130630006386C804AD
:10221C00930E4000638CD80313095000638228038B
:10222C00930A600063885801832D0400930C1000FE
:10223C00638C0D0A83AD0D00938C1C0063860D0A14
:10224C0083AD0D00938C1C0063800D0A83AD0D00D3
:10225C00938C1C00638A0D0883AD0D00938C1C00BD
:10226C0063840D0883AD0D00938C1C00638E0D06EA
:10227C0083AD0D00938C1C0063880D06032B81002D
:10228C0063846C0783AD0D00938C1C00938B0C0046
:10229C00638C0D0483AD0D00938C1C0063860D04C0
:1022AC0083AD0D00938C2B0063800D0483AD0D006A
:1022BC00938C3B00638A0D0283AD0D00938C4B0015
:1022CC0063840D0283AD0D00938C5B00638E0D0057
:1022DC0083AD0D00938C6B0063880D0083AD0D00F6
:1022EC00938C7B00E39C0DF8930B0400032B810073
:1022FC0013840D00638C0C0463000B08630E04063E
:10230C0083A44B00832D4400839A040093F70A089E
:10231C006388070C13F9FA07839A0D0093F40A08E3
:10232C00638A040693F4FA07B30D99406356B0051B
:10233C0013090400130BFBFF0324040063060C04B5
:10234C0023202C01130C0900E3980CFA63000B0EEC
:10235C00E31004FE23200C00032C0101130A1000CF
:10236C0013840900E30A4C97832981001398190000
:10237C00232401016FF01FE513890B00938CFCFFE4
:10238C0083AB0B00E31E0CFA93090900130C090034
:10239C006FF09FFB93D73A4013F6F700931F46005C
:1023AC0013FF7A00B365F601630C0F1063084F0F2F
:1023BC00939E0A0193830A0013D50E0183558D0356
:1023CC0093F4F307EF20507A13F80AF0B3E5040105
:1023DC00231CAD0293E605082390DD006FF0DFF4BB
:1023EC0013D63A40137FF60093104F0093FF7A00F8
:1023FC00B3651F0063820F06638E4F0313980A01A7
:10240C00938E0A001355080183558D0313F9FE07AB
:10241C00EF20907593F50AF0B366B900231CAD025A
:10242C0013E506082390A4006FF01FEFE31604DAFF
:10243C006FF05FF203568D030325C101EF00100905
:10244C000353CD039313050193DE0341E31E03FAFB
:10245C00231EAD026FF05FFB9302200283578D03A6
:10246C001387050063D455001307200283162D0033
:10247C0003160D0083254D0103258D011377F70FEE
:10248C00EF2080348358ED03131E0501935E0E413B
:10249C00E39C08F6231FAD026FF01FF703568D0364
:1024AC000325C101EF009002035ECD031313050158
:1024BC0093530341E3140EF0231EAD026FF01FF093
:1024CC009300200283578D039382050063D415007B
:1024DC009302200283162D0003160D0083254D0157
:1024EC0003258D0113F7F20FEF20002E0357ED0398
:1024FC009318050193D30841E31207EC231FAD0297
:10250C006FF0DFEB232C01006FF0CFFC8327000072
:10251C007300100013084001B3520503930E06001C
:10252C003785FFFF23A005001307050893870501D6
:10253C00938685001388E2FF131638003386C50096
:10254C0023A2C50093182800231106002310E600CF
:10255C00B30816011303460063F0C7521307860035
:10256C00637C175123A4050023A0D50023A6650086
:10257C009343F5FF130EF0FF2312C60123137600CD
:10258C0063060828139F0E01B78FFFFF9372380064
:10259C0013050000135F0F0113C3FFFF63860210C6
:1025AC00930310006384720A130E20006384C20527
:1025BC009382870063FEC202930F470063FA1F03E6
:1025CC0013153F0023A0D7009373850723A0F500B4
:1025DC009396830023A2E70033EE76002310C70105
:1025EC00231167009386070013870F00938702005F
:1025FC00130510009382870063F8C204930347000D
:10260C0063F41305931F050193DF0F0133CEEF0124
:10261C00131E3E0093FF7F00137E8E0723A0D7006E
:10262C00336EFE0123A0F50093168E0023A2E70063
:10263C00B3EFC6012310F70123116700938607003F
:10264C0013870300938702001305150093828700FC
:10265C0063F8C2049303470063F41305131E0501CA
:10266C00935F0E0133CEEF01131E3E0093FF7F00EC
:10267C00137E8E0723A0D700336EFE0123A0F50036
:10268C0093168E0023A2E700B3EFC6012310F701C7
:10269C0023116700938607001387030093870200BA
:1026AC00130515006304A8169383870063F8C3040D
:1026BC009302470063F41205131E0501935F0E018C
:1026CC0033CEEF01131E3E0093FF7F00137E8E0767
:1026DC0023A0D700336EFE0123A0F50093168E00C5
:1026EC0023A2E700B3EFC6012310F701938607007E
:1026FC0023116700938703001387020093828700DE
:10270C001305150063F8C2049303470063F4130523
:10271C00131E0501935F0E0133CEEF01131E3E0015
:10272C0093FF7F00137E8E0723A0D700336EFE012C
:10273C0023A0F50093168E0023A2E700B3EFC60189
:10274C002310F701231167009386070013870300FA
:10275C009387020093828700130E150063F8C2045E
:10276C009303470063F41305931F0E0193DF0F01CE
:10277C0033CEEF01131E3E0093FF7F00137E8E07B6
:10278C0023A0D700336EFE0123A0F50093168E0014
:10279C0023A2E700B3EFC6012310F7012311670052
:1027AC0093860700138703009387020093828700A8
:1027BC00130E250063F8C2049303470063F413055A
:1027CC00931F0E0193DF0F0133CEEF01131E3E005A
:1027DC0093FF7F00137E8E0723A0D700336EFE017C
:1027EC0023A0F50093168E0023A2E700B3EFC601D9
:1027FC002310F7012311670093860700138703004A
:10280C009387020013053500E310A8EA03A606001F
:10281C00630A06069308500033581803374F00001C
:10282C0013071000130520009308FFFF63740703C0
:10283C0083A74600032F0600130515002391E7001C
:10284C009306060013071700630E0F0213060F0002
:10285C00E36007FF1313850083A2460033CEEE001E
:10286C0093730370B3EFC301032F0600B3F61F017C
:10287C002391D200130717001305150093060600C9
:10288C00E3160FFC930F1000130800001305000053
:10289C00930200009303100093FE7F0093870500C2
:1028AC00130600009382120063860E089308100032
:1028BC00638A1E071303200063806E06130E30001C
:1028CC006386CE0593064000638CDE02130F500026
:1028DC006382EE03130760006388EE0083A7050094
:1028EC0013061000638A070A83A707001306160055
:1028FC006384070A83A7070013061600638E070874
:10290C0083A70700130616006388070883A7070030
:10291C00130616006382070883A707001306160028
:10292C00638C070683A70700130616006386070649
:10293C006384CF0683A7070013061600930E0600C8
:10294C00638C070483A7070013061600638607042D
:10295C0083A7070013862E006380070483A7070054
:10296C0013863E00638A070283A7070013864E0076
:10297C006384070283A7070013865E00638E07003B
:10298C0083A7070013866E006388070083A70700E0
:10299C0013867E00E39E07F893860F00630C0606F1
:1029AC006382060A6380070A03AE450003A347004F
:1029BC0003170E00031F230083182E00931E07011C
:1029CC0093DE0E0193DE8E00137707F03367D70189
:1029DC002310EE00831E0300B388E841139E0E0102
:1029EC00135F0E0113F70EF0935E8F00336ED70159
:1029FC002310C30163581005138307009386F6FF59
:102A0C0083A7070063080804232068001308030049
:102A1C00E31806F863860604E39007FE23200800FB
:102A2C00638A7204939F1F006302050493070500D9
:102A3C0093020000130800001305000093850700A3
:102A4C006FF09FE5138305001306F6FF83A50500C1
:102A5C00E31C08FA13050300130803006FF05FFB77
:102A6C00E38E07FA938507006FF01FE32320000025
:102A7C0073001000678000009387060013070300A3
:102A8C00930600006FF0DFAF130101FE2326310126
:102A9C008329C501232E1100232C8100232A9100A8
:102AAC00232821012324410123225101232C050237
:102ABC00232E05026384091C93F7390013040500C7
:102ACC0093040000638E070A13071000638CE7065B
:102ADC0093002000638C170293051000EFF00F8217
:102AEC008355840393041000EF201008231CA402C8
:102AFC009305F0FF13050400EFF04F80835584031A
:102B0C00EF209006231CA402231DA40293051000A1
:102B1C0013050400EFE09FFE83558403EF20D004DF
:102B2C00231CA4029305F0FF13050400EFE01FFD26
:102B3C0083558403EF205003231CA40263820418E2
:102B4C00938414009305100013050400EFE01FFBA1
:102B5C0083558403EF205001231CA4029305F0FF3E
:102B6C0013050400EFE09FF983558403EF20C07F29
:102B7C00231CA402638E04129384140063809910A6
:102B8C009305100013050400EFE05FF783558403F1
:102B9C0013891400930A1900EF20007D231CA40252
:102BAC009305F0FF13050400EFE05FF583558403F4
:102BBC00EF20807B93020500231C54029305100028
:102BCC001305040063940400231D5402EFE01FF36B
:102BDC0083558403130A290093043900EF20C0782D
:102BEC00231CA4029305F0FF13050400EFE01FF172
:102BFC0083558403EF20407713030500231C6402E4
:102C0C00930510001305040063140900231D6402CE
:102C1C00EFE0DFEE83558403EF200075231CA40244
:102C2C009305F0FF13050400EFE05FED835584037B
:102C3C00EF20807393030500231C7402930510008E
:102C4C001305040063940A00231D7402EFE01FEBCC
:102C5C0083558403EF204071231CA4029305F0FFDD
:102C6C0013050400EFE09FE983558403EF20C06F48
:102C7C00231CA40263080A02E39499F08320C10187
:102C8C000324810183244101032901018329C1000B
:102C9C00032A8100832A410013050000130101025D
:102CAC0067800000231DA402E39C99EC6FF01FFDCC
:102CBC00231DA40293841400E39499EC6FF01FFC81
:102CCC00231DA402938414006FF0DFE7130101FAB3
:102CDC000327450023225105832A050023282105BB
:102CEC00232C81032328A10337F9FFFF232E110482
:102CFC00232C8104232A9104232631052324410506
:102D0C0023206105232E7103232A91032326B1036B
:102D1C002324E1002328C100032CC500032D8500CA
:102D2C0033E9250163940A006F10005393941A0041
:102D3C00B308504133069700939905011395180079
:102D4C00130706001308000093D909019398280073
:102D5C003303E500B30667409380E6FF93D210007F
:102D6C009383120013F47300930703006304040AA3
:102D7C00130E10006306C409130A2000630A4407EB
:102D8C00130B3000630E6405930B40006302740553
:102D9C00930C500063069403930D6000630AB40116
:102DAC00835E030093072300338FD9012310E301C3
:102DBC0083DF070093872700B386F901239FD7FE93
:102DCC0083D0070093872700B3821900239F57FEF7
:102DDC0083D307009387270033847900239F87FED2
:102DEC0003DE070093872700338AC901239F47FF1F
:102DFC0003DB070093872700B38B6901239F77FFC1
:102E0C0083DC070093872700B38D9901239FB7FFBD
:102E1C006306F70683D0070083D3270083D24700CD
:102E2C0083DF670003DF870083DEA70003D4C700BE
:102E3C0083D6E700338A1900338B7900B38B5900A2
:102E4C00B38CF901B38DE901B380D901338E8900BC
:102E5C00B383D90023904701239167012392770113
:102E6C00239397012394B701239517002396C70149
:102E7C002397770093870701E31EF7F813041800D4
:102E8C003307134163868A00130804006FF05FEC6C
:102E9C00130E0000930E00003303C500B307664009
:102EAC009382E7FF93DF1200138F1F00131A2E007B
:102EBC00137B7F0093060300B3078A0163020B0C9C
:102ECC00930B100063027B0B930C200063049B0993
:102EDC00930D30006306BB079300400063081B048E
:102EEC0093035000630A7B0213076000630CEB0032
:102EFC00831203009306230093874700B38FB2021B
:102F0C0023AEF7FF039F06009387470093862600A6
:102F1C00330ABF0223AE47FF039B0600938747008B
:102F2C0093862600B30BBB0223AE77FF839C06006F
:102F3C009387470093862600B38DBC0223AEB7FF60
:102F4C00839006009387470093862600B383B002D4
:102F5C0023AE77FE039706009387470093862600DF
:102F6C00B302B70223AE57FE839F0600938626005A
:102F7C0093874700338FBF0223AEE7FF6308D60663
:102F8C00039B0600039A2600839B4600839C6600E5
:102F9C00839D8600839FA600039FC6000397E600CF
:102FAC00B300BB029386060193870702B303BA02F0
:102FBC0023A017FEB382BB0223A277FE338BBC0285
:102FCC0023A457FE338ABD0223A667FFB38BBF022F
:102FDC0023A847FFB30CBF0223AA77FFB30DB70298
:102FEC0023AC97FF23AEB7FFE31CD6F893861E00E5
:102FFC00330E8E003306134163860E01938E06004A
:10300C006FF09FE993152400330ABC00B30E804087
:10301C002322B10013060A0013050000130F000051
:10302C009307000013030000139E3E00B380C800FA
:10303C00B30F16401387CFFF9353270093821300CF
:10304C0013FB72001387000063060B22930B100016
:10305C0063047B11930C2000630E9B0D930D3000C9
:10306C006308BB0B930640006302DB08930550001A
:10307C00630CBB04930E60006306DB03930F0F001D
:10308C0003AF0000B387E7016354F9006F10001B16
:10309C0033A7EF013305A7009313050113D50341A3
:1030AC0013874000130B0F00032F0700B387E701B2
:1030BC006348F930B32BEB01B38CAB00939D0C013F
:1030CC0013D50D4113074700930E0F00032F070074
:1030DC00B387E701634CF92CB3AFEE013385AF0036
:1030EC009313050113D5034113074700130B0F006E
:1030FC00032F0700B387E7016340F92AB32BEB01D9
:10310C00B38CAB00939D0C0113D50D4113074700F5
:10311C00930E0F00032F0700B387E7016344F926D2
:10312C00B3AFEE013385AF009313050113D5034103
:10313C0013074700130B0F00032F0700B387E7019A
:10314C006348F922B32BEB01B38CAB00939D0C01BC
:10315C0013D50D4113074700930E0F00032F0700E3
:10316C00B387E701634CF91EB3AFEE013385AF00B3
:10317C009313050113D5034113074700631CE60E97
:10318C00930F13003386C0416306032513830F008E
:10319C006FF0DFE9832347009305A500930B000034
:1031AC00939E0501338F7B0093D60E411307470086
:1031BC006358E90F832C47009387A600130F000078
:1031CC00139B070133059F01935B0B416348A90EC9
:1031DC0083228700B3AD9301B3867D0193950601DD
:1031EC00B306550093DF05416348D90E8325C7000C
:1031FC0033AB5C00B30BFB01139F0B01B38BB6001D
:10320C00935D0F416348790F032F0701B3AEB200F2
:10321C00B383BE01939F0301B38EEB0113DB0F410C
:10322C006348D90F832F4701B3ACE501B38D6C0113
:10323C0093960D01B38DFE0193D306416348B90FEC
:10324C003325FF01032F8701B3027500139B020185
:10325C00B387ED01935C0B416348F90EB3A6EF0104
:10326C00B38596019393050113D503411307C70149
:10327C00E308E6F0032B0700B38B6701E34C79F10D
:10328C0083234700332F6F01B30CAF00939D0C01C8
:10329C00338F7B0093D60D4113074700E34CE9F1C4
:1032AC00832C4700B32F7B003385DF00931205017D
:1032BC0033059F0193DB0241E35CA9F08322870075
:1032CC00938EAB001305000093930E01B3065500CB
:1032DC0093DF0341E35CD9F08325C7009387AF00EC
:1032EC0093060000939C0701B38BB60093DD0C4151
:1032FC00E35C79F1032F07011385AD00930B0000FC
:10330C0093120501B38EEB0113DB0241E35CD9F19F
:10331C00832F47019307AB00930E00009395070191
:10332C00B38DFE0193D30541E35CB9F1938BA300FC
:10333C00139F0B01935C0F41032F8701930D00002A
:10334C00B387ED01E35CF9F09387AC00939E070122
:10335C0013D50E41930700006FF05FF19307A500A2
:10336C009392070113D50241930700006FF0DFE041
:10337C009306A5009395060113D50541930700000C
:10338C006FF05FDD9307A5009392070113D50241FF
:10339C00930700006FF0DFD99306A5009395060103
:1033AC0013D50541930700006FF05FD69307A50076
:1033BC009392070113D50241930700006FF0DFD2FF
:1033CC009306A5009395060113D5054193070000BC
:1033DC006FF05FCF93050000EF2040730326410090
:1033EC00130305009305000013050C002326610050
:1033FC00EF40C02B832C810093050C00930F000031
:10340C00B3029D00232A5101B380A2411385E0FF32
:10341C00135B1500930B1B00939D1F0013FF7B0088
:10342C0013060D0013070000B387BC01630E0F0CCD
:10343C0093061000630CDF0A93032000630C7F08D3
:10344C00930E3000630CDF0713084000630C0F056C
:10345C0093085000630C1F03930A6000630C5F0118
:10346C00039E070003170D009387270013062D00FA
:10347C003307EE020393070083100600938727009F
:10348C0013062600330513023307A700039B07001E
:10349C00831B06009387270013062600B30D7B03BE
:1034AC003307B701039F0700831606009387270095
:1034BC0013062600B303DF0233077700839E070051
:1034CC00031806009387270013062600B3880E0303
:1034DC0033071701839A0700031E06009387270002
:1034EC00130626003383CA03330767008390070053
:1034FC00031506001306260093872700338BA002C2
:10350C00330767016388C208039F07008316060010
:10351C00031E2600839B2700B306DF02831D460093
:10352C0083904700039F6700031B6600039387008B
:10353C00831A86008398A7008313A6000398C700FC
:10354C00B38BCB03831EC6003307D7000395E7006C
:10355C00031EE6001306060193870701B380B00330
:10356C00B30D7701B3066F03338F1D00330B530379
:10357C003303DF00B38A7802B3086301B303D803C3
:10358C0033885801B30EC503330578003307D501D2
:10359C00E39CC2F623A0E50093854500B38F8F0012
:1035AC00E314BAE6832A41019305000013050000D9
:1035BC00930800001307000013080000139A25005D
:1035CC00B30F4C019382080083A80F00930CF4FFF7
:1035DC0013F63C0033071701E35EE9381307A50027
:1035EC009310070113D500411307000013031000BB
:1035FC0093864F006378831863040610630E660489
:10360C00930D20006306B603138F080083A84F00A8
:10361C0033071701E34AE940332B1F01B303AB0017
:10362C00939E030113D50E4113031300938646009A
:10363C00938F080083A8060033071701E344E93889
:10364C00B3A21F01B38CA20013960C0113550641B3
:10365C001303130093864600138E080083A80600FC
:10366C0033071701E346E934B3201E01B38DA000E4
:10367C00139F0D0113550F4113031300938646003E
:10368C00636083086F00001083AB46009302A500B3
:10369C00930E0000939C020133877E0193DF0C4153
:1036AC0013031300138646006354E908032B4600EA
:1036BC009380AF0013070000939D0001B3026701D4
:1036CC0013DF0D4163445908B3A36B01B38EE301BF
:1036DC0093980E0193DF08418328860033871201EB
:1036EC006344E908B32C1B01B38BFC0193960B01CB
:1036FC001303330013D506419306C6006374830885
:10370C0083A30600B30E7700E340D9F983AB4600E0
:10371C00B3A878003385A800131A050133877E01FE
:10372C00935F0A411303130013864600E340E9F844
:10373C00032B4600B3A67301B387F601139E070152
:10374C00B3026701135F0E41E35059F883288600DA
:10375C001305AF0093020000131A05013387120101
:10376C00935F0A41E350E9F89387AF00139E07017A
:10377C001303330013550E41130700009306C600C4
:10378C00E36083F813081800B3858500E36888E2CA
:10379C008325C100130A4000EF2040372326A100E7
:1037AC00E3980A2A832A810093000C00130B000073
:1037BC00232A8101232C2101232E310113060A0017
:1037CC009305000013850000EF30506E9303050045
:1037DC009388030013050D001308000003990A00D9
:1037EC0083190500130CF4FF93051000B30639037D
:1037FC00937D7C0013862A00B307950063F4851A29
:10380C00638C0D0E638ABD0C130F20006388ED0BC7
:10381C00930E30006386DD09930F40006384FD072F
:10382C009302500063825D04930C600063809D03DF
:10383C00831B0600039E07009305200013864A0095
:10384C003387CB03B3879700B386E600831006005B
:10385C000393070093851500130626003389600235
:10386C00B3879700B386260183190600039C0700D3
:10387C009385150013062600B38D8903B387970033
:10388C00B386B601031F0600839E070093851500BF
:10389C0013062600B30FDF03B3879700B386F60138
:1038AC0083120600839C07009385150013062600DF
:1038BC00B38B9203B3879700B3867601031E060081
:1038CC00039707009385150013062600B300EE023C
:1038DC00B3879700B38616000319060003930700FD
:1038EC009385150013062600B3096902B387970068
:1038FC00B386360163F8850A031C0600839D070016
:10390C00338F9700B30E9F00B30DBC0303170F004A
:10391C0083122600B38B9E00839C0E00831F4600EF
:10392C00031F6600039C0B00338E9B00B3009E00AC
:10393C00B382E202831E8600831B0E008399000073
:10394C00031EA600B38790000313C600039907005B
:10395C00B386B601B3879700B38F9F030317E600B6
:10396C0083900700B38C56009385850013060601DF
:10397C00B3879700B30D8F03338FFC01338C7E0319
:10398C00B30EBF01B30B3E03338E8E01B309230379
:10399C00B3027E013303170233893201B306690087
:1039AC00E3EC85F423A0D800130818009388480092
:1039BC0013052500E36488E203254100130B1B006B
:1039CC00B38A9A00B380A300E36A8BDE832D410196
:1039DC00032C81018329C101930A00001305000007
:1039EC00130E000013070000130B000093932A0022
:1039FC00B3887D0013080E0003AE08009305F4FF96
:103A0C0013F635003307C7016352EC741307A50096
:103A1C00931F070113D50F411307000093051000E6
:103A2C009386480063F8851863040610630EB60489
:103A3C00930C200063069603130F0E0003AE480090
:103A4C003307C7016348EC7CB32ECF01B38BAE00B8
:103A5C0093920B0113D50241938515009386460072
:103A6C0093030E0003AE06003307C7016340EC78E6
:103A7C00B3A8C3013385A8001318050113550841D9
:103A8C00938515009386460093000E0003AE060046
:103A9C003307C701634AEC6EB3AFC001B38CAF0000
:103AAC00139F0C0113550F41938515009386460007
:103ABC0063E085086F00001003A846009308A5007A
:103ACC0093020000139508013387020193530541BB
:103ADC0093851500138646006354EC08832E46002C
:103AEC00938FA30013070000939C0F01B308D70119
:103AFC0013DF0C4163441C09B32BD801B382EB01D7
:103B0C00139E020193530E41032E86003387C80186
:103B1C006344EC0833A5CE013308750093160801F5
:103B2C009385350013D506419306C60063F48508CA
:103B3C0083AB0600B3027701E3405CF803A84600B0
:103B4C00332E7E013303AE001319030133870201B8
:103B5C00935309419385150013864600E340ECF816
:103B6C00832E4600B3A60B01B38776009390070112
:103B7C00B308D70113DF0041E3501CF9032E860074
:103B8C001303AF0093080000131903013387C80116
:103B9C0093530941E350ECF89387A30093900701EA
:103BAC009385350013D50041130700009306C6001A
:103BBC00E3E085F8130B1B00B38A8A00E3688BE201
:103BCC008325C100930B0000EF105074032B810070
:103BDC00832C4100938F0D00930A050013060A00F5
:103BEC009305000013850F00EF30502C13090500CE
:103BFC0093080D00130E050013030000031F0B00A8
:103C0C00839E08001306F4FF93051000B302DF0334
:103C1C009373360013052B00B386980013D82240FB
:103C2C0093D052409377F80013F7F007B387E7026D
:103C3C0063FA85146382030A6386B306930F20002C
:103C4C00638AF303031F0500839E0600930520007F
:103C5C0013054B00B302DF03B386960013D6224044
:103C6C0093D352401378F60093F0F30733071802FE
:103C7C00B387E700831F0500039F0600938515009B
:103C8C0013052500B38EEF03B386960093D22E4016
:103C9C0093D35E4013F6F20013F8F307B300060358
:103CAC00B387170003170500839F06009385150043
:103CBC0013052500330FF703B3869600935E2F4050
:103CCC0093525F4093F3FE0013F6F2073388C3025E
:103CDC00B387070163F8850A03970600B38F960034
:103CEC0083100500B3869F0083132500039F0F00EC
:103CFC008312450033889600839E0600B380E00251
:103D0C00831F650003160800B306980093854500D1
:103D1C0013058500338FE30313D7504093D3204012
:103D2C0013F8F3009370F707B38ED20393522F401E
:103D3C00135F5F40137FFF0793F2F2003386CF02CD
:103D4C0093D35E4093DF2E4093FFFF0093FEF30767
:103D5C003307180213582640935056409373F800BB
:103D6C0013F6F007B382E203B387E700338FDF0368
:103D7C00B38F5700B38EC3023387EF01B307D7015C
:103D8C00E3EC85F42320FE0013031300130E4E0006
:103D9C0093882800E36483E6938B1B00B30F99018F
:103DAC00330B9B00E3EC8BE2930400001305000043
:103DBC001303000013070000130D0000139A2400D6
:103DCC00338B4D01930B030003230B00930CF4FF77
:103DDC0013F93C00330767006354EC381305A50056
:103DEC009316050113D50641130700009305100027
:103DFC0093064B0063F8851863040910630EB9042D
:103E0C0013082000630609039300030003234B00EF
:103E1C00330767006346EC3EB3A360003386A30010
:103E2C009312060113D50241938515009386460023
:103E3C00930F030003A3060033076700634EEC38AF
:103E4C00B3AE6F00338AAE00131B0A0113550B413E
:103E5C009385150093864600930C030003A306007C
:103E6C0033076700634CEC3233A96C00B308A9002C
:103E7C00139E080113550E41938515009386460039
:103E8C0063E085086F00001083AE4600130FA50099
:103E9C0093030000931F0F01B388D30193D70F41F5
:103EAC0093851500138A460063541C09032E4A009F
:103EBC001387A70093080000931C0701B382C80165
:103ECC0013D90C4163445C0803238A0033A5CE014B
:103EDC0033082501931008013387620013D6004183
:103EEC006344EC08B3276E00338FC700931F0F0198
:103EFC009385350013D50F419306CA0063F48508EA
:103F0C0083A00600B3031700E3407CF883AE4600A1
:103F1C00332313003306A30093120601B388D30195
:103F2C0093D7024193851500138A4600E3401CF990
:103F3C00032E4A00B3A6D001338BF600931B0B0162
:103F4C00B382C80113D90B41E3505CF89303A90069
:103F5C00139303011356034103238A0093020000B9
:103F6C0033876200E350ECF8930EA60093960E0193
:103F7C009385350013D50641130700009306CA003C
:103F8C00E3E085F8130D1D00B3848400E3688DE233
:103F9C0093850A00EF109037832A8100930D00005F
:103FAC00130C000093941D00338D9A00035A0D00DE
:103FBC00130BF4FF13071000B30B3A4123107D01D0
:103FCC00937C7B0093072D006378871263800C0C25
:103FDC006382EC0A1309200063842C0993083000D7
:103FEC0063861C07130E40006388CC051308500031
:103FFC00638A0C0393006000638C1C0083532D00B8
:10400C001307200093074D00338633412311CD0055
:10401C0083D207001307170093872700338332419D
:10402C00239F67FE03DF0700130717009387270002
:10403C00B30F3F41239FF7FF83DE070013071700E1
:10404C0093872700B3853E41239FB7FE83D6070095
:10405C001307170093872700B3843641239F97FEDD
:10406C0003DD07001307170093872700330A3D4130
:10407C00239F47FF03DB07001307170093872700D5
:10408C00B30B3B41239F77FF6378870683DC0700E4
:10409C0003D9270003DE470083D8670003D88700C5
:1040AC0083D0A70083D3C70003D3E700B3823C417E
:1040BC00B30F3941330F3E41B38E3841B30438410D
:1040CC00B385304133863341B306334123905700D7
:1040DC002391F7012392E7012393D70123949700AF
:1040EC002395B7002396C7002397D70013078700A3
:1040FC0093870701E36C87F8130C1C00B38D8D00BC
:10410C00E3628CEA13140501135504410324810561
:10411C00832501018320C105832441050329010561
:10412C008329C104032A8104832A4104032B01043B
:10413C00832BC103032C8103832C4103032D010327
:10414C00832DC102130101066F10501CB327C80147
:10415C00B380A7009396000113D506416FF01F8C16
:10416C00B3A86B00338EA80093150E0113D505412F
:10417C006FF0DFC7B3A71201B38BA700139E0B011F
:10418C0013550E416FF08FC61307A500931E070140
:10419C0013D50E41130700006FF01F911305A500F6
:1041AC001318050113550841130700006FF0DFCCFD
:1041BC001307A500131B070113550B411307000030
:1041CC006FF08FCB9307A500939B070113D50B4181
:1041DC00130700006FF0CFC71307A500931B07014F
:1041EC0013D50B41130700006FF09FC61306A500F3
:1041FC009317060113D50741130700006FF05F8872
:10420C009307A500139F070113550F4113070000D7
:10421C006FF09FC11303A500131903011355094136
:10422C00130700006FF05F831305A500131A050137
:10423C0013550A41130700006FF00FBF9307A50039
:10424C009392070113D50241930700006FE05FE5DD
:10425C00032A41006FF00FD59305000013050000F1
:10426C00EF10D00A9305050013050000EF10100A9B
:10427C009305050013050000EF1050099305050088
:10428C0013050000EF1090086FF0DFE7130101FD3C
:10429C00232221032326810223249102232031038C
:1042AC00232E4101232C5101232A61012328710162
:1042BC0023268101232491012322A1011307050048
:1042CC001389060063140600130610009307000000
:1042DC00630A073A13881700B3060803938827006C
:1042EC00138E3700938E4700138F5700938F670000
:1042FC00938277001385070093878700939336008A
:10430C003383180363F8E306131B3300130508000B
:10431C00B309CE036370EB06139C390013850800B8
:10432C00B38BDE036378EC04139D3B0013050E0086
:10433C00B30CEF036370ED04939A3C0013850E00ED
:10434C00B384FF0363F8EA02139A340013050F00D9
:10435C00338452026370EA029316340013850F0003
:10436C003388F70263F8E6009318380013850200CF
:10437C00E3E2E8F69385350093F4C5FF930A050054
:10438C003307A50213141700338A84006304052A2B
:10439C00370E010093030000130F1000930EFEFF65
:1043AC009309F5FF9316150093020A00938F0400EE
:1043BC003306E60393170F0113DB07011303F5FF15
:1043CC00937B3300130E100093051F00938822007B
:1043DC0013882F00135CF641935C0C01330D96018E
:1043EC003377DD0133069741B307CB0013930701F5
:1043FC00135C0301330B6C0123908201937CFB0F44
:10440C0023909F016376AE20638C0B0E6382CB0BE3
:10441C00130D20006388AB053306B6029395050196
:10442C0093DB0501130E200093052F001357F64163
:10443C00935707013303F600337CD3013306FC405A
:10444C00338BCB00931C0B0113DD0C01B30B7D01E3
:10445C002390A80193F8FB0F2310180193884200B6
:10446C0013884F003306B6021397050193570701C3
:10447C00130E1E009385150093882800130828003E
:10448C001353F641135C0301330B8601B37CDB0140
:10449C0033868C41338DC700931B0D0113D70B0151
:1044AC00B307F700239FE8FE13F3F70F231F68FEF3
:1044BC003306B602139C0501135B0C01130E1E0090
:1044CC00938515009388280013082800935CF64107
:1044DC0013DD0C01B30BA60133F7DB013306A74147
:1044EC00B307CB0013930701135C0301330B6C016F
:1044FC00239F88FF937CFB0F231F98FF637AAE10DA
:10450C003306B60293871500938B3500139D050176
:10451C00935C0D0113930701139D0B01135C0301B5
:10452C0013530D0113872500135DF641135D0D0127
:10453C003306A6013376D601330DA641B307FD022F
:10454C003386AC01131D060113560D012390C800D0
:10455C00B30C960113FDFC0F2310A801131B0701CC
:10456C00135B0B0113D6F741935C0601B3879701DC
:10457C0033FDD70133069D413307E602B30CCC0063
:10458C0093970C0113DD07012391A801330C8D01C6
:10459C001376FC0F2311C800130E4E0093854500B3
:1045AC00935CF74113DD0C013307A701B377D701F7
:1045BC00338CA741B30B7C0333068B01931C060190
:1045CC0013DD0C012392A801330B6D011377FB0F44
:1045DC002312E800938888001308880093D7FB41C6
:1045EC0013DC0701B38B8B0133F6DB0133068641F9
:1045FC00B30CC300139D0C01135B0D0133036B0053
:10460C00239F68FF1377F30F231FE8FEE36AAEEED8
:10461C00130F1F00130E000063040500138E090016
:10462C0093831300330FEE01B382D200B38FDF00FC
:10463C00E3E0A3D833048A00930334000324C102BB
:10464C0093FEC3FF232299002324490123205901FF
:10465C002326D901832481020329410283290102E3
:10466C00032AC101832A8101032B4101832B010100
:10467C00032CC100832C8100032D41001301010385
:10468C00678000009385350093F4C5FF930AF0FF13
:10469C001305F0FF13042000138A24006FF05FCF82
:1046AC00130101FFF32700B82322F100F32200B01D
:1046BC0023245100732300B82326610003274100F3
:1046CC008323C10063067700732500B02324A10067
:1046DC008326C10083258100138681882322D6007E
:1046EC002320B6001301010167800000130101FFB4
:1046FC00F32700B82322F100F32200B02324510049
:10470C00732300B823266100032741008323C100D3
:10471C0063067700732500B02324A1008326C10013
:10472C0083258100138601892322D6002320B6001D
:10473C001301010167800000938701891387818829
:10474C0083A507000325070083A247000323470026
:10475C003385A540B3B3A50033866240B3057640DC
:10476C00678000009397850113558500130101FFA5
:10477C0033E5A70093D5850023261100232481005F
:10478C0023229100EF20D00097C2FF0F83A202A436
:10479C009304050013D5820013840500EF204077A5
:1047AC001306050093860500138504009305040089
:1047BC00EF1090638320C100032481008324410007
:1047CC001301010167800000130101F72320210967
:1047DC00232E310723248107232291072326110836
:1047EC002324810823229108232C4107232A5107D3
:1047FC0023286107232671072320A107232EB10547
:10480C0003CE0500930901032328010223A209000A
:10481C0023A4090023A6090023A8090023AA090040
:10482C0023AC090023AE090023280100232A010030
:10483C00232C0100232E010023200102232201023C
:10484C0023240102232601022326A100138F050035
:10485C00930C0600138C06001309070093850700C0
:10486C0063040E3C9307C002E30EFE0613080E0011
:10487C00930E0F0093060000130700009302000034
:10488C00930700001306000093000000930B000038
:10489C0013040000930A000093030000130B0000A4
:1048AC001305000093040000930F08FD93F8FF0F0D
:1048BC00930D900063E81D0F03C81E00130515002F
:1048CC0093881E0013034000930F100063080830F8
:1048DC00130AC00263024807130AE002130D90008A
:1048EC00930DC002630C480F130808FD1373F80FE7
:1048FC00637E6D2403C81800930B1000930F1000F7
:10490C001303100013041400938E180013132300C8
:10491C0093080105338A6800032D0AFC930D1D00D2
:10492C002320BAFD630C0802130AC0021303000013
:10493C00E31C48F793880E0003C81800938E1800E8
:10494C001313230093080105338A6800032D0AFC16
:10495C00930D1D002320BAFDE31808FC63040B0023
:10496C00232A910263840F002328A10263840A0086
:10497C00232C710263840B00232081046304060042
:10498C002322110463840200232EF102638E062875
:10499C000325C1002324E1043308AF00636C0F2905
:1049AC006F00002C130DB0026302A81D130AD00275
:1049BC00630E481B1303E0026306687003C81E00F5
:1049CC00930F1000130B10001303100093841400AA
:1049DC0013051500938E1E006FF05FF303C81800CB
:1049EC00130414009388180013035000930F100045
:1049FC00930B10006304081E930EC002E30ED8F351
:104A0C00130A5004130D9000930DC002937FF80D00
:104A1C0063864F03130808FD1373F80F63746D1C42
:104A2C0003C8180013061000930F10001303100096
:104A3C0093801000938E18006FF09FF003C818003D
:104A4C0093801000938E180013033000930F100006
:104A5C0013061000E30C08EA130AC002E30C48ED3D
:104A6C00930258FD93FED20F638E0E0003C82800EC
:104A7C00930210001303100093871700938E2800E5
:104A8C006FF0DFE803C8280093871700938E280087
:104A9C001303600093021000E30A08E6E30C48E9F4
:104AAC00930608FD13FDF60F930D900063FEAD0108
:104ABC0003C83800930610001303100013071700E7
:104ACC00938E38006FF09FE403C83800130717006B
:104ADC0093883800130370009306100063000810CD
:104AEC00E30C48E5130A9000130DC002130608FDF1
:104AFC00937FF60F6376FA0303C818009306100031
:104B0C009302100013061000930F1000130B1000EB
:104B1C001303100093841400938E18006FF01FDFA2
:104B2C0003C81800938E180013037000930F100025
:104B3C00130610009302100093061000E30808DC23
:104B4C00E30AA8DF93880E006FF05FFA03C8180021
:104B5C00938E180013034000930F1000E30808DA3B
:104B6C00E30AB8DD93880E006FF0DFD703C81E0090
:104B7C001305150093881E0013032000930F1000DB
:104B8C00630E0804930EC002E308D8DB930A08FDF9
:104B9C0093FFFA0F930D900063F4FD03130DE002E5
:104BAC006302A80703C81800930A1000930F1000A3
:104BBC001303100093831300938E18006FF01FD50E
:104BCC0003C8180093831300938818001303400044
:104BDC00930F1000930A1000E31C08CE938E08006C
:104BEC006FF0DFD203C81800938E18001303500027
:104BFC00930F1000E30C08D0E30EB8D393880E008B
:104C0C006FF0DFE003C8180093831300938818003B
:104C1C0013035000930F1000930A1000E31E08DCDE
:104C2C00938E08006FF09FCE0328C10033080F014C
:104C3C0063760F03930F0F00930EC0026306DE0121
:104C4C00334E9E012380CF01B38F2F0163F60F01EA
:104C5C0003CE0F006FF09FFE034E0F0063000E1685
:104C6C00930CC00283244103832E0103832F810301
:104C7C0003240104832041040323C1038322810400
:104C8C0063089E4B93070E0013060F00930300005E
:104C9C00130A0000930A000093080000930B000015
:104CAC00130B00006F0000061305B0026382A72CE3
:104CBC009306D002638ED72A1307E0026384E73E83
:104CCC008347160013051000930A100013071000F9
:104CDC0093841400938E1E001306160013172700DE
:104CEC0093060105338DE600832D0DFC938C1D007E
:104CFC0023209DFD638807089306C002130700005C
:104D0C00638AD738138D07FD937DFD0F930C9000AC
:104D1C00E3ECBCF983471600938E1E009306160035
:104D2C001307400013051000638C072A1306C002FA
:104D3C006382C710930CE002130D9000930DC00218
:104D4C006380970B938707FD13F5F70F6372AD2004
:104D5C001307100083C716001386160013172700BD
:104D6C0093060105338DE600832D0DFC130B10000B
:104D7C0013051000938C1D0023209DFD13041400BB
:104D8C00E39C07F663840A00232A9102630405005E
:104D9C002328D10363040A00232CF10363040B00C2
:104DAC0023208104638403002322110463840800FC
:104DBC00232E610263840B002324510463780F2794
:104DCC001305C0026306AE00334E8E012300CF01E3
:104DDC00330F2F01637C0F25034E0F006FF09FFEE6
:104DEC0083C7160013041400938616001307500093
:104DFC0013051000130B10006384071E1306C0026A
:104E0C00638AC702930C5004130D9000930DC002DB
:104E1C0013F7F70D63069703938707FD13F5F70F49
:104E2C006374AD1C930310001305100013071000DE
:104E3C009380100083C71600138616006FF01FEACC
:104E4C0083C71600938010001386160013073000DA
:104E5C001305100093031000E38207E8930CC002C3
:104E6C00638A9723938857FD13F6D80F630E0600B9
:104E7C0083C72600930810001307100013031300B8
:104E8C00138626006FF09FE583C7260013031300DB
:104E9C00138626001307600093081000E38007E4D4
:104EAC00638A971F938B07FD13FDFB0F930D9000E7
:104EBC0063FEAD0183C73600930B1000130710007F
:104ECC0093821200138636006FF05FE183C73600C1
:104EDC00938212009386360013077000930B100018
:104EEC0063800710E38897F5930C9000130DC002B4
:104EFC00938307FD13F7F30F63F6EC0283C71600D9
:104F0C00930B10009308100093031000130510006E
:104F1C00930A1000130710009384140013861600D4
:104F2C006FF0DFDB83C716001386160013077000C3
:104F3C00130510009303100093081000930B10003E
:104F4C00E38E07D86388A715930606006FF05FFA07
:104F5C0083C71600138616001307400013051000B4
:104F6C00E38E07D66388B713930606006FF05FDDF8
:104F7C0083471600938E1E0093061600130720001D
:104F8C0013051000638E07041306C002E384C7EAFE
:104F9C00138A07FD137DFA0F930D900063F4AD0394
:104FAC00930CE0026382970783C71600130A100064
:104FBC001305100013071000938F1F0013861600A3
:104FCC006FF0DFD183C71600938F1F0093861600F6
:104FDC001307400013051000130A1000E39807D4C0
:104FEC00138606006FF09FCF83C71600138616003A
:104FFC001307500013051000E38207CE638CB7092A
:10500C00930606006FF0DFE083C71600938F1F0036
:10501C00938616001307500013051000130A100096
:10502C00E39E07DC138606006FF05FCB13090101CA
:10503C00138C09000325090013094900130C4C00BB
:10504C00EF00005B930505000325CCFFEF00405AF1
:10505C0093050500E39029FF8320C10803248108F0
:10506C0083244108032901088329C107032A8107E6
:10507C00832A4107032B0107832BC106032C8106CE
:10508C00832C4106032D0106832DC1051301010953
:10509C00678000009306060083C71600138616006F
:1050AC006FF0DFC383471600938E1E009306160025
:1050BC001307500013051000E39207D41386060063
:1050CC006FF0DFC103C81E001305150093881E0086
:1050DC0013035000930F1000E3100892938E0800F6
:1050EC006FF0DF8293080F0003C81800130B000049
:1050FC0093040000930600001307000093020000C5
:10510C00930700001306000093000000930B0000AF
:10511C0013040000930A000093030000930F000097
:10512C001305000013030000938E18006FF05F81CD
:10513C0093060F00930A0000930B000093080000E5
:10514C0093030000130B0000130A0000130500006A
:10515C00130700006FF01FCE130EF5FF930710001E
:10516C001303060063FCC71993851500130101FF97
:10517C0093920501232681002324910093D50201EB
:10518C00232221012320310113080000930F8000FA
:10519C00130FC002930E700093084000130610000A
:1051AC0097940000938404351794000013048433FF
:1051BC00979300009383033597920000938282317A
:1051CC006F00C00963E2E8109306D7FF93990601BC
:1051DC001359190093D709011377C900636CF60CA6
:1051EC00B309E40003A7090093069000130980009B
:1051FC00B306D80063FCC60983490700B307030153
:10520C002380370103481700A38007018349270037
:10521C002381370103483700A38107016304190375
:10522C00834947002382370103485700A3820701B3
:10523C0083496700238337016316F901034777001D
:10524C00A383E70093851500338927011388060093
:10525C00939605012300E90193D506019396050168
:10526C0013F7750013D90641E31ED7F593591900AE
:10527C0093F7C900930690003387F200B306D80069
:10528C000327070013098000E3E8C6F7637CA80432
:10529C000324C100832481000329410083290100D8
:1052AC003306054193050000330503011301010189
:1052BC006F20C03FB386E40003A70600130940002B
:1052CC00930650006FF0DFF29359190093F7C90061
:1052DC003387F3000327070093069000130980001F
:1052EC006FF01FF10324C1008324810003294100C6
:1052FC0083290100130101016780000013080000DD
:10530C003306054193050000330503016F20003A75
:10531C0097960000938606201317250093075000DC
:10532C00B302D70063EEA70203A30200B303D300BA
:10533C006780030003A501886780000003A58187AF
:10534C006780000003A5C1876780000017B5FF0FB9
:10535C00032505E86780000003A5C1806780000075
:10536C001305000067800000B3C6A5009377F50F06
:10537C0093F2160013D7170093D81500638C020014
:10538C0037A3FFFF93031300B3C5780013960501F1
:10539C009358060133CEE800937E1E0013DF2700DE
:1053AC0013D81800638C0E00B7AFFFFF93861F0055
:1053BC00B342D80013970201135807013343E80195
:1053CC009373130093D83700135F1800638C03009A
:1053DC0037A6FFFF130E1600B345CF01939E0501B0
:1053EC0013DF0E01B34F1F0193F21F0093D647003A
:1053FC0093581F00638C020037A7FFFF1308170098
:10540C0033C308019313030193D8030133C6D800A7
:10541C00137E160093DE570013D81800630C0E0091
:10542C0037AFFFFF930F1F00B345F80193920501AF
:10543C0013D80201B346D80113F7160013D3670033
:10544C00935E1800630C0700B7A3FFFF938813004B
:10545C0033C61E01131E0601935E0E0133CF6E0080
:10546C00937F1F0093D5770013D71E00638C0F001A
:10547C00B7A2FFFF13881200B347070193960701E9
:10548C0013D7060113731700935E17006316B3143A
:10549C00135F8500B34FDF0193F51F009352850016
:1054AC0013D31E0013559500638C050037A8FFFF1E
:1054BC0093061800B347D300139707011353070142
:1054CC00B343A30093F8130013DE2200935513008B
:1054DC00638C080037A6FFFF930E160033CFD5015F
:1054EC00931F0F0193D50F0133C5C5011378150018
:1054FC0013D7320093D81500630C0800B7A6FFFF32
:10550C0013831600B3C768009393070193D8030164
:10551C0033CEE80013761E0093DE420013D8180039
:10552C00630C060037AFFFFF930F1F00B345F80164
:10553C0013950501135805013347D80193761700CD
:10554C0013D35200935E1800638C0600B7A3FFFFC1
:10555C0093881300B3C71E01139E0701935E0E01BF
:10556C0033C66E00137F160093DF620013D31E0048
:10557C00630C0F00B7A5FFFF138515003348A3007C
:10558C001317080113530701B346F30193F31600E5
:10559C0093D2720013561300638C0300B7A8FFFF5D
:1055AC00138E1800B347C601939E070113D60E0144
:1055BC00137F160013551600630E5F00B7A5FFFF8F
:1055CC00930F05001385150033C8AF00131708019E
:1055DC001355070167800000B7A3FFFF93881300E2
:1055EC0033C61E01131E0601935E0E016FF05FEAB7
:1055FC0033C6A5009377F50F1317050193721600A8
:10560C001353070193D6170093DE1500638C020029
:10561C00B7A3FFFF93851300B3C8BE00139E080108
:10562C00935E0E0133CFDE00937F1F0013D627004D
:10563C0093D31E00638C0F00B7A2FFFF13871200D9
:10564C00B3C6E3001398060193530801B3C5C30016
:10565C0093F8150013DE370093D21300638C080007
:10566C00B7AEFFFF138F1E00B3CFE20113960F01ED
:10567C009352060133C7C2019376170093D34700A8
:10568C0093DE1200638C060037A8FFFF9308180006
:10569C00B3C51E01139E0501935E0E0133CF7E0030
:1056AC00937F1F0013D6570013D81E00638C0F0076
:1056BC00B7A2FFFF13871200B346E80093930601CD
:1056CC0013D80301B348C80013FE180093DE67001B
:1056DC0093521800630C0E0037AFFFFF930F1F009F
:1056EC00B3C5F201139605019352060133C7D201DB
:1056FC009373170093D6770093DE1200638C03002C
:10570C0037A8FFFF93081800B3C71E01139E0701AB
:10571C00935E0E0113FF1E0093D31E00631CDF3C2F
:10572C0013578300B3C6E30013F816009358830095
:10573C0093DF130013539300630C080037AEFFFF85
:10574C00930E1E00B3C7DF01139F0701935F0F0178
:10575C00B3C56F0093F2150013D6280013D31F00A6
:10576C00638C0200B7A3FFFF13871300B346E3005B
:10577C001398060113530801334EC300937E1E0089
:10578C0013DF380093531300638C0E00B7AFFFFF89
:10579C0093851F00B3C7B3009392070193D3020103
:1057AC0033C6E3019376160013D7480013DF1300BA
:1057BC00638C060037A8FFFF13031800334E6F00ED
:1057CC00931E0E0113DF0E01B34FEF0093F51F0074
:1057DC0093D2580013581F00638C0500B7A3FFFF2A
:1057EC0013861300B347C8009396070113D806011C
:1057FC00334758001373170013DE680093521800D8
:10580C00630C0300B7AEFFFF138F1E00B3CFE20192
:10581C0093950F0193D20501B3C3C20113F6130084
:10582C0093D8780013D31200630C0600B7A6FFFFC1
:10583C0013881600B347030113970701135307018D
:10584C00137E130093531300631A1E2993580501FA
:10585C0033C6130113F8F80F93771600135505018F
:10586C009356180013DF1300638C070037A3FFFF58
:10587C00130E13003347CF01931E070113DF0E01E4
:10588C00B34FDF0093F51F009352280013531F00F2
:10589C00638C0500B7A3FFFF9388130033461301F5
:1058AC009317060113D30701B346530013FE1600DA
:1058BC00935E380093521300630C0E0037AFFFFF5A
:1058CC00930F1F0033C7F2019315070193D2050103
:1058DC00B3C3D20193F813001356480093DE1200A1
:1058EC00638C0800B7A7FFFF13831700B3C66E00C5
:1058FC00139E0601935E0E0133CFCE00937F1F00E3
:10590C009355580093D71E00638C0F00B7A2FFFF6E
:10591C009383120033C777009318070193D70801BC
:10592C0033C6B70013731600135E680093D51700C7
:10593C00630C0300B7A6FFFF938E160033CFD5017F
:10594C00931F0F0193D50F01B3C2C50193F312003E
:10595C001358780013D31500638C0300B7A8FFFF0E
:10596C00938718003347F3001316070113530601EE
:10597C00137E13009355130063160E159352850076
:10598C00B3C3B20013F813009358850013DE15004F
:10599C0013559500630C080037A7FFFF130617007B
:1059AC00B347CE0013930701135E0301B346C50141
:1059BC0093FE160013DF280013581E00638C0E0094
:1059CC00B7AFFFFF93851F00B342B800939302015A
:1059DC0013D8030133450F011377150013D6380084
:1059EC00935E1800630C070037A3FFFF130E130020
:1059FC00B3C7CE019396070193DE060133CFCE00D9
:105A0C00937F1F0093D5480013D71E00638C0F00A3
:105A1C00B7A2FFFF938312003348770013150801D8
:105A2C00135705013346B7001373160013DE5800E5
:105A3C00935F1700630C0300B7A6FFFF938E16004D
:105A4C00B3C7DF01139F0701935F0F01B3C5CF01EC
:105A5C0093F2150093D3680013D31F00638C0200DC
:105A6C0037A8FFFF130518003347A30013160701CF
:105A7C0013530601334E730093761E0093D87800AF
:105A8C0093551300638C0600B7AEFFFF138F1E00F7
:105A9C00B3C7E501939F070193D50F0193F215004E
:105AAC0013D51500638E120137A8FFFF9303050071
:105ABC001305180033C7A30013160701135506016D
:105ACC0067800000B7A6FFFF938E160033CFD50179
