:0200000480007A
:100000007370043073504030971100109381819CBD
:1000100017010110130101FF971200009382C238EB
:100020007390523073F051301705000013058509A5
:1000300097050000938505096300B5021776000057
:100040001306C65163FAC5008322050023A055009C
:1000500011059105E3EAC5FE17750000130505506B
:1000600097050010938505FA1386018763FAC5008A
:100070008322050023A0550011059105E3EAC5FE82
:1000800013850187973500109385C5AF6377B50059
:10009000232005001105E36DB5FEEF106003171571
:1000A00000001305A538EF106037EF10403BEF104C
:0E00B000600C014581452920EF10802E01A033
:1000C00035711305000306CF22CD26CB4AC94EC792
:1000D00052C556C35AC1DEDEE2DCE6DAEAD8EED615
:1000E000EF20B061938281892A841305000323A045
:1000F000820016C2EF2070601773000017770000AF
:1001000093040385130907E103C6E401832F490023
:1001100003A8840183D5C40183A8440103AEC400AD
:1001200083AE840003AF440083A3040083A90401C9
:10013000032A0900AA8A00C123220500138CC18961
:100140000945130B8002832689002387CA02FEC259
:1001500023A40A032396BA0223A21A0323AECA01D8
:1001600023ACDA0123AAEA01832CC900032D09017B
:10017000832D490123A87A0023A4AA0023A66A019B
:1001800023205C0123A03A0362C0D2C0032489016A
:100190008352C9010343E9019707001097740000D7
:1001A0001389471B2947138584CF231E5104B6C4E6
:1001B000230F6104232EE964E6C6EAC8EECAA2CC86
:1001C000EF10704E976300001385437AEF10B04D27
:1001D000177F000013054FCCEF10F04C976E000016
:1001E0001385CE7BEF10304C177E00001305CECA6E
:1001F000EF10704B976900001385497DEF10B04AEE
:1002000097780000138548C9EF10F049176800007F
:10021000B7A50700938505121305487FEF10B04876
:100220000145EF00607C2A86938F818701457EC45B
:1002300023A0CF00EF008078AA8A0145938B018725
:1002400023AA5187EF00C07423A0AB00832D0C00BC
:10025000B7A207005EC6138B1188938A4189854433
:10026000938BC1870944054D930C0004138C121223
:10027000EF001008EF00D00817730000930743CB7E
:1002800003A9070083A3470003AF870083AEC7001D
:1002900003AE070183A9470183A8870103D7C701DC
:1002A00003C8E7010C10880022CE4AD01ED27AD4AF
:1002B00076D672D84EDA46DC231EE102230F010304
:1002C0006ACAEF007029AA85724513B6150023A0EB
:1002D000CB006344A402010093102500338AA000E0
:1002E000930FDAFF30088D457ECCEF00607FF24639
:1002F000138516002ACEE351A4FEE245EF0080707C
:100300006E85EF00F00383490B0063F33C4B130A47
:1003100010040D4901A8010013061A00137AF60F04
:1003200063E84907930530045285A925D242E315B5
:1003300055FE4C080145EF00207317750000930728
:1003400025C103A3070083A3470003AF870083AE43
:10035000C70003AE070183A8470103A8870103D79D
:10036000C70183C5E70113061A001AD01ED27AD43A
:1003700076D672D846DA42DC231EE102230FB102A0
:1003800023A09A00137AF60F2689E3FD49F90100AC
:10039000F240624A8504330919026808B3494903E7
:1003A0004ECEEF00B00AE39584ED0145D523AA8D2A
:1003B000138D818801452320BD013D25938401894A
:1003C000AA8C014523A09401D52B97660000AA8F23
:1003D0001385666623A6F189EF10F02C17750000CF
:1003E000130585ABEF10302C9767000013858765E8
:1003F000EF10702B17730000130503AAEF10B02A3B
:1004000083A50A00976A000013854A67EF10B02998
:1004100097630000138543689545EF10D02883A5A6
:100420000B00976B00001385EB68EF10D027176F58
:10043000000013056F668545EF10F02683C501881F
:10044000176E00001305CE68EF10F02597680000C6
:100450001385C86993051004EF10F02483450B0041
:10046000176B000013054B6AEF10F02317680000AC
:100470001305C86793052004EF10F0229385418B84
:100480008C51176600001305E669EF10D021976DB7
:1004900000009D4513856D6017040010EF10B0201B
:1004A000930C44EB83A5CC65176C000013054C69D5
:1004B000EF10701F976F000013854F6AEF10B01E8A
:1004C000976600001385466CEF10F01D824A176591
:1004D00000001305256C83A20A00976B0000176BC0
:1004E000000083A50200976D0000176C0000EF105C
:1004F000901B976700001385A76BEF10D01A03A31A
:100500000A00976300001385E36D83254300330AD7
:10051000494113193A00EF10101981451385AB5B5F
:10052000EF10701803AF0A00976E000013854E6D30
:1005300083258F00976B0000EF10F016176E0000F8
:1005400013058E558945EF10101683A80A00130570
:10055000AB73176B000083A5C800EF10D0141768A9
:10056000000013056853C545EF10F01303A70A00F8
:10057000976500001385456C93050701EF10B012D5
:10058000176600001305066DEF10F01113852D7A24
:10059000EF107011124413056C6A976A0000832CE7
:1005A0000400976D0000176C000083A50C00976C89
:1005B0000000EF10500F976F000013856F6EEF1063
:1005C000900E144013856A64976A0000CC42EF10C5
:1005D000900D976200001385224C8145EF10B00CFE
:1005E0001C40176500001305A5618C47EF10B00B88
:1005F000176300001305434A8545EF10D00A832393
:10060000040013854B6E83A5C300EF10D009176F4C
:10061000000013056F48C945EF10F008832E040051
:10062000176E000013054E6193850E01EF10B007A1
:100630009768000013850862EF10F006F245130575
:10064000AB7817640000EF10100617680000130560
:10065000A8449545EF10300533074941176600005F
:10066000B30537411305C669EF10F0039769000021
:10067000B54513858942EF101003E24513852D77A8
:10068000138B018AEF1030029D4513052445EF10AE
:100690009001D24513852C78EF10F00085451305A5
:1006A000EC4EEF105000976F000013856F6A8C00BE
:1006B000EF10607F976500001385456BEF10A07EFB
:1006C000976600000C101385066EEF10C07D138531
:1006D0004A7FEF10407D976200001385E27BEF10A8
:1006E000807CB24703A30400A244032D0D0088437D
:1006F00083A30400854E3305AD40330F73402320A0
:10070000AB0063D9EE0B138A4188EF602002170E0D
:10071000001083252EB297690000976D0000EF50FE
:10072000B05B97080010AA8503A528B117640000E4
:10073000976C0000EF50505A17080010832508B03E
:10074000EF5090591766000037A70700930507126E
:100750002A891305867023202A01EF10C07483258F
:100760000B001385A977EF1000741385ED77EF1058
:10077000807303250A00EF6020072A86AE861305E2
:10078000C479EF10407213854C76EF10C071FA40B7
:100790006A44DA444A49BA492A4A9A4A0A4BF65BF9
:1007A000665CD65C465DB65D01450D6182800100E8
:1007B0000D49F9BE176C000013050C64EF10A06E14
:1007C000976F00001385CF66EF10E06D976500000E
:1007D0001385856CEF10206D5DBF0000B7C7000268
:1007E00083A687FF83A7C7FF411106C622C426C27E
:1007F000B680B7C50002010003A785FF83A7C5FF28
:10080000BA82732600B0E389E0FE37C3000201001C
:10081000032483FF8324C3FF33045440F32300B035
:10082000E368A4FEB384C34033F884022286814681
:100830001315F80093551801EF501014B3D8840223
:10084000B240224492444101139EF8007295828086
:10085000000000004111054506C64937B2401305A6
:1008600040064101A5BF00001707000097270010B0
:100870009302C74013838721232053002322530070
:10088000232453002326530023285300232A5300F4
:10089000232C5300232E53002320530223225302E0
:1008A00023245302828000009707000017270010BE
:1008B0009726001093824741130347209383C61A5B
:1008C00023205300232253002324530023265300C4
:1008D00023285300232A5300232C5300232E530094
:1008E000232053022322530223245302232653029C
:1008F00023285302232A5302232C5302232E53026C
:100900002320530423A0530023A2530023A4530005
:1009100023A6530023A8530023AA530023AC53005B
:1009200023AE530023A0530223A25302828000006F
:100930009317450193D24701294763615702172650
:1009400000109396220013086614B308D80083A3FE
:10095000080063990300014582800100170300002D
:1009600093038331411106C68293B2400145410190
:10097000828000006304B500014582802380A18845
:10098000054582807915133515008280000000002E
:100990004111F32700B83EC6F32200B016C47323FA
:1009A00000B81AC23247924363057700732500B03E
:1009B0002AC4924722454101828000004111F32759
:1009C00020B83EC6F32220B016C4732320B81AC242
:1009D0003247924363057700732520B02AC49247BB
:1009E0002245410182800000B7C7000203A787FFAC
:1009F00083A2C7FF1353F7001395120133656500F7
:100A000082800000130655009306800CB302D602C4
:100A10000A05970700109383A793171800109318DF
:100A20002600138F418BB30F1F0123A0BF00338318
:100A3000A200330E7300832E0E019302288D232A09
:100A4000CE0093861E00232CCE002328DE00330523
:100A5000530023A2BF0023ACCF064CC9154623AADE
:100A6000C188828000000000411122C426C22A846D
:100A700006C6AE84013FA28711E18D479CC0894024
:100A80006300140463C4800211C80543631A640040
:100A900003A541899305400663DCA50223A0040059
:100AA000B240224492444101828001001147E3197F
:100AB000E4FE23A014002244B2409244410182800B
:100AC000B2402244854223A05400924441018280D6
:100AD000B24022440D4690C0924441018280000001
:100AE0000905B302B50023205600828000000000F3
:100AF000130710042380E18823AE01868280000062
:100B000083C201881383C187832603009383F2FB8A
:100B100013B51300B365D500130820042320B300D8
:100B2000A38001898280000003A6C18909C68322AF
:100B300006002320550083A54189310629454DB77C
:100B400041114AC003A9C18922C4004103270900F9
:100B500006C626C2832E4900032E890003230901FD
:100B600083284901032889018325090203264902B4
:100B7000832689028320C902AA840325C90118C0DB
:100B800083A20400954348CC2322D4012324C4012A
:100B900023286400232A1401232C04010CD050D0F4
:100BA00014D42326140223A67400232674002320C1
:100BB00054002285953F032F440063050F0683AF41
:100BC0000400B24003A44F0003A90F0083AE8F00BE
:100BD00003AECF0003A30F0183A84F0103A88F0129
:100BE00003A5CF0183A50F0203A64F0203A78F021F
:100BF00083A7CF02C0C0224423A0240123A4D40190
:100C000023A6C40123A8640023AA140123AC040171
:100C1000C8CC8CD0D0D098D4DCD4024992444101C5
:100C200082800100884499449305840044C42D3D8A
:100C30008326090048441306C40014C02244B2406D
:100C400092440249A945410161BD000003C70188E2
:100C500093021004630457008280010003230500FF
:100C600083A5418913069300B306B64014C1828060
:100C700000000000411122C42A84176500001305FA
:100C800065C006C6EF10202297620000A28513857A
:100C9000C2C0EF104021F325103417630000130584
:100CA000A3C0EF104020F325303497630000138574
:100CB000A3C0EF10401F01A000000000411122C49A
:100CC0002A8417650000130525C006C6EF10A01D75
:100CD00097620000A285138542BCEF10C01CF3256B
:100CE000103417630000130523BCEF10C01BF3255D
:100CF00030342244B240976300001385E3BB4101C6
:100D00006F10601A00000000176600009765000071
:100D1000176500004111130606BD938585BD1305B7
:100D200005BE06C6EF10201897620000176300008A
:100D3000938502BF130503BFEF10E01697F7FF0F6F
:100D4000B24083A54749976300001385A3BE4101C4
:100D50006F10601500000000411126C24AC006C68F
:100D600022C4AA842E8901008345390003C52400CA
:100D700011312A8475F9CA852685EF3060116356D2
:100D8000A000294723AAE1880544B24022852244D5
:100D90009244024941018280373701105C4B93F243
:100DA0001700E38D02FE08431375F50F82800000E3
:100DB000373701105C4B93F20702E38D02FE08C344
:100DC00082800000372701105C4FB7060300B3E2B2
:100DD000D700232E570082800000000097F7FF0FF6
:100DE00083A2473F716713030720B3D362023735ED
:100DF00001109306000854C5130E600C8D4E9385A8
:100E0000F3FF13D685001378F60F2322050193F81C
:100E1000F50F232015012324C5012326D501828047
:100E200000000000254723A2E18A7D558280000052
:100E300073005010F5BF00007D15854763E8A700DB
:100E4000096323A26500014582800100254723A292
:100E5000E18A7D5582800000054582800000000007
:100E60000545828000000000594723A2E18A7D5594
:100E700082800000014582800000000001C57D5590
:100E800082800100411122C406C62E84313723001E
:100E9000A400B240224405454101828097F7FF0F2C
:100EA0009382873383A6020017270010130387CD90
:100EB0003695636D650097F300109385A39463E7FF
:100EC000A50023A0A200368582800100FD5636854C
:100ED0008280000001114AC84EC606CE22CC26CA26
:100EE00052C42E89B289EF1020016300051E4A8486
:100EF000330A390163880908B3072A4193F0770060
:100F0000A9446389000E05476386E0068942638D24
:100F100050040D43638460049143638B7002154554
:100F20006382A00299456389B00003450900630903
:100F30009518BD3D1304190003450400630D951673
:100F4000853D0504034504006302951695350504A7
:100F50000345040063079514A13D050403450400FF
:100F600063009512B135050403450400630695122C
:100F70008135050403450400630A951005040D3D01
:100F8000631A44074E85F2406244D2444249B24952
:100F9000224A0561828001003545193D0345040060
:100FA0001309140031350345140063009506093513
:100FB0000345190063049506E53B034529006308D2
:100FC0009506FD3303453900630C9506D53303457B
:100FD000490063009508E93B0345590063049508FF
:100FE000C13B034569006308950813047900C933C0
:100FF000E30A44F903450400E30095FA553B034531
:10100000140013091400E31495FA354555330345CC
:101010001400793B03451900E31095FA3545493B27
:1010200003451900713303452900E31C95F8354544
:10103000413303452900AD3B03453900E31895F8DA
:101040003545BD3303453900A53303454900E31455
:1010500095F83545B13B03454900993B0345590097
:10106000E31095F83545A9330345590091330345FD
:101070006900E31C95F63545253B03456900B5B786
:1010800035453D3303450400F1BD010035450D33C1
:1010900003450400E5B501003545193B034504004F
:1010A000C1BD35453133034504007DB535450933B0
:1010B0000345040061BD3545E5390345040049B5E4
:1010C0003545FD3103450900ADB57D556DBD0000C9
:1010D00037B7C40497F7FF0F9302074023AE570EAC
:1010E00082800000635C0502411106C69310450131
:1010F00022C493D240012D476384E20217230010DB
:10110000939322001304039633067400144291C291
:101110008296B24022440145410182806FF05F8196
:10112000732840F1370E200C9318C800930E4E0020
:10113000338FD80103240F00C14FE3EC8FFC9720BD
:10114000001093172400938220973387F200032323
:101150000700630303000293732540F1B703200CDB
:101160009315C50013864300B386C50080C255B7EA
:1011700000000000411106C6EFF0CFED97F7FF0F1A
:1011800023AAA704813199394136EFF0EFEDEFF052
:10119000AFF1F32640F13727000C939276003383AA
:1011A000E20003260300B703000C1375E6FF2320BB
:1011B000A30023A00300F32540F113987500B308A2
:1011C000E80003AE0800937EDEFF23A0D80123A22F
:1011D0000300732F40F1931F7F00B387EF00944308
:1011E00093F2B6FF23A0570023A40300732340F11A
:1011F000131673003305E6000C4113F875FF232026
:10120000050123A60300F32840F1139E7800B30ED6
:10121000EE0003AF0E00937FFFFE23A0FE0123A884
:101220000300F32740F193967700B382E60003A30F
:1012300002001376F3FD23A0C20023AA0300732546
:1012400040F1931575003388E5008328080013FEEC
:10125000F8FB2320C80123AC0300F32E40F1139FB9
:101260007E00B30FEF0083A70F0093F6F7F723A0DC
:10127000DF0023AE0300F32240F113937200330525
:10128000E30010419375F6EF0CC123A0030273280D
:1012900040F193187800338EE800832E0E0013FF80
:1012A000FEDF2320EE0123A20302F32F40F19397E8
:1012B0007F00B386E70083A2060013F3F2BF23A0EA
:1012C000660023A40302732540F11316750033084A
:1012D000E60083250800FD78138EF87FB3FEC50174
:1012E0002320D80123A60302732F40F1931F7F0010
:1012F000B387EF0094439382F8FF33F3560023A0A3
:10130000670023A80302732540F113167500330804
:10131000E60083280800F975138EF5FFB3FEC801B7
:101320002320D80123AA0302732F40F1931F7F00CB
:10133000B387EF009443F1721383F2FF33F5660035
:1013400088C323AC0302732640F113187600B30858
:10135000E80003AE0800E175938EF5FF337FDE01F0
:1013600023A0E80123AE0302F32F40F193977F00FF
:101370003E971443C1721383F2FF33F5660008C32E
:1013800023A00304F32340F13708200CB240139646
:10139000C300B308060123A00800410182800000B9
:1013A000828000005D7106C012C216C41AC61EC833
:1013B0002ACA2ECC32CE36D03AD23ED442DC46DED9
:1013C000F2C0F6C2FAC4FEC6F322103416D6F322D7
:1013D000203416D8F322003016DA732520348A859B
:1013E0001133B25273901234C25273902234D252DB
:1013F0007390023082401242A2423243C2435245AD
:10140000E245724682561257A2576258F258064E6B
:10141000964E264FB64F616173002030AA858146F3
:10142000014601456F00902D411122C426C2176468
:1014300000001304A4129764000093842412058C06
:1014400006C6098411E4B2402244924441018280DC
:101450007D1493172400A6979C438297E5B741110A
:1014600022C426C2176400001304440F97640000CE
:101470009384C40E818C4AC006C6898401496315D1
:101480009902176400001304640D976400009384AC
:10149000E40C818C89840149631D9900B240224487
:1014A00092440249410182801C400509110482973F
:1014B000F9B71C40050911048297F9BF797122D44C
:1014C0004AD052CC56CA5AC806D626D24ECE3A8BED
:1014D0002E8A32843689C28A01476358060037074C
:1014E00000803344C7001307D0022380E70093F441
:1014F000F8FD930760048D466388F4009307500459
:1015000089466393F4000509D6879308C100130840
:1015100081004A87D2852286EF00903893077004B5
:10152000AA896396F400137B1B00630A0B049307DC
:101530006004338B29016397F40203C70900930702
:101540000003631EF700014681465285A285EF30F5
:10155000104511C585463389264123A02A0183A75A
:101560000A003E9B014681465285A285EF303043FA
:1015700011E15AC613070003B24763E26703B2479B
:101580004257B2502254B38737411CC39254025978
:10159000624AD24A424B4E85F24945618280938627
:1015A000170036C62380E700C1BF2300C50093079C
:1015B00025001307B00263D60500B305B04013073A
:1015C000D002A300E50025476352B7064111130777
:1015D000F1003A88A9481303300633E61503BA86AA
:1015E0007D1713060603A38FC6FE2E86B3C515030B
:1015F000E345C3FE9388E6FF93850503A30FB7FE7B
:101600003E864687636D070101476365180113072E
:101610001101158FBA973385A74041018280834518
:10162000070005070506A30FB6FEE9BF93070003F1
:101630002301F5009385050393074500A301B50039
:101640003385A7408280597186D6A2D4A6D22E8433
:10165000CAD0CECED2CCD6CA3A8ADAC8DEC6E2C466
:101660003289B689E6C2EAC06EDEAA84EF1050085D
:10167000032C05006285EF001007032B040002D441
:10168000834A840113770B1083270A00AA8B75C342
:10169000138747002320EA009C43080898433AC870
:1016A000D8433ACA98473ACCDC473ECEEF40500583
:1016B00028C46CC4832CC40497F7FF0F938787B2A8
:1016C000832D840403A8070083A84700139A1C00F5
:1016D000135A1A004286C6866E85D285EF40206D69
:1016E00045E597F7FF0F9387E7AF03A8070083A8A7
:1016F00047006E854286C686D285EF30503B6355E3
:10170000A008014681466E85E685EF30503A635663
:1017100005009307D002A301F40493077004176A2D
:101720000000130AEA8463F65701176A0000130ADF
:101730006A84137BBBFF8D47232064011CC8014BC7
:101740004E87CA867010A2852685F92EFD5C63132C
:1017500095177D55B650265496540659F649664A53
:10176000D64A464BB64B264C964C064DF25D65610B
:1017700082809D07E19B138787002320EA0098431E
:10178000DC4338C47CC43DB76E86E6866E85E6854C
:10179000EF40E06105C563D60C009307D002A301BA
:1017A000F40493077004175A0000130AEA7CE3F26A
:1017B00057F9175A0000130A6A7CA5BF5C407D5791
:1017C00013FDFA0D6393E70899475CC05440136713
:1017D0000B403C103EC0EE859307310218C002C298
:1017E000D6881308410266862685C9399307700496
:1017F00092552A8A631BFD00F55763C5F5005C40CE
:1018000063D7B708F91A93FAFA0F9307500663E5FE
:101810005705FD155686130504052ED27933225738
:1018200085462A8BB307A7001CC863C5E60018408D
:10183000058B19C385071CC883473102E38207F073
:101840009307D002A301F404E5BD13077004E31F5E
:10185000EDF6ADFF854795BF93076006639BFA02DF
:101860005C40635BB0000CC881E71840058B09CF72
:101870008507AE971CC809A889E718408546058BDF
:1018800019C39386270014C82CCC014B75B7930A53
:101890007006A25763C9F5001C400CC8858BEDD7B4
:1018A00093871500C1BF05476344B00009470D8FFA
:1018B000BA97C9B71C4013F7074015E3144852867E
:1018C000CA8526858299E30695E91C40898B639831
:1018D0000724B2574844E35FF5E63E85A5BD1307EC
:1018E0005006637D571928446C4401468146EF3009
:1018F000100B39E985461756000013066668CA853D
:1019000026858299E30795E51257A2576345F700AC
:101910001C40858BDDDBDE866286CA852685829942
:10192000FD57E308F5E2014A930AA4017D5BA25743
:10193000FD17E35CFAF885465686CA8526858299A6
:10194000E30965E1050AE5B792576346F006854667
:10195000175600001306C662CA8526858299E30AD7
:1019600095DF92572257D98F81E71C40858BB1DFD5
:10197000DE866286CA8526858299FD57E30BF5DCF3
:10198000814A130BA401FD5B9257B307F04063CB70
:10199000FA00A2565286CA8526858299FD57E3161B
:1019A000F5F245BB85465A86CA8526858299E302AB
:1019B00075DB850AD1BF3C4CA25A63D35701BE8A5E
:1019C00063495007014B130DA401FD5D832C840571
:1019D000D68763D30A008147B387FC406344FB0684
:1019E0001257A2576349F7061C40858BADE7A25AF0
:1019F0001257B3879A41B38AEA4063D35701BE8A2C
:101A000063445007014A130BA401FD5B1257A25710
:101A1000998F568763D30A000147998FE357FAEAF3
:101A200085465A86CA8526858299E30475D3050AB8
:101A3000F1BFD6865286CA8526858299FD57E31363
:101A4000F5F801BB85466A86CA8526858299E30238
:101A5000B5D1050BA5BFDE866286CA85268582992B
:101A6000FD57E316F5F8F5B1D68633069A01CA8517
:101A700026858299FD57E317F5F8E1B9A256054787
:101A80006344D700858BB5C785465286CA852685AF
:101A90008299FD5AE30F55CBDE866286CA8526857C
:101AA0008299E30855CB28446C4401468146EF30C7
:101AB000006F1DC9A25613061A00CA85FD16268599
:101AC0008299E30855C9DA8613060405E9B5854607
:101AD0005686CA8526858299E30D75C7050AA257E1
:101AE000FD17E346FAFEC5B7014A930AA401FD5B60
:101AF000FDB785465286CA8526858299E31595FDF0
:101B000089B985465686CA8526858299E30365C5C7
:101B1000050A5C443257998FE345FAFE5DBB014AE2
:101B2000930A94017D5BF5B7797152CC9C493A8A4E
:101B3000984522D426D24ECE56CA06D64AD05AC886
:101B40005EC6AA892E84B284B68A63D3E700BA87B8
:101B50009CC00347340419C385079CC01C4093F7FD
:101B6000070281C79C4089079CC0032904001379A0
:101B70006900631A0900130B9401FD5B5C449840F3
:101B8000998F634CF90483473404B336F0001C404A
:101B900093F70702A5EB13063404D6854E85029A07
:101BA000FD576303F5041C4011469840998B54443B
:101BB00081446397C700B384E64063D30400814443
:101BC0001C4418486354F700998FBE940149690476
:101BD0007D5B63982405014509A885465A86D6850C
:101BE0004E85029A631E75017D55B250225492545F
:101BF0000259F249624AD24A424BB24B4561828055
:101C00000509ADBF3307D40013060003A301C704C1
:101C10000347540493871600A2978906A381E7041B
:101C20009DBF85462286D6854E85029AE30E65FBCA
:101C3000050945B7797122D426D24AD04ECE06D6B0
:101C400052CC56CA5AC803C8850193078007AA8494
:101C50002E843289B68963EE0701930720069386A6
:101C6000350463ED07016305081C93078005630ACB
:101C7000F812930A24042301040515A89307D8F940
:101C800093F7F70F5546E366F6FE17560000130666
:101C9000E6318A07B2979C43B29782871C43938AA6
:101CA0002504938647009C4314C32381F50485478C
:101CB00065A29C41084313F60708930545000DC231
:101CC0001C410CC363D807001307D002B307F040D0
:101CD000A301E404175600001306C62A2948A1A050
:101CE00013F607041C410CC371DEC207C187D9BFBC
:101CF00090411C43137506089385470001C50CC32A
:101D00009C4339A0137606040CC37DDA83D7070001
:101D10001307F006175600001306C6266304E80EE4
:101D20002948A3010404584018C4634507000C4027
:101D3000ED990CC099E3B68A19CFB68A33F7070339
:101D4000FD1A3297034707002380EA003E87B3D786
:101D50000703E37507FFA147631EF8001C40858B4E
:101D600091CB58401C4863C7E70093070003A38F3B
:101D7000FAFEFD1AB386564114C84E87CA86700013
:101D8000A285268555337D5A631C450D7D55B2507D
:101D9000225492540259F249624AD24A424B456156
:101DA0008280A3820505175600001306A61D0C406D
:101DB000084313F805081C411105630D080208C308
:101DC00013F7150001C793E505020CC04148B1FBAC
:101DD00018401377F7FD18C0A9B79C4193E7070295
:101DE0009CC193078007A302F40417560000130652
:101DF000A61A75BF13F8050408C3E30308FCC2075D
:101E0000C1837DBF214831BF90411C43CC49137829
:101E10000608138547006306080008C39C438CC36B
:101E200001A808C3137606049C4375DA2390B70013
:101E300023280400B68A91B71C43D041814593867C
:101E4000470014C383AA07005685EF10800F01C511
:101E50003305554148C05C401CC8A301040431BF90
:101E600014485686CA8526858299E30145F31C40AD
:101E7000898B8DE7B2474844E35BF5F03E8501BFAF
:101E800085465686CA8526858299E30165F1050A4D
:101E90005C443247998FE345FAFEE9BF014A930A51
:101EA00094017D5BF5B75D7122D406D62A842EDAC3
:101EB00032DC36DEBAC0BEC2C2C4C6C617E5FF0FEA
:101EC0000325C53119C51C4D89E72AC6EF00D06B23
:101ED00032450C455418228636CEEF109043B2504E
:101EE000225461618280AA8703C7070085076DFFBE
:101EF0003385A7407D1582806FE09FF6AA88138501
:101F0000818A1C4191EF171700101307E7BE18C113
:101F100013050000BA8709C51C412324F708BA87B6
:101F2000D8437D487D556346E804638D080203A8C5
:101F300087086300080413152700429510C1032386
:101F4000081005463316E6003363C30023206810EB
:101F50002320D50889466397D80083264810558EDC
:101F60002322C810930617000A07D4C3BA978CC758
:101F700001458280011122CC1C49804906CE26CA27
:101F80004AC84EC652C456C263CA87107D1413167F
:101F90002400138A4501B30ACA009309450183A7A7
:101FA0000A004E96184285072A89B354F7026362E5
:101FB000F70641655288CE880143014E7D15832680
:101FC000080091081108B3F7A600C182B3879702F1
:101FD000B38696029A9713D70701E98FB307FE409D
:101FE000BA9603A7C8FF13D30601E98E337EA70074
:101FF000F2974183158F93D607413697135E0741B9
:10200000E98F4207D98F23AEF8FEE3FA0AFB1C42A0
:10201000BDC74A85EF10406763460504C166850465
:102020004E868145FD1603250A001C4211063377B2
:10203000D500998D33F7D7002E97C18341819355F1
:102040000741898FAE9793D50741758FC207D98F06
:10205000110A232EF6FEE3F84AFD93172400CE97CB
:1020600098431DC72685F2406244D2444249B24992
:10207000224A924A056182801C4289E77D147116CA
:10208000E3ECC9FE2328890069B7984309E77D146A
:10209000F117E3ECF9FE23288900E9B70145E1B720
:1020A00035713EDC5C5122CD26CB4AC94EC756C3A2
:1020B0005AC106CF52C5DEDEE2DCE6DAEAD8EED659
:1020C00036CA3AD046D2AA84AE8A32844289AE89D0
:1020D000328B89EF4145EF005062C8D023220500C2
:1020E000232405002320050023260500DC508C4313
:1020F00089CDD84385472685B397E7009CC5D8C1CD
:10210000EF108006DC5023A00700635204048547CB
:1021100006042320F900135B1400B707F07F337720
:10212000FB006314F70662578967320B9387F770D9
:10213000135BCB001CC3B36A5B01E38F0A32925777
:1021400091EB975700009387A7EC3EC639A8232050
:102150000900E1B797570000938787EB3EC6975772
:102160000000938717EB12571CC3FA406A443245AC
:10217000DA444A49BA492A4A9A4A0A4BF65B665CEB
:10218000D65C465DB65D0D6182800146814656850E
:10219000DA8556D65AD8EF30800005E16257854778
:1021A0001CC3975700009387A7DD3EC69257D5DF23
:1021B000975700009387D7DC7DB7B808F4085A8694
:1021C000D685268513594B01EF1020651379F97FC9
:1021D000664A2A8463060912C2573255130919C088
:1021E0009395C700B181B707F03FDD8D82C097E7B7
:1021F000FF0F9387A7FF9043D443EF30C05997E771
:10220000FF0F938727FF9043D443EF30A01497E745
:10221000FF0F9387A7FE9043D443EF20A043AA8BE0
:102220004A85AE8AEF30904297E7FF0F938787FD8C
:102230009043D443EF3000122A86AE865E85D68561
:10224000EF204041AA8BAE8AEF30103AAA8D0146AA
:1022500081465E85D685EF308005635B05006E851F
:10226000EF30D03E5E86D686EF20707311C1FD1D23
:102270000547D9473ADA63E3B70313973D00975709
:1022800000009387A7EFBA979043D4433255C255C5
:10229000EF30E00163530500FD1D02DA33092A41E6
:1022A000130CF9FF814B63560C00854BB38B2B410C
:1022B000014C63C80D086E9C6ED4814C5247A547F3
:1022C00063EAE70E9547054963D6E7009307C7FF22
:1022D0003ECA014952479147630BF7069547630F82
:1022E000F70A8947630AF70A8D4702CE630AF70A9D
:1022F00085473ECEFD573EC87D5DC94702D095A0BB
:1023000076499307000252999305294363D6B70291
:10231000130500040D8D930529413315AB00B3DA85
:10232000BA0033655501EF30D038B70710FEBE95BF
:1023300085477D19BEC065BD3385B7403395AA007A
:10234000DDB7B38BBB41B30CB04102D485BF854729
:102350003ECE82576343F006854705473EC8054D8C
:102360003AD0D450114723A2060013064701CC42AD
:1023700063F9C7042685EF0030562AC639E597561B
:102380000000938626C901469305A01A1755000040
:10239000130585C9EF10706302CE65BF85473ECE39
:1023A0008257EE973EC8138D1700EA87E34BA0FBD8
:1023B000854745BF054902CA25BF82573EC83E8DA5
:1023C0004DB78505CCC206074DB7DC50324798C3E0
:1023D000B94763E7A713630509126359B01B13F7E5
:1023E000FD009317370017570000130727D93E97B2
:1023F00013D94D401C43832A470013770901094A2A
:1024000015C3175700001307E7D410535453325520
:10241000C2553ECC1379F900EF207004E247AA8937
:102420002E8B0D4A175700001307C7D2631E0912DF
:102430004E853E86D686DA85EF207002AA892E8BDD
:10244000D257638A071A97E7FF0F938727DC9043D9
:10245000D4434E85DA85EF209065635E0518630FDF
:102460000D18C247635CF0089387FDFF3ECC97E7E9
:10247000FF0F938727DA9043D4434E85DA85EF2008
:10248000706DC247AA892E8B050A5285BEC4CEC282
:102490005ADEEF30B01B4E86DA86EF20B06B97E63F
:1024A000FF0F9386A6D79042D442CE8AB709C0FCCC
:1024B000EF20401AA6475A892A8AAE9963930714D7
:1024C00097E7FF0F938707D69043D4435685DA8565
:1024D000EF30602C5286CE86AA8A2E89EF20D05209
:1024E0006349A05AB7070080B3C737015286BE863A
:1024F0005685CA85EF20B05B634A0558B259425BE6
:10250000F64763C6073639476343B73713973D002D
:1025100097570000938787C6BA9703AA070083AA34
:102520004700825763DF0724634DA02563100D56D3
:1025300097E7FF0F938707CF9043D4435285D68503
:10254000EF2050614E86DA86EF20104C014A014997
:1025500063560550B2473247850D9389170093079C
:1025600010032300F700FDA99376190081CE1043D4
:1025700054433E85D6853ACCEF20D05D6247050AAC
:10258000AA87AE8A1359194021074DB5094AE38934
:102590000DEA3309B0419377F90013973700975745
:1025A00000009387A7BDBA979043D4433255C255D4
:1025B00013594940975A0000938ACAB9EF2090599D
:1025C000AA87AA892E8B014763160900E30A07E64A
:1025D000BE89B5B59376190099CA03A60A0083A6E9
:1025E0004A003E85050AEF20F056AA870547135991
:1025F0001940A10AD1BF6ECCEA8741BD6ECC81479C
:1026000069B5B2459386F7FF13963600AE973EDE66
:10261000F24797560000938666B6B2969042D4422F
:10262000C5CB97E7FF0F938767C08843CC43D2C2DF
:10263000EF20E0625286CE86EF30E015B2492A8A5A
:102640002E8BCA855685EF30207AAAC2EF30100053
:102650002A86AE865685CA85EF30E01396478509EF
:10266000528693870703A38FF9FEDA862A89AE8AFA
:10267000EF20F043634A050E97E7FF0F938707B9F2
:102680008843CC434A86D686EF30E0105286DA86FD
:10269000EF20F04163450518F257E381F9E697E72B
:1026A000FF0F938727B79043D4435285DA85EF20F5
:1026B000704A97E7FF0F9387E7B59043D4432A8A80
:1026C0002E8B4A85D685EF20F048AA8A2E8995BFA1
:1026D000CE855285EF201048725BB249AAC2AEC4C3
:1026E000CA855685EF304070AAC6EF3020762A861C
:1026F000AE865685CA85EF30000AB64785092A8A14
:1027000093870703A38FF9FEF2572E896390F9068A
:1027100097EAFF0F938A8AB103A60A0083A64A00AC
:102720001645A645EF1010732A86AE865285CA85D7
:10273000EF20902D6345A00E1646A64603A50A007D
:1027400083A54A00EF3020052A86AE865285CA85C9
:10275000EF20F035E35405DA93070003DA8903C765
:10276000F9FF7D1BE30CF7FEE24D49A897E7FF0F49
:10277000938747AA9043D443EF20D03DAA8A2E895D
:1027800085B7B2475A8CCE8C138B17003E9D97EBC2
:10279000FF0F938B2BA85286D6866685E285EF20A5
:1027A000004CEF3060642A89EF30406A5286D6864A
:1027B000EF20503AAE862A86E2856685EF20B07D0E
:1027C00093060903A30FDBFEDA8963136D092A86DA
:1027D000AE86EF1030685286D686AA8B2E8BEF20FD
:1027E000B022634DA0025286D6865E85DA85EF2040
:1027F000101B09E513791900631209022685A285C9
:10280000EF009016E2572380090013851D0088C34E
:102810009257E38C079423A0370181BA6ECCCE8700
:1028200013079003BE8983C6F7FFFD17639CE6007C
:10283000B246E399F6FE624705073ACC1307000358
:102840002380E60003C7070005072380E70029BFB0
:1028500003A60B0083A64B00050BEF20B02F01460B
:102860008146AA8C2E8CEF20901315F541BF72473C
:1028700063000710D24605476345D70C0647938788
:10288000374309E7664793076003998F668ADE8AB4
:1028900085452685BE9B3E9CEF0010282A89635EF5
:1028A0005001635C8001D68763535C01E287B38B80
:1028B000FB40B38AFA40330CFC4063810C04F247BE
:1028C000C5CF63544003CA8552862685EF00104069
:1028D0002286AA852A892685EF0070272ACCA28520
:1028E0002685EF007008E2473E8433864C416387BB
:1028F0004C01A2852685EF00703D2A8485452685FA
:10290000EF009021A2572A8A635AF0063E86AA85D4
:102910002685EF00B03B524785472A8A814C63C722
:10292000E706814C639109069317CB00A9EFB70521
:10293000F07F337BBB0063080B04850B050C854CD3
:1029400099A0130AFDFF63CA4C01338A4C41635EB0
:102950000D00B38AAB41814725BFA257B30C9A4102
:10296000E6973ED4D28C014ADDB7DE8AEA870DB7FE
:10297000668ADE8A014925B76686A5BF5247854724
:10298000814CE3D0E7FAA257054589CF83270A0196
:102990008D078A07D297C843EF00100D93070002F6
:1029A0003385A74062957D8951C193070002898FC5
:1029B0001147635AF706F1473385A740AA9BAA9AA5
:1029C0002A9C63587001A2855E862685EF00903BA5
:1029D0002A8463588001D28562862685EF00903A6A
:1029E0002A8AD257B1C7D2852285EF00F0496351B8
:1029F0000504A285814629462685EF00207BF24703
:102A0000FD1D2A8463880728CA85814629462685B4
:102A1000EF00C079C2472A896345F00852478947C9
:102A200063CFE700BDA8E38EE7F83E85710579B76F
:102A30006345A0075247894763D1E7066AC8C24782
:102A400091EFD285814615462685EF0020762A8AA9
:102A5000AA852285EF005043E34EA0AE8257B249CB
:102A600093CDF7FF014BD2852685EF00E06FE3079A
:102A700009D863080B0063062B01DA852685EF0071
:102A8000A06ECA852685EF00206E8DBB014A0149E4
:102A9000F1B7E24D014A014975BCF2476AC8638249
:102AA000072063585001CA8556862685EF00902D71
:102AB0002A894A85638F0C02832549002685EF0009
:102AC000A061AA8A11E9974600009386A6540146A0
:102AD0009305A02E6FF09F8B032609019305C90073
:102AE000310509060A069D290546D6852685EF008B
:102AF0007029B24742474A8B138C1700BA973ECCD5
:102B000093F719002A893EC8D2852285EFF08FC637
:102B1000DA85AA8C930A05032285EF00F036D28568
:102B2000AA8B4A862685EF0090395445130DFCFF89
:102B3000AA85054799E62ACE2285EF00F034F245B2
:102B40002A8726853ACEEF002062D2477247E28973
:102B5000B3E6E700C247DD8E81EE1307900363887A
:102B6000EA0463547001938A1C0323005D01E5BDF0
:102B700063CA0B00D247B3EB7701C247B3EBFB004C
:102B800063980B04E353E0FEA28505462685EF001B
:102B9000701FD2852A84EF00302F6346A00071F5A4
:102BA00013F71A0079D313079003E39EEAFA930709
:102BB00090032300FD00CE8793069003BE8903C7D0
:102BC000F9FFFD176301D70A05072380E70061BD00
:102BD000635BE00013079003E38BEAFC93871A0022
:102BE0002300FD0049B5E247A30F5CFF638487051E
:102BF000A285814629462685552B2A848146294669
:102C0000DA85268563172B0155232A8B2A89050C23
:102C1000E5BD692BCA852A8B8146294626857923FD
:102C20002A89F5B7C24785496353F000BE89B24788
:102C3000014BBE99A28505462685EF00B014D285CA
:102C40002A84EF007024E348A0F601E593F71A0008
:102C5000BDF3CE8713070003BE8983C6F7FFFD17B8
:102C6000E38CE6FE09B53247E31AF7F49307100345
:102C7000850D2300F700C5BB1257974700009387C7
:102C800067383EC69747000093874738631D07CCD7
:102C90006FF0AFCDC2476346F00052478947E3C0AB
:102CA000E7DA8149D2852285EFF0CFACB247930AAB
:102CB000050333873701C247230057018509E3D352
:102CC000F9F6A285814629462685CD212A84D9BFD9
:102CD000411122C406C62A842316B5002317C50055
:102CE00023200500232205002324050023220506B6
:102CF00023280500232A0500232C050021468145B1
:102D00001305C5053526971700009387070D5CD07E
:102D1000971700009387670F1CD4971700009387BD
:102D2000A7135CD49717000093876716B24000D0B2
:102D30001CD8224441018280971500009385C56309
:102D400099A2411126C2130680069384F5FFB3842D
:102D5000C4024AC02E8922C406C693854407EF00E8
:102D600050472A8419C92320050023222501310553
:102D700008C4138684068145652CB240228522440E
:102D800092440249410182801C4DADE3411122C4AD
:102D900006C697070000938767FA1CD5232405040D
:102DA000232605042328050483A7C1862A846314E7
:102DB000F50085471CCD22851D2848C022850528A1
:102DC00008C422852D2048C4484001469145093752
:102DD00008440546A545ED3D48440946C945CD3D55
:102DE0008547B2401CCC224441018280828041113F
:102DF00026C283A4C1869C4C4AC006C622C42A8926
:102E000099E326855137938484048044DC40FD1780
:102E100063D607009C40B1CF8440C5BF0317C400F0
:102E200031E7C177850723220406232004002322EB
:102E30000400232404005CC423280400232A040083
:102E4000232C0400214681451305C405D522232ADD
:102E50000402232C04022324040423260404B24085
:102E6000228522449244024941018280130484064F
:102E700079BF91454A85F13588C02A8451FDB14713
:102E80002320F900E9BF797122D44AD04ECE52CC2A
:102E90005AC85EC606D626D256CA2A892E8A130476
:102EA00085048149054BFD5B0444832A4400FD1AD7
:102EB00063D00A0200406DF8B25022549254025975
:102EC000624AD24A424BB24B4E85F24945618280FA
:102ED00083D7C400637BFB008397E400638777019B
:102EE000A6854A85029AB3E9A90093848406C1B7EE
:102EF00017D5FF0F130505268280AA8517D5FF0F6A
:102F00000325C52D6F00F02C85E141116C000145B2
:102F100011CA795581CA834706009CC10345060042
:102F20003335A00041018280014519CA795589CA0B
:102F3000834706009CC1034506003335A00082800C
:102F4000828093F5F50F2A966314C50001458280AF
:102F500083470500E38DB7FE0505FDB7B3C7A500A0
:102F60008D8BB306C50081E78D4763EEC700AA8746
:102F70006378D50A03C7050085078505A38FE7FE9B
:102F8000E3EAD7FE828013773500AA8711CB03C707
:102F9000050085078505A38FE7FE13F73700FDB70A
:102FA00013F7C6FF130607FE63FBC70483A30500E0
:102FB00083A2450083AF850003AFC50083AE050142
:102FC00003AE450103A3850183A8C50123A07700B3
:102FD00023A2570003A8050223A4F70123A6E701B3
:102FE00023A8D70123AAC70123AC670023AE17018A
:102FF000938545029387470223AE07FF75B72E8856
:103000003E866360E6021388D7FF014663660701C8
:103010000D071D8F1376C7FFB297B295E3ECD7F477
:1030200082808328080011061108232E16FFD1BFC5
:103030003D432A876373C3029377F700BDEFADE585
:10304000937606FF3D8ABA960CC34CC30CC74CC797
:103050004107E36BD7FE11E28280B306C3408A06C4
:103060009702000096966780A6002307B700A30684
:10307000B7002306B700A305B7002305B700A304D4
:10308000B7002304B700A303B7002303B700A302CC
:10309000B7002302B700A301B7002301B700A300C4
:1030A000B7002300B700828093F5F50F9396850053
:1030B000D58D93960501D58D61B79396270097021C
:1030C000000096968682E78086FA9680C1171D8F4B
:1030D0003E96E374C3F8A5B75C51411122C426C2E1
:1030E00006C64AC02A84AE8481EF4145393548D0AE
:1030F00023220500232405002320050023260500A4
:10310000032944028327C9009DC758509397240080
:103110005847BA97884331E1054933199900130696
:1031200059000A0685452285EF00207E05C144C16D
:10313000232425012DA01306100291452285EF00BE
:10314000C07C5C502326A900DC47E1F30145B24076
:1031500022449244024941018280184198C32328A5
:10316000050023260500E5B75C51411122C426C2A3
:1031700006C6AA842E8481EF41454133C8D023225C
:10318000050023240500232005002326050011C87F
:10319000D4505C4013972700DC46BA97984318C078
:1031A00080C3B2402244924441018280011122CC6A
:1031B0004AC84EC603A905012E84B68993864501E7
:1031C000C16526CA06CEAA8452C40145FD159C429B
:1031D0009106050533F7B7003307C702C183B387EC
:1031E000C7024E97135807016D8FC29793D90701F5
:1031F000C207BA9723AEF6FEE34B25FD638D0904A3
:103200001C446341F9044C4026858505F1352A8A22
:1032100011ED974600009386E6DF01469305500BBB
:1032200017450000130505EDEF00307A10489305AF
:10323000C400310509060A06EFF05FD2A285268593
:1032400025375284930749008A07A29723A23701A2
:10325000050923282401F24022856244D2444249D0
:10326000B249224A056182804177698FAA87014568
:1032700019E3C2074145370700FF7D8F19E3210598
:10328000A207370700F07D8F19E311059207370772
:1032900000C07D8F19E309058A0763C90700370756
:1032A0000040F98F050599E31305000282801C4157
:1032B0002A8793F6770085C293F617000145A1EEA1
:1032C00093F6270089C685831CC3054582808983C0
:1032D0001CC30945828093960701C182014599E28A
:1032E000C183414593F6F70F99E22105A18393F637
:1032F000F70099E21105918393F6370099E20905E9
:10330000898393F6170081E68583050599C31CC35D
:103310008280130500028280411122C42E848545DB
:1033200006C65D3B11ED974600009386A6CE01468A
:1033300093050014174500001305C5DBEF00F06886
:10334000B24040C92244054718C9410182809849CA
:103350001C4A011122CC4AC806CE26CA4EC652C407
:103360002E8432896354F70032842E89032A0401A3
:10337000832909011C444C40B3043A0163D39700EC
:103380008505993B11ED974600009386A6C8014636
:103390009305D015174500001305C5D5EF00F06261
:1033A00093064501139824003698B68763EA07050B
:1033B0001303440193152A00130649019398290029
:1033C0009A9593075401B298114E63E8F50033843F
:1033D00085402D147198130E4400C16EFD1E636567
:1033E0001603635690008327C8FF7118F1CFF2408F
:1033F000624404C94249D244B249224A05618280EA
:1034000023A0070091075DB7832F0600B3FFDF01FC
:10341000638B0F04B6839A82014903A7020003A4B9
:1034200003009103337FD701330FFF03B377D40138
:10343000418091023E9F93570701B387F7034A9F4C
:1034400013570F01337FDF01A297BA9713D90701F2
:10345000C207B3E7E70123AEF3FEE3E0B2FCB387B4
:10346000C60123A0270183532600638C03049C42DA
:10347000B68F1A8F814203270F0003D42F00B3F7B2
:10348000D7013377D70133077702910F110F2297B6
:10349000169793120701B3E7F20023AEFFFE83579E
:1034A000EFFF83A20F004183B3877702B3F2D2010B
:1034B0009697BA9793D20701E36FBFFA3387C60195
:1034C0001CC31106910621BFFD1421BF011126CA9C
:1034D0004AC84EC606CE22CC52C4937736002A89FB
:1034E000B284AE8989CFFD1717470000130787D52F
:1034F0008A07BA9790438146EFF05FCBAA89898407
:10350000ADC88327490291EF4145EFF01F9F232269
:10351000A9022322050023240500232005002326D9
:103520000500032A490203248A0011E893051027A5
:103530004A85DD332324AA002A842320050093F73B
:10354000140099CBCE8522864A8511352A8ACE85EC
:103550004A85EFF07FC1D289858481CC084001E99A
:103560002286A2854A85E53308C0232005002A84E7
:10357000F9B7F2406244D2444249224A4E85B249E8
:1035800005618280011122CC2E845AC0032B0401D4
:1035900026CACC41935456401C44269B4AC852C468
:1035A00056C206CE4EC6AA8A3289130A1B0063C4CD
:1035B00047035685EFF05FB2AA890DE197460000F8
:1035C000938646A501469305901D174500001305F7
:1035D00065B2EF00903F85058607D1BF930745018F
:1035E000BE86014791066345970863D30400814472
:1035F0008A04B38697001C48130744011376F90127
:103600008A07BA9735CA130800023308C840B6883B
:1036100081450843910811073315C500C98D23AEB4
:10362000B8FE8325C7FFB3D50501E364F7FE130792
:103630005401114663E7E700818FAD17F19B1386B4
:103640004700B2968CC299C1130A2B007D1A23A899
:1036500049015685A285EFF03FB1F2406244D24461
:103660004249224A924A024B4E85B2490561828004
:1036700023AE06FE0507BDB710431107910623AE22
:10368000C6FEE36BF7FED9B714499849AA8733857C
:10369000E6406395E6020A07D107D105B386E70045
:1036A000BA95F116F115904298416307E6007D55F1
:1036B0006366E60005458280E3E5D7FE828001115E
:1036C00022CC2E844AC8B2852A89228526CA06CEF3
:1036D0004EC6B284553F15ED81454A85EFF0DF9F18
:1036E00011ED974600009386E6920146930520234C
:1036F00017450000130505A0EF00302D85471CC9B4
:10370000232A0500F2406244D2444249B24905618D
:103710008280854963460500A6878149A2843E844C
:10372000CC404A85EFF05F9B09E9974600009386FD
:10373000668E01469305002465BF03A8040118485E
:103740009388440193162800930744010A07C16E29
:1037500023263501C696BA9713064501514E0143FB
:10376000FD1E3387C4011843B305C40103AF050030
:10377000B375D7019A953373DF01B3856540135F45
:103780000F01418313D305413307E7411A971353C0
:103790000741B3F5D5014207330FC5014D8F110E17
:1037A0002320EF0033078E00E36DF7FA93055401F1
:1037B000114763E7B700818FAD17F19B138747006F
:1037C000BA98416E3297BA8EC6857D1E63E2D502E5
:1037D0001386D8FF814763E6C6008D06B38716417E
:1037E000F19BBA97F11798431DC72328050119BF0C
:1037F0009C41910E910533F6C7011A961353064169
:10380000C1839A9713D307413376C601C207D18F7C
:1038100023AEFEFE65BF7D18F1B7797126D2AE8466
:10382000854522D44AD04ECE06D652CC3284B689B3
:103830003A89EFF07F8A11ED973600009386867DF6
:1038400001469305A030174500001305A58AEF0037
:10385000D017370710009307F7FFE18F51801374DB
:10386000F47F2A8A35E03EC6ADC4280026C4EFF0B6
:103870001FA4A24621CD324793070002898FB317B8
:10388000F700D58F3357A700232AFA003AC6B2446F
:10389000232C9A00B3349000850423289A0039C45D
:1038A0001304D4BC2A949307500323A089003385C2
:1038B000A7402320A900B250225492540259F24941
:1038C0005285624A45618280D98F71BF232ADA000E
:1038D0007DBF6800EFF0BF9DB24713050502854428
:1038E000232AFA0085472328FA0055BF9307E5BC31
:1038F00023A0F90093972400D297884B9604EFF009
:10390000BF96898C232099007DB73386C5020111AB
:1039100022CC06CEB28532C66D282A8409C532462D
:103920008145EFF0EFF0F24022856244056182802C
:10393000C5C183A7C5FF011122CC06CE1384C5FFE4
:1039400063D307003E942AC6EF00103E1387C18A56
:103950001C43324589EB2322040000C36244F24039
:1039600005616F00903C637DF4001040B306C40015
:103970006396D7009443DC43B29614C05CC0F1BF99
:103980003E87DC4399C3E37DF4FE14433306D7003E
:10399000631F86001040B29614C33306D700E39F1E
:1039A000C7FA9043DC43B29614C35CC345BF63754A
:1039B000C400B1471CC15DB71040B306C400639694
:1039C000D7009443DC43B29614C05CC040C379B7BF
:1039D0008280011126CA93843500F1984AC806CE28
:1039E00022CC4EC6A104B1472A8963F2F404B14443
:1039F00063E1B4044A85EF0030339386C18A98426C
:103A00003A8439E01384018B1C4089E781454A855B
:103A1000792E08C0A6854A85592EFD59631A3507A7
:103A2000B1472320F9004A85EF00303031A0E3D1BF
:103A300004FCB1472320F9000145F2406244D2441E
:103A40004249B249056182801C40858F63CF0702DD
:103A50002D466376F6001CC03E9404C029A05C404D
:103A6000631387029CC24A85EF00302C1305B40013
:103A70009307440061993307F540E300F5FC3A945D
:103A8000898F1CC05DBF5CC3F9BF2287404095BFD2
:103A9000130435007198E30285FCB305A4404A8500
:103AA0003926E31C35FBADBF1C46FD171CC663D988
:103AB0000700184E63C5E700A9476393F500C5A941
:103AC0001C422E851387170018C22380B7008280FE
:103AD000011122CC26CA4AC84EC652C406CE2A8933
:103AE000AE893284B304D6007D5A63149400014534
:103AF00009A8834504004E864A857D370504E316F0
:103B000045FFF2406244D2444249B249224A05612B
:103B10008280357122CD26CB4AC94EC706CF52C509
:103B200056C35AC1DEDEE2DCE6DAAA89AE84328907
:103B3000368409C51C4D99E3EFF00FA597370000B7
:103B400093874756639CF40C83A4490083D7C40031
:103B5000A18BFDC79C48EDC793070002A304F102A7
:103B60009307000302D22305F10222C6930B5002F1
:103B7000973A0000938ACA6D054C294B4A848347C3
:103B8000040099C36390770FB30C2441630D2401A3
:103B9000E6864A86A6854E85253FFD576306F51EB7
:103BA0009257E6973ED283470400638F071CFD5768
:103BB0001309140002C802CE3ECA02CCA3090104B4
:103BC00082D48345090015465685EFF08FB7C2476A
:103BD0001304190051E913F7070109C7130700027D
:103BE000A309E10413F7870009C71307B002A3096B
:103BF000E104834609001307A002638FE606F2473B
:103C00004A848146254603470400930514001307A0
:103C100007FD6378E60AADCA3ECEBDA09737000027
:103C20009387474A6395F40083A4890005B79737C3
:103C3000000093872745E39BF4F083A4C90039B7BC
:103C4000A6854E85A52909D97D55FA406A44DA44EE
:103C50004A49BA492A4A9A4A0A4BF65B665CD65CDC
:103C60000D618280050421BF330555413315AC0039
:103C7000C98F3EC82289B1B732479306470018431F
:103C800036C6634907023ACE034704009307E002B1
:103C9000631FF704034714009307A002631BF70296
:103CA000B2470904138747009C433AC663C1070221
:103CB0003ECA35A83307E04093E727003ACE3EC816
:103CC000E1B7B38767032E848546BA972DBFFD57AA
:103CD000C5B7050402CA814681472546034704004B
:103CE00093051400130707FD6378E606F1F2834598
:103CF00004000D461735000013050556EFF06FA4BC
:103D000011CD97370000938727551D8D9307000429
:103D1000B397A700424505045D8D2AC8834504007A
:103D200019461735000013056553130914002304C1
:103D3000B102EFF00FA12DC197E7FFFF9387E79046
:103D400095E74247B2471377071009CF91073EC660
:103D50009257D2973ED21DB5B38767032E8485460E
:103D6000BA97ADBF9D07E19BA107D5B7780097062D
:103D70000000938626D626860C084E85EFD0BF8C91
:103D8000FD572A8AE316F5FC83D7C40093F707048E
:103D9000E39C07EA125555BD78009706000093860C
:103DA00066D326860C084E85EFD0DFE8D1BF4111DF
:103DB00022C42A842E8523A2018A06C6EFD00F8E44
:103DC000FD576316F50083A7418A91C31CC0B2401A
:103DD000224441018280411122C42E848395E50052
:103DE00006C6A927634905007C48AA977CC8B2404B
:103DF0002244410182808357C4007D777D17F98F6B
:103E00002316F400EDB783D7C500011122CC26CAD2
:103E10004AC84EC606CE93F70710AA842E8432896C
:103E2000B68991C78395E50089460146E12B835702
:103E3000C4007D777D17F98F8315E4002316F40005
:103E40006244F240CE864A86B24942492685D2442F
:103E500005613DAC411122C42E848395E50006C660
:103E60005523FD570357C400631BF500FD77FD176D
:103E7000F98F2316F400B240224441018280856705
:103E8000D98F2316F40068C8FDB78395E5009DAE71
:103E90003367B500FD530D8B79E7B7877F7F938735
:103EA000F7F710419441B372F6003363F600BE9207
:103EB000B3E262006397720C6318D6065041D44196
:103EC000B372F6003363F600BE92B3E26200639809
:103ED000720A631BD60410459445B372F60033632F
:103EE000F600BE92B3E262006391720A631ED602CC
:103EF0005045D445B372F6003363F600BE92B3E288
:103F00006200639A72086311D60210499449B37231
:103F1000F6003363F600BE92B3E262006393720868
:103F20005105D105E30FD6F6131706019397060145
:103F3000631CF7001357060193D706013305F740BA
:103F40009375F50F91E982804183C1833305F74072
:103F50009375F50F91E182801377F70F93F7F70FC1
:103F60003305F74082800346050083C6050005053A
:103F700085056313D60065FA3305D64082801105A6
:103F80009105E312D6FE014582802105A105E31CBF
:103F9000D6FC014582803105B105E316D6FC01450A
:103FA00082804105C105E310D6FC014582800111E4
:103FB00022CC26CA4AC806CE4EC6AA842E8932848E
:103FC00009C51C4D99E3EFE03FDC9737000093876C
:103FD000670D6319F406C0401C4C1CC48357C40011
:103FE000A18BC9C31C48BDCF1C4808409379F90F69
:103FF0001379F90F1D8D5C486346F500A28526856F
:10400000952E2DE51C440505FD171CC41C40138787
:10401000170018C0238037015C486389A7008357C5
:10402000C400858B81CBA9476316F900A28526853C
:1040300091260DEDF2406244D244B2494A8542498C
:1040400005618280973700009387C7076314F400E7
:10405000804459B7973700009387C702E31EF4F6F0
:10406000C0449DBFA285268591283DDD7D59D9B7E5
:1040700091CD9307F00F63F7C7009307A0081CC109
:104080007D5582802380C500054582800145828060
:10409000411122C42A842E85B285368623A2018A44
:1040A00006C6EFC03FE3FD576316F50083A7418ABC
:1040B00091C31CC0B240224441018280411122C4FC
:1040C00026C24AC006C697C4FF0F83A424112A89BA
:1040D0002E8491C49C4C81E72685EFE0FFCA973778
:1040E0000000938727FC6317F402C0408317C400C5
:1040F0001397070193F687004183B5EA937607018A
:1041000095EA25472320E90093E707042316F400E6
:104110007D5579A8973700009387C7FA6314F40098
:104120008044E9B7973700009387C7F5E310F4FCA4
:10413000C0446DBF118B15C74C5891C993074404F7
:104140006385F5004A85EFF0AFFE232A040283570A
:10415000C4002322040093F7B7FD2316F4001C4883
:104160001CC08357C40093E787002316F4001C4843
:1041700081EF8357C4001307002093F70728638556
:10418000E700A2854A8511268317C400139707010B
:1041900093F6170041839DC2544823240400B306BC
:1041A000D04014CC1448014581E61377070829FF55
:1041B000B240224492440249410182809376270012
:1041C000014691E2504810C4F1BF411197C7FF0F5B
:1041D00083A7C700328806C6AA882E87C8473686B6
:1041E0009737000093870708631708009727000098
:1041F000938787723E88C68697350000938585072A
:10420000E92A992E411122C42A842E8523A2018AEB
:1042100006C6EFC03FC1FD576316F50083A7418A6C
:1042200091C31CC0B24022444101828083D7C500A3
:10423000011122CC26CA06CE4AC84EC613F7870003
:10424000AA842E847DE3D8416347E000B8416344EB
:10425000E00001457DA858546DDF856603A9040080
:10426000F58F23A00400ADCF68488357C400918B1D
:1042700099C75C401D8D5C5899C33C401D8D5C54B2
:104280000C502A86814626858297FD570357C40025
:10429000631DF5009440F54763E4D708B707402055
:1042A0008507B3D7D700858BA5CF1C4823220400F0
:1042B0001CC085677D8F19C7FD576314F5009C40AE
:1042C00091E368C84C5823A02401C1D59307440446
:1042D0006385F5002685EFF0AFE5232A040295BF3C
:1042E0000C508546014626850297FD57E31FF5F6DB
:1042F0009C40A5DF75476385E70059476395E70054
:1043000023A02401B9B78357C40093E707042316F9
:10431000F400F2406244D2444249B24905618280CD
:10432000136707042316E400EDB783A90501E382B0
:1043300009F203A905008D8B23A03501330939410A
:10434000014791E3D84918C4E35520F11C540C509F
:10435000CA864E8626858297634AA0008357C4008A
:104360007D5593E707042316F40065B7AA9933092E
:10437000A940D9BF9C49A5C3011122CC06CE2A84ED
:1043800019C51C4D89E72EC6EFE01FA0B24597372F
:104390000000938727D1639BF5004C408397C500AD
:1043A00095C722856244F240056149B59737000000
:1043B000938747D16394F5000C44CDB7973700003D
:1043C000938747CCE39CF5FC4C44C9BFF240624460
:1043D00001450561828001458280397132D436D62B
:1043E0002E863410AA8517C5FF0F032525DF06CEBC
:1043F0003AD83EDA42DC46DE36C6EFF08FF1F240C4
:1044000021618280411122C42A842E85B28536869C
:1044100023A2018A06C6EFC0FFA5FD576316F5006B
:1044200083A7418A91C31CC0B240224441018280CB
:104430005971CAD02E898395E500A2D4A6D286D61A
:104440003284B68463DC05008317C90023A004000E
:1044500093F707088DE39307004005A03000212261
:10446000E34405FE3247BD67F98F7977BA9793B772
:1044700017009CC0CDB793070004B6501CC026544B
:104480009654065901456561828083D7C5000111A4
:1044900022CC06CE26CA4AC8898B2E8489CF9307A0
:1044A00074041CC01CC885475CC8F2406244D244F6
:1044B000424905618280740030002A89953FA245F7
:1044C000AA844A85EFF0EFD001ED8317C40013F7FB
:1044D000072061FFF19B93E727002316F400C1B783
:1044E00097F7FFFF938787852324F9028357C4003A
:1044F00008C008C893E707082316F400A2475CC861
:10450000B24789CF8315E4004A85592001C98357F2
:10451000C400F19B93E717002316F4000355C40071
:10452000C98C2316940051B782808280411122C425
:104530002A842E85B285368623A2018A06C6EFC05C
:10454000FF93FD576316F50083A7418A91C31CC0F2
:10455000B2402244410182804111194506C67528A6
:104560000545EFC0FF8C411122C42A842E85B285F7
:1045700023A2018A06C6EFC03F8CFD576316F500E3
:1045800083A7418A91C31CC0B2402244410182806A
:10459000411122C42A842E8523A2018A06C6EFC0B7
:1045A0003F8CFD576316F50083A7418A91C31CC059
:1045B000B240224441018280011122CC06CEFD4747
:1045C0002A8463F9B700D9471CC17D55F240624483
:1045D000056182807C412E8691C713972500BA978A
:1045E000984319EB228532C6A520AA85228562440C
:1045F0003246F240056105A885460145E308D7FC2F
:10460000FD566316D700D9471CC00545C1B72E8596
:1046100023A007000297014555BFAA8517C5FF0FC4
:104620000325C5BB51BF411122C42A842E85B28502
:1046300023A2018A06C6EFC03F83FD576316F5002B
:1046400083A7418A91C31CC0B240224441018280A9
:104650006FC09F80370810007D180111B377B80034
:1046600013D745013378D80013D3460122CC8E07E7
:104670001374F77F1357D5010E0826CAD98F93D428
:10468000F5011357D6011373F37F06CE4AC84EC601
:10469000FD8233670701931535000E063308644029
:1046A0006398D4226353000F63180302B366C700F4
:1046B000638306581305F8FF09E92E963335B600D3
:1046C000BA97AA97B2850544B9A89306F07F631DEF
:1046D000D8001304F07F4DA29306F07F630ED41828
:1046E000B7068000558F42859306800363CBA608EA
:1046F000FD4663C2A606130800023308A840B3169D
:104700000701B358A60033160601B3E61601333687
:10471000C000558E3357A7002E963335B6003E970E
:10472000B307A700B285370780007D8F63060714A3
:1047300005041307F07F630DE448370780FF7D17FA
:10474000F98F13F5150013D71500598D9395F701BF
:10475000C98D858315A2930605FE93080002B35602
:10476000D700014863081501130800043305A84069
:104770003318A7003366C8003336C000558E014792
:1047800061BF598E3336C000DDBF630B080A3305A5
:1047900083400DE4B3E6B700638306429306F5FF5A
:1047A00099E6B295BA9733B6C500B29729BF1308F8
:1047B000F07F631D0501BA87B28521BF9306F07FA4
:1047C000E30BD3FEB7068000D58FAA8613058003BE
:1047D0006343D5067D45634BD502130800023308B9
:1047E000D84033950701B3D8D500B395050133659B
:1047F0001501B335B0004D8DB3D7D700B305C50053
:10480000BA9733B6C500B2971A8431BF138506FE36
:104810009308000233D8A7000145638716011305EA
:104820000004158D3395A7004D8D3335A0003365F9
:10483000A8008147E1B733E5B7003335A000D5BF05
:104840009306140013F5E67F3DE1B3E6B70029E4D3
:10485000638B0636B366C70085C22E96BA9733358A
:10486000B600AA97370780007D8FB28511C737073A
:1048700080FF7D17F98F054413F77500630C07342B
:1048800013F7F50091466307D73413874500333596
:10489000B700AA97BA853DAE99DE598EE30B06E2C2
:1048A0008144B707400081451304F07F25A6130516
:1048B000F07F638DA6302E963335B600BA97AA974F
:1048C0001395F7010582B365C500858336846DB7FE
:1048D0006356000D63110308B366C700638D063489
:1048E0001305F8FF11E93386C54033B5C500998F2C
:1048F000898FB2850544B1A09306F07FE30BD8DC25
:104900009306800363C8A608FD4663CFA604130878
:1049100000023308A840B3160701B358A6003316A7
:104920000601B3E616013336C000558E3357A70093
:104930003386C54033B5C5003387E740B307A7408A
:10494000B2853709800033F727011DD77D1933F968
:104950002701AE895DAA9306F07FE30FD4F0B70676
:104960008000558F428569BF930605FE93080002BB
:10497000B356D70001486308150113080004330536
:10498000A8403318A7003366C8003336C000558EE0
:10499000014779BF598E3336C000DDBF6305080C6F
:1049A000330583401DE833E8B7006308082813087F
:1049B000F5FF631B0800B305B640B307F740333675
:1049C000B600918FB6843DB79308F07F631015034E
:1049D000BA87B2851304F07F7DA01308F07FE30946
:1049E00003FF37088000B3E707012A881305800317
:1049F000634605077D45634D050393080002B388B0
:104A000008413395170133DE0501B3951501336570
:104A1000C501B335B0004D8DB3D70701B305A6402E
:104A2000B307F7403336B600918F1A84B68411BFAE
:104A3000130508FE130E0002B3D8A7000145630852
:104A4000C80113050004330505413395A7004D8DBA
:104A50003335A00033E5A8008147C9B733E5B70077
:104A60003335A000D5BF130514001375E57F25E984
:104A700033E8B7003365C70021E863180800630214
:104A8000051CBA87B285B684C5BBE30705DE33884B
:104A9000C540B3B805013385E74033051541B70874
:104AA0008000B3781501638A0800B305B640B307E8
:104AB000F7403336B600918FF9B7B365A800638627
:104AC0000518AA87C2854DBB631808006301051845
:104AD000BA87B285B684F5BEE30D05BED1B3B389FE
:104AE000C54033B535013389E7403309A94037055F
:104AF00080003375A90025C9B309B640B307F74054
:104B0000333636013389C740B684630409064A85C3
:104B1000EF10C062130785FFFD4763C2E7069307E6
:104B20000002998F3319E900B3D7F900B3E72701E1
:104B3000B395E900634F8706018F930617007D4602
:104B40006345D60413070002158F3396E70033D56B
:104B5000D500B395E500498EB335B000D18DB3D7FC
:104B6000D700014411BBB3E52901C5F181470144D8
:104B7000D9A84E85EF10805C1305050261BF93072D
:104B800085FDB397F900814575B705171306000237
:104B900033D7E70001456387C60013050004158D70
:104BA0003395A7004D8D3335A000B365A70081472D
:104BB0004DBF198C370780FF7D17F98F75B9BA87FC
:104BC000B2852A8455B9BA87B2857DB11304F07FC6
:104BD00081478145370780007D8F11CB050413077E
:104BE000F07F630BE406370780FF7D17F98F13977B
:104BF000D70113D53500598D1307F07F8D836319C5
:104C0000E4005D8D814709C5B7070800014581446F
:104C100013174401B706F07FB207F2406244758F64
:104C2000B183FE04D98F33E797004249D244B24999
:104C3000BA8505618280428481B1BA87B2852A84AF
:104C400099B581478145814471B78147EDBF814561
:104C50008144B707400089B98147814549BF7971CF
:104C60004AD013D9450126D24ECE52CC5AC862C47E
:104C70009394C50006D622D456CA5EC61379F97F2E
:104C80002A8A328B368CB18093D9F50163040908E6
:104C90009307F07F630AF90C935AD5018E04B3E4AD
:104CA0009A00B70A8000B3EA5401131435001309BF
:104CB00019C0814B1315CC009354C50013554C01FA
:104CC0009375F57F135CFC01F9C19307F07F638B4B
:104CD000F510139534009357DB015D8DB704800008
:104CE000C98C931F3B00138515C0814713972B0078
:104CF0005D8F7D173946B3C68901B305A940636549
:104D0000E610172600001306266A0A073297184392
:104D100032970287B3EAA40063820A069DC82685FB
:104D2000EF10C041930755FF71476349F702F54AF9
:104D3000130485FFB38AFA40B3948400B35A5A012E
:104D4000B3EA9A0033148A009305D0C03389A54092
:104D50008DB7EF10A03E13050502E9B7930485FD5A
:104D6000B31A9A000144CDB7B3EAA400638C0A00D9
:104D70002A84A68A1309F07F8D4B2DBF0144014977
:104D8000854B0DBF01441309F07F894B25B7B3EF65
:104D9000640163820F069DC82685EF10203AAA851C
:104DA000938755FF71476349F702F546938F85FF57
:104DB0009D8E3395F401B356DB00B3E4A600B31F18
:104DC000FB019306D0C03385B64005B75A85EF1076
:104DD000E03693050502E9B7138585FDB314AB00F2
:104DE000814FC5B7B3EF6401638B0F00DA8F1305F2
:104DF000F07F8D47E5BD814401458547C5BD8144B0
:104E00001305F07F8947DDB563E6540163969A2A5E
:104E10006364F42B1396FA01135714009317F401EB
:104E200093DA1A003364E6001395840093D88F0157
:104E3000B3E8A800418133DEAA02939E080193DE05
:104E40000E011357040113938F00B3FAAA0272865E
:104E50003388CE03C20A33675701637C0701469744
:104E60001306FEFF63671701637507011306EEFF64
:104E7000469733070741335EA702420441803377E8
:104E8000A702F2823388CE034207418F637C070179
:104E900046979302FEFF636717016375070193024C
:104EA000EEFF46973304074142064168B36256005D
:104EB000130EF8FF13D6020133F7C201135F03018B
:104EC000337EC301B303EE02B304C6033307EF021C
:104ED000B30FE6033306970013D7030132976373CA
:104EE0009700C29F135607017E96C16FFD1F33784E
:104EF000F7014208B3F3F3011E986367C400968478
:104F0000631EC40263FC07039A9733B76700469792
:104F10003A949384F2FF63E688006391880263EF1A
:104F200067006366C400631B860063F907019A97F4
:104F300033B7670046979384E2FF3A94338807417A
:104F4000118CB3B707011D8CFD5F6387880EB35FBB
:104F5000A402135708013374A4027E86B387FE03AC
:104F60004204598C637CF40046941386FFFF636708
:104F700014016375F4001386EFFF46941D8C3357BC
:104F8000A4024208135808013374A402BA87B38EEE
:104F9000EE02420433648800637CD4014694930794
:104FA000F7FF636714016375D4019307E7FF469425
:104FB00042065D8E93170601C1831357060133081D
:104FC000EF023304D441330FFF02B38EC703330E15
:104FD000C70393D70E01729FFA9763F4C701416725
:104FE0003A9813D70701429741687D1833F50701B6
:104FF0004205B3FE0E0176956366E400631FE41874
:10500000B28F1DC94694930FF6FF63611403636664
:10501000E4006313E418637DA3009317130033B314
:1050200067009A98930FE6FF46943E836314E4006A
:105030006304650093EF1F009387F53F635BF00AFD
:1050400013F77F0001CF13F7FF0011466308C70075
:1050500013864F00B33FF601FE94B28F370700016D
:10506000658F19C7B70700FFFD17FD8C93870540B3
:105070001307E07F6342F70693DF3F001397D401E5
:105080003367F70113D53400D2073706F07F3205B6
:10509000B2502254F18F31815D8DFE06B367D50089
:1050A00092540259F249624AD24A424BB24B224CC4
:1050B0003A85BE8545618280FD158147B5B3CE86B0
:1050C000D684A28FDE870D47638AE70A0547638E81
:1050D000E70A0947E392E7F6014501479307F07FA6
:1050E00065B7E286CDB7B7040800814F81468D478A
:1050F000D9BF05451D8D130780036348A7087D4769
:105100006349A7049385E541B397B40033D7AF0053
:10511000B395BF00D98FB335B000CD8F33D5A40080
:1051200013F7770001CF13F7F70011466308C700A4
:1051300013874700B337F7003E95BA8737078000DB
:10514000698F39E71317D5018D835D8F0D818147F5
:1051500025BF0557B307F74013060002B3D7F40085
:1051600001476306C5001387E5433397E4003367BF
:10517000F7013337E000D98F01455DB737050800E7
:1051800001479307F07F814601B701450147C1B749
:10519000014501478547CDBD7E86B28F61BD13D7DE
:1051A0004501B7071000FD1713D846012A83AA8EC0
:1051B0001377F77F1305F07FB3F8B700328FF58FC1
:1051C000FD811378F87FFD82631AA70033EE680033
:1051D000054563140E006305E80082806315A8008E
:1051E0005D8E05457DFA0545E31907FFE397F8FE57
:1051F000E395EEFF6388D5006DF333E56800333542
:10520000A000828001458280370710007D1713D8E7
:105210004501B378B700AA872A831378F87F13D59E
:10522000F501930EF07F93D54601758F328E93F57D
:10523000F57FFD826318D801B3EEF80063840E0693
:10524000795582806396D501B36EC700E39A0EFE4E
:10525000631C0804B3E7F80093B7170099E1598E6F
:105260000DCE81EB6314D50063D905010DC57D55C5
:1052700082807D5591C6368582806354B80065D999
:105280008280E36517FF639CE800E3616EFEE368DC
:10529000C3FF0145828005458280E5FFC1BFE3E091
:1052A000E8FEC5BFE38205FBD5FD81474DBF37074B
:1052B00010007D1713D84501B378B700AA872A8359
:1052C0001378F87F13D5F501930EF07F93D546013F
:1052D000758F328E93F5F57FFD826318D801B3EE9A
:1052E000F80063840E06094582806396D501B36E8B
:1052F000C700E39A0EFE631C0804B3E7F80093B7F7
:10530000170099E1598E0DCE81EB6314D50063D956
:1053100005010DC57D5582807D5591C636858280FB
:105320006354B80065D98280E36517FF639CE80089
:10533000E3616EFEE368C3FF01458280054582801C
:10534000E5FFC1BFE3E0E8FEC5BFE38205FBD5FD95
:1053500081474DBF79714ECE93D9450122D426D2D3
:1053600052CC56CA5EC69394C50006D64AD05AC8D7
:1053700093F9F97F2A84B28BB68AB18013DAF501EA
:10538000638109089307F07F6385F90C9357D50172
:105390008E04DD8CB7078000DD8C131935009389EE
:1053A00019C0014B13D54A011394CA001375F57F38
:1053B000318093DAFA0161C19307F07F6305F5103C
:1053C00093D7DB010E045D8CB70780005D8C13055D
:1053D00015C093973B00014793162B00D98E4E952D
:1053E000FD16394833465A0193051500636ED80EF1
:1053F00017250000130505FF8A06AA969442AA966F
:10540000828633E9A400630F09048DC82685EF0066
:10541000F052130755FFF14763C7E702F547130939
:1054200085FF998FB3942401B357F400DD8C3319B1
:1054300024019309D0C0B389A940A5B7EF0010504B
:1054400013050502F9B7930485FDB31494000149CF
:10545000CDB733E9A400630B09002A899309F07FD3
:105460000D4B89B781448149054B2DBF8144930978
:10547000F07F094B05BFB3677401B1CF0DC822851A
:10548000EF00D04B930655FFF14763C8D70275472D
:10549000930785FF158F3314F40033D7EB00598C35
:1054A000B397FB001307D0C03305A7402DB75E8527
:1054B000EF00D04813050502F1B7130485FD3394BE
:1054C0008B008147C5B7B367740191CBDE871305A5
:1054D000F07F0D4711B7014401450547F5BD014473
:1054E0001305F07F0947CDBD416F930EFFFF1357A2
:1054F000090193D807013379D901B3F7D70133886C
:105500002803B306F902B30FF7023303F80113D8E7
:1055100006011A98330E17036373F8017A9E9353AA
:1055200008013378D801B3F6D601135F0401B372D2
:10553000D40142083698B30E5702B3065902330914
:105540002F033303D90113D906011A993307E7034F
:105550006374D90141631A97935E0901C169BA9EC8
:105560001387F9FF3379E900F98E13D40401420956
:10557000F98C338797023699CA933303F402B386C2
:105580009802B3878802B388660093560701C696CF
:1055900063F36600CE9793D80601C169B38FF80014
:1055A0009387F9FFB3889202FD8E7D8FC206BA966B
:1055B000B3075402B3049F0233038F02BE9413D483
:1055C0000801A29463F3F4004E93C167FD1733F70B
:1055D000F400B3F8F80042071E9E469733392E01B7
:1055E000769733042701369EB336DE00B308F40104
:1055F000338FD8003337D70133342401598CC1801D
:10560000B3B8F801B336DF002694B3E6D800369479
:105610001A9493577F0126045D8C93179E00B3E77D
:105620000701B337F000135E7E0113179F00B3E745
:10563000C701D98F37070001618F4DCB13D71700F2
:10564000858BD98F1317F401D98F05809386F53F89
:105650006350D00A13F7770001CF13F7F700114515
:105660006308A70013874700B337F7003E94BA8753
:1056700037070001618F19C7370700FF7D17798C45
:10568000938605401307E07F634ED70E13D737008C
:105690009317D401D98F0D80139746013204B706B2
:1056A000F07F758F3180598C7E06B2503367C4000D
:1056B000225492540259F249624AD24A424BB24BA6
:1056C0003E85BA854561828052862684CA875A877C
:1056D00089466309D70A8D46630FD7088546E317C5
:1056E000D7F6014481479DA05686DDB7AA85B9BF8C
:1056F0000545158D13078003E345A7FE7D476349E4
:10570000A7049385E5413317B400B3D6A700B39738
:10571000B700558FB337F000D98F3354A40013F777
:10572000770001CF13F7F70091466308D70013877E
:105730004700B337F7003E94BA8737078000618F80
:1057400039E71317D4018D83D98F0D808146A9B70E
:105750000557158F130800023357E400814663068E
:1057600005019385E543B316B400D58FB337F00038
:10577000D98F01446DB73704080081479306F07F45
:10578000014619BF014481479306F07F31B70144B8
:105790008147854611B7370810007D180111B3778E
:1057A000B80013D745013378D80013D3460122CC73
:1057B0008E071374F77F1357D50126CAD98F93D458
:1057C000F5011357D601931535000E0806CE4AC8C9
:1057D0004EC61373F37F1305F07FFD823367070115
:1057E0000E066315A3003365C70019E193C61600C2
:1057F00033086440639896226353000F63180302D2
:10580000B366C700638106581305F8FF09E92E96B1
:105810003335B600BA97AA97B2850544B9A893065E
:10582000F07F631DD8001304F07F4DA29306F07F34
:10583000630ED418B7068000558F42859306800307
:1058400063CBA608FD4663C2A60613080002330810
:10585000A840B3160701B358A60033160601B3E6F5
:1058600016013336C000558E3357A7002E963335B8
:10587000B6003E97B307A700B285370780007D8F3B
:105880006306071405041307F07F630BE44837072A
:1058900080FF7D17F98F13F5150013D71500598D6B
:1058A0009395F701C98D858315A2930605FE93088C
:1058B0000002B356D700014863081501130800041D
:1058C0003305A8403318A7003366C8003336C0003C
:1058D000558E014761BF598E3336C000DDBF630B63
:1058E000080A330583400DE4B3E6B700638106423E
:1058F0009306F5FF99E6B295BA9733B6C500B2970D
:1059000029BF1308F07F631D0501BA87B28521BF47
:105910009306F07FE30BD3FEB7068000D58FAA86EF
:10592000130580036343D5067D45634BD5021308F9
:1059300000023308D84033950701B3D8D500B3959A
:10594000050133651501B335B0004D8DB3D7D700D0
:10595000B305C500BA9733B6C500B2971A8431BFF4
:10596000138506FE9308000233D8A700014563871C
:10597000160113050004158D3395A7004D8D3335A1
:10598000A0003365A8008147E1B733E5B7003335A0
:10599000A000D5BF9306140013F5E67F3DE1B3E602
:1059A000B70029E463890636B366C70085C22E9620
:1059B000BA973335B600AA97370780007D8FB28536
:1059C00011C7370780FF7D17F98F054413F775005E
:1059D000630A073413F7F50091466305D73413873C
:1059E00045003335B700AA97BA852DAE99DE598E9A
:1059F000E30B06E28144B707400081451304F07FC2
:105A000015A61305F07F638BA6302E963335B600AE
:105A1000BA97AA971395F7010582B365C5008583E8
:105A200036846DB76356000D63110308B366C70073
:105A3000638B06341305F8FF11E93386C54033B58F
:105A4000C500998F898FB2850544B1A09306F07F78
:105A5000E30BD8DC9306800363C8A608FD4663CF3A
:105A6000A604130800023308A840B3160701B35870
:105A7000A60033160601B3E616013336C000558E74
:105A80003357A7003386C54033B5C5003387E74099
:105A9000B307A740B2853709800033F727011DD728
:105AA0007D1933F92701AE895DAA9306F07FE30FD4
:105AB000D4F0B7068000558F428569BF930605FE76
:105AC00093080002B356D700014863081501130874
:105AD00000043305A8403318A7003366C8003336E6
