:0200000480007A
:100000007370043073504030971100109381819CBD
:1000100017010110130101FF970200009382C248EB
:100020007390523073F05130170500001305050925
:1000300097050000938585086300B50217A60000A8
:100040001306866D63FAC5008322050023A05500C0
:1000500011059105E3EAC5FE17A500001305C56B60
:1000600097050010938505FA1386C19D63FAC500B4
:100070008322050023A0550011059105E3EAC5FE82
:100080001385C19D938581C16377B5002320050049
:100090001105E36DB5FE3D2D175500001305C5B7DD
:1000A000EF403036EF40703AEF00806F01458145F8
:0800B0002120EF00B02001A0A7
:1000B8007971294506D622D426D24AD056CA5AC8BA
:1000C8004ECE52CC5EC662C4EF50406017A5000009
:1000D8001305C59FEF50207817A600001306C6A188
:1000E80097A50000938545A217A50000130545A212
:1000F800EF50005A17A50000130505A4EF50A0758E
:10010800930700009384C19E854505459CC0970AC6
:10011800001083AA2A13EF0010210545EF40E0786C
:10012800EF40501B2A8988402E8417AB0000130B20
:100138006BA1EF40301A2A86AE864A87A2875A8575
:10014800EF50005503A90400D68505444A85EF40C1
:1001580020086346A00EAD4B89491544CE852285FB
:10016800130C000023A08401EF00F01B2285EF4050
:10017800C073EF4030162A8A88402E89EF409015C8
:100188002A86AE865287CA875A85EF50605003A9DF
:100198000400D685138A19004A85EF40600393123C
:1001A8002400D285634DA0081694228523A08401DB
:1001B800EF0070172285EF40406FEF40B0112A8C96
:1001C80088402E89138A2900EF40D0102A86AE86EF
:1001D800CA8762875A85EF50A04B03A90400D685C9
:1001E8004A85EF30F07E13132400D2856349A004BA
:1001F8001A9493000000228523A01400EF00B01287
:100208002285EF40806AEF40F00C2A8C88402E89C6
:100218008D09EF40300C2A86AE86CA8762875A85D8
:10022800EF50004703A90400D6854A85EF30507A7D
:10023800931324006345A0001E94E39179F393057A
:1002480000004A85EF30D078635DA000294533056A
:10025800A402EF408065CA85EF30104DEF40E05EA4
:100268002A84634380000544A28517A5000013056E
:100278002590EF50E04197A500009385E58817A5E4
:1002880000001305A590EF50A0402945EF50004409
:1002980017A500001305C592EF50E05B81451306D2
:1002A8000000228590C0EF00100817A50000130574
:1002B8002596EF50E03D83AA04009305000056857B
:1002C800EF301071635AA00C2285EF40005E97054D
:1002D800001083A525FBEF30B07EAA8B9705001090
:1002E80083A5C5F65685EF30B07DAA855E85EF30CB
:1002F800B0432A8B138A019F568523206A01EF4059
:10030800607D2A8C5A852E89EF40C07C2A86AE866D
:100318006287CA8717A500001305C590EF504037BC
:1003280017A5000013050591EF5080368840EF406F
:10033800607AAA8417050010032585E9AE89EF4085
:100348006062AA8503250A00EF30103E9705001069
:1003580083A545F0EF30D076EF40C0772A86AE8689
:100368002687CE8717A500001305C58BEF504032AE
:100378009305000003A5819EEF3050600DC1B25077
:10038800225492540259F249624AD24A424BB24B21
:10039800224C014545618280130B0000A1BF17A5BF
:1003A80000001305658AEF50A02ED1BFA54723AAE8
:1003B800F19E7D55828073005010F5BF7D158547ED
:1003C80063E7A700096323A2650001458280A5426F
:1003D80023AA519E7D5582800545828005458280ED
:1003E800D94723AAF19E7D5582800145828019C193
:1003F8007D55828041113735011022C406C62E84EE
:10040800BD2A2300A400B240224405454101828050
:1004180017070010130787DB1C43938681C13E959D
:10042800636BD50097F200109382423D63E5A2000A
:1004380008C33E858280FD573E858280011122CC0B
:100448004EC606CE26CA4AC82E84B289EF506042EC
:1004580039C133093401A944638C09008345040078
:1004680037350110638E95000504FD28E31824FF35
:100478004E85F2406244D2444249B24905618280C5
:10048800B545DD2083450400373501100504E9280A
:10049800E31689FCF1BF7D55E9BF00005D7106C018
:1004A80012C216C41AC61EC82ACA2ECC32CE36D0DC
:1004B8003AD23ED442DC46DEF2C0F6C2FAC4FEC6E8
:1004C800F322103416D6F322203416D8F322003043
:1004D80016DA732520348A851924B252739012349F
:1004E800C25273902234D252739002308240124228
:1004F800A2423243C2435245E245724682561257DF
:10050800A2576258F258064E964E264FB64F616172
:1005180073002030AA8711C5584D0145D98DCCCF1D
:1005280082807D558280AA8715CD17070010032782
:1005380027CAB355B70293020008232655001308AB
:10054800600C8D4801451383F5FF9353830013F620
:10055800F30FD0C39376F30F94C323A4070123A604
:10056800170182807D55828009C95C4993F2070290
:10057800E38D02FE0CC1014582807D55828011C940
:100588005C4993F21700E38D02FE08411375F50FDD
:1005980082801305F00F8280B7C7000283A687FF09
:1005A80083A7C7FF411106C622C426C237C6000268
:1005B800B680032786FF8327C6FFBA82732700B059
:1005C800E38950FE37C30002832383FF8326C3FFDA
:1005D800F32500B0E38A72FE8327C3FF832683FFD7
:1005E80037C40002B684032584FF8327C4FFAA8585
:1005F800732800B0E389A4FEB7C80002130E3006C2
:1006080083AE88FF83A4C8FF3384BE40732F00B035
:10061800E3788EFEB3040F41B3FF8402228681463D
:100628001395FF0093D51F01EF30A027B3D784029D
:10063800B2402244924441011396F70032958280D9
:10064800411122C42A84179500001305A53706C650
:10065800EF506020A285179500001305E537EF508D
:100668002003F3251034179500001305E537EF50E4
:100678002002F3253034179500001305E537EF50B5
:10068800200101A0411122C42A84179500001305F6
:10069800A53706C6EF50201CA28517950000130544
:1006A800A533EF40F07EF3251034179500001305AD
:1006B800A533EF40F07DF32530342244B24017953E
:1006C80000001305653341016F40907CB7B7C4043F
:1006D8009382074017070010232C57AE82804111E0
:1006E80006C69317450122C493D047016342050407
:1006F80029462A87AE86637E160017030000130377
:1007080063F4B6853A850293B2402244014541011B
:100718008280939220009383C1A2338453000323E1
:100728000400E31003FEB2402244014541018280E7
:100738002D48638D000193982000138E41A0B30EBD
:100748001E0103A30E00E31003FC7DBF732F40F1CD
:10075800B707200C931FCF009380470033871F00F3
:100768000043C146E3E286FA13162400138381A5E9
:10077800B302C30083A3020063830300829373253B
:1007880040F13708200C9315C50093084800338EB4
:10079800150123208E008DBF411106C622C4ED3BF2
:1007A800AA87170400101304A4A2B705030037256D
:1007B80001101CC08533F16593850520373501107C
:1007C8009D331796000013066625979500009385BC
:1007D800A525179500001305E525EF40706B979543
:1007E80000009385A5271795000013056527EF409E
:1007F800306A0C40179500001305C527EF40506973
:1008080097020000938242E8138781A5170600002B
:10081800130646E39386C1A2138341A090C2D0C2B7
:1008280090C6D0C690CAD0CA90CED0CE90D2D0D2E0
:1008380090D623205700232257002324570023262D
:10084800570023285700232A5700232C5700232E0C
:100858005700232057022322570223245702232616
:10086800570223285702232A5702232C5702232EE4
:100878005702232057042320530023225300232404
:1008880053002326530023285300232A5300232CE4
:100898005300232E53002320530223225302F32311
:1008A80040F13728000C13957300B308050103AE17
:1008B8000800B70E000C137FEEFF23A0E80123A069
:1008C8000E00F32F40F193977F00338407010C400B
:1008D80093F2D5FF2320540023A20E00732740F182
:1008E80013167700B306060103A306009373B3FF3C
:1008F80023A0760023A40E00732540F193187500F9
:10090800338E0801032F0E00937F7FFF2320FE0103
:1009180023A60E00F32740F113947700B3050401D2
:1009280083A2050013F7F2FE98C123A80E007326D0
:1009380040F193167600338306018323030013F5F1
:10094800F3FD2320A30023AA0E00F32840F1139EF1
:100958007800330F0E01832F0F0093F7FFFB23203E
:10096800FF0023AC0E00732440F193157400B3828A
:10097800050103A702001376F7F723A0C20023AEF0
:100988000E00F32640F113937600B303030103A589
:1009980003009378F5EF23A0130123A00E02732E12
:1009A80040F1131F7E00B30F0F0183A70F0013F44C
:1009B800F7DF23A08F0023A20E02F32540F19392C4
:1009C80075003387020110439376F6BF14C323A43E
:1009D8000E02732340F193137300B388030103AE2F
:1009E80008007D7F1305FF7FB37FAE0023A0F801C9
:1009F80023A60E02F32740F113947700B3020401F3
:100A080083A502001307FFFF33F6E50023A0C20009
:100A180023A80E02F32640F113937600B3030301D3
:100A280083A80300797E130FFEFF33F5E80123A0A6
:100A3800A30023AA0E02F32F40F193977F0033847B
:100A4800070183220400F1751387F5FF33F6E200EE
:100A580010C023AC0E02F32640F113937600B303C3
:100A6800030183A80300617E130FFEFF33F5E8013D
:100A780023A0A30023AE0E02F32F40F193977F002B
:100A88003E9803240800C1729385F2FF3377B400BF
:100A98002320E80023A00E04F32E40F1B706200C13
:100AA800B24022441396CE003303D600232003001D
:100AB80041018280828082808280B7C7000203A5BC
:100AC80087FF83A5C7FF411106C6EF30507397F51E
:100AD800FF0F83A5A575EF30A07E23A2A19EB2408B
:100AE80083A2419E23A0519E41018280B7C7000284
:100AF80003A587FF83A5C7FF411106C6EF303070F5
:100B080097F5FF0F83A58572EF30807B23A2A19E06
:100B180003A5419E83A5019EEF30D01CB24023AEB1
:100B2800A19C410182801D71A6CAD2C486CEA2CCE6
:100B3800CAC8CEC6D6C2DAC05EDE62DC66DA6AD859
:100B48006ED69387819E130700002A8A2ECA98C3FF
:100B5800AD3797F2FF0F83A2E26D97F4FF0F83A4DE
:100B6800246D634440016F10803E968A16CE268914
:100B7800A68D168D814917F4FF0F0324E46B0D6BC6
:100B8800930B0BEEEA856E85EF30A007CA85EF3030
:100B98004007A685EF301015A285EF306072EE850C
:100BA8002A8DEF300006CA85EF30D013A685EF30C6
:100BB8004005A285EF30C070AA85AA8D6A85EF30FE
:100BC8007012CA85EF30E003A685EF308003A28556
:100BD800EF30006F2A89EA856E85EF30B010CA853C
:100BE800EF302002A685EF30C001A285EF30406DBE
:100BF800FD1BAA84E3980BF8A2855685EF30900E6A
:100C080085092A84E39E49F7D53597F5FF0F83A513
:100C1800E56303A5C19DEF3020312A83528523AEB9
:100C2800619C138C819EEF305048AA8303250C00E9
:100C38001386C19DA685179B0000130BEB01832C1F
:100C480006001ECCEF20F07B035F0B00835E2B00B9
:100C5800035E4B0083526B0083588B008356CB0096
:100C68000357EB0083570B01938AC19E835BAB004C
:100C7800AA8F03A50A009389C1A9138801B4E68540
:100C88002320FC01232298012399E901239AD90101
:100C9800239BC901239C5900239D1901239E790197
:100CA800239FD9002390E9022391F902EF20707560
:100CB800D24523A0AA0005456394A5006F00106FD4
:100CC800BDED03A581B6EF30F0602A86AE86179594
:100CD80000001305A5DB9385E1AAEF40701B93057F
:100CE80000006685EF30C04E6344A0006F1080227C
:100CF800624597F5FF0F83A5A555EF30605CAA8A7A
:100D080097F5FF0F83A505556685EF30605BAA85CB
:100D18005685EF306021EF30F05B2A8C2E8493806B
:100D280001B403A54000EF30F05A2A87AE876286E7
:100D3800A28617950000130565D6EF407015B53BE0
:100D4800635A402D814B17F4FF0F0324E44E97F9A3
:100D5800FF0F83A9695097FCFF0F83ACAC4D930A32
:100D68008057EA856E85EF20D069CA85EF207069C3
:100D7800A685EF302077A285EF3080542A8DEA854A
:100D88006E85EF201068CA85EF30C075A685EF2004
:100D98005067A285EF30C052AA8DAA856A85EF30C8
:100DA8006074CA85EF20F065A685EF209065A2855E
:100DB800EF3000512A89EA856E85EF30A072CA8526
:100DC800EF203064A685EF20D063CE85EF30404F0A
:100DD800AA84EA856E85EF20D062CA85EF2070620A
:100DE800A685EF302070A285EF30804D2A8CAA8529
:100DF8006E85EF201061CA85EF30C06EA685EF20A2
:100E08005060A285EF30C04B2A8DAA856285EF30ED
:100E1800606DCA85EF20F05EA685EF20905EA28502
:100E2800EF30004A2A89E2856A85EF30A06BCA85CF
:100E3800EF20305DA685EF20D05CCE85EF304048AE
:100E4800AA84EA856285EF20D05BCA85EF20705BB3
:100E5800A685EF302069A285EF308046EA85AA8D05
:100E6800EF20305ACA85EF30E067A685EF20705929
:100E7800A285EF30E0442A8CAA856E85EF30806623
:100E8800CA85EF201058A685EF20B057A285EF300D
:100E980020432A89EE856285EF30C064CA85EF2039
:100EA8005056A685EF20F055CE85EF306041AA84D4
:100EB800EE856285EF20F054CA85EF209054A68510
:100EC800EF304062A285EF30A03FE285AA8DEF2087
:100ED8005053CA85EF300061A685EF209052A28555
:100EE800EF30003E2A8DAA856E85EF30A05FCA8557
:100EF800EF203051A685EF20D050A285EF30403C3E
:100F08002A89EE856A85EF30E05DCA85EF20704F4B
:100F1800A685EF20104FCE85EF30803AAA84EA8567
:100F28006E85EF20104ECA85EF20B04DA685EF30B4
:100F3800605BA285EF30C0382A8CAA856A85EF20CD
:100F4800504CCA85EF30005AA685EF20904BA285F9
:100F5800EF300037AA8DAA856285EF30A058CA8580
:100F6800EF20304AA685EF20D049A285EF304035E2
:100F78002A89E2856E85EF30E056CA85EF207048F1
:100F8800A685EF201048CE85EF308033AA84EE8501
:100F98006285EF201047CA85EF20B046A685EF305E
:100FA8006054A285EF30C0312A8DAA856E85EF2066
:100FB8005045CA85EF300053A685EF209044A2859E
:100FC800EF300030AA85AA8D6A85EF30A051CA8516
:100FD800EF203043A685EF20D042A285EF30402E87
:100FE8002A89EA856E85EF30E04FCA85EF20704187
:100FF800A685EF201041CE85EF30802CFD1AAA84FB
:10100800E3910AD6A2856685EF30C04D850B2A8408
:10101800E3177AD5E13C938C819E03A50C001383DA
:10102800C19DA685032C0300EF20B03D832F4B0103
:1010380003268B01032FCB01832E0B02035E4B0289
:101048009389C19EAA8303A509009388C1A99382A5
:1010580001B4E28523A07C0023A4820123A2F80323
:1010680023A4C80223A6E80323A8D803239AC80305
:10107800EF203039D24723A0A9008546E384D73230
:10108800BDEF03A5C1B6EF30F0242A86AE861795CA
:1010980000001305A59F938501ACEF40605F9305A1
:1010A80000006285EF30C0126344A0006F00106733
:1010B800624597F5FF0F83A5651AEF3060202A89EE
:1010C80097F5FF0F83A505196285EF30601FAA8584
:1010D8004A85EF207065EF30F01F2A8DAE8D13889A
:1010E80001B403258800EF30F01E2A87AE876A8690
:1010F800EE86179500001305659AEF406059EFF0EA
:10110800DF9B938A819EDD3203A50A0097F5FF0FC6
:1011180083A545129384C19DEF20B02E83AB0400B4
:101128008353AB020353CB02835FEB0203562B03BB
:10113800035F4B03835E6B03035E8B03138CC19EBB
:10114800835C8B0283590B032A8403250C00938844
:10115800C1A9938201B4DE8523A08A0023A6720167
:10116800239B9803239C7802239D6802239EF803FF
:10117800239F38032390C8042391E8052392D805B8
:101188002393C805EF20F027D2452320AC0005455E
:10119800E385A520BDED03A501B7EF30B0132A867E
:1011A800AE86179500001305658E938521ADEF4037
:1011B800204E930500005E85EF3080016344A00057
:1011C8006F009057624597F5FF0F83A56509EF30CB
:1011D800200F2A8997F5FF0F83A5C5075E85EF3095
:1011E800200EAA854A85EF203054EF30B00E2A8DA4
:1011F800AE8D938001B403A5C000EF30B00D2A87EF
:10120800AE876A86EE86179500001305A58AEF401B
:101218002048130D0000EFF05F8AEA8A635C400DF6
:10122800814D97F9FF0F83A9E90017F9FF0F0329EB
:10123800690197F4FF0F83A4A40017F4FF0F032498
:1012480064029567938B87206A85CE85EF20701B93
:10125800CA85EF20101BA685EF20B01A2A8CA2851C
:101268005685EF20101AAA8ACE856285EF2070195C
:10127800CA85EF201019A685EF20B018AA8CA28580
:101288005685EF2010182A8DCE856685EF207017B9
:10129800CA85EF201017A685EF20B0162A8CA285E4
:1012A8006A85EF201016AA8ACE856285EF20701510
:1012B800CA85EF201015A685EF20B014AA8CA28548
:1012C8005685EF2010142A8CCE856685EF20701382
:1012D800CA85EF201013A685EF20B0122A8DA285AB
:1012E8006285EF201012ED1BAA8AE39F0BF4850D8F
:1012F800E319BAF5EFF08FFFD6856A85EF207010F5
:1013080097F5FF0F83A545F6EF201042E2451389B4
:10131800819E9389C19EEF2030412A8403250900CC
:10132800A285EF20100E1388C19D83240800032393
:10133800CB03832F0B0403264B04032F8B04835EFC
:10134800CB04AA8303A509009382C1A9138E01B413
:10135800A6852320790023289E0023A4620423A6BF
:10136800F20523A8C20423AAE205239CD205EF2094
:10137800500923A0A90052458548E302150525ED2B
:1013880003A541B7EF3000752A86AE8617850000A1
:101398001305C56F938541AEEF40802F930500007C
:1013A8002685EF20F062E352A038624597F5FF0FDB
:1013B80083A5C5EBEF20D0702A8D97F5FF0F83A585
:1013C80065E92685EF20D06FAA856A85EF20D0359C
:1013D800EF304070AA8C2E8C938501B48849EF3089
:1013E800606F2A87AE876686E28617850000130538
:1013F800656CEF40E029EFF04FEC6358407DF2490F
:1014080097FAFF0F83AA8AE302C44E8C17F9FF0FDD
:10141800032989E2CE8BE2854A85EF20706AAA8487
:10142800D6854A85EF20D0692A840565930CE5C7DF
:101438002685EF00B078AA8D2685EF003070A68546
:101448002A8D2285EF20E07BEF00506FA285AA8AC3
:101458002685EF302009EF00706E2A8CEE856E85A8
:10146800EF20207AEA85EF20B065AA84E2855685C8
:10147800EF202079DE85EF30E006AA852685EF206B
:10148800B02AEF0090442A8D2285EF003073AA8A93
:101498002285EF00B06AEA85AA8D4A85EF2050625E
:1014A800A285AA84EF20E075EF005069A2852A8DF5
:1014B8002685EF302003EF0070682A8CD685568584
:1014C800EF202074EE85EF20B05F2A84E2856A85DC
:1014D800EF202073CE85EF30E000AA852285EF202B
:1014E800B024EF00903EAA854A85EF20705DFD1C70
:1014F8002A84E39F0CF297FAFF0F938AAAD303A5D5
:101508000A00CA85EF20107EA2452A891383150098
:101518001AC463066A0C2685EF00506A2A86268557
:1015280032C8EF00B061A6852A8D22856AC6EF20F1
:10153800406DEF00B060A2852A8C2685EF20907A56
:10154800EF00D05FC245AA8D2E85EF20806BB24593
:10155800EF201057EE85AA846285EF20806A83A564
:101568000A00EF203078AA852685EF20F01BEF00CF
:10157800D035AA852A8C4A85EF2090542A8D228559
:10158800EF00D063AA88228546C8EF00305B2A8323
:10159800EA8522851AC6EF20C066EF00305AA28578
:1015A800AA8C6A85EF201074EF005059C245AA8DA5
:1015B8002E85EF200065B245EF2090502A84EE85F5
:1015C8006685EF20006483A50A00EF20B071AA8524
:1015D8002285EF207015EF00502FAA8A2DBDEFF05D
:1015E800EFD0938B819E03A50B001388C19DA28524
:1015F80083240800EF20E060835ECB08035EEB08DD
:1016080083520B0983582B0983534B0903566B09E3
:1016180083568B090357AB098357CB099389C19E1E
:10162800AA8F03A50900938DC1A9138F01B4A685BC
:1016380023A0FB01232A9F00239DDD05239ECD05C2
:10164800239F5D0423901D0723917D062392CD06D9
:101658002393DD062394ED062395FD06EF20605ABB
:10166800524D23A0A90005456306AD54D240639AA4
:10167800000E938D41B603A54D01EF30A0452A8693
:10168800AE861785000013056540938561AFEF406E
:101698002000930500002685EF209033E352A00A2E
:1016A800624597F5FF0F83A5A5BCEF207041AA8C72
:1016B80097F5FF0F83A505BA2685EF207040AA8508
:1016C8006685EF207006EF30E0402A8D2E8C9385DA
:1016D80001B4C849EF3000402A87AE876A86E2869F
:1016E800178500001305053DEF30907AEFF0EFBC49
:1016F800634D4007EFF08FBF1384819E0840138E1F
:10170800C19D97F5FF0F83A5E5B2832A0E00EF2050
:10171800404F83230B0503264B0583268B050327A0
:10172800CB0583570B061389C19EAA82032509009E
:10173800138FC1A9938801B4D6852320540023AC04
:10174800580123267F062328CF06232ADF06232CC9
:10175800EF06231EFF06EF20C04A2320A9006F00D2
:10176800C073EFF08FB5E35A400F724C8149D96AC4
:10177800628917FDFF0F032D2DAC97F4FF0F83A48B
:1017880064AF17F4FF0F032424AD938CCAF2E285EB
:101798004A85EF200047EA85EF209032E285AA8D3E
:1017A800EF202046A685EF20B031AA8BAA856E854A
:1017B800EF202045A285EF20B0302A8CAA855E85CF
:1017C800EF202044EA85EF20B02FE2852A89EF2018
:1017D8004043A685EF20D02EAA8BAA854A85EF2004
:1017E8004042A285EF20D02DAA8DAA855E85EF20E4
:1017F8004041EA85EF20D02CEE852A8CEF2060400E
:10180800A685EF20F02B2A89AA856285EF20603F04
:10181800A285EF20F02AAA85AA8B4A85EF20603E90
:10182800EA85EF20F029DE85AA8DEF20803DA68588
:10183800EF201029AA852A896E85EF20803CA28591
:10184800EF201028F11C2A8CE3930CF48509E31E81
:101858003AF3EFF0AFA9138D819E03250D00138392
:10186800C19DE285832A0300EF20A03903280B05D8
:10187800832E4B05032E8B058322CB0583530B0642
:101888009384C19EAA8F88409386C1A9138601B408
:10189800D6852320FD01232C560123A6060723A85D
:1018A800D60723AAC60723AC5606239E7606EF2042
:1018B8004035D24588C00545638AA55CD240638C13
:1018C800005CEFF08F9F6351404317F4FF0F032430
:1018D800249717FFFF0F032FEF96014CBD63138961
:1018E800D30921A07A845D19328F9300F9FF2286EB
:1018F800E39A00FE050CE3148AFFEFF02F9F938B09
:10190800819E03A50B001387C19DA285832A07002A
:10191800EF20202F83580B0803532B0883564B08BE
:10192800835F6B0883578B081389C19E835D8B0780
:10193800835CAB07035DCB078359EB072A8F03252D
:101948000900938EC1A9138801B4D68523A0EB01A1
:10195800232E5801239FBE0723909E092391AE0989
:1019680023923E0923931E0923946E082395DE08CB
:101978002396FE092397FE08EF20A0282320A9001C
:1019880052458545630FB54E630C053EEFF0EF9267
:1019980097F4FF0F83A4448B814B096C17F4FF0F56
:1019A8000324448D930A4C452685EF005030A285C8
:1019B800EF208057EF005028EF003037EF00302F2E
:1019C800A285EF206056EF003027EF001036EF00B9
:1019D800102EA285EF204055EF001026EF00F034BE
:1019E800EF00F02CA285EF202054EF00F024EF0048
:1019F800D033EF00D02BA285EF200053EF00D02387
:101A0800EF00B032EF00B02AA285EF20E051EF00DE
:101A1800B022EF009031EF009029A285EF20C0504E
:101A2800EF009021EF007030EF007028A285EF20C2
:101A3800A04FEF007020EF00502FEF005027A28535
:101A4800EF20804EEF00501FEF00302EEF003026C1
:101A5800A285EF20604DEF00301EEF00102DD91A3F
:101A6800AA84E3930AF4850BE3CE4BF3EFF00F88D7
:101A7800938D819E03A50D001383C19DA685832C9C
:101A88000300EF20001803284B06832E8B068326BD
:101A9800CB0603270B0783574B07138AC19EAA8FD0
:101AA80003250A009382C1A9138E01B4E68523A0F9
:101AB800FD0123209E0323A8020923AAD20923ACEF
:101AC800D20823AEE2082390F20AEF2080132320E5
:101AD800AA0052458545630FB5084DE1624597E573
:101AE800FF0F83A5E579138C41B6EF20607DAA8AA4
:101AF80003250C02EF20107E2A86AE86178500008B
:101B08001305C5F89385C1B2EF30903893050000EE
:101B18006685EF20E06B635EA04097E5FF0F83A525
:101B280065736685EF20C079AA855685EF20C03F8A
:101B3800EF20507AAA84AE8C938001B403A50002EA
:101B4800EF2050796644F6404649B649264A964AF7
:101B5800064BF25B625C425DB25D2686E686D64441
:101B6800D25C2A87AE87178500001305A5F4256186
:101B78006F301032938C41B623A09C02F640664425
:101B8800D6444649B649264A964A064BF25B625CF9
:101B9800D25C425DB25D25618280F24623A8D1B64F
:101BA8006FF02FE723A691B66FF06FD523A491B6F7
:101BB8006FF0EF9823AC81B6EFE03FF07DB623AA33
:101BC80081B6EFE09FEFE34C4083EFE03FF2938B69
:101BD800819E03A50B009386C19D97E5FF0F83A502
:101BE800A5678442EF20E0018353EB0803532B09D8
:101BF80003584B09835F6B0903568B09035FAB09D5
:101C08008357CB091389C19E835DCB0883590B0980
:101C1800AA8A03250900938EC1A9138401B4A68555
:101C280023A05B0144C8239DBE05239E7E04239FF9
:101C38003E0523906E0623910E072392FE072393F9
:101C4800CE062394EE072395FE06EF10907BD24232
:101C58002320A900054EE39BC2A197E0FF0F83A0B4
:101C6800A05F938C41B623AA1C00138C819EEFE0E1
:101C7800DFE4EFE0BFE703250C0097E5FF0F83A53E
:101C8800655B9384C19DEF10D07703AD0400832674
:101C98008B050327CB05938AC19E832B0B05832DC8
:101CA8004B0503590B06AA8803A50A009389C1A905
:101CB800938301B423201C01EA8523ACA30123A646
:101CC800790723A8B90723AAD90623ACE906239ED6
:101CD8002907EF101073724C23A0AA0023AC8C01C3
:101CE800EFE0BFDDE34340BFEFE05FE0938B819E11
:101CF80003A50B009387C19D97E5FF0F83A5455466
:101D080083AA0700EF10F06F8358EB0703532B08E3
:101D1800835F4B0803586B08835E8B081389C19E49
:101D2800835D8B07835CAB078359CB07035D0B0887
:101D38002A8F032509009382C1A9138E01B4D68581
:101D480023A0EB01232E5E01239FB2072390920963
:101D580023913209239212092393A209239462083A
:101D68002395F209239602092397D209EF10706987
:101D780052462320A9008543630A7624631F061C64
:101D8800138C41B60325CC01EF20D0542A86AE86A9
:101D980017850000130585CF9385A1B1EF30500F4B
:101DA800930500005685EF20A042635DA0166245AA
:101DB80097E5FF0F83A5854CEF208050AA8B97E508
:101DC800FF0F83A525495685EF20804FAA855E859C
:101DD800EF208015EF201050AA842E84138E01B4B2
:101DE8000325CE01EF20104F2A87AE872686A286CC
:101DF80017850000130505CCEF309009EFE0FFCB05
:101E0800E34840B9EFE09FCE624597E5FF0F83A511
:101E18002547938D819EEF20A04AAA8A03A50D002D
:101E280097E5FF0F83A54542138AC19DEF10705DAA
:101E380083234B0603268B06032FCB06832C0A002D
:101E4800032D0B071389C19E035B4B07AA82032549
:101E580009009388C1A9938901B4E68523A05D0090
:101E680023A0990323A8780823AAC80823ACE80963
:101E780023AEA8092390680BEF10B0582320A900BF
:101E880085B923A081B8EFE05FC319B6938C41B63A
:101E980023AC8C01B1B5938D41B603A58D01EF201C
:101EA80070432A86AE8617850000130525BE9385E4
:101EB80081B0EF30E07D930500005685EF2040317A
:101EC8006354A008624597E5FF0F83A5E53AEF2024
:101ED800203F2A8C97E5FF0F83A5C5375685EF204D
:101EE800203EAA856285EF202004EF20B03EAA8A12
:101EF8002E84138701B4084FEF20D03D2A87AE8780
:101F08005686A28617850000130545B9EF3040783C
:101F18006FF03F9B014C01446FE07FE0014D814D24
:101F28006FF0EF9B8144014455BD814C014C6FF02B
:101F3800AFCA8144814C09B1014D814D6FF06FAB3F
:101F4800014D014C6FF0AFF8814A01445DB716CEE0
:101F58002689A68D168D6FE03FCBEFE01FB6138A5A
:101F6800819EEFE0BFB803250A0097E5FF0F83A520
:101F7800A52D9384C19DEF10D048032F8B0683268F
:101F8800CB0683AA0400032C4B06832D0B07938BE7
:101F9800C19E035B4B072A8403A50B001389C1A9C3
:101FA800938701B4D68523208A0023A057032328CA
:101FB8008909232AE909232CD908232EB9092310D2
:101FC800690BEF10104423A0AB004DBE17E5FF0FBF
:101FD80003250527938C41B623AEAC00138D819E53
:101FE800EFE0BFADEFE09FB003250D0097E5FF0FD1
:101FF80083A585259389C19DEF10B04003AA0900E8
:1020080003234B06832F8B060328CB06832E0B074F
:10201800035E4B07938AC19EAA8803A50A0093838F
:10202800C1A9938201B4D28523201D0123A04203B4
:1020380023A8630823AAF30923AC030923AED30911
:102048002390C30BEF10F03B97E4FF0F83A4C41F4A
:1020580023A0AA0023A09C0215B6EFE03FA9138C89
:10206800819E03250C0097E5FF0F83A5A51C938C83
:10207800C19DEF10103983AA0C0003230B05032818
:102088008B05835F0B061389C19E832B4B05832425
:10209800CB052A84032509009389C1A9938E01B42D
:1020A800D68523208C0023AC5E0123A6690623A8CD
:1020B800790723AA090723AC9906239EF907EF108D
:1020C80050342320A9006FF06FFF011126CA931422
:1020D800150022CC52C406CE4AC84EC68580B70722
:1020E80080502A842A8A63CAF402B707807F63D79C
:1020F8009700AA85EF10F0302A8439A0634BA022FC
:1021080017E4FF0F03248418F24022856244D24466
:102118004249B249224A05618280B707E03E63D648
:10212800F402B707003163D0F40297E5FF0F83A5E7
:102138002516EF10102D97E5FF0F83A5A50FEF20AB
:102148002009E343A0FC7D5991A0B524B707983F27
:102158002A8463D9F414B707303F63D0F412AA85F0
:10216800EF10302A97E5FF0F83A5C50CEF208037C5
:10217800AA8497E5FF0F83A5E50C2285EF10702848
:10218800AA852685EF10505A2A840149A2852285FE
:10219800EF200013AA85AA89EF20801297E5FF0F88
:1021A80083A5850FAA84EF20A01197E5FF0F83A5CB
:1021B800E50EEF101025A685EF20801097E5FF0F9C
:1021C80083A5050EEF10F023A685EF20600F97E595
:1021D800FF0F83A5250DEF10D022A685EF20400E16
:1021E80097E5FF0F83A5450CEF10B021A685EF20DA
:1021F800200D97E5FF0F83A5650BEF109020CE8586
:10220800EF20000C97E5FF0F83A5850AAA8926858C
:10221800EF20000B97E5FF0F83A5C509EF20802C61
:10222800A685EF20E00997E5FF0F83A5E508EF20D5
:10223800602BA685EF20C00897E5FF0F83A505084A
:10224800EF20402AA685EF20A00797E5FF0F83A57A
:102258002507EF202029A685EF208006AA854E8530
:10226800EF10301AA285EF20A005FD57AA85631448
:10227800F9082285EF20002741B597E5FF0F83A5D0
:1022880065FBEF202026AA8497E5FF0F83A585FA32
:102298002285EF101017AA852685EF10F0482A84AA
:1022A8000549EDB5B7071C4063DDF40297E5FF0F5C
:1022B80083A545FEEF200023AA8497E5FF0F83A599
:1022C80065FD2285EF10D07F97E5FF0F83A585F682
:1022D800EF103013AA852685EF1010452A84094986
:1022E80075B5AA8517E5FF0F032585F4EF10D043D0
:1022F8002A840D4961BD978700009387E7A00A09E2
:10230800978400009384449FCA943E9983250900CA
:10231800EF20401DA285EF20E01CAA858840EF2011
:10232800601C2A84E3520ADEB707008033C4A70082
:10233800E1BB17E4FF0F032424F5F9B3011122CC04
:10234800370400809347F4FF3717493F06CEE98FDB
:10235800130787FD6349F7006244F24093050000C4
:1023680005616F0070333707807F63C9E700AA856E
:10237800EF204017F2406244056182802C00EF0094
:102388004071937735000547B24522456389E700D8
:102398000947638BE70081EFEF001030E1BF054686
:1023A800EF10E024218DF9B7EF00102FE5BF0546A7
:1023B800EF10E023C1B7060505818280011122CC08
:1023C800370400809347F4FF3717493F06CEE98F5B
:1023D800130787FD634AF7006244F24001469305FC
:1023E800000005616F10A0203707807F63C9E700F0
:1023F800AA85EF20200FF2406244056182802C00FC
:10240800EF002069937735000547B2452245638A76
:10241800E7000947638AE70089EF0546EF10201DAA
:10242800D9BFEF007027C1BF0546EF10401C218DB2
:10243800D9B7EF007026E5BF411122C426C206C6EF
:10244800AA84812217E7FF0F0327C7D8FD572A84DC
:102458006308F7022685EF10A02A1DC197E5FF0F34
:1024680083A585E62685EF10B0566351A002EF20BC
:102478008079930720021CC117E4FF0F032484E42A
:10248800B2402285224492444101828097E5FF0FA1
:1024980083A5C5E32685EF10305BE35305FEEF20E7
:1024A8008076930720021CC113040000D1BF41119C
:1024B80022C426C206C62A84212617E7FF0F03274F
:1024C80067D1FD57AA84630DF702A2852285EF2004
:1024D80080341DE5930500002285EF10704F63419D
:1024E800A002930500002285EF10504905E1EF2076
:1024F8008071930720021CC197E4FF0F83A444DD79
:10250800B24022442685924441018280EF20A06F88
:102518002244B2409244930710021CC11775000070
:102528001305855341016F102029411122C426C289
:1025380006C6AA84EF00D00A17E7FF0F032787C94A
:10254800FD572A846309F702A6852685EF20A02C6B
:102558001DE1930500002685EF10104F635D05000F
:10256800EF20606A93071002930500001CC12E85B6
:10257800EF10901B2A84B2402285224492444101E4
:10258800828001119317150022CC06CE26CA4AC8AC
:102598004EC652C456C285833707807F2A84AA85CF
:1025A800636DF71A1359F501639EE7006317092055
:1025B800F24022856244D2444249B249224A924AB0
:1025C800056182803777B14213077721635AA700E4
:1025D80097E5FF0F83A5C5CB2E85EF10704E41A25E
:1025E8006358050037F7CF421307571B6367F71C7B
:1025F8003777B13E130787216378F7123717853F7E
:1026080013071759931429006369F70C9387819C62
:10261800A6978C432285EF10F06C9387019DA697AF
:1026280003AA07008544B3842441AA89B3842441BA
:10263800D2854E85EF10106B2A84A2852285EF1073
:10264800304897E5FF0F83A5A5C92A89EF105047A1
:1026580097E5FF0F83A505C9EF10D068CA85EF106D
:10266800304697E5FF0F83A525C8EF108059CA8526
:10267800EF10104597E5FF0F83A545C7EF1090664B
:10268800CA85EF10F04397E5FF0F83A565C6EF10E5
:102698004057CA85EF10D042AA852285EF10906472
:1026A800AA852A892285EF10B041AA8ACDEC97E540
:1026B800FF0F83A525B94A85EF10D062AA855685F4
:1026C800EF109006A285EF10F061AA8517E5FF0FBD
:1026D800032545B6EF10106159A097E5FF0F83A5B4
:1026E80065BF2285EF10D03D9387019CA6978C4348
:1026F800EF102051EF206015AA84EF20001B97E50A
:10270800FF0F83A565BD2A89EF10903BAA85228516
:10271800EF10505DAA8997E5FF0F83A525BC4A8570
:10272800EF10103A2A8A29B73707803163FBE7028E
:1027380097E5FF0F83A5C5B52285EF10804C97E577
:10274800FF0F83A525AFEF10B028635CA00097E7C3
:10275800FF0F938727AE8C432285EF10804A2A8487
:1027680081BD8144D9BDCA8517E5FF0F032585AD15
:10277800EF105057AA855685EF10007BAA85528521
:10278800EF105056CE85EF10F055AA8517E5FF0FCC
:10279800032545AAEF101055930730F863C6F400D7
:1027A800DE043384A40029B593844406DE0497E547
:1027B800FF0F83A525B426950DB513040000CDBBE6
:1027C800797106D622D426D24AD04ECE52CC56CAD9
:1027D8005AC85EC61317150005E79305000017E5EC
:1027E800FF0F032565B1EF102074B25022549254A4
:1027F8000259F249624AD24A424BB24B4561828041
:10280800AA85AA8763570500EF10D04D93050000ED
:10281800D9BF3707807F6345E500EF10803EF1B7E9
:10282800B70680000147635AD50097E5FF0F83A5D7
:10283800E5ACEF10F028AA871D57B70980009384EC
:10284800F9FFFD8C13D97741B7074B00938707B27F
:10285800A697B3F737013705803F3D8D130919F85F
:102868004A9797E5FF0F83A5E59C13D97741458DD6
:102878003A99EF1030479387F400C119B3F937013B
:102888002A84639F090893050000EF10300F15E9AB
:1028980013050000E30B09F44A85EF20000197E5D2
:1028A800FF0F83A565A3AA84EF1090212A8497E5DA
:1028B800FF0F83A5A5A22685EF109020AA85228563
:1028C800A9BF97E5FF0F83A5659E2285EF10501FCE
:1028D800AA8517E5FF0F03252598EF10B040AA84B5
:1028E800A2852285EF10D01DAA852685EF10501DE0
:1028F800AA8463140900A6852DA24A85EF10F07AF0
:1029080097E5FF0F83A5459DAA89EF10701B2A89BB
:1029180097E5FF0F83A5859C4E85EF10701A05AAD1
:1029280097E5FF0F83A50592EF10A02DAA852285B4
:10293800EF10805FAA8A4A85EF103077D6852A8AF9
:102948005685EF10F017B767CFFF938707C3AA859F
:10295800338BF400AA8BEF10B01697E5FF0F83A511
:10296800259AAA89EF10D01597E5FF0F83A58599B9
:10297800EF102029CE85EF10B01497E5FF0F83A53F
:10298800A598EF100028CE85EF10901397E5FF0F5C
:1029980083A5C597EF10E026DE85EF107012AA8B8D
:1029A80097E5FF0F83A5C5964E85EF10701197E543
:1029B800FF0F83A52596EF10C024CE85EF10501089
:1029C80097E5FF0F83A54595EF10A023CE85EF105F
:1029D800300FAA855E85EF10C022B7C735009387F0
:1029E8008728858FB3E76701AA89635CF00697E5B6
:1029F800FF0F83A565862285EF10900CA285EF1046
:102A0800300CAA85AA844E85EF10A01FD685EF103A
:102A1800300BAA89631B0900AA852685EF10902C24
:102A2800AA852285EF10102CC9B397E5FF0F83A55F
:102A3800A58A5285EF10D00897E5FF0F83A5058A70
:102A48002A895285EF10D007CE85EF10801BAA8502
:102A58002685EF103029A285EF10D028AA854A854F
:102A6800D1B7AA852285EF10F027D685EF1050053B
:102A7800AA84E30209E897E5FF0F83A5E585528557
:102A8800EF1010042A8997E5FF0F83A52585528545
:102A980069B5397126DA3717493F9314150022DCD6
:102AA80006DE4AD84ED652D456D25AD05ECE85804B
:102AB800130787FD2E846348970008C0930700001A
:102AC800DCC1814B99A837D71640130737BE2A892E
:102AD800634C970EC19897E5FF0F83A52584635132
:102AE800A008EF103020B717C93F938707FD2A8940
:102AF8006381F40497E5FF0F83A58582EF10901E8C
:102B0800AA8508C04A85EF10F01D97E5FF0F83A539
:102B18002581EF10301D48C0854BF2506254D254C5
:102B28004259B259225A925A025B5E85F24B216190
:102B3800828097D5FF0F83A5E57EEF10B01A97D551
:102B4800FF0F83A5657EAA84EF10D019AA8508C057
:102B58002685EF10301997D5FF0F83A5E57C55BF63
:102B6800EF10200AB717C93F938707FD2A896386A4
:102B7800F40297D5FF0F83A5A57AEF108008AA85E0
:102B880008C04A85EF10101697D5FF0F83A5457921
:102B9800EF10200748C0FD5B49B797D5FF0F83A505
:102BA8006578EF10000697D5FF0F83A5E577AA840F
:102BB800EF102005AA8508C02685EF10B01297D51A
:102BC800FF0F83A56576E9B737174943130707F859
:102BD80063439716EFF02FFE97D5FF0F83A5057572
:102BE8002A8AEF10E06D97D5FF0F83A5E566EF10F1
:102BF8004001EF109045AA8BEF10304B97D5FF0F8F
:102C080083A5C571AA89EF10A06BAA855285EF101C
:102C1800700DAA8A97D5FF0F83A585704E85EF1092
:102C2800206AFD472A8AAA85568563C377031387D6
:102C3800FBFF93162700177700001307E70D369759
:102C4800184393F704F06385E700EF10B00929A84B
:102C5800EF10500993577501DD8493F7F70FB38789
:102C6800F44021476344F70008C0B9A897D5FF0F7F
:102C780083A5456B4E85EF10A0642A8AAA855685E0
:102C8800EF105006AA852A8B5685EF10B005D2851D
:102C9800EF1050052A8A97D5FF0F83A5E5684E8562
:102CA800EF100062D285EF10F003AA852A8A5A85B0
:102CB800EF105003135775011377F70F998C654779
:102CC8006348970208C0DA8A04405685A685EF1043
:102CD8007001D285EF10100148C0E35009E4B7072E
:102CE8000080BD8C04C0A98F5CC0B30B704135B5A2
:102CF80097D5FF0F83A5C5634E85EF10605CAA8446
:102D0800AA855A85EF10007EAA85AA8A5A85EF10EF
:102D1800607DA685EF10007DAA8497D5FF0F83A557
:102D280065614E85EF10C059A685EF10A07B2A8AF1
:102D3800AA85568519BF3707807F63C8E400AA852E
:102D4800EF10407A48C008C0ADBB13DA7441130ACB
:102D5800AAF793177A019D8C2685EF10102FEF1094
:102D6800D034AA852AC22685EF10C07797D5FF0FE1
:102D780083A5855CEF10C054AA89EF10102DEF10C1
:102D8800D032AA852AC4AA844E85EF10A07597D59B
:102D9800FF0F83A5655AEF10A052930500002AC6BD
:102DA800EF10C03D8D4609E9930500002685EF1018
:102DB800E03CB336A0008506977700009387C7FDEF
:102DC80009475286A28548002924AA8BE35709D4CB
:102DD80018405C40B7060080358F18C0B58F29B7FA
:102DE80041111317150022C406C60583B707807F53
:102DF8002A84636FF700AA85EF10804CAA85228584
:102E0800EF0030602A84B24022852244410182804A
:102E18007DDB2A8763590500AA85EF10A06CAA8577
:102E2800EF108010C5B7E98F93567541B5C3138469
:102E380016F8B70680009387F6FFF98F137714000A
:102E4800D58F11C3860705848607E5460145814568
:102E5800370700013386E50063C6C700B305E600FF
:102E6800918F3A95FD1686070583EDF699C30505FA
:102E780079990585B707003F3E955E042A9461B7A6
:102E8800060785073376B70065DEFD179D8E45B7C3
:102E98008147B7058000FDB7797122D41314150056
:102EA8004AD052CC06D626D24ECE0580B70700327D
:102EB8002A892E8A6356F400EF103019630605102C
:102EC800CA854A85EF10C03F97D5FF0F83A5C5383F
:102ED800AA84EF10E03E97D5FF0F83A56546AA891F
:102EE8002685EF10E03D97D5FF0F83A5A545EF0098
:102EF8005051A685EF10C03C97D5FF0F83A5C54458
:102F0800EF10405EA685EF10A03B97D5FF0F83A575
:102F1800E543EF00104FA685EF10803A97D5FF0FD5
:102F280083A50543EF10005CA685EF10603997D59F
:102F3800FF0F83A52542EF00D04CA685EF1040383F
:102F4800A685EF10E037AA84D2854A85EF1040376E
:102F5800AA852685EF100059B7A7993E93879799B8
:102F6800AA8463C58702AA854E85EF10A057AA8553
:102F780017D5FF0F0325052CEF10C056B250225469
:102F880092540259F249624A45618280B707483F24
:102F980063C78702B70500FFA29517D5FF0F032562
:102FA80065292EC6EF100054B2452A844E85EF10CD
:102FB8006053A685EF100053AA85228575BF97D563
:102FC800FF0F83A5A537D1BF17D5FF0F032585268A
:102FD80075B72571232251193EC6BA8A9777000022
:102FE8009387C70F0A07BA9723263119232E71171B
:102FF800232C8117232A91172328A1172326B117D9
:10300800232E1118232C8118232A911823282119DB
:1030180023244119232061192AC4715783AB07005F
:10302800AE89328CB68C938DF6FF014D6347E6006E
:103038001307D6FFA147334DF70293071D008E07EC
:10304800330ABD413EC2B304FC40338BBB011309B4
:1030580001075284330744416350EB02668B180A18
:10306800B3069B4163C2DB0613192B009C183E99DB
:1030780013040000014A91A01305000063490400ED
:10308800B247131724003E970843EF10100223207D
:10309800A900050411097DBFA24793162A008325BC
:1030A8000900BE9688423AC8050AEF106021AA8531
:1030B8002285EF00103542472A847119E3DE4DFD61
:1030C80000C3050B110769BF13972B001C10BA9793
:1030D8003ECC93172D003ECA5E89931729003EC83F
:1030E800131729009C12BA9703A407FB130B0102BC
:1030F8005A8D4A8A63414015A6852285EF00606C87
:1031080097D7FF0F938787258C432A84EF10401B9E
:10311800FD2B97D7FF0F9387A7248C43EF10401AF6
:10312800AA852285EF10003C2A84EF1000722A8AB3
:10313800EF10A077AA852285EF10C03A2A8D635533
:1031480090141307F9FF0A079C123E97032407EC13
:103158002146B30596403356B440329A3316B6002A
:10316800118C232087EC1D47058F3354E440635EA0
:103178008004050A814501461305F00F1308001065
:1031880063CA25136358900005476388E414094708
:103198006381E4160947631AE40297D7FF0F938700
:1031A80067098843EA8532CEEF10C03372462A8D0C
:1031B80009CE97D7FF0F9387E7078843A685112580
:1031C800AA856A85EF1000322A8D930500006A856A
:1031D800EF00D07A6310051C130BF9FFDA8701475B
:1031E80063D37713630F071693172B001810BA973A
:1031F8009C43E114638E0718A68517D5FF0F032596
:103208006503C123AA845A8917DCFF0F032CCC1449
:10321800635409205A8963400926931C29001C0A13
:10322800977D0000938DCDE8BE9C130C0000014DE6
:10323800B3042B4135A497D7FF0F9387E7118C432D
:1032480022857D1AEF10C007EF102060EF10E065AF
:1032580097D7FF0F9387470E8C432ACE110DEF1097
:103268002006AA852285EF10E027EF10005E1C0AD1
:1032780013162A0072473E960C42232EADFE3A855D
:10328800EF0030182A84BDB591E81307F9FF0A0743
:103298009C123E97032407EC2184D1BD97D7FF0FDA
:1032A800938787FB8C430144EF009072E34F05F04E
:1032B8000944C1B503270B0019EA11C73307E840D1
:1032C8002320EB0005478505110B3A8655BD3307CA
:1032D800E5402320EB003287FDB71307F9FF0A0703
:1032E8009C123E97832607EC93F6F6072320D7EC2B
:1032F80055B51307F9FF0A079C123E97832607EC7A
:1033080093F6F603E5B7939627001010B296944209
:10331800FD17558FF1B5850771171443EDDE330A94
:1033280099010A0A9818130D19003A9A3E99E3462A
:10333800A9DBD247324713142D00A297BA978843C6
:10334800130B0000EF1060562320AA005287814714
:1033580063DCFD001C0A3E9423206401050D110A5C
:10336800F9B7624785474DBF939627003ECEA247DF
:103378000C433AC8BE968842EF009074AA855A85D5
:10338800EF003008F24742472A8B85077117C9B703
:103398007D1B99BD92476A85B38587411D2117DD3D
:1033A800FF0F032D6DF9EA852A8CEF007062634ADE
:1033B800050497D5FF0F83A525FA6285EF005070A5
:1033C800EF10A048EF10604E42479C12EA85338BFD
:1033D800E700AA8CEF00D06EAA856285EF108010F6
:1033E800EF10A0462320ABEC130B19009C12131905
:1033F8002B0066853E99EF104045A1042320A9ECD7
:10340800E5BB42479C126285338BE700EF10E0432F
:103418002320ABEC4A8BCDB393172900180AB30CC1
:10342800F7001810BA9788437D19EF100048A68551
:10343800EF00106923A0AC00E2852685EF005068F4
:10344800AA84F9B383A50C0003A50D00050D910D01
:10345800EF001067AA856285EF00A07A2A8C910C8C
:1034680063C4AB01E3D0A4FF8A049C12BE9423A0DA
:1034780084F77D194DB3894763C657056347500FD5
:103488001305000063890A088320C11903248119E0
:1034980083244119032901198329C118832A411852
:1034A800032B0118832BC117032C8117832C411779
:1034B800032D0117832DC11613757A00032A81186D
:1034C8001D6182808D47E391FAFC93142B009C01C7
:1034D800BE942689DA8B71196342700BDA8A854C9F
:1034E800F11463C15C0D13050000854463CF640DBE
:1034F8008E461E476313040E23A0D90023A2E900B9
:1035080023A4A90051B793172B009801BA978C43AD
:103518007D1BEF00006FE3580BFE01C4B707008066
:103528003D8D23A0A9008DB7939724009801BA97E1
:103538008C43FD14EF00E06CE3D804FEAA8701C4B5
:10354800B7070080A98FAA850E4523A0F90084013A
:10355800EF00507905499104635D2B0101C4B70759
:1035680000803D8D23A2A90005B7DA841305000069
:10357800E1B78C400509EF00C068F1BF832C090052
:10358800032C4900FD1B6685E285A52DAA85AA8A1C
:103598006685EF003075E285AD252322A90023203A
:1035A800590115BF03AC040083AB4400FD1A6285C2
:1035B800DE85812DAA852A896285EF00B072DE85B5
:1035C8008925C8C023A0240121BF93172B00980187
:1035D800BA978C437D1B352511BFB7070080BD8E78
:1035E8003D8F23A0D90023A2E9003D8D11BF011111
:1035F8009317150022CC4EC656C206CE26CA4AC814
:1036080052C48583370700322A84AE89B28A63D5CB
:10361800E700EF10802349C5A2852285EF00504AB4
:10362800AA84AA852285EF00B04997D5FF0F83A504
:1036380065D32A892685EF00B04897D5FF0F83A563
:10364800A5D2EF00306AA685EF00904797D5FF0F07
:1036580083A5C5D17D23A685EF00904697D5FF0F9A
:1036680083A505D1EF001068A685EF00704597D5B2
:10367800FF0F83A525D071232A8A639D0A02AA8594
:103688002685EF00F04397D5FF0F83A565C6EF00A9
:103698007065CA85EF00D042AA8522859D232A84B9
:1036A800F24022856244D2444249B249224A924AAF
:1036B8000561828097D5FF0F83A505BA4E85EF0077
:1036C8003040AA8AD2854A85EF00903FAA85568560
:1036D800EF005061A685EF00B03ECE85EF00906008
:1036E800AA8497D5FF0F83A5A5C04A85EF00503D52
:1036F800AA8526853923AA852285EF00B05E45B7BD
:103708000605B707807F05813325F5008280011102
:1037180026CA931415004AC813D91400E18006CEAE
:1037280022CC4EC6938414F8D947AA8563C6970657
:103738002A8463D5040297D5FF0F83A565B5D121E7
:1037480093050000EF00D0286358A00063540406D6
:1037580063040900370480BFA285A9A0B7098000C7
:103768001389F9FF33599940B377A90085CF97D5C5
:10377800FF0F83A5E5B1712193050000EF005025E7
:10378800E35CA0FC63550400B3D499402694134924
:10379800F9FF33748900C9B7B707807F6364F900FC
:1037A8008D21AA85F2406244D2444249B2492E850D
:1037B8000561828001444DB717D5FF0F0325C5BBAE
:1037C800828013161500AA8761CE4111135716007F
:1037D80006C622C43706807F6366C700AA851521FE
:1037E800AA87BDA0B376C5002E84A1EA97D5FF0F9E
:1037F80083A5C5B0EF00D02C5177130707CBAA8754
:10380800634FE406135775411377F70F1D17229777
:103818009306E00F63D5E60217D5FF0F032545A7EA
:1038280063D6070017D5FF0F032585B597D5FF0F7A
:1038380083A505A6EF00D02865B75D83C9BF635E81
:10384800E000B7078080FD17E98F13157701C98F4E
:10385800B24022443E8541018280A9566356D70270
:10386800316713070735E34987FA17D5FF0F032593
:10387800E5B063D6070017D5FF0F0325A5B097D588
:10388800FF0F83A5A5AF7DB7B70780806507FD1734
:103898005E077D8D97D5FF0F83A505AF598D59BF5D
:1038A8008280AA88AE87328836854683639606204A
:1038B800977600009386C68A63FFC50A41676375D9
:1038C800E60A1307F00F3337C7000E073355E60033
:1038D800AA9683C60600130500023697B306E5408C
:1038E800630BE500B395D70033D7E8003318D6004B
:1038F800D98D3393D80093580801B3D615031316FE
:10390800080141829357030133F715033685B30540
:10391800D6024207D98F63FCB700C2971385F6FF1A
:1039280063E7070163F5B7001385E6FFC2978D8F3C
:1039380033F71703420313530301B3D7170342079F
:1039480033636700B306F6023E86637BD300429377
:103958001386F7FF636603016374D3001386E7FFDA
:103968004205518D81455DA8370500014147E36F48
:10397800A6F46147A1BF01E605473358C70241676E
:10398800637FE8081307F00F637307012145335776
:10399800A800BA9603C70600130600022A97B306C2
:1039A800E6406315E608B387074185459358080143
:1039B80013160801418213570301B3F61703B3D74F
:1039C8001703C206558F330EF6023E85637CC70186
:1039D80042971385F7FF636707016375C70113856E
:1039E800E7FF42973307C741B377170342031353DF
:1039F800030133571703C20733E36700B306E60230
:103A08003A86637BD30042931306F7FF636603018C
:103A18006374D3001306E7FF4205518D8280370790
:103A280000014145E365E8F6614595B73318D800CC
:103A380033D5E7003393D800B397D70033D7E800DE
:103A4800935808013366F700337715039317080175
:103A5800C183935506013355150342074D8FB3862D
:103A6800A702AA85637CD70042979305F5FF636791
:103A780007016375D7009305E5FF4297B306D74062
:103A880033F7160342064182B3D61603420733853D
:103A9800D702B367C700368763FCA700C2971387AE
:103AA800F6FF63E7070163F5A7001387E6FFC297F0
:103AB800C205898FD98DDDBD63E2D514416763FFE7
:103AC800E6021307F00FB335D7008E0533D5B600DD
:103AD800176700001307C7682A97034707001305ED
:103AE80000022E97B305E5406311E5020545E3E7BB
:103AF800F6F233B5C800134515000DB737070001B6
:103B0800C145E3E5E6FCE145D1B73358E600B39695
:103B1800B6003368D80033D3E700935E0801B37664
:103B2800D303B397B70033D7E800331EB600336624
:103B3800F70093170801C183135706013353D303C2
:103B4800C206558F338F67021A85637CE701429757
:103B58001305F3FF636707016375E7011305E3FFC7
:103B680042973307E741B376D7033357D703C206E3
:103B78003383E70293170601C183D58F3A8663FC26
:103B88006700C2971306F7FF63E7070163F567004D
:103B98001306E7FFC2974205C16E518D9386FEFF5B
:103BA80013560E0113580501B38767403373D500C8
:103BB800B376DE00330ED302B306D80213570E01D4
:103BC8003303C30236931A973308C8026373D700C6
:103BD800769893560701369863E00703E39407D96C
:103BE800C167FD177D8F4207337EFE00B398B8008A
:103BF80072978145E3F4E8E27D15ADB3814501454F
:103C080031BD3707800041117D17B377A70022C463
:103C180026C2135475019354F50113D575016D8FA0
:103C28001374F40F1375F50F06C64AC0FD818E078D
:103C38000E07B306A4406396B412635CD00605E190
:103C4800630F07101386F6FF01E6BA97054481A0B3
:103C58009305F00F639DB6001304F00FC1A8130677
:103C6800F00F6305C40C37060004518F3686ED4506
:103C7800854663CDC50093060002918EB355C700F3
:103C88003317D7003337E000B3E6E500B6973707B8
:103C980000047D8F41CF05041307F00F630AE42267
:103CA8003707007E93F617007D178583F98FD58F28
:103CB800B5A8B1CAB306854001EC63850720138611
:103CC800F6FF41D69305F00F639CB600BA8769B733
:103CD8001306F00FE30CC5FE37060004D18F3686B5
:103CE800ED45854663CDC50093060002918EB3D598
:103CF800C700B397D700B337F000B3E6F500B38732
:103D0800E6002A8469B79306140013F6E60F31E239
:103D18000DE8638B071A19CBBA97370700047D8F14
:103D280011C7370700FC7D17F98F054413F7770093
:103D38006301071A13F7F7009146630CD718910728
:103D480049AAC9D711DB8144B70700021304F00F51
:103D580049A21306F00F638BC616BA97858336847B
:103D6800F1B76350D00629E57DDB1386F6FF01E63F
:103D7800998F05442DA09305F00FE38FB6ECED4520
:103D8800854663CDC50093060002918EB355C700E2
:103D98003317D7003337E000B3E6E500958F3709CE
:103DA800000433F7270159D37D1933F92701F1A00E
:103DB8001306F00FE30CC4F637060004518F36865D
:103DC8007DBFADC2B306854015E0638A071413862C
:103DD800F6FF09E6B307F740AE8461BF1308F00F9A
:103DE800639E0601BA871304F00FB9A01306F00FFB
:103DF800E30AC5FE37060004D18F36866D4885462E
:103E0800634DC80093060002918E33D8C700B3975C
:103E1800D700B337F000B366F800B307D7402A8459
:103E2800AE84B5BF9306140093F6E60F8DEE0DE44D
:103E380091E7814459CFBA87AE84CDBDE30807EE38
:103E4800B386E74037060004758EB307F7406DF672
:103E58008147A5C2B687D9BDE39607EEE30507EE0D
:103E6800BA87AE84D5BB3389E740B7060004B3767A
:103E7800D90085CE3309F740AE844A85EF00305427
:103E88006D153319A90063488502018D05051304D2
:103E98000002B357A9003305A4403319A9003339E8
:103EA8002001B3E72701014451B5E31809FC814714
:103EB8000144814439A8B70700FCFD17098CB37782
:103EC800F900ADB5BA8761BDBA878DB51304F00F97
:103ED8008147370700047D8F11CB05041307F00FC6
:103EE8006302E404370700FC7D17F98F1307F00F0E
:103EF8008D836316E40081C7B70740008144370506
:103F0800807F5E04A607698CA583B240C18F2244D6
:103F18001395F401024992445D8D41018280BA876C
:103F2800368419BF8147D9B7011126CA9354750140
:103F38004AC84EC652C49319950006CE22CC56C222
:103F480093F4F40F2E8A93D999001359F501B5C447
:103F58009307F00F6380F4088E09B7070004B3E9EC
:103F6800F900938414F8814A13557A0113149A00BE
:103F78001375F50F2580135AFA013DC59307F00F05
:103F88006301F5080E04B70700045D8C130515F8E6
:103F9800814793962A00DD8EFD163947334649013D
:103FA8003385A4406368D706976500009385C513D9
:103FB8008A06AE9698422E970287638409024E8538
:103FC800EF00F03F9307B5FF9304A0F8B399F90009
:103FD800898C51BF9304F00F894AE38709F88D4A09
:103FE80061B78144854A49B71DC02285EF00303D3D
:103FF8009307B5FF3314F4009307A0F83385A7405F
:1040080041BF1305F00F894749D48D4759B701457A
:10401800854741B71318540063FE890C7D15814606
:104028001354080133D38902C167FD17B377F80029
:10403800C18233F789029A85B38867024207558F90
:10404800637C170142979305F3FF63670701637564
:1040580017019305E3FF429733071741B3588702C7
:1040680033778702B386170393170701468763FCE4
:10407800D700C2971387F8FF63E7070163F5D700F6
:104088001387E8FFC29713940501958F598CB337AE
:10409800F0005D8C1307F507635AE0089377740006
:1040A80099C79377F40091466383D7001104B70743
:1040B8000008E18F99C7B70700F8FD177D8C130733
:1040C80005089307E00F0D8063C7E704931777018E
:1040D80026043707807FF98F25805D8C1315F6013C
:1040E800F240418D6244D2444249B249224A924A3E
:1040F800056182809396F90193D9190015B74A860C
:104108004E84D6870D476382E70605476385E70631
:104118000947E391E7F801441307F00F45BF5286BA
:10412800D5B73704400001468D47E9BF8547998FC9
:104138006D476342F7041305E509B357F4003314D8
:10414800A400333480005D8C9377740099C793770B
:10415800F40011476383E7001104B7070004E18FF7
:104168000D8099CB0144054795B7370440001307E4
:10417800F00F0146A1BF0144014789BF935675015D
:10418800B7078000FD1713D6750193F6F60F93084D
:10419800F00F33F8A7001357F501ED8F1376F60FDC
:1041A800FD81054563981601631508006313D60061
:1041B80081CB8280E30F16FFE39DC6FEE31BF8FE6A
:1041C8000145E308B7FE0545EDF633350001828069
:1041D80093567501B7078000FD1713D7750193F63D
:1041E800F60F1308F00F33F6A7001377F70FED8FCC
:1041F8007D81FD816395060139C2795582806313FB
:104208000701E5FF9DEE11E38DCB01CA6314B500EC
:104218006359D7000DC17D5582807D5591C52E8586
:10422800828063D4E60065D98280E3E5C7FEE36C4B
:10423800F6FE014582800545828065DEE1BFE30226
:10424800D7FC69F7E1DBD9B793567501B70780004A
:10425800FD1713D7750193F6F60F1308F00F33F611
:10426800A7001377F70FED8F7D81FD816395060118
:1042780039C20945828063130701E5FF9DEE11E30A
:104288008DCB01CA6314B5006359D7000DC17D55A4
:1042980082807D5591C52E85828063D4E60065D9DC
:1042A8008280E3E5C7FEE36CF6FE014582800545A2
:1042B800828065DEE1BFE302D7FC69F7E1DBD9B7AD
:1042C80001114AC81359750126CA4EC652C493141F
:1042D800950006CE22CC56C21379F90F2E8AA580F6
:1042E8009359F501630709069307F00F6300F9086E
:1042F8008E04B7070004DD8C130919F8814A135599
:104308007A0113149A001375F50F2580135AFA01D0
:104318003DC59307F00F6301F5080E04B7070004C5
:104328005D8C130515F8814713972A005D8F4A9510
:104338007D17B945B3C649011306150063E7E506BD
:1043480097650000938505DE0A072E9718432E9778
:1043580002879DC02685EF0090069307B5FF1309D5
:10436800A0F8B394F4003309A94049BF1309F00F2A
:10437800894AD1D48D4A61B70149854A49B71DC0D8
:104388002285EF00D0039307B5FF3314F400930799
:10439800A0F83385A74041BF1305F00F894749D4DA
:1043A8008D4759B70145854741B7C1671383F7FF63
:1043B80013D7040193550401B3F464003374640003
:1043C800B3089402330887023304B702B385950211
:1043D80093D40801C295AE9463F304013E94B3F7F5
:1043E8006400C207B3F86800C69713976700C180D6
:1043F8003337E000E9832694D98F1A045D8CB70718
:104408000008E18FB5C79357140005885D8C130722
:10441800F6076351E0069377740099C79377F40021
:1044280091456383B7001104B7070008E18F99C766
:10443800B70700F8FD177D8C130706089307E00FF0
:104448000D8063DDE70601441307F00F85A8CE86CB
:104458002684D6870947E388E7FE0D47638BE70480
:104468000547E396E7FA0144014789A8D286DDB7F4
:104478002A8671BF8547998F6D47E346F7FE130675
:10448800E609B357F4003314C400333480005D8C5C
:104498009377740099C79377F40011476383E70013
:1044A8001104B7070004E18F0D80DDDF01440547E3
:1044B80031A0370440001307F00F814693177701A6
:1044C80026043707807FF98F25805D8C1395F601C8
:1044D800F240418D6244D2444249B249224A924A4A
:1044E800056182803707800041117D1713D6750159
:1044F800B377A70022C46D8F26C21354750106C670
:104508004AC01376F60F9306F00F1374F40F935402
:10451800F5018E07FD810E076313D60019E393C5D5
:104528001500B306C44063969512635CD00605E295
:10453800630F07101386F6FF01E6BA97054481A0BA
:104548009305F00F639DB6001304F00FC1A813067E
:10455800F00F6305C40C37060004518F3686ED450D
:10456800854663CDC50093060002918EB355C700FA
:104578003317D7003337E000B3E6E500B6973707BF
:1045880000047D8F41CF05041307F00F6309E4226F
:104598003707007E93F617007D178583F98FD58F2F
:1045A800B5A8B1CAB306864001EC63840720938599
:1045B800F6FFC1D51305F00F639CA600BA8769B74B
:1045C8009305F00FE30CB6FEB7050004CD8FB68552
:1045D8006D458546634DB500930600028D8E33D533
:1045E800B700B397D700B337F000B366F500B387C9
:1045F800E600328469B79306140013F6E60F31E239
:104608000DE8638A071A19CBBA97370700047D8F1C
:1046180011C7370700FC7D17F98F054413F777009A
:104628006300071A13F7F7009146630BD718910731
:1046380041AAC9D711DB8144B70700021304F00F60
:1046480041A21306F00F638AC616BA97858336848B
:10465800F1B76350D00629E67DDB1386F6FF01E645
:10466800998F05442DA09305F00FE38FB6ECED4527
:10467800854663CDC50093060002918EB355C700E9
:104688003317D7003337E000B3E6E500958F3709D5
:10469800000433F7270159D37D1933F92701F1A015
:1046A8001306F00FE30CC4F637060004518F368664
:1046B8007DBFADC2B306864015E063890714138534
:1046C800F6FF09E5B307F740AE8461BF1308F00FA2
:1046D800639E0601BA871304F00FB9A01305F00F03
:1046E800E30AA6FE37050004C98F36856D4885465E
:1046F800634DA80093060002898E33D8A700B397AC
:10470800D700B337F000B366F800B307D740328458
:10471800AE84B5BF9306140093F6E60F8DEE0DE454
:1047280091E7814451CFBA87AE84CDBDE30807EE47
:10473800B386E74037060004758EB307F7406DF679
:104748008147B9CEB687D9BDE39607EEE30507EEF4
:10475800BA87AE84D5BB3389E740B7060004B37681
:10476800D9009DCA3309F740AE844A8589296D1559
:104778003319A90063488502018D05051304000259
:10478800B357A9003305A4403319A90033392001D0
:10479800B3E72701014459B5E31909FC81470144EE
:1047A800814439A8B70700FCFD17098CB377F900D5
:1047B800B5B5BA8769BDBA8795B51304F00F8147B7
:1047C800370700047D8F11CB05041307F00F630230
:1047D800E404370700FC7D17F98F1307F00F8D836A
:1047E8006316E40081C7B707400081443705807F1E
:1047F8005E04A607698CA583B240C18F2244139535
:10480800F401024992445D8D41018280BA87368461
:1048180021BF8147D9B7B7078000FD1733F7A70035
:104828005D81ED8F1375F50FDD819306F00F93F51C
:10483800F50F6314D500054501EB1307F00F01458B
:104848006394E5003335F000828037068000135703
:1048580075019307F6FF1377F70F9305E007E98FC4
:104868009356F50163D1E5049305D00963D8E500B3
:10487800370500801345F5FF3695828033E5C7007C
:104888009307500963DAE7001307A7F63315E50025
:1048980081CE3305A0408280930760093387E740C3
:1048A8003355E500F5B701458280411106C622C49B
:1048B80026C255C59357F54133C4A7001D8C9354A0
:1048C800F5012285ED2C9307E0092A873385A74057
:1048D8009307600963C4A702A14763D5E70061177E
:1048E8003314E40026045E052580498C1395F401F1
:1048F800B240418D2244924441018280930790093D
:1049080063DDA7009547998F9306B701B357F40065
:104918003314D400333480005D8C954763D6E700A8
:104928009307B7FF3314F400B70600FCFD1693771E
:104938007400E18E91C73D8891476303F4009106A6
:10494800B7070004F58F89CBB70700FCFD17FD8E6C
:104958009307F0093385E74013D4360061B78144E3
:10496800014449B7411122C406C62A84814719CD9A
:10497800B9249307E009898F130760096341F70297
:1049880021476355A70061153314A4002604258028
:1049980013957701B240418D22444101828013076B
:1049A8009009635DF7001307B50195463317E400D6
:1049B800898E3337E0003354D400598C1547635639
:1049C800A7001307B5FF3314E400370700FC7D1771
:1049D80093767400618F91C63D8891466303D40035
:1049E8001107B7060004F98E81CAB70700FCFD1746
:1049F8007D8F9307F009898F1354370041BF011148
:104A080006CE22CC26CA4AC84EC652C4B367B500E1
:104A1800DDCF2A84AE89A9C12E855522AA8413091F
:104A2800E00B330999409307600963CB2703930789
:104A3800800263D69700938484FD3314940026047F
:104A4800131579012580F240418D6244D2444249D0
:104A5800B249224A056182809D2293040502C1B7AA
:104A68009307900963D227031386B4012285CE8564
:104A780015224D8D13065002333AA000058E22856B
:104A8800CE85E5203364AA009307500263D69700C9
:104A98009387B4FD3314F400370500FC7D15937734
:104AA8007400618D91C73D8891476303F400110537
:104AB800B7070004E98F89CBB70700FCFD17130976
:104AC800F00B7D8D33099940135435008DBF014497
:104AD8000149B5B7135775011377F70F41119307BC
:104AE800170022C426C21314950006C693F7E70FD1
:104AF80025809354F5018DC7935734001307073861
:104B08007604B2075207B1831395F401D98FB240E6
:104B180033E7A700228522449244BA854101828066
:104B280015EB814779DC22855928A94763CEA70070
:104B3800AD47898F13075501B357F4003314E400C8
:104B480013079038098F75BF930755FFB317F40003
:104B58000144FDB7814719C493573400370708004B
:104B68007604D98F1307F07F69BF01CE930700023F
:104B7800918F6349F000130506FE014733D5A50060
:104B8800BA85828033D7C5003355C500B395F50083
:104B98004D8DFDB701CE93070002918F6349F00058
:104BA800930506FE0147B315B5003A858280331791
:104BB800C500B395C5003355F500C98DFDB7C1676C
:104BC8006376F5029307F00FB3B7A7008E071307B4
:104BD80000021D8F3355F5009757000093874758FB
:104BE8003E95034505003305A7408280370700013D
:104BF800C147E36EE5FCE147D9BFAA858146014676
:104C080001456F00706403A5C1808280411122C4F0
:104C180026C2176400001304A4AF976400009384AD
:104C280024AF058C06C6098411E4B240224492449C
:104C3800410182807D1493172400A6979C43829794
:104C4800E5B7411122C426C217640000130444AC1E
:104C5800976400009384C4AB818C4AC006C68984DB
:104C680001496315990217640000130464AA976444
:104C780000009384E4A9818C89840149631D99000B
:104C8800B240224492440249410182801C400509F5
:104C980011048297F9B71C40050911048297F9BFDE
:104CA800797122D44AD052CC56CA5AC806D626D2CE
:104CB8004ECE3A8B2E8A32843689C28A014763588F
:104CC8000600370700803344C7001307D00223804B
:104CD800E70093F4F8FD930760048D466388F400B9
:104CE8009307500489466393F4000509D68793080F
:104CF800C100130881004A87D2852286EF00D06E52
:104D080093077004AA896396F400137B1B00630A57
:104D18000B0493076004338B29016397F40203C7DC
:104D2800090093070003631EF70001468146528578
:104D3800A285EF30504E11C585463389264123A000
:104D48002A0183A70A003E9B014681465285A28517
:104D5800EF30704C11E15AC613070003B24763E203
:104D68006703B2474257B2502254B38737411CC336
:104D780092540259624AD24A424B4E85F2494561E1
:104D880082809386170036C62380E700C1BF2300C0
:104D9800C500930725001307B00263D60500B305C5
:104DA800B0401307D002A300E50025476352B706B9
:104DB80041111307F1003A88A9481303300633E676
:104DC8001503BA867D1713060603A38FC6FE2E8623
:104DD800B3C51503E345C3FE9388E6FF9385050332
:104DE800A30FB7FE3E864687636D070101476365DB
:104DF800180113071101158FBA973385A740410190
:104E080082808345070005070506A30FB6FEE9BFA4
:104E1800930700032301F5009385050393074500D5
:104E2800A301B5003385A7408280597186D6A2D4E4
:104E3800A6D22E84CAD0CECED2CCD6CA3A8ADAC866
:104E4800DEC6E2C43289B689E6C2EAC06EDEAA844A
:104E5800EF10D05A032C05006285EF007020032B59
:104E6800040002D4834A840113770B1083270A00B5
:104E7800AA8B75C3138747002320EA009C430808C0
:104E880098433AC8D8433ACA98473ACCDC473ECE0A
:104E9800EF40100F28C46CC4832CC40497B7FF0FCD
:104EA8009387C733832D840403A8070083A847008A
:104EB800139A1C00135A1A004286C6866E85D2853C
:104EC800EF40A07645E597B7FF0F9387273103A8F2
:104ED800070083A847006E854286C686D285EF30D4
:104EE80090446355A008014681466E85E685EF30FB
:104EF8009043635605009307D002A301F404930777
:104F08007004175A0000130AAA3563F65701175A96
:104F18000000130A2A35137BBBFF8D472320640149
:104F28001CC8014B4E87CA867010A2852685CD26DF
:104F3800FD5C631595177D55B65026549654065951
:104F4800F649664AD64A464BB64B264C964C064D11
:104F5800F25D656182809D07E19B138787002320AE
:104F6800EA009843DC4338C47CC43DB76E86E686C5
:104F78006E85E685EF40606B05C563D60C00930728
:104F8800D002A301F40493077004175A0000130A0F
:104F9800AA2DE3F257F9175A0000130A2A2DA5BFC4
:104FA8005C407D5713FDFA0D6395E70899475CC08F
:104FB800544013670B403C103EC0EE859307310206
:104FC80018C002C2D6881308410266862685EFF00B
:104FD8003FCD9307700492552A8A631BFD00F5574D
:104FE80063C5F5005C4063D8B708F91A93FAFA0F5D
:104FF8009307500663E65705FD1556861305040505
:105008002ED2EFF0DFD8225785462A8BB307A700A8
:105018001CC863C5E6001840058B19C385071CC862
:1050280083473102E38007F09307D002A301F40419
:10503800D5BD13077004E31DEDF6BDFB854785BF9D
:1050480093076006639BFA025C40635BB0000CC880
:1050580081E71840058B09CF8507AE971CC809A8BA
:1050680089E718408546058B19C39386270014C81D
:105078002CCC014B75B7930A7006A25763C9F5008B
:105088001C400CC8858BEDD793871500C1BF054719
:105098006344B00009470D8FBA97C9B71C4013F78E
:1050A800074015E314485286CA8526858299E30489
:1050B80095E91C40898B63980724B2574844E35DFF
:1050C800F5E63E8595BD13075006637D57192844BC
:1050D8006C4401468146EF30101439E9854617566D
:1050E80000001306E618CA8526858299E30595E52A
:1050F8001257A2576345F7001C40858BDDDBDE861F
:105108006286CA8526858299FD57E306F5E2014A3B
:10511800930AA4017D5BA257FD17E35CFAF8854664
:105128005686CA8526858299E30765E1050AE5B7AB
:1051380092576346F0068546175600001306461335
:10514800CA8526858299E30895DF92572257D98F19
:1051580081E71C40858BB1DFDE866286CA8526859D
:105168008299FD57E309F5DC814A130BA401FD5B25
:105178009257B307F04063CBFA00A2565286CA850D
:1051880026858299FD57E316F5F275B385465A864A
:10519800CA8526858299E30075DB850AD1BF3C4C18
:1051A800A25A63D35701BE8A63495007014B130DB6
:1051B800A401FD5D832C8405D68763D30A0081474B
:1051C800B387FC406344FB061257A2576349F706AE
:1051D8001C40858BADE7A25A1257B3879A41B38A10
:1051E800EA4063D35701BE8A63445007014A130B50
:1051F800A401FD5B1257A257998F568763D30A0003
:105208000147998FE357FAEA85465A86CA85268563
:105218008299E30275D3050AF1BFD6865286CA85FC
:1052280026858299FD57E313F5F831B385466A86DA
:10523800CA8526858299E300B5D1050BA5BFDE8610
:105248006286CA8526858299FD57E316F5F8E5B189
:10525800D68633069A01CA8526858299FD57E317B3
:10526800F5F8D1B9A25605476344D700858BB5C771
:1052780085465286CA8526858299FD5AE30D55CB07
:10528800DE866286CA8526858299E30655CB284440
:105298006C4401468146EF3000781DC9A2561306BA
:1052A8001A00CA85FD1626858299E30655C9DA864D
:1052B80013060405E9B585465686CA85268582996A
:1052C800E30B75C7050AA257FD17E346FAFEC5B7F3
:1052D800014A930AA401FD5BFDB785465286CA853B
:1052E80026858299E31595FDB9B185465686CA8506
:1052F80026858299E30165C5050A5C443257998F72
:10530800E345FAFE5DBB014A930A94017D5BF5B75C
:10531800797152CC9C493A8A984522D426D24ECEED
:1053280056CA06D64AD05AC85EC6AA892E84B284FE
:10533800B68A63D3E700BA879CC00347340419C30D
:1053480085079CC01C4093F7070281C79C408907CA
:105358009CC00329040013796900631A0900130B20
:105368009401FD5B5C449840998F634CF904834732
:105378003404B336F0001C4093F70702A5EB13067C
:105388003404D6854E85029AFD576303F5041C4004
:1053980011469840998B544481446397C700B3845D
:1053A800E64063D3040081441C4418486354F70062
:1053B800998FBE94014969047D5B63982405014572
:1053C80009A885465A86D6854E85029A631E7501B8
:1053D8007D55B250225492540259F249624AD24A37
:1053E800424BB24B456182800509ADBF3307D400FB
:1053F80013060003A301C704034754049387160048
:10540800A2978906A381E7049DBF85462286D68593
:105418004E85029AE30E65FB050945B7797122D4DA
:1054280026D24AD04ECE06D652CC56CA5AC803C83F
:10543800850193078007AA842E843289B68963EE92
:105448000701930720069386350463ED0701630679
:10545800081C93078005630BF812930A24042301A0
:10546800040515A89307D8F993F7F70F5546E3668F
:10547800F6FE17560000130666E28A07B2979C43A9
:10548800B29782871C43938A2504938647009C43DE
:1054980014C32381F50485476DA29C41084313F684
:1054A8000708930545000DC21C410CC363D80700CB
:1054B8001307D002B307F040A301E4041756000015
:1054C800130646DB2948A1A013F607041C410CC3A8
:1054D80071DEC207C187D9BF90411C431375060806
:1054E8009385470001C50CC39C4339A01376060475
:1054F8000CC37DDA83D707001307F00617560000A0
:10550800130646D76305E80E2948A301040458404A
:1055180018C4634507000C40ED990CC099E3B68A9E
:1055280019CFB68A33F70703FD1A329703470700E6
:105538002380EA003E87B3D70703E37507FFA14737
:10554800631EF8001C40858B91CB58401C4863C7EC
:10555800E70093070003A38FFAFEFD1AB3865641AE
:1055680014C84E87CA867000A2852685EFF05FDAD8
:105578007D5A631C450D7D55B250225492540259F0
:10558800F249624AD24A424B45618280A3820505AC
:1055980017560000130606CE0C40084313F80508FA
:1055A8001C411105630D080208C313F7150001C754
:1055B80093E505020CC04148A9FB18401377F7FD95
:1055C80018C0A1B79C4193E707029CC193078007C5
:1055D800A302F40417560000130606CB75BF13F890
:1055E800050408C3E30308FCC207C1837DBF214843
:1055F80029BF90411C43CC491378060813854700FE
:105608006306080008C39C438CC301A808C313762B
:1056180006049C4375DA2390B70023280400B68A51
:1056280089B71C43D04181459386470014C383AA98
:1056380007005685EF10407101C53305554148C034
:105648005C401CC8A301040429BF14485686CA85B7
:1056580026858299E30145F31C40898B8DE7B24783
:105668004844E35BF5F03E8501BF85465686CA850A
:1056780026858299E30165F1050A5C443247998FD2
:10568800E345FAFEE9BF014A930A94017D5BF5B749
:105698005D7122D406D62A842EDA32DC36DEBAC010
:1056A800BEC2C2C4C6C603A5C18019C51C4D89E7C0
:1056B8002AC6EF10803D32450C455418228636CE56
:1056C800EF204026B250225461618280AA8503A54A
:1056D800C18019CD1C4D89EF011106CE2EC62AC4F2
:1056E800EF10A03A2245B245F2401045056119A0D5
:1056F8001045F5BF011122CC06CE2A8409C91C4DDC
:1057080099E732C62EC4EF1040383246A245975763
:105718000000938727C86315F60250401C46FD1702
:105728001CC663DF0702184E63C7E70093F7F50F3F
:1057380029476397E70222856244F240056125AA5A
:1057480097570000938707C76314F6001044F9B70A
:1057580097570000938707C2E312F6FC50447DBFB9
:105768001C4213F5F50F1387170018C22380B700E2
:10577800F240624405618280011126CA4AC806CEF9
:1057880022CC4EC652C4AA842E8909C51C4D99E361
:10579800EF10A02F9C4C804481E72685EF10E02E67
:1057A80097570000938707BF631CF402C0408357D4
:1057B800C400A18BB1C71C48A1C7FD59294A1C4484
:1057C80083450900FD17B1E91CC463DE070622867C
:1057D800A94526854D20FD576308F502294535A0C2
:1057E80097570000938707BD6314F4008044C1B73E
:1057F80097570000938707B8E31BF4FAC04445BFE6
:10580800A2852685252A55D97D55F2406244D24481
:105818004249B249224A056182801CC4050963D7FE
:105828000700184C63CBE700638945011C401387C8
:10583800170018C02380B70059B722862685252867
:10584800E31F35F7D1B71C401387170018C0294745
:105858002380E70061B7AA8503A5C1806FF0DFF157
:10586800AA8703C7070085076DFF3385A7407D1505
:1058780082806FA0BFB6011122CC26CA4AC806CEC4
:105888004EC6AA842E89328409C51C4D99E3EF10AF
:10589800C01F975700009387E7AF631BF406C0400B
:1058A8001C4C1CC48357C400A18BD9C31C48C9C352
:1058B8001C4808409379F90F1379F90F1D8D5C483E
:1058C8006347F500A2852685EF10400A35E51C449C
:1058D8000505FD171CC41C401387170018C023803A
:1058E80037015C486389A7008357C400858B89CB3F
:1058F800A9476317F900A2852685EF1020070DED4B
:10590800F2406244D244B2494A85424905618280E4
:1059180097570000938707AA6314F400804449B797
:1059280097570000938707A5E31CF4F6C0448DBF82
:10593800A285268521202DDD7D59D9B7411122C4A4
:1059480026C24AC006C683A4C1802A892E8491C46F
:105958009C4C81E72685EF104013975700009387EA
:1059680067A36317F402C0408317C40013970701A5
:1059780093F687004183B5EA9376070195EA2547B0
:105988002320E90093E707042316F4007D5545A07A
:1059980097570000938707A26314F4008044E9B77F
:1059A800975700009387079DE310F4FCC0446DBF30
:1059B800118B15C74C5891C9930744046385F500AA
:1059C8004A85EF107058232A04028357C400232203
:1059D800040093F7B7FD2316F4001C481CC0835736
:1059E800C40093E787002316F4001C4889EF835707
:1059F800C4001307002093F707286386E700A285F1
:105A08004A85EF1000268317C4001397070193F601
:105A1800170041839DC2544823240400B306D04094
:105A280014CC1448014581E61377070821FFB240DA
:105A3800224492440249410182809376270001461C
:105A480091E2504810C4F1BFAA881385819F1C4178
:105A580081EF138781B818C113050000BA8709C5FB
:105A68001C412324F708BA87D8437D487D556346EF
:105A7800E804638D080203A8870863000804131567
:105A88002700429510C10323081005463316E60087
:105A98003363C300232068102320D5088946639701
:105AA800D80083264810558E2322C8109306170065
:105AB8000A07D4C3BA978CC701458280011122CC4A
:105AC8001C49804906CE26CA4AC84EC652C456C288
