:0200000480007A
:100000007370043073504030971100109381819CBD
:1000100017010110130101FF970200009382C261D2
:100020007390523073F05130170500001305450AE4
:10003000970500009385C5096302B50217E6000025
:100040001306061563FCC5008322050023A0550096
:100050001305450093854500E3E8C5FE17E500005C
:1000600013050513970500109385C5F91386C19DE7
:1000700063FCC5008322050023A05500130545003D
:1000800093854500E3E8C5FE1385C19D938581C135
:100090006378B5002320050013054500E36CB5FE29
:1000A000EF0050091765000013058536EF604034F6
:1000B000EF60403BEF0010181305000093050000AF
:0C00C000EF00C000EF00504D6F0000008A
:1000CC00130101FD1305A000232611022324810234
:1000DC002322910223202103232A51012328610189
:1000EC00232E3101232C410123267101232481016C
:1000FC00EF70C03617D5000013058544EF70C05C57
:10010C0017D600001306864697D500009385054741
:10011C0017D5000013050547EF70802D17D500008B
:10012C001305C548EF70405A930700009384C19E95
:10013C00930510001305100023A0F400970A00107B
:10014C0083AA0A10EF00504D13051000EF50505EBB
:10015C00EF60C00F1309050003A50400138405000C
:10016C0017DB0000130B4B45EF60400E1306050028
:10017C0093860500130709009307040013050B0071
:10018C00EF70002703A9040093850A0013041000E4
:10019C0013050900EF50C0406344A014930BB0004A
:1001AC0093092000130450009385090013050400E3
:1001BC00130C000023A08401EF001046130504006B
:1001CC00EF501057EF608008130A050003A50400D8
:1001DC0013890500EF608007130605009386050060
:1001EC0013070A009307090013050B00EF7040205A
:1001FC0003A9040093850A00138A1900130509004A
:10020C00EF50003A9312240093050A00634AA00CA5
:10021C00338482001305040023A08401EF00D03F37
:10022C0013050400EF50D050EF604002130C050092
:10023C0003A5040013890500138A2900EF6000014F
:10024C0013060500938605009307090013070C009D
:10025C0013050B00EF70C01903A9040093850A0065
:10026C0013050900EF50C0331313240093050A0043
:10027C006348A006330483009300000013050400B8
:10028C0023A01400EF00503913050400EF50504A1E
:10029C00EF50D07B130C050003A504001389050057
:1002AC0093893900EF50907A130605009386050068
:1002BC009307090013070C0013050B00EF70401394
:1002CC0003A9040093850A0013050900EF50402D83
:1002DC00931324006346A00033848300E39679EDE6
:1002EC009305000013050900EF50802B6350A0020A
:1002FC001305A0003305A402EF50904393050900A9
:10030C00EF401070EF50D03B1304050063448000A5
:10031C00130410009305040017D500001305852C59
:10032C00EF70000D97D500009385452517D500007B
:10033C001305052DEF70C00B1305A000EF70001214
:10034C0017D500001305052FEF700038930500003A
:10035C00130600001305040023A0C400EF00D02BEB
:10036C0017D5000013050532EF70800883AA04002E
:10037C009305000013850A00EF508022635EA010E5
:10038C0013050400EF50D03A9705001083A545EFF4
:10039C00EF508037930B05009705001083A5C5EA35
:1003AC0013850A00EF5040369305050013850B00AA
:1003BC00EF401065130B0500138A019F13850A008B
:1003CC0023206A01EF509068130C050013050B00F5
:1003DC0013890500EF5090671306050093860500FE
:1003EC0013070C009307090017D500001305C52A45
:1003FC00EF70000017D500001305052BEF60507F40
:10040C0003A50400EF509064930405001705001039
:10041C000325C5DB93890500EF50104293050500B9
:10042C0003250A00EF40D05D9705001083A545E237
:10043C00EF50802DEF509061130605009386050058
:10044C00138704009387090017D500001305C524F2
:10045C00EF60107A9305000003A5819EEF50C00D4C
:10046C00630005048320C10203248102832441021A
:10047C00032901028329C101032A8101832A410135
:10048C00032B0101832BC100032C810013050000F9
:10049C001301010367800000130B00006FF0DFF104
:1004AC0017D5000013058521EF6090746FF09FFB4A
:1004BC009307900023AAF19E1305F0FF67800000BC
:1004CC00730050106FF0DFFF1305F5FF930710005A
:1004DC0063EAA7003723000023A265001305000080
:1004EC00678000009302900023AA519E1305F0FF31
:1004FC0067800000130510006780000013051000D2
:10050C00678000009307600123AAF19E1305F0FF9A
:10051C00678000001305000067800000630605007B
:10052C001305F0FF67800000130101FF3735011040
:10053C00232481002326110013840500EF0080255D
:10054C002300A4008320C1000324810013051000A4
:10055C001301010167800000170700101307C7C6BD
:10056C0083270700938681C13385A700636ED5006E
:10057C0097F200109382422863E8A2002320A70080
:10058C0013850700678000009307F0FF13850700B1
:10059C0067800000130101FE232C8100232631010A
:1005AC00232E1100232A91002328210113840500F6
:1005BC0093090600EF70C013630405063309340178
:1005CC009304A000638E09008345040037350110A5
:1005DC006388950213041400EF008019E31624FFBE
:1005EC00138509008320C101032481018324410167
:1005FC00032901018329C100130101026780000056
:10060C009305D000EF00C016834504003735011068
:10061C0013041400EF00C015E31889FA6FF05FFCA7
:10062C001305F0FF6FF01FFC130101FB23201100D9
:10063C00232241002324510023266100232871002A
:10064C00232AA100232CB100232EC1002320D10288
:10065C002322E1022324F102232C0103232E110374
:10066C002320C1052322D1052324E1052326F105EE
:10067C00F322103423265102F32220342328510272
:10068C00F3220030232A51027325203493050100F4
:10069C00EF00C02A8322C10273901234832201031B
:1006AC007390223483224103739002308320010023
:1006BC0003224100832281000323C1008323010113
:1006CC0003254101832581010326C10183260102F3
:1006DC000327410283278102032881038328C10356
:1006EC00032E0104832E4104032F8104832FC104A4
:1006FC00130101057300203093070500630C0500FE
:10070C000327C50113050000B365B70023AEB7007E
:10071C00678000001305F0FF678000009307050059
:10072C006304050417070010032747AAB355B70243
:10073C0093020008232655001308600C9308300020
:10074C00130500001383F5FF9353830013F6F30F87
:10075C0023A2C7009376F30F23A0D70023A407018D
:10076C0023A61701678000001305F0FF67800000C7
:10077C00630E05008327450193F20702E38C02FE0A
:10078C002320B50013050000678000001305F0FF5F
:10079C0067800000630E05008327450193F2170064
:1007AC00E38C02FE032505001375F50F678000002E
:1007BC001305F00F67800000B7C7000283A687FF00
:1007CC0083A7C7FF130101FF2326110023248100F7
:1007DC002322910037C6000293800600032786FF70
:1007EC008327C6FF93020700732700B0E38850FEEF
:1007FC0037C30002832383FF8326C3FFF32500B096
:10080C00E38A72FE8327C3FF832683FF37C400026B
:10081C0093840600032584FF8327C4FF93050500FA
:10082C00732800B0E388A4FEB7C80002130E30068C
:10083C0083AE88FF83A4C8FF3384BE40732F00B0FF
:10084C00E3788EFEB3040F41B3FF84021306040059
:10085C00930600001395FF0093D51F01EF40401144
:10086C00B3D784028320C100032481008324410078
:10087C00130101011396F7003305A60067800000F1
:10088C00130101FF232481001304050017D5000078
:10089C00130585BA23261100EF601063930504003D
:1008AC0017D50000130585BAEF609034F32510348A
:1008BC0017D50000130585BAEF609033F32530345B
:1008CC0017D50000130585BAEF6090326F00000059
:1008DC00130101FF232481001304050017D5000028
:1008EC001305C5B923261100EF60105E93050400B3
:1008FC0017D50000130585B5EF60902FF325103444
:10090C0017D50000130585B5EF60902EF325303414
:10091C00032481008320C10017D50000130505B501
:10092C00130101016F60D02CB7B7C4049382074048
:10093C0017070010232C578867800000130101FF54
:10094C0023261100931745012324810093D04701DE
:10095C00634205061306A0001307050093860500E5
:10096C0063761602170300001303C3F19385060088
:10097C0013050700E70003008320C1000324810056
:10098C001305000013010101678000009392200001
:10099C009383C1A23384530003230400E31803FCA4
:1009AC008320C10003248100130500001301010101
:1009BC00678000001308B000638E0001939820003C
:1009CC00138E41A0B30E1E0103A30E00E31403FA11
:1009DC006FF09FFA732F40F1B707200C931FCF00D5
:1009EC009380470033871F00032407009306000100
:1009FC00E3E486F813162400138381A5B302C30025
:100A0C0083A3020063840300E7800300732540F195
:100A1C003708200C9315C50093084800338E150138
:100A2C0023208E006FF05FF5130101FF23261100C8
:100A3C0023248100EFF05FD89307050017F4FF0F14
:100A4C001304C478B7050300372501102320F400E4
:100A5C00EFF09FCAB7C5010093850520373501100B
:100A6C00EFF0DFCB17D60000130686A297D5000057
:100A7C009385C5A217D50000130505A3EF60501789
:100A8C0097D500009385C5A417D50000130585A440
:100A9C00EF6010168325040017D500001305C5A4BC
:100AAC00EF601015970200009382C2E2138781A5B4
:100ABC0017060000130606DD9386C1A2138341A01E
:100ACC0023A0C60023A2C60023A4C60023A6C600EA
:100ADC0023A8C60023AAC60023ACC60023AEC600BA
:100AEC0023A0C60223A2C60223A4C60223205700B9
:100AFC00232257002324570023265700232857006E
:100B0C00232A5700232C5700232E5700232057024B
:100B1C002322570223245702232657022328570245
:100B2C00232A5702232C5702232E57022320570423
:100B3C002320530023225300232453002326530045
:100B4C0023285300232A5300232C5300232E530015
:100B5C002320530223225302F32340F13728000CA5
:100B6C0013957300B308050103AE0800B70E000C13
:100B7C00137FEEFF23A0E80123A00E00F32F40F11A
:100B8C0093977F00338407018325040093F2D5FFEC
:100B9C002320540023A20E00732740F11316770074
:100BAC00B306060103A306009373B3FF23A07600DC
:100BBC0023A40E00732540F193187500338E0801A1
:100BCC00032F0E00937F7FFF2320FE0123A60E0030
:100BDC00F32740F113947700B305040183A20500B9
:100BEC0013F7F2FE23A0E50023A80E00732640F1B4
:100BFC0093167600338306018323030013F5F3FD6C
:100C0C002320A30023AA0E00F32840F1139E7800A2
:100C1C00330F0E01832F0F0093F7FFFB2320FF00F0
:100C2C0023AC0E00732440F193157400B3820501BC
:100C3C0003A702001376F7F723A0C20023AE0E0021
:100C4C00F32640F113937600B303030103A50300CD
:100C5C009378F5EF23A0130123A00E02732E40F11D
:100C6C00131F7E00B30F0F0183A70F0013F4F7DFE0
:100C7C0023A08F0023A20E02F32540F1939275005E
:100C8C0033870201032607009376F6BF2320D70093
:100C9C0023A40E02732340F193137300B388030152
:100CAC0003AE080037FFFFFF1305FF7FB37FAE00D5
:100CBC0023A0F80123A60E02F32740F1139477002A
:100CCC00B302040183A502001307FFFF33F6E5000E
:100CDC0023A0C20023A80E02F32640F11393760042
:100CEC00B303030183A8030037EEFFFF130FFEFFCE
:100CFC0033F5E80123A0A30023AA0E02F32F40F141
:100D0C0093977F003384070183220400B7C5FFFF4C
:100D1C001387F5FF33F6E2002320C40023AC0E0248
:100D2C00F32640F113937600B303030183A8030069
:100D3C00378EFFFF130FFEFF33F5E80123A0A3004E
:100D4C0023AE0E02F32F40F193977F0033880701F7
:100D5C0003240800B702FFFF9385F2FF3377B4003A
:100D6C002320E80023A00E04F32E40F1B706200C3C
:100D7C008320C100032481001396CE003303D600D8
:100D8C00232003001301010167800000678000002D
:100D9C006780000067800000B7C7000203A587FFCB
:100DAC0083A5C7FF130101FF23261100EF508036E6
:100DBC0097F5FF0F83A54547EF40101523A2A19E81
:100DCC008320C10083A2419E23A0519E13010101E7
:100DDC0067800000B7C7000203A587FF83A5C7FF84
:100DEC00130101FF23261100EF50C03297F5FF0FBE
:100DFC0083A58543EF40501123A2A19E03A5419EDC
:100E0C0083A5019EEF40D0408320C10023AEA19C5E
:100E1C001301010167800000130101FA232A9104D8
:100E2C0023244105232E1104232C8104232821057E
:100E3C00232631052322510523206105232E71031E
:100E4C00232C8103232A91032328A1032326B103F6
:100E5C009387819E13070000130A0500232AB10013
:100E6C0023A0E700EFF05FF397F2FF0F83A2423C61
:100E7C0097F4FF0F83A4843B634440016F1050111F
:100E8C00938A0200232E510013890400938D0400D1
:100E9C00138D02009309000017F4FF0F032484390B
:100EAC00373B0000930B0BEE93050D0013850D00E3
:100EBC00EF30506F93050900EF30D06E938504002E
:100ECC00EF40103593050400EF40100493850D009E
:100EDC00130D0500EF30106D93050900EF405033F2
:100EEC0093850400EF30106C93050400EF40D001A3
:100EFC0093050500930D050013050D00EF405031CF
:100F0C0093050900EF30106A93850400EF30906967
:100F1C0093050400EF40407F1309050093050D0075
:100F2C0013850D00EF40D02E93050900EF3090672C
:100F3C0093850400EF30106793050400EF40C07CEC
:100F4C00938BFBFF93040500E3900BF693050400D1
:100F5C0013850A00EF40D02B938919001304050068
:100F6C00E39249F5EFF01FE797F5FF0F83A5C52D29
:100F7C0003A5C19DEF40C0281303050013050A000B
:100F8C0023AE619C138C819EEF40907A93030500F5
:100F9C0003250C001386C19D9385040017CB00001C
:100FAC00130BCB72832C0600232C7100EF30905F57
:100FBC00035F0B00835E2B00035E4B0083526B00C0
:100FCC0083588B008356CB000357EB0083570B01E0
:100FDC00938AC19E835BAB00930F050003A50A00A7
:100FEC009389C1A9138801B493850C002320FC01BB
:100FFC00232298012399E901239AD901239BC90142
:10100C00239C5900239D1901239E7901239FD9000C
:10101C002390E9022391F902EF30D0588325410146
:10102C0023A0AA00130510006394A5006F10803351
:10103C00639E050803A581B6EF50402113060500F9
:10104C009386050017C500001305854B9385E1AA0F
:10105C00EF60003A9305000013850C00EF404054FC
:10106C006344A0006F10C06C0325810197F5FF0F3E
:10107C0083A5C51DEF404069930A050097F5FF0F46
:10108C0083A5051D13850C00EF4000689305050032
:10109C0013850A00EF40C016EF50401B130C0500DF
:1010AC0013840500938001B403A54000EF50001A8F
:1010BC00130705009387050013060C009306040024
:1010CC0017C500001305C544EF608032EFF0DFCC8C
:1010DC00635E403F930B000017F4FF0F032484154D
:1010EC0097F9FF0F83A9091797FCFF0F83AC4C14DA
:1010FC00930A805793050D0013850D00EF30904A2D
:10110C0093050900EF30104A93850400EF4050100E
:10111C0093050400EF40405F130D050093050D008F
:10112C0013850D00EF30104893050900EF40500E69
:10113C0093850400EF30104793050400EF40C05C2A
:10114C00930D05009305050013050D00EF40500CA1
:10115C0093050900EF30104593850400EF3090445F
:10116C0093050400EF40405A1309050093050D0048
:10117C0013850D00EF40D00993050900EF30904224
:10118C0093850400EF30104293850900EF40C0575F
:10119C009304050093050D0013850D00EF3090406E
:1011AC0093050900EF30104093850400EF40500682
:1011BC0093050400EF404055130C05009305050002
:1011CC0013850D00EF30103E93050900EF405004DD
:1011DC0093850400EF30103D93050400EF40C0529E
:1011EC00130D05009305050013050C00EF4050028C
:1011FC0093050900EF30103B93850400EF30903AD3
:10120C0093050400EF4040501309050093050C00B2
:10121C0013050D00EF40C07F93050900EF309038A7
:10122C0093850400EF30103893850900EF40C04DD2
:10123C009304050093050D0013050C00EF30903658
:10124C0093050900EF30103693850400EF40407C85
:10125C0093050400EF40404B93050D00930D0500E2
:10126C00EF30503493050900EF40807A93850400E9
:10127C00EF30503393050400EF400049130C050088
:10128C009305050013850D00EF4080789305090048
:10129C00EF30503193850400EF30D03093050400CB
:1012AC00EF4080461309050093850D0013050C00D3
:1012BC00EF40007693050900EF30D02E93850400A3
:1012CC00EF30502E93850900EF4000449304050045
:1012DC0093850D0013050C00EF30D02C93050900FD
:1012EC00EF30502C93850400EF408072930504007E
:1012FC00EF40804193050C00930D0500EF30902AD0
:10130C0093050900EF40C07093850400EF309029DD
:10131C0093050400EF40403F130D050093050500B5
:10132C0013850D00EF40C06E93050900EF30902738
:10133C0093850400EF30102793050400EF40C03C68
:10134C001309050093850D0013050D00EF40406C4B
:10135C0093050900EF30102593850400EF3090249D
:10136C0093850900EF40403A9304050093050D0066
:10137C0013850D00EF30102393050900EF309022F8
:10138C0093850400EF40C06893050400EF40C0371C
:10139C00130C05009305050013050D00EF3090208C
:1013AC0093050900EF40C06693850400EF30901F51
:1013BC0093050400EF404035930D0500930505009F
:1013CC0013050C00EF40C06493050900EF30901D2D
:1013DC0093850400EF30101D93050400EF40C032DC
:1013EC001309050093050C0013850D00EF404062B6
:1013FC0093050900EF30101B93850400EF30901A11
:10140C0093850900EF4040309304050093850D004F
:10141C0013050C00EF30101993050900EF309018EC
:10142C0093850400EF40C05E93050400EF40C02D8F
:10143C00130D05009305050013850D00EF30901674
:10144C0093050900EF40C05C93850400EF309015C4
:10145C0093050400EF40402B93050500930D050008
:10146C0013050D00EF40C05A93050900EF3090139F
:10147C0093850400EF30101393050400EF40C0284F
:10148C001309050093050D0013850D00EF4040581E
:10149C0093050900EF30101193850400EF30901084
:1014AC0093850900EF404026938AFAFF93040500C8
:1014BC00E3920AC49305040013850C00EF404055D9
:1014CC00938B1B0013040500E3147AC3EFF09F9079
:1014DC00938C819E03A50C001383C19D93850400FE
:1014EC00032C0300EF30100C832F4B0103268B01D0
:1014FC00032FCB01832E0B02035E4B029389C19EFB
:10150C009303050003A509009388C1A9938201B434
:10151C0093050C0023A07C0023A4820123A2F803D2
:10152C0023A4C80223A6E80323A8D803239AC8033C
:10153C00EF3050078327410123A0A9009306100028
:10154C006394D7006F009061639E070803A5C1B632
:10155C00EF40D04F130605009386050017C5000019
:10156C00130505FA938501ACEF50906893050000C4
:10157C0013050C00EF40C0026344A0006F10001C68
:10158C000325810197F5FF0F83A505CDEF40C0170B
:10159C001309050097F5FF0F83A585CB13050C00E8
:1015AC00EF4080169305050013050900EF305045F8
:1015BC00EF40D049130D0500938D0500138801B43D
:1015CC0003258800EF40904813070500938705001A
:1015DC0013060D0093860D0017C50000130545F387
:1015EC00EF501061EFF04FFB938A819EEFF08FFE6E
:1015FC0003A50A0097F5FF0F83A585C39384C19DAE
:10160C00EF30407A83AB04008353AB020353CB021D
:10161C00835FEB0203562B03835E4B03035E6B036A
:10162C0083528B03138CC19E835C8B0283590B03F7
:10163C001304050003250C009388C1A9138F01B472
:10164C0093850B0023A08A0023267F01239B9803FC
:10165C00239C7802239D6802239EF803239F380362
:10166C002390C8042391D8052392C80523935804CA
:10167C00EF304073832541012320AC00130510008B
:10168C006394A5006F00D04C639E050803A501B7B9
:10169C00EF40D03B130605009386050017C50000EC
:1016AC00130505E6938521ADEF509054930500008A
:1016BC0013850B00EF30D06E6344A0006F10000B4D
:1016CC000325810197F5FF0F83A545B9EF40C003B2
:1016DC001309050097F5FF0F83A585B713850B003C
:1016EC00EF4080029305050013050900EF305031DF
:1016FC00EF40D035130D0500938D0500938001B498
:10170C0003A5C000EF409034130705009387050034
:10171C0013060D0093860D0017C500001305C5E0D8
:10172C00EF50104D130D0000EFF00FE7930A0D0072
:10173C0063584013930D000097F9FF0F83A949AF2D
:10174C0017F9FF0F0329C9AF97F4FF0F83A404AF58
:10175C0017F4FF0F0324C4B0B7570000938B8720F6
:10176C0013050D0093850900EF30C0639305090044
:10177C00EF30406393850400EF30C062130C05001A
:10178C009305040013850A00EF30C061930A05002D
:10179C009385090013050C00EF30C0609305090018
:1017AC00EF30406093850400EF30C05F930C050070
:1017BC009305040013850A00EF30C05E130D05007D
:1017CC009385090013850C00EF30C05D930509006B
:1017DC00EF30405D93850400EF30C05C130C0500C6
:1017EC009305040013050D00EF30C05B930A050050
:1017FC009385090013050C00EF30C05A93050900BE
:10180C00EF30405A93850400EF30C059930C05001B
:10181C009305040013850A00EF30C058130C050023
:10182C009385090013850C00EF30C0579305090010
:10183C00EF30405793850400EF30C056130D050070
:10184C009305040013050C00EF30C055938BBBFFC0
:10185C00930A0500E3960BF0938D1D00E31EBAEF7F
:10186C00EFF04FD793850A0013050D00EF3080532E
:10187C0097F5FF0F83A5059FEF3090188325810105
:10188C001389819E9389C19EEF3090171304050034
:10189C000325090093050400EF30C0501388C19D47
:1018AC00832408000323CB03832F0B0403264B0450
:1018BC00832E8B04035ECB049303050003A5090060
:1018CC00138FC1A9938201B493850400232079005E
:1018DC0023A8920023246F042326FF052328CF047A
:1018EC00232ADF05231CCF05EF30C04B23A0A90012
:1018FC000325410193081000E3001529631E050818
:10190C0003A541B7EF40901413060500938605001C
:10191C0017C500001305C5BE938541AEEF50502D81
:10192C009305000013850400EF3090476344A0003A
:10193C006F0050620325810197F5FF0F83A5C592B7
:10194C00EF30905C130D050097F5FF0F83A54590C4
:10195C0013850400EF30505B9305050013050D0053
:10196C00EF30100AEF40900E930C0500138C05001D
:10197C00938501B403A50501EF40500D1307050035
:10198C009387050013860C0093060C0017C5000006
:10199C00130585B9EF50D025EFF00FC0E354401F6D
:1019AC008329C10197FAFF0F83AA0A892324010016
:1019BC00138C090017F9FF0F0329C987938B0900B2
:1019CC0093050C0013050900EF3010549304050027
:1019DC0093850A0013050900EF301053130405001A
:1019EC0037150000930CE5C713850400EF10803009
:1019FC00930D050013850400EF104024938504001B
:101A0C00130D050013050400EF30C039EF1000234F
:101A1C0093050400930A050013850400EF30507FF2
:101A2C00EF10C021130C050093850D0013850D00DC
:101A3C00EF30403793050D00EF30104D9304050047
:101A4C0093050C0013850A00EF30C03593850B000D
:101A5C00EF30107C9305050013850400EF30407ABD
:101A6C00EF00506C130D050013050400EF108028D7
:101A7C00930A050013050400EF10401C93050D009C
:101A8C00930D050013050900EF3010489305040071
:101A9C0093040500EF300031EF10401A9305040059
:101AAC00130D050013850400EF309076EF1000192C
:101ABC00130C050093850A0013850A00EF30802E65
:101ACC0093850D00EF3050441304050093050C0072
:101ADC0013050D00EF30002D93850900EF30507386
:101AEC009305050013050400EF308071EF0090633F
:101AFC009305050013050900EF301041938CFCFF92
:101B0C0013040500E3920CEE97EAFF0F938A4A72D6
:101B1C0003A50A0093050900EF30906F832581001F
:101B2C0013090500138815002324010163040A130B
:101B3C0013850400EF10001C130605001385040028
:101B4C002328C100EF10800F93850400130D0500AE
:101B5C00130504002326A101EF30C024EF10000E62
:101B6C0093050400130C050013850400EF30506A34
:101B7C00EF10C00C83250101930D050013850500A2
:101B8C00EF3040228325C100EF30103893850D00D3
:101B9C009304050013050C00EF30C02083A50A0048
:101BAC00EF3010679305050013850400EF30406596
:101BBC00EF00505793050500130C050013050900A1
:101BCC00EF309034130D050013050400EF10801254
:101BDC00930805001305040023281101EF100006DB
:101BEC001308050093050D001305040023260101BD
:101BFC00EF30401BEF10800493050400930C05009C
:101C0C0013050D00EF30D060EF1040038325010168
:101C1C00930D050013850500EF30C0188325C10016
:101C2C00EF30902E1304050093850D0013850C00E6
:101C3C00EF30401783A50A00EF30905D9305050047
:101C4C0013050400EF30C05BEF00D04D930A050084
:101C5C006FF01FD7EFF00F98938B819E03A50B00AD
:101C6C001383C19D9305040083240300EF3080137C
:101C7C00835ECB08035EEB0883520B0983582B0958
:101C8C0083534B0903566B0983568B090357AB09D6
:101C9C008357CB099389C19E930F050003A50900B7
:101CAC00938DC1A9138F01B49385040023A0FB016C
:101CBC00232A9F00239DDD05239ECD05239F5D04D4
:101CCC0023901D0723917D062392CD062393DD06D9
:101CDC002394ED062395FD06EF30C00C032D410136
:101CEC0023A0A900130510006302AD6883204101F5
:101CFC00639C0010938D41B603A54D01EF40005538
:101D0C00130605009386050017B500001305457FE3
:101D1C00938561AFEF50C06D9305000013850400EF
:101D2C00EF301008E35AA0240325810197E5FF0F3B
:101D3C0083A5C553EF30501D930C050097E5FF0F9D
:101D4C0083A5055113850400EF30101C9305050085
:101D5C0013850C00EF30C04AEF40404F130D0500C7
:101D6C00138C0500938501B403A54501EF40004E8B
:101D7C00130705009387050013060D0093060C004E
:101D8C0017B500001305457AEF508066EFF0CF8051
:101D9C0063404009EFF00F841384819E03250400F7
:101DAC00138EC19D97E5FF0F83A58548832A0E00EE
:101DBC00EF20507F83230B0503264B0583268B05D1
:101DCC000327CB0583570B061389C19E930205008D
:101DDC0003250900138FC1A9938801B493850A00C8
:101DEC002320540023AC580123267F062328CF063A
:101DFC00232ADF06232CEF06231EFF06EF20907A02
:101E0C002320A9006F005009EFE01FF9E352402B8B
:101E1C00032CC10193090000B76A010013090C00DF
:101E2C0017EDFF0F032D0D4197E4FF0F83A44444DE
:101E3C0017E4FF0F03240442938CCAF293050C00A1
:101E4C0013050900EF20107693050D00EF30D00B31
:101E5C0093050C00930D0500EF20D07493850400BE
:101E6C00EF30900A930B05009305050013850D00C8
:101E7C00EF20507393050400EF301009130C05008C
:101E8C009305050013850B00EF20D07193050D0011
:101E9C00EF30900793050C0013090500EF209070AC
:101EAC0093850400EF305006930B05009305050055
:101EBC0013050900EF20106F93050400EF30D004D8
:101ECC00930D05009305050013850B00EF20906D15
:101EDC0093050D00EF30500393850D00130C050096
:101EEC00EF20506C93850400EF30100213090500AD
:101EFC009305050013050C00EF20D06A9305040030
:101F0C00EF30900093050500930B050013050900B5
:101F1C00EF20506993050D00EF30007F93850B0087
:101F2C00930D0500EF20106893850400EF30C07D01
:101F3C00930505001309050013850D00EF2090662D
:101F4C0093050400EF30407C938CCCFF130C050000
:101F5C00E3960CEE93891900E3103AEFEFE09FE75C
:101F6C00138D819E03250D001388C19D93050C00D4
:101F7C00832A0800EF201063832F0B05832E4B055B
:101F8C00032E8B058322CB0583530B069384C19EB2
:101F9C001303050003A504009386C1A9138601B49D
:101FAC0093850A0023206D00232C560123A6F607E7
:101FBC0023A8D60723AAC60723AC5606239E76066B
:101FCC00EF20505E8325410123A0A40013051000CF
:101FDC00638CA56A83204101638E006AEFE0DFDB2E
:101FEC00635A404D17E4FF0F0324442517EFFF0FEE
:101FFC00032F0F25130C0000B7F300001389D3092E
:10200C006F00000113040F00130979FF130F060072
:10201C009300F9FF13060400E39600FE130C1C005A
:10202C00E31E8AFDEFE01FDB938B819E03A50B0063
:10203C001387C19D9305040083240700EF2090565D
:10204C0083580B0803582B0883564B0803536B0813
:10205C0083578B081389C19E835D8B07835CAB0709
:10206C00035DCB078359EB07130F0500032509000C
:10207C00938EC1A9938F01B49385040023A0EB0127
:10208C0023AE9F00239FBE0723909E092391AE0988
:10209C0023923E0923931E0923940E092395DE08EF
:1020AC0023966E082397FE08EF20D04F2320A9001B
:1020BC0003254101930510006302B55C630C0548D0
:1020CC00EFE09FCD97EAFF0F83AACA17930B00008E
:1020DC00372C000017E4FF0F0324841993044C459C
:1020EC0013850A00EF00105693050400EF304011E1
:1020FC00EF00504BEF001060EF00D054930504003C
:10210C00EF300010EF00104AEF00D05EEF0090535C
:10211C0093050400EF30C00EEF00D048EF00905D47
:10212C00EF00505293050400EF30800DEF00904704
:10213C00EF00505CEF00105193050400EF30400CA1
:10214C00EF005046EF00105BEF00D04F93050400FA
:10215C00EF30000BEF001045EF00D059EF00904E20
:10216C0093050400EF30C009EF00D043EF00905806
:10217C00EF00504D93050400EF308008EF009042C3
:10218C00EF005057EF00104C93050400EF30400760
:10219C00EF005041EF001056EF00D04A93050400B9
:1021AC00EF300006EF001040EF00D054938464FF32
:1021BC00930A0500E39604F2938B1B00E3C04BF3E8
:1021CC00EFE05FC1938D819E03A50D001388C19D27
:1021DC0093850A00832C0800EF20D03C832F4B06FC
:1021EC00832E8B068326CB0603270B0783574B07BF
:1021FC00138AC19E1303050003250A009382C1A90B
:10220C00138E01B493850C0023A06D0023209E0334
:10221C0023A8F20923AAD20923ACD20823AEE208E0
:10222C002390F20AEF2010382320AA000325410145
:10223C0093051000630CB50C631E050C032581017E
:10224C0097E5FF0F83A58503938A41B6EF30C04B0A
:10225C009304050003A50A02EF30507F1306050016
:10226C009386050017B50000130585299385C1B227
:10227C00EF5000189305000013850C00EF3040322E
:10228C006350A04E97E5FF0F83A585FC13850C00CA
:10229C00EF3080479305050013850400EF2050763E
:1022AC00EF30D07A930A0500938C0500938001B42B
:1022BC0003A50002EF309079032481058320C1052A
:1022CC0083244105032901058329C104032A8104C0
:1022DC00032B0104832BC103032C8103032D010366
:1022EC00832DC10213860A0093860C00832A4104B5
:1022FC00832C4103130705009387050017B50000D5
:10230C0013058522130101066F50800E938C41B684
:10231C0023A05C038320C10503248105832441058C
:10232C00032901058329C104032A8104832A41045A
:10233C00032B0104832BC103032C8103832C410346
:10234C00032D0103832DC1021301010667800000D8
:10235C008326C10123A8D1B66FF0CFBC23A691B6BA
:10236C006FF04FA823A491B66FE05FD623AC81B673
:10237C00EFE09FA26FF0DFA923AA81B6EFE0DFA107
:10238C00634040E3EFE01FA5938B819E03A50B00F8
:10239C009386C19D97E5FF0F83A5C5EB83A406002B
:1023AC00EF20502083530B0903584B0903536B093F
:1023BC00835F8B090356AB098357CB091384C19EEA
:1023CC00835DCB080359EB0883592B09930A05004D
:1023DC0003250400138EC1A9938E01B493850400C8
:1023EC0023A05B0123AA9E00231DBE05231E2E05E0
:1023FC00231F7E0423103E0723110E0723126E06A3
:10240C002313FE072314CE062315FE06EF20901986
:10241C00032F41012320A40093021000E3185F8CCA
:10242C0097E0FF0F83A000E3938C41B623AA1C0016
:10243C00138C819EEFE05F96EFE0DF9903250C0093
:10244C0097E5FF0F83A5C5DE9384C19DEF20901502
:10245C0003AD040083268B050327CB05938AC19E0D
:10246C00832B0B05832D4B0503540B06930805009A
:10247C0003A50A009383C1A9138901B423201C016D
:10248C0093050D00232CA90123A6730723A8B307DA
:10249C0023AAD30623ACE306239E8306EF209010D9
:1024AC00032CC10123A0AA0023AC8C01EFE0DF8E2A
:1024BC00E34A40B3EFE01F92938B819E03A50B0080
:1024CC009387C19D97E5FF0F83A545D783A407008C
:1024DC00EF20500D8358EB0703582B0803534B0880
:1024EC00835F6B08835E8B081389C19E835D8B07AA
:1024FC00835CAB078359CB07035D0B08130F0500F7
:10250C00032509009382C1A9138E01B4938504009D
:10251C0023A0EB01232E9E00239FB2072390920948
:10252C0023913209239212092393A20923940209BD
:10253C00239562082396F2092397D209EF2090067F
:10254C00032641012320A900930310006308762C75
:10255C00631A0624938A41B603A5CA01EF30104FC3
:10256C00130605009386050017B50000130545F901
:10257C009385A1B1EF40D06793050000138504004B
:10258C00EF3000026352A01C0325810197E5FF0F79
:10259C0083A585CEEF304017930B050097E5FF0F11
:1025AC0083A505CB13850400EF30001693050500B9
:1025BC0013850B00EF20D044EF305049130C05006D
:1025CC0013840500138E01B40325CE01EF3010489F
:1025DC00130705009387050013060C0093060400EF
:1025EC0017B50000130545F4EF409060EFE0CFFA0B
:1025FC00E34A40ADEFE00FFE0325810197E5FF0FA5
:10260C0083A5C5C7938D819EEF3000109304050000
:10261C0003A50D0097E5FF0F83A5C5C2138AC19DC5
:10262C00EF20407883234B0603268B06032FCB0623
:10263C00832C0A00032D0B071389C19E035B4B07E8
:10264C0093020500032509009388C1A9938901B45D
:10265C0093850C0023A05D0023A0990323A8780880
:10266C0023AAC80823ACE80923AEA8092390680B59
:10267C00EF2040732320A9006FF0DFBD23A081B8A9
:10268C00EFE08FF16FF01FA4938C41B623AC8C015B
:10269C006FF0DFE1938D41B603A58D01EF30103B58
:1026AC00130605009386050017B50000130545E5D4
:1026BC00938581B0EF40D0539305000013850A0039
:1026CC00EF20106E6350A00C0325810197E5FF0FDE
:1026DC0083A545BAEF304003130C050097E5FF0FB7
:1026EC0083A505B713850A00EF300002930505009A
:1026FC0013050C00EF20D030EF305035930A050055
:10270C0013840500138701B403258701EF301034BF
:10271C00130705009387050013860A00930604002F
:10272C0017B500001305C5DEEF40904C6FF01F8B02
:10273C00130C0000130400006FE0DF96130D000073
:10274C00930D00006FE09FE7130C000013040000D2
:10275C006FF05FE7930C0000130C00006FF04FA1BB
:10276C00930A0000930C00006FF05FB4130D00008F
:10277C00930D00006FE09FF8130D0000130C000088
:10278C006FF04FDE930A0000130400006FF09FF708
:10279C00232E510013890400938D0400138D020025
:1027AC006FE04FFCEFE04FDF138A819EEFE08FE28A
:1027BC0003250A0097E5FF0F83A5C5A89384C19D47
:1027CC00EF20405E032F8B068326CB0683AA0400E2
:1027DC00032C4B06832D0B07938BC19E035B4B077E
:1027EC001304050003A50B001389C1A9938701B439
:1027FC0093850A0023208A0023A0570323288909E4
:10280C00232AE909232CD908232EB9092310690B93
:10281C00EF20405923A0AB006FF0DFAF17E5FF0F9F
:10282C000325C5A1938C41B623AEAC00138D819EBC
:10283C00EFE08FD6EFE00FDA03250D0097E5FF0FE1
:10284C0083A545A09389C19DEF20C05503AA09001B
:10285C0003284B0603238B06832FCB06832E0B07F3
:10286C00035E4B079384C19E9308050003A50400E7
:10287C009383C1A9938201B493050A0023201D01FF
:10288C0023A0420323A8030923AA630823ACF3095A
:10289C0023AED3092390C30BEF20C05097EAFF0F50
:1028AC0083AA4A9A23A0A40023A05C036FF09FA6DE
:1028BC00EFE04FD2138C819E03250C0097E5FF0FA0
:1028CC0083A50597938CC19DEF20C04D83AA0C0066
:1028DC0003280B0503238B05835F0B061389C19E0D
:1028EC00832B4B058324CB0513040500032509001A
:1028FC009389C1A9938E01B493850A0023208C007F
:10290C0023AC5E0123A6090723A8790723AA69062D
:10291C0023AC9906239EF907EF20C0482320A90079
:10292C006FF04FEB130101FE232A91009314150055
:10293C00232C810023244101232E11002328210163
:10294C002326310193D41400B707805013040500DB
:10295C00130A050063C6F404B707807F63DA970097
:10296C0093050500EF200044130405006F000001DF
:10297C006340A02C17E4FF0F032404918320C101B2
:10298C00130504000324810183244101032901015F
:10299C008329C100032A8100130101026780000012
:1029AC00B707E03E63D8F402B707003163D0F402F6
:1029BC0097E5FF0F83A5858DEF20C03E97E5FF0FB0
:1029CC0083A50587EF20D03DE34AA0FA1309F0FF59
:1029DC006F008005EF004031B707983F13040500E6
:1029EC0063DEF418B707303F63DEF414930505007B
:1029FC00EF20403B97E5FF0F83A58583EF30400127
:102A0C009304050097E5FF0F83A585831305040048
:102A1C00EF2040399305050013850400EF20407E1C
:102A2C0013040500130900009305040013050400AA
:102A3C00EF20904D9305050093090500EF20D04C35
:102A4C0097E5FF0F83A5058593040500EF20D04B78
:102A5C0097E5FF0F83A54584EF20C03493850400D0
:102A6C00EF20904A97E5FF0F83A54583EF20803335
:102A7C0093850400EF20504997E5FF0F83A545820D
:102A8C00EF20403293850400EF20104897E5FF0FAC
:102A9C0083A54581EF20003193850400EF20D046BB
:102AAC0097E5FF0F83A54580EF20C02F9385090084
:102ABC00EF20904597D5FF0F83A5457F930905001F
:102ACC0013850400EF20504497D5FF0F83A5457E56
:102ADC00EF20107493850400EF20104397D5FF0F5F
:102AEC0083A5457DEF20D07293850400EF20D04163
:102AFC0097D5FF0F83A5457CEF209071938504003B
:102B0C00EF20904097D5FF0F83A5457BEF205070A9
:102B1C0093850400EF20503F9305050013850900B1
:102B2C00EF20402893050400EF20103E9307F0FFA0
:102B3C00930505006318F90A13050400EF20506D86
:102B4C006FF09FE297D5FF0F83A5856EEF20506C39
:102B5C009304050097D5FF0F83A5856D130504001D
:102B6C00EF2040249305050013850400EF204069F5
:102B7C0013040500130910006FF01FEBB7071C407E
:102B8C0063D4F40497D5FF0F83A58570EF205068AC
:102B9C009304050097D5FF0F83A5856F13050400DB
:102BAC00EF20903697D5FF0F83A58568EF20801F07
:102BBC009305050013850400EF20806413040500C1
:102BCC00130920006FF05FE69305050017D5FF0F82
:102BDC000325C565EF20C0621304050013093000FE
:102BEC006FF09FE497B70000938747B9131929003A
:102BFC0097B40000938484B7B384240133892701EC
:102C0C0083250900EF20D06093050400EF2050606D
:102C1C009305050003A50400EF20905F1304050045
:102C2C00E35E0AD4B707008033C4A7006FF01FD54A
:102C3C0017D4FF0F032404656FF05FD4130101FE5A
:102C4C00232C8100370400809347F4FF3717493F4A
:102C5C00232E1100B3F7A700130787FD634CF70071
:102C6C00032481018320C10193050000130101029B
:102C7C006F0090723707807F63CEE70093050500E5
:102C8C00EF2010598320C10103248101130101029B
:102C9C006780000093058100EF00101793773500D3
:102CAC00130710008325C10003258100638CE70006
:102CBC00130720006380E70263920702EF00D06DD8
:102CCC006FF05FFC13061000EF10500F3345A4009B
:102CDC006FF05FFBEF00506C6FF05FFF130610009E
:102CEC00EF10D00D6FF01FFA1315150013551500CA
:102CFC0067800000130101FE232C81003704008043
:102D0C009347F4FF3717493F232E1100B3F7A70061
:102D1C00130787FD634EF700032481018320C10153
:102D2C001306000093050000130101026F10100937
:102D3C003707807F63CEE70093050500EF20504DE9
:102D4C008320C1010324810113010102678000006B
:102D5C0093058100EF00500B93773500130710009B
:102D6C008325C10003258100638EE7001307200033
:102D7C00638EE7006394070213061000EF10100433
:102D8C006FF01FFCEF0050616FF09FFB13061000FB
:102D9C00EF10D0023345A4006FF09FFAEF00D05F24
:102DAC006FF05FFF130101FF2324810023229100A8
:102DBC002326110093040500EF00C01B17D7FF0F4B
:102DCC00032707419307F0FF13040500630CF70278
:102DDC0013850400EF1010176306050297D5FF0F3B
:102DEC0083A5454E13850400EF20807B6358A00219
:102DFC00EF308060930720022320F50017D4FF0FDB
:102E0C000324044C8320C100130504000324810017
:102E1C0083244100130101016780000097D5FF0F47
:102E2C0083A5854A13850400EF20D002E35C05FCE2
:102E3C00EF30805C930720022320F5001304000080
:102E4C006FF05FFC130101FF23248100232291000A
:102E5C002326110013040500EF00004017D7FF0FC5
:102E6C00032707379307F0FF930405006304F70467
:102E7C009305040013050400EF304000631C0502A9
:102E8C009305000013050400EF2080716344A00239
:102E9C009305000013050400EF20006A6318050277
:102EAC00EF308055930720022320F50097D4FF0FB5
:102EBC0083A4C4418320C100032481001385040032
:102ECC00832441001301010167800000EF30C052E0
:102EDC00032481008320C100832441009307100246
:102EEC002320F50017A500001305455E1301010111
:102EFC006F10D014130101FF2324810023229100B1
:102F0C002326110093040500EF00103717D7FF0F8D
:102F1C000327072C9307F0FF130405006300F70445
:102F2C009385040013850400EF2050756318050287
:102F3C009305000013850400EF20C0716350050257
:102F4C00EF30804B93071002930500002320F5000F
:102F5C0013850500EF20C02A130405008320C1004F
:102F6C001305040003248100832441001301010193
:102F7C0067800000130101FE93171500232C8100BC
:102F8C00232E1100232A910023282101232631010D
:102F9C00232441012322510193D717003707807F47
:102FAC0013040500930505006364F7221359F5011A
:102FBC006398E702631E09288320C10113050400EE
:102FCC000324810183244101032901018329C100C8
:102FDC00032A8100832A410013010102678000004B
:102FEC003777B14213077721635CA70097D5FF0FA2
:102FFC0083A5C52913850500EF2000716F00801D86
:10300C006358050037F7CF421307571B6362F72449
:10301C003777B13E130787216370F7183717853F51
:10302C0013071759931429006366F7109387819C33
:10303C00B387970083A5070013050400EF20501DEC
:10304C009387019DB387970003AA07009304100090
:10305C00B384244193090500B384244193050A00E9
:10306C0013850900EF20D01A130405009305040002
:10307C0013050400EF20406997D5FF0F83A50526A3
:10308C0013090500EF20406897D5FF0F83A5452550
:10309C00EF20101893050900EF20006797D5FF0F5C
:1030AC0083A54524EF10105093050900EF20C0654F
:1030BC0097D5FF0F83A54523EF20901593050900A5
:1030CC00EF20806497D5FF0F83A54522EF10904D1C
:1030DC0093050900EF2040639305050013050400D8
:1030EC00EF201013930505001309050013050400C8
:1030FC00EF208061930A05006396040E97D5FF0FAD
:10310C0083A5051413050900EF2090109305050005
:10311C0013850A00EF20C00E93050400EF20500F1A
:10312C009305050017D5FF0F03258510EF20500ED2
:10313C006F00400A97D5FF0F83A58519130504006E
:10314C00EF20805C9387019CB387970083A50700D1
:10315C00EF105045EF20D05693040500EF20505D42
:10316C0097D5FF0F83A5051713090500EF20C0594C
:10317C009305050013050400EF2090099309050041
:10318C0097D5FF0F83A5451513050900EF20C057F0
:10319C00130A05006FF09FEC3707803163F0E704EA
:1031AC0097D5FF0F83A5850E13050400EF10903FF4
:1031BC0097D5FF0F83A5C507EF20803E6350A00273
:1031CC0097D7FF0F9387C70683A507001305040045
:1031DC00EF10503D130405006FF01FDE9304000048
:1031EC006FF0DFE89305090017D5FF0F03254505A0
:1031FC00EF2010029305050013850A00EF20400014
:10320C009305050013050A00EF2090009385090033
:10321C00EF2010009305050017D5FF0F032545017E
:10322C00EF20007F930730F863C8F4009394740187
:10323C003384A4006FF05FD8938444069394740194
:10324C0097D5FF0F83A5C50A3385A4006FF0DFDA8D
:10325C00130400006FF05FD6130101FD2326110249
:10326C00232481022322910223202103232E3101C6
:10327C00232C4101232A51012328610123267101AA
:10328C0013171500631007049305000017D5FF0FE3
:10329C0003254506EF10D0768320C102032481025A
:1032AC0083244102032901028329C101032A8101DC
:1032BC00832A4101032B0101832BC100130101035C
:1032CC00678000009305050093070500635805000F
:1032DC00EF200074930500006FF0DFFB3707807F51
:1032EC006346E500EF10102C6FF01FFBB706800053
:1032FC0013070000635CD50097D5FF0F83A5C5FFAE
:10330C00EF20804093070500130770FEB70980007B
:10331C009384F9FFB3F4970013D97741B7074B00A7
:10332C00938707B2B387F400B3F737013705803FB3
:10333C0033C5A700130919F83307E90097D5FF0F18
:10334C0083A505EF13D97741336595003309E9005F
:10335C00EF20006C9387F400938909FFB3F93701D0
:10336C00130405006396090C93050000EF20C01CA4
:10337C006312050413050000E30009F213050900AC
:10338C00EF20103B97D5FF0F83A5C5F493040500E0
:10339C00EF2080371304050097D5FF0F83A5C5F3E5
:1033AC0013850400EF204036930505001305040037
:1033BC006FF05FF397D5FF0F83A505EF130504009E
:1033CC00EF2080349305050017D5FF0F032585E802
:1033DC00EF2000649304050093050400130504001A
:1033EC00EF2080329305050013850400EF20C031D7
:1033FC009304050063160900938504006F004017C1
:10340C0013050900EF20D03297D5FF0F83A585EC6B
:10341C0093090500EF20402F1309050097D5FF0FE6
:10342C0083A585EB13850900EF20002E6F00C017D4
:10343C0097D5FF0F83A5C5E0EF10D01693050500B7
:10344C0013050400EF10D05B930A05001305090067
:10345C00EF20102E93850A00130A050013850A002D
:10346C00EF20802AB767CFFF938707C3930505002A
:10347C00338BF400930B0500EF20002997D5FF0F39
:10348C0083A5C5E793090500EF20002897D5FF0F0A
:10349C0083A505E7EF10101193850900EF20C026D6
:1034AC0097D5FF0F83A505E6EF10D00F9385090084
:1034BC00EF20802597D5FF0F83A505E5EF10900E23
:1034CC0093850B00EF204024930B050097D5FF0F3D
:1034DC0083A5C5E313850900EF20002397D5FF0FC3
:1034EC0083A505E3EF10100C93850900EF20C02194
:1034FC0097D5FF0F83A505E2EF10D00A938509003D
:10350C00EF2080209305050013850B00EF10900928
:10351C00B7C7350093878728B3879740B3E7670110
:10352C00930905006352F00A97D5FF0F83A585D246
:10353C0013050400EF20401D93050400EF20C01C70
:10354C00930505009304050013850900EF10900501
:10355C0093850A00EF20401B9309050063100902B4
:10356C009305050013850400EF20804A93050500A0
:10357C0013050400EF20C0496FF01FD297D5FF0F41
:10358C0083A545D513050A00EF20001897D5FF0F2A
:10359C0083A585D41309050013050A00EF20C01676
:1035AC0093850900EF1010009305050013850400A6
:1035BC00EF20004693050400EF208045930505009D
:1035CC00130509006FF01FFB93050500130504009C
:1035DC00EF20004493850A00EF20001393040500AC
:1035EC00E30C09E097D5FF0F83A5C5CE13050A00A0
:1035FC00EF2080111309050097D5FF0F83A5C5CDCA
:10360C0013050A006FF05FE2130101FC232A9102FB
:10361C003717493F93141500232C8102232E1102D6
:10362C00232821032326310323244103232251037E
:10363C0023206103232E710193D41400130787FDFB
:10364C0013840500634C97002320A400930700000B
:10365C0023A2F500930B00006F00800637D71640AD
:10366C00130737BE130905006340971493F404FF46
:10367C0097D5FF0F83A545CA6358A00AEF204039A0
:10368C00B717C93F938707FD130905006382F4063A
:10369C0097D5FF0F83A585C8EF20803793050500CC
:1036AC002320A40013050900EF20803697D5FF0FC7
:1036BC0083A5C5C6EF20C0352322A400930B1000B0
:1036CC008320C103032481038324410303290103C1
:1036DC008329C102032A8102832A4102032B01029E
:1036EC0013850B00832BC1011301010467800000BB
:1036FC0097D5FF0F83A5C5C2EF20803197D5FF0F5B
:10370C0083A545C293040500EF2080309305050086
:10371C002320A40013850400EF20802F97D5FF0FE2
:10372C0083A545C06FF01FF9EF10C067B717C93FED
:10373C00938707FD13090500638CF40297D5FF0FDF
:10374C0083A5C5BDEF100066930505002320A400DA
:10375C0013050900EF20C02B97D5FF0F83A505BCDF
:10376C00EF1040642322A400930BF0FF6FF05FF581
:10377C0097D5FF0F83A5C5BAEF10C06297D5FF0F81
:10378C0083A545BA93040500EF10C06193050500AD
:10379C002320A40013850400EF20802797D5FF0F6A
:1037AC0083A545B86FF0DFFB37174943130707F8BC
:1037BC006340971EEFF04FD397D5FF0F83A5C5B687
:1037CC00130A0500EF10507497D5FF0F83A585A839
:1037DC00EF10405DEF20C06E930B0500EF2040759D
:1037EC0097D5FF0F83A545B393090500EF10D07152
:1037FC009305050013050A00EF208021930A0500AC
:10380C0097D5FF0F83A585B113850900EF10D06FF5
:10381C009307F001130A05009305050013850A00B0
:10382C0063C677031387FBFF9316270017A70000C7
:10383C001307C7F53307D7000327070093F704F0E6
:10384C006386E700EF20C01C6F000002EF20401CD5
:10385C009357750193D4744193F7F70FB387F440E2
:10386C00130780006346F7002320A4006F00400874
:10387C0097D5FF0F83A5C5AA13850900EF10D06853
:10388C00130A05009305050013850A00EF20401864
:10389C0093050500130B050013850A00EF20401754
:1038AC0093050A00EF20C016130A050097D5FF0FE9
:1038BC0083A545A713850900EF10106593050A0031
:1038CC00EF20001593050500130A050013050B00E6
:1038DC00EF200014135775011377F70FB384E440EE
:1038EC0013079001634497042320A400930A0B0050
:1038FC008324040013850A0093850400EF204011F3
:10390C0093050A00EF20C0102322A400E35A09DA21
:10391C00B7070080B3C4970023209400B3C7A70057
:10392C002322F400B30B70416FF09FD997D5FF0F92
:10393C0083A5C59F13850900EF10105D9304050046
:10394C009305050013050B00EF20800C9305050073
:10395C00930A050013050B00EF20800B93850400E0
:10396C00EF20000B9304050097D5FF0F83A5459C12
:10397C0013850900EF10505993850400EF2040097E
:10398C00130A05009305050013850A006FF09FEBE1
:10399C003707807F63CCE40093050500EF204007D8
:1039AC002322A4002320A4006FF0DFCA13DA744191
:1039BC00130AAAF793177A01B384F4401385040011
:1039CC00EF200050EF20C056930505002322A100E4
:1039DC0013850400EF20C00397D5FF0F83A58595B1
:1039EC00EF10905293090500EF20804DEF204054CA
:1039FC00930505002324A1009304050013850900F9
:103A0C00EF20000197D5FF0F83A5C592EF10D04F83
:103A1C00930500002326A100EF101032930630000E
:103A2C00631C05009305000013850400EF10D030D3
:103A3C00B336A0009386160097A70000938707DD86
:103A4C001307200013060A00930504001305410018
:103A5C00EF00402E930B0500E35409C60327040026
:103A6C0083274400B70600803347D7002320E400A7
:103A7C00B3C7D7006FF0DFEA130101FF131715006E
:103A8C00232481002326110013571700B707807FCA
:103A9C00130405006368F70293050500EF10D04688
:103AAC009305050013050400EF10C02F1304050047
:103ABC008320C100130504000324810013010101BC
:103ACC0067800000E30607FE13070500635C050032
:103ADC0093050500EF10D07393050500EF104072AD
:103AEC006FF0DFFCB3F7A700935675416380070AAC
:103AFC00138416F8B70680009387F6FFB377F700A8
:103B0C0013771400B3E7D7006304070093971700EB
:103B1C00135414409397170093069001130500005B
:103B2C0093050000370700013386E50063C8C70022
:103B3C00B305E600B387C7403305E5009386F6FF6F
:103B4C009397170013571700E39006FE6386070040
:103B5C00130515001375E5FF13551540B707003F06
:103B6C003305F500131474013304A4006FF05FF4F3
:103B7C0013171700938717003376B700E30A06FE76
:103B8C009387F7FFB386F6406FF09FF6930700001C
:103B9C00B70580006FF05FFE130101FD2324810245
:103BAC001314150023202103232C41012326110279
:103BBC0023229102232E310113541400B707003233
:103BCC0013090500138A05006356F400EF20402FFB
:103BDC00630C05149305090013050900EF10D0328E
:103BEC0097C5FF0F83A5056793040500EF10D0312F
:103BFC0097C5FF0F83A585749309050013850400F1
:103C0C00EF10903097C5FF0F83A58573EF108019C7
:103C1C0093850400EF10502F97C5FF0F83A5857275
:103C2C00EF10105F93850400EF10102E97C5FF0F57
:103C3C0083A58571EF10001793850400EF10D02C2D
:103C4C0097C5FF0F83A58570EF10905C93850400DA
:103C5C00EF10902B97C5FF0F83A5856FEF10801485
:103C6C0093850400EF10502A93850400EF10D0299F
:103C7C009304050093050A0013050900EF10D028E2
:103C8C009305050013850400EF109058B7A7993ED3
:103C9C00938797999304050063C0870493050500E7
:103CAC0013850900EF10D0569305050017C5FF0FBB
:103CBC0003250558EF10D0558320C102032481023F
:103CCC0083244102032901028329C101032A8101B2
:103CDC001301010367800000B707483F63C08704E6
:103CEC00B70500FFB305B40017C5FF0F03254554F6
:103CFC002326B100EF10D0518325C1001304050019
:103D0C0013850900EF10D05093850400EF1050502C
:103D1C0093050500130504006FF0DFF997C5FF0F3D
:103D2C0083A585616FF05FFC17C5FF0F0325455018
:103D3C006FF09FF8130101E6232251192326F1009D
:103D4C00930A070097A70000938787E013172700B3
:103D5C00B387E70023263119232E7117232C8117E3
:103D6C00232A91172328A1172326B117232E1118C4
:103D7C00232C8118232A9118232821192324411933
:103D8C00232061192324A1001307C0FF83AB070074
:103D9C0093890500130C0600938C0600938DF6FF97
:103DAC00130D00006348E6001307D6FF930780004D
:103DBC00334DF70293071D0093973700330ABD412B
:103DCC002322F100B304FC40338BBB011309010720
:103DDC0013040A00330744416356EB02138B0C00A7
:103DEC0013070111B3069B4163CADB0813192B009F
:103DFC00930701073309F90013040000130A0000AC
:103E0C006F00400613050000634C04008327C100BB
:103E1C00131724003387E70003250700EF20401118
:103E2C002320A90013041400130949006FF09FFA12
:103E3C008327810093162A0083250900B386D700B7
:103E4C0003A506002328E100130A1A00EF10D00B7B
:103E5C009305050013050400EF00D074032701013E
:103E6C00130405001309C9FFE3D44DFD232087007B
:103E7C00130B1B00130747006FF0DFF613972B0093
:103E8C0093070102B387E700232CF10093172D0051
:103E9C00232AF10013890B00931729002328F10022
:103EAC001317290093070116B387E70003A407FB38
:103EBC00130B0102130D0B00130A09006348401B7E
:103ECC009385040013050400EF00101897C7FF0F2B
:103EDC009387874883A5070013040500EF10D002D1
:103EEC00EF00900797C7FF0F9387474783A50700FD
:103EFC00EF1090019305050013050400EF105031ED
:103F0C0013040500EF10D07B130A0500EF204002CC
:103F1C009305050013050400EF10902F130D0500F9
:103F2C00635E901A1307F9FF131727009307011606
:103F3C003387E700032407EC13068000B305964093
:103F4C003356B440330ACA003316B6003304C440A7
:103F5C00232087EC13077000330797403354E44059
:103F6C0063508008130A1A00930500001306000022
:103F7C001305F00F1308001063C2251B635A900041
:103F8C00130710006388E41C130720006384E41EED
:103F9C00130720006316E40497C7FF0F9387472984
:103FAC0003A5070093050D00232EC100EF1050262A
:103FBC000326C101130D05006304060297C7FF0F0A
:103FCC009387072703A5070093850400EF00D0070C
:103FDC009305050013050D00EF109023130D05003C
:103FEC009305000013050D00EF100055631605280E
:103FFC00130BF9FF93070B001307000063DA771913
:10400C006300072293172B0013070102B307F70075
:10401C0083A70700938484FF638C07249385040093
:10402C0017C5FF0F0325C520EF00100293040500F0
:10403C0013090B0017CCFF0F032CCC316356092E40
:10404C0013090B0063460936931C290093070111D1
:10405C0097AD0000938D0DADB38CFC00130C0000DC
:10406C00130D0000B3042B416F00803297C7FF0F74
:10407C009387472E83A5070013050400130AFAFF44
:10408C00EF108068EF10D063EF10906A97C7FF0FA6
:10409C009387472A83A50700232EA100130D4D00FB
:1040AC00EF1080669305050013050400EF10501601
:1040BC00EF1010619307011113162A000327C10199
:1040CC003386C70083250600232EADFE130507009B
:1040DC00EF00504D130405006FF05FDE6390040297
:1040EC001307F9FF13172700930701163387E7000F
:1040FC00032407EC135484406FF09FE697C7FF0F1F
:10410C009387471583A5070013040000EF1040495F
:10411C00E34805EC130420006FF0DFE403270B00E9
:10412C0063120602630807003307E8402320EB0004
:10413C001307100093851500130B4B001306070093
:10414C006FF09FE33307E5402320EB0013070600D5
:10415C006FF05FFE1307F9FF131727009307011683
:10416C003387E700832607EC93F6F6072320D7EC7A
:10417C006FF01FE21307F9FF1317270093070116BF
:10418C003387E700832607EC93F6F6036FF01FFEE8
:10419C009396270013060102B306D60083A60600E9
:1041AC009387F7FF3367D7006FF05FE593871700AE
:1041BC008326C7FF1307C7FFE38A06FE330A99015C
:1041CC00131A2A0013070107130D1900330A4701AC
:1041DC003309F900E342A9CD832741010327C1002C
:1041EC0013142D00B3878700B307F70003A507004E
:1041FC00130B0000EF10D0532320AA0013070A0062
:10420C009307000063D4FD029307011133848700E8
:10421C0023206401130D1D00130A4A006FF09FFB4D
:10422C0003278101930710006FF09FF893962700E6
:10423C00232EF10083278100832507002328E1002A
:10424C00B386D70003A50600EF10004C93050500BC
:10425C0013050B00EF0010358327C1010327010163
:10426C00130B0500938717001307C7FF6FF09FF917
:10427C00130BFBFF6FF01FD98327410013050D00B3
:10428C00B3858741EF00405C17CDFF0F032D8D0ADE
:10429C0093050D00130C0500EF10803063460506E6
:1042AC0097C5FF0F83A5050B13050C00EF10C04538
:1042BC00EF101041EF10D0470327010193070116AF
:1042CC0093050D00338BE700930C0500EF10C043F2
:1042DC009305050013050C00EF108073EF10503E92
:1042EC002320ABEC130B19009307011613192B00A9
:1042FC0013850C0033892701EF10903C93848400C4
:10430C002320A9EC6FF09FD103270101930701161D
:10431C0013050C00338BE700EF10903A2320ABEC25
:10432C00130B09006FF09FCF93172900130701118E
:10433C00B30CF70013070102B307F70003A507003E
:10434C001309F9FFEF10D03E93850400EF10C03B2A
:10435C0023A0AC0093050C0013850400EF10C03AA9
:10436C00930405006FF09FCD83A50C0003A50D00F1
:10437C00130D1D00938D4D00EF10003993050500B2
:10438C0013050C00EF001022130C0500938C4C004D
:10439C0063C4AB01E3DAA4FD9394240093070116E4
:1043AC00B384970023A084F71309F9FF6FF09FC91A
:1043BC009307200063C85705634C50131305000086
:1043CC00638C0A0A8320C11903248119832441199F
:1043DC00032901198329C118832A4118032B0118B9
:1043EC00832BC117032C8117832C4117032D011725
:1043FC00832DC11613757A00032A81181301011A33
:10440C006780000093073000E39EFAFA93142B00A8
:10441C009307010CB384970013890400930B0B00D2
:10442C001309C9FF6344700F930A0B00930C10001F
:10443C009384C4FF63CA5C1113050000930410003D
:10444C0063C264158326010C0327410C631A041400
:10445C0023A0D90023A2E90023A4A9006FF09FF6A2
:10446C0093172B001307010CB307F70083A5070064
:10447C00130BFBFFEF001013E3540BFE6306040059
:10448C00B707008033C5A70023A0A9006FF09FF3E6
:10449C00939724001307010CB307F70083A50700BB
:1044AC009384F4FFEF001010E3D404FE930705008F
:1044BC0063060400B7070080B3C7A7009305050087
:1044CC000325010C23A0F9009304010CEF104054B8
:1044DC00130910009384440063522B0363060400F9
:1044EC00B707008033C5A70023A2A9006FF09FED8A
:1044FC0093040B00130500006FF01FFB83A5040051
:10450C0013091900EF00100A6FF0DFFC832C09006F
:10451C00032C4900938BFBFF13850C0093050C00B7
:10452C00EF00500893050500930A050013850C0055
:10453C00EF10004E93050C00EF00D0062322A900CB
:10454C00232059016FF0DFED03AC040083AB440072
:10455C00938AFAFF13050C0093850B00EF0090046F
:10456C00930505001309050013050C00EF10404AD4
:10457C0093850B00EF00100323A2A40023A02401B9
:10458C006FF01FEB93172B001307010CB307F70009
:10459C0083A50700130BFBFFEF00D0006FF05FEA61
:1045AC00B7070080B3C6D70033C7E70023A0D900F4
:1045BC0023A2E90033C5A7006FF01FEA130101FE27
:1045CC0093171500232C810023263101232251013E
:1045DC00232E1100232A9100232821012324410199
:1045EC0093D7170037070032130405009389050091
:1045FC00930A060063D6E700EF10900C630A050AD5
:10460C009305040013050400EF100010930405003B
:10461C009305050013050400EF10000F97C5FF0F5D
:10462C0083A505D41309050013850400EF10C00DF4
:10463C0097C5FF0F83A505D3EF10803D938504002C
:10464C00EF10800C97C5FF0F83A505D2EF00807586
:10465C0093850400EF10400B97C5FF0F83A505D180
:10466C00EF10003B93850400EF10000A97C5FF0F75
:10467C0083A505D0EF000073130A0500639E0A049E
:10468C009305050013850400EF10000897C5FF0F74
:10469C0083A5C5C5EF10C03793050900EF10C00600
:1046AC009305050013050400EF00C06F130405000B
:1046BC008320C101130504000324810183244101DB
:1046CC00032901018329C100032A8100832A4100A7
:1046DC00130101026780000097C5FF0F83A585B702
:1046EC0013850900EF104002930A050093050A0098
:1046FC0013050900EF1040019305050013850A000E
:10470C00EF10003193850400EF1000009385090031
:10471C00EF1000309304050097C5FF0F83A505BD6E
:10472C0013050900EF00507E930505001385040066
:10473C00EF0040679305050013050400EF10402DB2
:10474C006FF0DFF613151500B707807F13551500B2
:10475C003325F50067800000130101FE232A910028
:10476C00931415002328210113D9140093D4840128
:10477C00232E1100232C810023263101938414F85D
:10478C00930760019305050063CE9706130405009B
:10479C0063D8040297C5FF0F83A545AFEF00806077
:1047AC0093050000EF00D05F6358A0006354040829
:1047BC0063040900370480BF930504006F00800573
:1047CC00B70980001389F9FF33599940B377A900D1
:1047DC006382070497C5FF0F83A545ABEF00805C90
:1047EC0093050000EF00D05BE358A0FC6356040077
:1047FC00B3D49940330494001349F9FF33748900FE
:10480C006FF09FFBB707807F6366F900EF0080595C
:10481C00930505008320C1010324810183244101F8
:10482C00032901018329C10013850500130101022D
:10483C0067800000130400006FF01FF817C5FF0F0E
:10484C00032545B367800000131615009307050078
:10485C00630E0610130101FF1357160023261100D7
:10486C00232481003706807F636AC7009305050007
:10487C00EF004053930705006F008008B376C50026
:10488C0013840500639E060497C5FF0F83A5C5A678
:10489C00EF0090673747FFFF130707CB930705001F
:1048AC00634EE408135775411377F70F130777FE20
:1048BC00330787009306E00F63D8E60217C5FF0F96
:1048CC000325C59C63D6070017C5FF0F032505AB51
:1048DC0097C5FF0F83A5859BEF0010636FF09FF9C1
:1048EC00135777016FF0DFFC6356E002B707808047
:1048FC009387F7FFB377F50013157701B3E7A7009C
:10490C008320C100032481001385070013010101DA
:10491C00678000009306A0FE6358D70237C70000DB
:10492C0013070735E34C87F817C5FF0F0325C5A4FC
:10493C0063D6070017C5FF0F032585A497C5FF0F86
:10494C0083A585A36FF05FF9B707808013079701E4
:10495C009387F7FF131777013375F50097C5FF0F92
:10496C0083A545A23365A7006FF01FF76780000091
:10497C0093080500938705001308060013850600AD
:10498C001383080063940628979600009386862468
:10499C0063F6C50E370701006378E60C1307F00FBA
:1049AC003337C700131737003355E600B386A6001C
:1049BC0083C60600130500023387E600B306E54004
:1049CC00630CE500B395D70033D7E8003318D60055
:1049DC00B365B7003393D80093580801B3D61503C9
:1049EC0013160801135606019357030133F71503E9
:1049FC0013850600B305D60213170701B367F7003A
:104A0C0063FEB700B38707011385F6FF63E8070160
:104A1C0063F6B7001385E6FFB3870701B387B7408A
:104A2C0033F717031313030113530301B3D71703FE
:104A3C001317070133636700B306F60213860700EA
:104A4C00637CD300330368001386F7FF63660301AE
:104A5C006374D3001386E7FF131505013365C50096
:104A6C00930500006F00400E37050001130700018D
:104A7C00E36CA6F2130780016FF01FF363160600B8
:104A8C00130710003358C702370701006370E80C96
:104A9C001307F00F63740701130580003357A80048
:104AAC00B386E60003C70600130600023307A7000F
:104ABC00B306E6406316E60AB38707419305100078
:104ACC0093580801131608011356060113570301D6
:104ADC00B3F61703B3D717039396060133E7E60033
:104AEC00330EF60213850700637EC70133070701F7
:104AFC001385F7FF636807016376C7011385E7FF2A
:104B0C00330707013307C741B377170313130301A7
:104B1C0013530301335717039397070133E36700CC
:104B2C00B306E60213060700637CD3003303680068
:104B3C001306F7FF636603016374D3001306E7FFE4
:104B4C00131505013365C5006780000037070001A8
:104B5C0013050001E364E8F4130580016FF01FF402
:104B6C003318D80033D5E7003393D800B397D70068
:104B7C0033D7E800935808013366F70033771503F1
:104B8C009317080193D70701935506013355150365
:104B9C00131707013367B700B386A7029305050007
:104BAC00637ED700330707019305F5FF63680701A0
:104BBC006376D7009305E5FF33070701B306D740AB
:104BCC0033F716031316060113560601B3D6160354
:104BDC00131707013385D702B367C7001387060085
:104BEC0063FEA700B38707011387F6FF63E807018D
:104BFC0063F6A7001387E6FFB387070193950501BA
:104C0C00B387A740B3E5E5006FF09FEB63E6D518DB
:104C1C003707010063F4E6041307F00FB335D70030
:104C2C009395350033D5B60017970000130787FA14
:104C3C003307A70003470700130500023307B7002B
:104C4C00B305E5406316E50213051000E3EEF6EE3E
:104C5C0033B5C800134515006FF01FEF370700017F
:104C6C0093050001E3E0E6FC930580016FF09FFBE8
:104C7C003358E600B396B6003368D80033D3E70058
:104C8C00935E0801B376D303B397B70033D7E8002C
:104C9C00331EB6003366F7009317080193D707014C
:104CAC00135706013353D3039396060133E7E600FB
:104CBC00338F670213050300637EE7013307070197
:104CCC001305F3FF636807016376E7011305E3FF40
:104CDC00330707013307E741B376D7033357D703BD
:104CEC00939606013383E7029317060193D70701C6
:104CFC00B3E7F6001306070063FE6700B3870701EE
:104D0C001306F7FF63E8070163F667001306E7FF76
:104D1C00B387070113150501B70E01003365C500F4
:104D2C009386FEFF13560E0113580501B387674097
:104D3C003373D500B376DE00330ED302B306D8023C
:104D4C0013570E013303C3023303D3003307670039
:104D5C003308C8026374D7003308D801935607018F
:104D6C003388060163E60703E39C07CFB70701000E
:104D7C009387F7FF3377F70013170701337EFE0095
:104D8C00B398B8003307C70193050000E3FEE8DAD7
:104D9C001305F5FF6FF0DFCC930500001305000041
:104DAC006FF09FDA37078000130101FF1307F7FF3D
:104DBC00B377A7002324810023229100135475019B
:104DCC009354F50113D575013377B7001374F40FB1
:104DDC001375F50F232611002320210193D5F5011E
:104DEC009397370013173700B306A440639AB4188F
:104DFC006350D00A63160502630007181386F6FF8A
:104E0C0063180600B387E700130410006F00000559
:104E1C009305F00F6390B6021304F00F6F0080112E
:104E2C001306F00F6308C410370600043367C7007D
:104E3C00138606009305B0019306100063CEC500DF
:104E4C0093060002B386C640B355C7003317D7008C
:104E5C003337E000B3E6E500B387D700370700042B
:104E6C0033F7E7006308070C130414001307F00F63
:104E7C006302E4303707007E93F617001307F7FF41
:104E8C0093D71700B3F7E700B3E7D7006F00800A9A
:104E9C0063860606B3068540631004026382072C02
:104EAC001386F6FFE30006F69305F00F6390B60247
:104EBC00930707006FF05FF61306F00FE30AC5FEC9
:104ECC0037060004B3E7C700138606009305B0014C
:104EDC009306100063CEC50093060002B386C6404D
:104EEC00B3D5C700B397D700B337F000B3E6F500DE
:104EFC00B387E600130405006FF05FF69306140009
:104F0C0013F6E60F6312060663140404638E07247B
:104F1C0063020702B387E7003707000433F7E700A3
:104F2C00630A0700370700FC1307F7FFB3F7E70026
:104F3C001304100013F777006300072413F7F7002E
:104F4C0093064000630AD722938747006F00C02264
:104F5C00E38007F6E30207EC93040000B7070002B6
:104F6C001304F00F6F0040211306F00F6382C6206C
:104F7C00B387E70093D71700138406006FF09FFBED
:104F8C006350D00863120506E30807FE1386F6FF8C
:104F9C0063180600B387E740130410006F0040034A
:104FAC009305F00FE38AB6E69305B0019306100063
:104FBC0063CEC50093060002B386C640B355C70046
:104FCC003317D7003337E000B3E6E500B387D7409B
:104FDC003709000433F72701E30E07F41309F9FF2F
:104FEC0033F927016F0080111306F00FE304C4F4AA
:104FFC00370600043367C700138606006FF0DFFA2C
:10500C0063800608B3068540631804026380071E9C
:10501C001386F6FF63180600B307F7409384050068
:10502C006FF09FF71308F00F6392060393070700C6
:10503C001304F00F6F00C0061306F00FE308C5FE53
:10504C0037060004B3E7C700138606001308B00147
:10505C0093061000634EC80093060002B386C64048
:10506C0033D8C700B397D700B337F000B366F80056
:10507C00B307D74013040500938405006FF05FF568
:10508C009306140093F6E60F639E06046312040461
:10509C00639C0700930400006300070E930707004E
:1050AC00938405006FF01FE9E30607E8B386E74039
:1050BC003706000433F6C600B307F740E31206FECA
:1050CC009307000063800608938706006FF09FE645
:1050DC00E39207E8E30207E89307070093840500CF
:1050EC006FF09FD33389E740B7060004B376D9003D
:1050FC00638406043309F740938405001305090003
:10510C00EF1080291305B5FF3319A90063408504FE
:10511C00330585401305150013040002B357A9008D
:10512C003305A4403319A90033392001B3E7270113
:10513C00130400006FF01FE0E31209FC930700005A
:10514C0013040000930400006F000003B70700FC79
:10515C009387F7FF3304A440B377F9006FF09FDD1A
:10516C00930707006FF05FE1930707006FF09FDC78
:10517C001304F00F930700003707000433F7E70020
:10518C00630E0700130414001307F00F6306E40604
:10519C00370700FC1307F7FFB3F7E7001307F00F0F
:1051AC0093D737006318E40063860700B707400005
:1051BC00930400003705807F1314740193979700B4
:1051CC003374A40093D797008320C100B367F40015
:1051DC00032481001395F401032901008324410069
:1051EC0033E5A70013010101678000009307070056
:1051FC00138406006FF0DFEA930700006FF01FFACC
:10520C00130101FE232A91009354750123282101D7
:10521C00232631012324410193199500232E1100DB
:10522C00232C81002322510193F4F40F138A0500DF
:10523C0093D999001359F501638604089307F00F6D
:10524C006382F40A93993900B7070004B3E9F900B3
:10525C00938414F8930A000013557A0113149A00DE
:10526C001375F50F13549400135AFA01630C0508C7
:10527C009307F00F6308F50A13143400B707000402
:10528C003364F400130515F89307000093962A0075
:10529C00B3E6F6009386F6FF1307E00033464901A8
:1052AC003385A4406360D70A979500009385058BDE
:1052BC0093962600B386B60003A706003307B70003
:1052CC0067000700638A090213850900EF10C00C00
:1052DC009307B5FF9304A0F8B399F900B384A440E5
:1052EC006FF05FF79304F00F930A2000E38609F642
:1052FC00930A30006FF05FF693040000930A1000DD
:10530C006FF09FF5630A040213050400EF10C00848
:10531C009307B5FF3314F4009307A0F83385A74027
:10532C006FF09FF61305F00F93072000E30004F6CF
:10533C00930730006FF09FF51305000093071000E2
:10534C006FF0DFF41318540063F489121305F5FFA2
:10535C00930600001354080133D38902B7070100E8
:10536C009387F7FFB377F80093D6060133F78902DA
:10537C0093050300B38867021317070133E7E600B0
:10538C00637E1701330707019305F3FF6368070179
:10539C00637617019305E3FF3307070133071741C2
:1053AC00B358870233778702B38617039317070125
:1053BC001387080063FED700B38707011387F8FF34
:1053CC0063E8070163F6D7001387E8FFB38707018B
:1053DC0013940501B387D7403364E400B337F0006E
:1053EC003364F4001307F507635EE00C93777400E5
:1053FC00638A07009377F400930640006384D70018
:10540C0013044400B7070008B377F400638A07005D
:10541C00B70700F89387F7FF3374F40013070508F8
:10542C009307E00F1354340063CCE706931777010E
:10543C00131494003707807FB3F7E70013549400DC
:10544C0033E487001315F6018320C1013365A400F2
:10545C000324810183244101032901018329C10013
:10546C00032A8100832A4100130101026780000096
:10547C009396F90193D919006FF0DFED130609002B
:10548C001384090093870A00130730006388E70828
:10549C0013071000638CE70813072000E394E7F46C
:1054AC00130400001307F00F6FF05FF813060A00E7
:1054BC006FF09FFD37044000130600009307300087
:1054CC006FF09FFC93071000B387E7401307B00100
:1054DC00634EF7041305E509B357F4003314A40025
:1054EC003334800033E4870093777400638A0700B9
:1054FC009377F400130740006384E700130444001F
:10550C00B7070004B377F400135434006382070226
:10551C0013040000130710006FF05FF13704400014
:10552C001307F00F130600006FF05FF01304000078
:10553C00130700006FF09FEF93567501B7078000BB
:10554C009387F7FF13D6750193F6F60F9308F00FB8
:10555C0033F8A7001357F501B3F7B7001376F60F1E
:10556C0093D5F50113051000639A16016316080014
:10557C006314D600638A070067800000E30E16FFF1
:10558C00E39CC6FEE31AF8FE13050000E306B7FE23
:10559C0013051000E39206FE33350001678000000E
:1055AC0093567501B70780009387F7FF13D77501E2
:1055BC0093F6F60F1308F00F33F6A7001377F70FD7
:1055CC00B3F7B7001355F50193D5F50163980601B0
:1055DC00630A06061305E0FF6780000063140701E9
:1055EC00E39A07FE639206066314070063880704B8
:1055FC00630C06006314B5006350D702630C0502FC
:10560C001305F0FF678000001305F0FF638A0500A7
:10561C00138505006780000063D6E600E30205FEF3
:10562C0067800000E3ECC7FCE36AF6FE130500009C
:10563C00678000001305100067800000E30806FE79
:10564C006FF0DFFBE30ED7F8E31607FAE38807FAEF
:10565C006FF05FFA93567501B70780009387F7FFD9
:10566C0013D7750193F6F60F1308F00F33F6A70056
:10567C001377F70FB3F7B7001355F50193D5F50171
:10568C0063980601630A0606130520006780000074
:10569C0063140701E39A07FE63920606631407007E
:1056AC0063880704630C06006314B5006350D702CB
:1056BC00630C05021305F0FF678000001305F0FF73
:1056CC00638A0500138505006780000063D6E60039
:1056DC00E30205FE67800000E3ECC7FCE36AF6FE1C
:1056EC0013050000678000001305100067800000A0
:1056FC00E30806FE6FF0DFFBE30ED7F8E31607FABC
:10570C00E38807FA6FF05FFA130101FE23282101E9
:10571C0013597501232A91002326310123244101B9
:10572C0093149500232E1100232C81002322510168
:10573C001379F90F138A050093D494009359F5014A
:10574C00630809089307F00F6304F90A9394340073
:10575C00B7070004B3E4F400130919F8930A000026
:10576C0013557A0113149A001375F50F1354940002
:10577C00135AFA01630E05089307F00F630AF50A32
:10578C0013143400B70700043364F400130515F840
:10579C009307000013972A003367F7003305A9001D
:1057AC001307F7FF9305E000B3C649011306150074
:1057BC0063E0E50A978500009385053E13172700E3
:1057CC003307B700032707003307B700670007004C
:1057DC00638A040213850400EF00103C9307B5FFA5
:1057EC001309A0F8B394F4003309A9406FF01FF724
:1057FC001309F00F930A2000E38404F6930A300097
:10580C006FF01FF613090000930A10006FF05FF59C
:10581C00630A040213050400EF0010389307B5FF68
:10582C003314F4009307A0F83385A7406FF05FF6AC
:10583C001305F00F93072000E30E04F493073000D8
:10584C006FF05FF513050000930710006FF09FF4E5
:10585C00B70701001383F7FF13D704019355040115
:10586C00B3F4640033746400B30894023308870201
:10587C003304B702B385950293D40801B3850501AF
:10588C00B384B40063F404013304F400B3F764008C
:10589C0093970701B3F86800B38717011397670054
:1058AC0093D404013337E00093D7A70133848400E9
:1058BC00B367F700131464003364F400B7070008EF
:1058CC00B377F400638E0708935714001374140015
:1058DC0033E487001307F6076358E00893777400E6
:1058EC00638A07009377F400930540006384B70044
:1058FC0013044400B7070008B377F400638A070069
:10590C00B70700F89387F7FF3374F4001307060802
:10591C009307E00F1354340063DAE70A1304000012
:10592C001307F00F6F00800A93860900138404009C
:10593C0093870A0013072000E382E7FE1307300069
:10594C006380E70813071000E396E7F813040000E0
:10595C00130700006F00800793060A006FF09FFD8D
:10596C00130605006FF01FF793071000B387E7408D
:10597C001307B001E34CF7FC1306E609B357F40028
:10598C003314C4003334800033E4870093777400FD
:10599C00638A07009377F400130740006384E700E1
:1059AC0013044400B7070004B377F4001354340015
:1059BC00E38007FA13040000130710006F000001C6
:1059CC00370440001307F00F93060000931777017C
:1059DC00131494003707807FB3F7E7001354940037
:1059EC0033E487001395F6018320C1013365A400CD
:1059FC000324810183244101032901018329C1006E
:105A0C00032A8100832A41001301010267800000F0
:105A1C0037078000130101FF1307F7FF13D6750139
:105A2C00B377A700232481003377B700232291009A
:105A3C001354750123261100232021011376F60F30
:105A4C009306F00F1374F40F9354F50193973700EA
:105A5C0093D5F501131737006314D60063140700B0
:105A6C0093C51500B306C440639A95186350D00AC9
:105A7C0063160602630007181386F6FF6318060008
:105A8C00B387E700130410006F0000059305F00FB7
:105A9C006390B6021304F00F6F0080111306F00F21
:105AAC006308C410370600043367C700138606006A
:105ABC009305B0019306100063CEC5009306000257
:105ACC00B386C640B355C7003317D7003337E00051
